:020000040800F2
:10400000D06D002025420008C557000891510008D6
:10401000C15700086F4A0008D9600008000000007E
:1040200000000000000000000000000065410008E2
:10403000D94C000800000000C1410008755E00086E
:104040003F4200083F4200083F4200083F4200084C
:104050003F4200083F4200083F4200082D4E000842
:104060003F4200083F4200083F4200083F4200082C
:104070003F4200083F4200083F4200083F4200081C
:10408000654C0008854C00083F4200083F4200088C
:104090003F4200083F4200083F4200086D4E0008C2
:1040A0003F4200081D5F00083F4200083F420008F1
:1040B0007D5F00083F420008955F00083F4200080E
:1040C0003F4200083F4200083F4200083F420008CC
:1040D0003F4200083F420008FD5F00083F420008E1
:1040E0003F4200083F4200083F4200083F420008AC
:1040F0003F4200083F4200083F4200080000000025
:104100003F420008000000003F4200083F42000814
:104110003F4200083F4200083F4200083F4200087B
:104120003F4200083F4200083F4200083F4200086B
:104130003F4200083F4200083F4200083F4200085B
:104140003F4200083F4200083F4200083F4200084B
:10415000DFF80CD000F04EFC004800474595000801
:10416000D06D00202C4B19680868B0E8F04F80F340
:104170000988BFF36F8F4FF0000080F311887047FC
:104180000000000008480068006880F308884FF0CD
:10419000000080F3148862B661B6BFF34F8FBFF39F
:1041A0006F8F00DF00BF00BF08ED00E0DFF80C00FC
:1041B000016841F470010160704700BF88ED00E0C4
:1041C000EFF30980BFF36F8F134B1A681EF0100FC7
:1041D00008BF20ED108A20E9F04F106009B44FF0BD
:1041E000500080F31188BFF34F8FBFF36F8F07F03C
:1041F0008BFB4FF0000080F3118809BC1968086838
:10420000B0E8F04F1EF0100F08BFB0EC108A80F33A
:104210000988BFF36F8F704744000020EFF30580DB
:10422000704700000648804706480047FEE7FEE763
:10423000FEE7FEE7FEE7FEE7FEE7FEE7FEE7FEE756
:10424000AD5E000851410008002800D170470029E8
:1042500000D17047002A00D170472DE9F81F00F007
:10426000030301F00304A34211D1C3F1040303F0DB
:104270000303012B1DD3012A00D2F2E011F8014BF8
:1042800000F8014BA3F10103A2F10102F1E700F0F4
:10429000010301F00104A34200D094E0012B44D3B8
:1042A00011F8014B00F8014BA3F10103A2F1010247
:1042B000F4E7B2F5B47F26D3B1E8F81FA0E8F81F01
:1042C000B1E8F81FA0E8F81FB1E8F81FA0E8F81F50
:1042D000B1E8F81FA0E8F81FB1E8F81FA0E8F81F40
:1042E000B1E8F81FA0E8F81FB1E8F81FA0E8F81F30
:1042F000B1E8F81FA0E8F81FB1E8F81FA0E8F81F20
:10430000A2F5B472D5E7282A06D3B1E8F81FA0E8D1
:10431000F81FA2F12802F6E7042A06D351F8043B5D
:1043200040F8043BA2F10402F6E7202A42D331F818
:10433000023B20F8023B31F8023B20F8023B31F807
:10434000023B20F8023B31F8023B20F8023B31F8F7
:10435000023B20F8023B31F8023B20F8023B31F8E7
:10436000023B20F8023B31F8023B20F8023B31F8D7
:10437000023B20F8023B31F8023B20F8023B31F8C7
:10438000023B20F8023B31F8023B20F8023B31F8B7
:10439000023B20F8023B31F8023B20F8023B31F8A7
:1043A000023B20F8023B31F8023B20F8023BA2F12D
:1043B0002002BAE7022A06D331F8023B20F8023B7A
:1043C000A2F10202F6E7102A42D311F8013B00F8ED
:1043D000013B11F8013B00F8013B11F8013B00F8EB
:1043E000013B11F8013B00F8013B11F8013B00F8DB
:1043F000013B11F8013B00F8013B11F8013B00F8CB
:10440000013B11F8013B00F8013B11F8013B00F8BA
:10441000013B11F8013B00F8013B11F8013B00F8AA
:10442000013B11F8013B00F8013B11F8013B00F89A
:10443000013B11F8013B00F8013B11F8013B00F88A
:10444000013B11F8013B00F8013BA2F11002BAE771
:10445000012A06D311F8013B00F8013BA2F1010249
:10446000F6E7BDE8F81F704710B540EA01040346BF
:10447000A40703D009E010C9121F10C3042AFAD2FE
:1044800003E011F8014B03F8014B521EF9D210BDA5
:10449000D2B201E000F8012B491EFBD27047002286
:1044A000F6E710B513460A4604461946FFF7F0FF33
:1044B000204610BD2DE9FE4F804681EA0300C00F63
:1044C0000C46009021F0004123F00045B8EB0200BB
:1044D000A94105D24046214690461C460B4602465D
:1044E00023F00040104347D0270DC7F30A00C3F361
:1044F0000A510290401A019040286BDAC3F313006E
:1045000040F4801B0098924620B10023D2EB030AAE
:1045100063EB0B0B01985946C0F14002504600F086
:1045200054F906460D4650465946019A00F06CF97A
:1045300010EB08006141002487EA115284EAE77316
:104540001A4340D0009A62B3019A012A4FEA0752F7
:1045500015DC001B61EB02014FF0004202EA07523A
:10456000CDE90042001C41F5801132462B4600F097
:104570006CF903B0BDE8F08F40462146F9E7001B17
:1045800061EB0201001C41F5801300185B4120180B
:10459000A2F5001747EB030140EAD570B6196D414B
:1045A00011E06D084FEA360645EAC0754FEA07523A
:1045B000001B61EB0201001C41F5801149084FEA24
:1045C00030000019514132462B4603B0BDE8F04F90
:1045D00000F02CB90098012240000023D0EB020229
:1045E00063EBE073009821464FEAE074B8EB0000FB
:1045F00061EB0401E9E783F000435BE781F00041F0
:1046000058E72DE9FE4F81EA030404F0004421F04D
:10461000004100944FF0000B23F0004350EA0104E6
:104620005ED052EA03045BD0C3F30A54C1F30A55C7
:104630002C44A4F2F3340194A0FB0254C1F31301FF
:1046400041F48011C3F3130343F4801301FB0244CC
:1046500000FB034E840A970A44EA815447EA8357D1
:10466000A4FB076802958D0A05FB07854FEA932C8A
:1046700004FB0C542705029D4FEA065847EA1637FB
:10468000B5EB08056EEB070C870E920E47EA811713
:1046900042EA8312A7FB0201B6EB0B0164EB0004B4
:1046A0002B0D43EA0C335E1844EB1C50DA4651469E
:1046B000E7FB0201C5F313044FEA0B3343EA14533B
:1046C0004FEA0432019C43EA0603A4F10C0402946D
:1046D000009CCDE900B400F0B8F803B0BDE8F08F5D
:1046E00000200146F9E700F0004230F000400AD017
:1046F000C10D01F56071C0F3160042EA0151C20814
:1047000040071143704700200146704730B5041E32
:1047100071F1000404DB4FF00044404264EB0101FE
:10472000141E73F1000405DB1C464FF00043524297
:1047300063EB0403994208BF904230BD30B50B468D
:10474000014600202022012409E021FA02F59D42C1
:1047500005D303FA02F5491B04FA02F52844151E95
:10476000A2F10102F1DC30BD2DE9F05F0546002029
:1047700092469B4688460646814640241BE02846D2
:1047800041464746224600F02FF853465A46C01A83
:10479000914110D311461846224600F016F82D1A02
:1047A00067EB01084F4622460120002100F00DF87A
:1047B00017EB00094E41201EA4F10104DFDC48463E
:1047C00031462A464346BDE8F09F202A04DB203AC2
:1047D00000FA02F1002070479140C2F1200320FA54
:1047E00003F3194390407047202A04DB203A21FA52
:1047F00002F00021704721FA02F3D040C2F12002FA
:104800009140084319467047202A06DBCB17203A0F
:1048100041FA02F043EAE07306E041FA02F3D040C5
:10482000C2F12002914008431946704710B5141E8A
:1048300073F1000408DA401C41F1000192185B4159
:104840001A4301D120F0010010BD2DE9F04D924630
:104850009B4611B1B1FA81F202E0B0FA80F2203247
:104860009046FFF7B2FF04460F4640EA0A0041EACD
:104870000B0153465A46084313D0114653EA010030
:1048800019D0C8F140025046FFF7AEFF05460E466C
:10489000504659464246FFF798FF084305D001208D
:1048A00004E020463946BDE8F08D0020054346EA85
:1048B000E0762C4337430A986305E40AA0EB08002E
:1048C0000022FD0A44EA47540A3002D5002001467E
:1048D000E9E7010510196941DDE908450019694159
:1048E000BDE8F04DA2E72DE9F04D81EA030404F0A4
:1048F000004B21F0004514464FF0000A23F0004120
:1049000050EA050220D054EA01021DD0C5F30A572F
:104910000246C5F31303C1F31300C1F30A5640F472
:10492000801543F48013A7EB0608101BD64608F247
:10493000FD3873EB050002D308F1010801E092187D
:104940005B41B8F1000F03DA00200146BDE8F08DAD
:1049500000204FF48011064684460EE0171B73EBCF
:10496000050705D3121B63EB050306434CEA010C54
:1049700049084FEA300092185B4150EA0107EDD137
:1049800052EA030012D082EA040083EA05010843D8
:1049900005D0101BAB4106D20122002306E0002205
:1049A0004FF0004302E06FF0010253101AEB0600D3
:1049B0004CEB085110EB0A0041EB0B01BDE8F04D48
:1049C000FFF734BFC1F30A52C1F3130140F2FF33C2
:1049D00041F480119A4202DA00200146704740F209
:1049E00033439A42A2F2334202DC5242FFF7FCBE4A
:1049F000FFF7EBBE064C074D06E0E06840F0010310
:104A000094E8070098471034AC42F6D3FFF7A4FBB4
:104A100030CB000850CB000870B58C1810F8015B43
:104A200015F0070301D110F8013B2A1106D110F847
:104A3000012B03E010F8016B01F8016B5B1EF9D14B
:104A40002B0705D40023521E0DD401F8013BFAE7D1
:104A500010F8013BCB1A921C03E013F8015B01F83C
:104A6000015B521EF9D5A142D8D3002070BD00BF12
:104A7000FEE770B502464FF6FF7041F221040025B3
:104A800013E012F8015B80EA052000230BE000F43C
:104A900000461EB184EA4006B0B203E04FF6FF764E
:104AA00006EA40005B1C082BF1DB0B1EA1F10101A3
:104AB000E7D170BD10B5024641F2210381EA02211F
:104AC00000200BE001F400441CB183EA4104A1B2D0
:104AD00003E04FF6FF7404EA4101401C0828F1DBB3
:104AE000084610BD06E000F0DDF800F0EDF80A2001
:104AF00006F0C6FDF7E700002DE9FE4F07460E461B
:104B000014469A46002500200090019002908046AD
:104B10008146A6F2022028B1A0F5FE40FE3800280A
:104B20002ED12CE02078617840EA01200FFA80F83D
:104B3000A078E17840EA01200FFA80F94946404622
:104B400004F0ACFD002228466D1C0DF80020022266
:104B500028466D1C0DF8002028466D1C0DF800201D
:104B6000ABB26A464FF40241384600F017F800F045
:104B700059FF8346594604A002F01AFB00E000BF2B
:104B800000BFBDE8FE8F000025735370656564208B
:104B900046726F6D20486F73740D0A002DE9F04363
:104BA000CBB006460F4690461D460024A146A522DE
:104BB0002146641C0DF801202146641C0DF80120DB
:104BC00005F10800C0F307222146641C0DF80120FE
:104BD000C2B22146641C0DF80120320A2146641C31
:104BE0000DF80120F2B22146641C0DF801203A0AAA
:104BF0002146641C0DF80120FAB22146641C0DF810
:104C000001200DEB04002A464146FFF71DFB601909
:104C100084B2A91D0DF10200FFF72BFF81464FEA78
:104C200019222046611C8CB20DF8002009F0FF0209
:104C30002046611C8CB20DF800205A222046611CCF
:104C40008CB20DF800205A200DF8040005F10C027A
:104C500069460348006800F01CF94BB0BDE8F083DA
:104C60001000002010B502220521054803F08BFC3E
:104C700020B101220521024803F07DFC10BD000097
:104C80000000024010B502220621054803F07BFC1B
:104C900020B101220621024803F06DFC10BD000086
:104CA0000000024010B506E00648006800F083F9F5
:104CB000044600F057FF0348006800F044F900285C
:104CC000F2D110BD0C00002010B50248006800F0C1
:104CD000E1F910BD100000207047000010B540F24F
:104CE000066005F0A9FB012303221021124804F0FD
:104CF0008FF80223032210210F4804F089F80423BF
:104D0000032210210C4804F083F808230322102109
:104D1000094804F07DF80121074804F011F8022148
:104D2000054804F00DF80421034804F009F80821AF
:104D3000014804F005F810BD001801402DE9F041CC
:104D400005460F461446C5F30A01254A881822462F
:104D50003946FFF779FA2348008820442149088022
:104D600008460088C0F30A00D8B91F4800681F49E8
:104D700001EBC0261B4802881949304603F044FD68
:104D80001848038832461848016819A002F010FA42
:104D900015480068401C144908600020114908802B
:104DA0001AE0802C18D210480068104901EBC02688
:104DB0000C4802880A49304603F026FD094803885A
:104DC0003246094801680AA002F0F2F900200549BC
:104DD00008800549086000BF2819BDE8F08100007F
:104DE0009C600020EC010020E80100200010020877
:104DF0005B6672616D652069642025645D43757230
:104E000072656E7420446F776E6C6F6164204164CC
:104E1000647265737320307825782C4F54415F435A
:104E20006F756E74203D2025640D0A0008B50220C0
:104E300003F0D8FCA8B169460A48006807F060F89A
:104E4000022003F0B9FC022003F0C6FC009838B140
:104E50004FF0805004490860BFF34F8FBFF36F8F4E
:104E600000BF08BD0000002004ED00E010B54FF4C5
:104E7000007003F0B7FC28B100F0C4FB4FF40070E1
:104E800003F0AAFC10BD03E04FF47A7006F0F8FBC3
:104E9000FAE72DE9F04104460D4616464FF00008AA
:104EA0003146204600F029F820B31DB300BF502240
:104EB000EFF3118182F31188BFF34F8FBFF36F8F30
:104EC00000BF08460DE0E2682168B1FBF2F302FB87
:104ED00013172978A268D1552168491C21606D1CDF
:104EE000761E002EEFD100BF80F3118800BF4FF077
:104EF000010800BF4046BDE8F081F0B504460E460B
:104F000000BF5021EFF3118081F31188BFF34F8F61
:104F1000BFF36F8F00BF054654B1204600F013F871
:104F2000E168081AB04201D3012002E0002000E04D
:104F30000020074600BF85F3118800BF3846F0BD4A
:104F4000016142617047F0B5014699B100BF50263A
:104F5000EFF3118586F31188BFF34F8FBFF36F8F87
:104F600000BF2C460A684B68D01A254685F3118885
:104F700000BF00E00020F0BD70B5054600BF502125
:104F8000EFF3118081F31188BFF34F8FBFF36F8F61
:104F900000BF04463DB12846FFF7D5FF08B9012000
:104FA00002E0002000E00120064600BF84F31188E3
:104FB00000BF304670BD70B5044600262046FFF79E
:104FC000DBFFD8B900BF5022EFF3118182F31188C3
:104FD000BFF34F8FBFF36F8F00BF0846E268616871
:104FE000B1FBF2F302FB1315A1684E5D6168491C29
:104FF0006160014681F3118800BF00BF304670BD7B
:1050000070B5B8B1B1B1AAB100BF5025EFF31184AA
:1050100085F31188BFF34F8FBFF36F8F00BF234617
:105020000024046044608160C2601C4684F31188DF
:1050300000BF00BF70BDF0B5ADF2044D0546686914
:1050400010B90DF2044DF0BD0026002701A86969D2
:105050008847064600BF5021EFF3118081F3118885
:10506000BFF34F8FBFF36F8F00BF04462846FFF793
:105070006AFFA989081A87B2BE4200DD3E46324661
:1050800001A92846FFF705FF00BF84F3118800BF80
:1050900000BFD6E770B50446206900B970BD204650
:1050A000FFF751FF002839D000BF5021EFF31180E6
:1050B00081F31188BFF34F8FBFF36F8F00BF054699
:1050C000E1682068B0FBF1F201FB12002060E168AA
:1050D0006068B0FBF1F201FB12006060D4E90001EE
:1050E00088420BD2A389A6889B1B99B2D4E901639D
:1050F00098192269904700206060CFE72388A6882E
:105100009B1B99B2D4E901639819226990472068E2
:10511000606000BF85F3118800BF00BF00BFBDE71E
:1051200070B504460D4629460948FFF7A2FC06461D
:1051300033462246294607A002F03AF8B44204D189
:10514000284601F075FE002070BD0120FCE700003C
:105150000010020846696C6553697A65203D202578
:10516000642042797465732C46696C654352432010
:105170003D20307825782C46696C65435243416365
:105180007475616C203D20307825780D0A00000090
:1051900000BFFEE770B504460D4645480068046050
:1051A000434800680068401B41490968486140481D
:1051B00000684069082808DC3D480068406910F133
:1051C000080F02DB6FF0004070BD3948006841698C
:1051D00038A001F0EDFF36480068D0ED020A3448EF
:1051E000006890ED050AB8EEC00A20EE800A30484B
:1051F000006890ED031A2E480068D0ED070AF8EE1B
:10520000E00A01EE600A2A48006890ED041A284876
:105210000068D0ED080AF8EEE00A01EE200ABDEEC3
:10522000C00A2348006880ED060A214800684069EA
:105230001F49096808621E480068C0691C4909685E
:10524000C8611B480068406A1949096889690844AF
:1052500017490968486216480068406A1449096895
:1052600009790841B0F57A7F05DB4FF47A7010496F
:105270000968486218E00E480068406A0C490968ED
:105280000979084110F57A7F04DC0D48084909685E
:10529000486209E006480068406A054909680979DA
:1052A000084103490968486201480068406A8BE781
:1052B0001C02002045726F6F72203D2025640A0099
:1052C00018FCFFFF154816490860002009680860AF
:1052D00013490968087112490968C86110490968C9
:1052E00008629FED100A0E48006880ED020A9FEDEB
:1052F0000E0A0B48006880ED030A9FED0C0A08486F
:10530000006880ED040A00200549096848610449E5
:10531000096888610249096848627047A8690020E5
:105320001C020020AE47E13DAE47613D0000000099
:105330001CB54C4A00214C480068FFF701FE4FF4B1
:1053400080624A4948480068FFF75AFE00224849EF
:1053500048480068FFF7F4FD4FF48062464945482D
:105360000068FFF74DFE454805F064FE4FF4E1206C
:1053700003F0B4F9424802F09DFF05F025FAFFF76B
:10538000A1FF03F0B3F904F017F940F2046005F04F
:1053900053F84FF40053032210213A4803F038FD2C
:1053A0004FF400503749086140F2036005F044F8BB
:1053B0004FF4807303221021334803F029FD4FF48A
:1053C000807031491431086006F034F82F48042108
:1053D00000230A02CDE900102DA1334806F0EAFFB0
:1053E0003248052100236422CDE9001030A1334862
:1053F00006F0E0FF3248032100236422CDE90010CB
:1054000030A1344806F0D6FF3348072100234FF47B
:105410008062CDE9001031A1354806F0CBFF354858
:10542000062100234FF48062CDE9001032A13748F5
:1054300006F0C0FF06F028F835A137A001F0B8FE4D
:105440000FE04FF400500F4948614FF47A7006F0B6
:1054500017F94FF400500B4908614FF47A7006F0C9
:105460000FF9EEE7C5B000080C0000208C02002008
:1054700015B1000810000020A406002080841E0042
:105480000054004000100140000C01401C000020AE
:1054900056656C6F636974794D6561737572656D7E
:1054A000656E745461736B00C96D000820000020A4
:1054B000564C36313830785461736B0045630008C0
:1054C00018000020456D657267656E6379546173DD
:1054D0006B000000874E000828000020436F6D6DB0
:1054E000756E69636174696F6E5461736B0000005F
:1054F000E54A00082400002053656E736F725570F2
:105500006C6F6164696F6E5461736B00695E000853
:1055100056302E302E310000415050202573206926
:10552000732052756E6E696E670D0A00704710B574
:10553000044600F001F810BD08B5244800780128A1
:1055400004D0022809D0032838D127E002201F49BF
:105550000870000203F038F936E04FF400711C487F
:1055600003F0B4FC48B94FF4007003F025F9194872
:105570000068401C174908600BE000200346024603
:10558000032100901448006807F0D8F900200F4963
:1055900008704FF4007003F017F915E000200B4974
:1055A000087003460246032100900B48006807F08C
:1055B000C5F94FF4007003F007F905E003480178DE
:1055C00006A001F0F5FD00BF00BF08BD28020020C5
:1055D000000C01402C020020240200205B4B657966
:1055E0005F43616C6C4261636B5F464D535D6572F6
:1055F000726F72207374617465203D2025640D0AFA
:10560000000000001CB53148007810B1022854D1C8
:105610001DE006F015FF0446002001AB22460621DE
:1056200000902B48006807F089F9019838B14FF0D5
:10563000805028490860BFF34F8FBFF36F8F4FF43E
:10564000007003F0B9F80120204908703BE02248BF
:105650000068642808D32048006800EB80004100FF
:105660001EA001F0A5FD07E01B48006800EB8000CC
:1056700041001FA001F09CFD00201749086006F0C2
:10568000DFFE0446002001AB2246072100901048AF
:10569000006807F053F9019838B14FF080500D4978
:1056A0000860BFF34F8FBFF36F8F4FF4007003F0AC
:1056B00083F803200549087005E00448017811A02B
:1056C00001F076FD00BF00BF1CBD000028020020D5
:1056D0002402002004ED00E02C0200206C6F6E67B5
:1056E000207072657373202564206D730D0A0000AD
:1056F00073686F7274207072657373202564206DF7
:10570000730D0A005B4B65795F496E746572727543
:1057100070745F464D535D6572726F722073746171
:105720007465203D2025640D0A0000002DE9F0413C
:1057300006460D4635B9002211461F4805F047FAC6
:10574000BDE8F08131462846FFF724FD04466FF09E
:10575000004084422ED0002C16DB642104FB01F0B3
:1057600000EE100AB8EEC00ADFED140A80EE201A2F
:10577000BCEEC10A10EE107A3A4600210E4805F040
:1057800026FA03F03FFE15E060426421484300EE34
:10579000100AB8EEC00ADFED090A80EE201ABCEE4E
:1057A000C10A10EE107A3A460021034805F00FFABC
:1057B00003F01CFE00BFC3E700040040112799441A
:1057C00000BFFEE7704700002DE9FE4F83460E46FE
:1057D0001546002400200090019002903046B6F556
:1057E000A06F0BD0A0F20250002864D0012826D070
:1057F000A0F5FE40FE38002820D186E0287840B28F
:1058000046490870084602782046641C0DF80020BE
:1058100000222046641C0DF80020320A2046641C39
:105820000DF80020F2B22046641C0DF80020A3B24F
:105830006A464FF405415846FFF7B0F966E028780C
:1058400040B23649087068780006A97840EA0140FD
:10585000E97840EA0120297940EA0107A8796979C5
:1058600040EA0128424639462DA001F0A1FC4246FB
:10587000E91D3846FFF762FA324908602748027886
:105880002046641C0DF8002000222046641C0DF800
:105890000020320A2046641C0DF80020F2B2204697
:1058A000641C0DF80020A3B26A464FF40541584627
:1058B000FFF774F92AE0287840B218490870A878F0
:1058C000697840EA01291F4801684846FFF728FC2B
:1058D0008246124802782046641C0DF800202046BB
:1058E000641C0DF800A0320A2046641C0DF800204C
:1058F000F2B22046641C0DF80020A3B26A464FF4B1
:1059000005415846FFF74AF900E000BF00BF3146A5
:105910000DA001F04DFCBDE8FE8F00000C02002040
:105920004F54415F4F6666736574203D2025642C9B
:105930004F54415F4C656E677468203D2025640DAF
:105940000A000000100200205B55706C6F61645FFC
:1059500048616E646C65725D636D64203D203078D3
:1059600025780D0A000000002DE9FE4306460C468E
:105970009046994600250020009001900290022C4C
:1059800004D0A4F500400238A8B913E0002228464C
:105990006D1C0DF80020ABB26A4648F20201304699
:1059A000FFF7FCF800F03EF80746394603A001F087
:1059B000FFFB00E000BF00BFBDE8FE832573486524
:1059C0006172742042656172742046726F6D204866
:1059D0006F73740D0A00000010B503F0A5F9DFED38
:1059E0000E0A20EE200ABDEEC00A10EE104A0B4847
:1059F00001682046FFF79AFE03F09CF9DFED060AE6
:105A000020EE200ABDEEC00A10EE104A04480168DC
:105A1000204600F091F910BD00007A4438020020C1
:105A20003C0200200EB52448407980B1224800880D
:105A300021498978204AD278CDE9002102901E4878
:105A4000037942791DA1224801F0C2FB32E01A48D5
:105A5000007968B11848008817498978CDE90010A5
:105A60001548C37802791BA1194801F0B1FB21E068
:105A70001148C07850B11048008800900E488378D3
:105A8000C27818A1124801F0A3FB13E00A488078FD
:105A900038B109480388827815A10D4801F098FBB8
:105AA00008E00548008828B10348028812A1084888
:105AB00001F08EFB06480EBDC40000205B25643A51
:105AC00025643A25643A25643A25645D00000000A7
:105AD000385C00205B25643A25643A25643A2564E5
:105AE0005D0000005B25643A25643A25645D000092
:105AF0005B25643A25645D005B25645D0000000061
:105B000017480088401C1649088008460088B0F5F0
:105B10007A7F23D108468078401C88700020088056
:105B2000084680783C2819D10846C078401CC870C7
:105B3000002088700846C0783C280FD108460079BC
:105B4000401C08710020C87008460079182805D14B
:105B500008464079401C48710020087170470000D9
:105B6000C400002070B50446704800780D287DD22E
:105B7000DFE800F0070D1B2939475765839DA4B660
:105B8000C000A52C02D1012068490870CBE0A52CEB
:105B900007D10220654908704FF6FF7064494881BB
:105BA00002E0002061490870BDE0200260490880E1
:105BB000084641892046FEF77DFF5D494881032064
:105BC0005A490870AFE05A48008820445849088074
:105BD000084641892046FEF76DFF5549488104205B
:105BE000524908709FE02002514948800846418987
:105BF0002046FEF75FFF4E49488105204B4908705B
:105C000091E04B48408820444949488008464189F2
:105C10002046FEF74FFF4649488106204349087059
:105C200081E0200242498880084641892046FEF7EB
:105C300041FF3F49488107203C49087073E03C48D8
:105C4000808820443A4988800020C88008464189DD
:105C50002046FEF72FFF364948810846C188008854
:105C60000838814205D10920304900E057E008702A
:105C700002E008202D49087055E02D48C188C088F1
:105C8000401C2B4AD08002F10C0044540C3841894E
:105C90002046FEF70FFF264948810846C188008844
:105CA0000838814202D10920204908703BE02002D7
:105CB0001F4908810A201D49087034E01C480089EA
:105CC00020441B490881084600894989884203D03D
:105CD00000201649087002E00B201449087022E0E9
:105CE0005A2C03D10C201149087002E000200F4902
:105CF000087018E05A2C0ED10D488088C0F3032597
:105D00000B4AD388918850880A4A52F82560084A7D
:105D10000C32B04700BF00200449087003E00020A7
:105D20000249087000BF00BF70BD0000EE010020F6
:105D30009C680020F40100202DE9F04106460D4644
:105D400035B9002201211F4804F041FFBDE8F08170
:105D500031462846FFF71EFA04466FF000408442A1
:105D60002ED0002C16DB642104FB01F000EE100A9B
:105D7000B8EEC00ADFED140A80EE201ABCEEC10AAC
:105D800010EE107A3A4601210E4804F020FF04F08C
:105D9000F5FB15E060426421484300EE100AB8EEBE
:105DA000C00ADFED090A80EE201ABCEEC10A10EE2F
:105DB000107A3A460121034804F009FF04F0D2FBAF
:105DC00000BFC3E7000400401127994410B55220DA
:105DD00023490870084604784FF480702149086010
:105DE000052005F04DFC4FF480701E49091F086026
:105DF000052005F045FC00BF012005F041FC1848D6
:105E0000007800F0A7FB00211548007800F00EFB99
:105E10001348007800F000FC01211148007800F0E0
:105E20001BFF01210E48007800F0DAFD00210C482C
:105E3000007800F0E9FC07210948007800F0E6FA54
:105E40000748007800F047FD00210548007800F081
:105E5000C7FD01210248007800F0D8FA10BD00000B
:105E6000E4010020140C014002E00A2005F008FCC7
:105E7000FBE7000010B5FFF743FE00BF502080F3A2
:105E80001188BFF34F8FBFF36F8F00BF06F0E2FAA8
:105E900018B14FF080500449086000BF002080F323
:105EA000118800BF10BD000004ED00E008B51848DF
:105EB000006840F47000164908601648006840F019
:105EC0000100144908600846406840F080004860BE
:105ED0000020009002E00098401C009044F62061F1
:105EE00000988842F7D300200A494860C8620846F3
:105EF000006809490840074908604FF41F0088609E
:105F00000846006820F48020086004F0FFFC08BD0B
:105F100088ED00E000100240FFFFF6FE10B5012101
:105F20000B4805F05BF8012811D10A480068401CB5
:105F300008490860FFF776FD0446064821460268D6
:105F400005A001F035F90121014805F044F810BD24
:105F5000002C01404402002025736C656674207794
:105F60006865656C206164647320757020746F20AF
:105F7000256420636972636C65730A0010B50221A1
:105F8000480705F02BF818B10221480705F023F85F
:105F900010BD000010B501210B4805F01FF80128C5
:105FA00011D10A480068401C08490860FFF73AFD13
:105FB000044606482146026805A001F0F9F80121CF
:105FC000014805F008F810BD00080040400200201C
:105FD0002573726967687420776865656C206164F1
:105FE000647320757020746F202564206369726368
:105FF0006C65730A000000007047000008B5164980
:10600000164805F089F960B115480068FFF713F8E4
:106010001149124805F073F9104800680F48001D37
:10602000006810490D4805F077F998B169460E48A7
:10603000006805F065FF0B49084805F060F9009815
:1060400038B14FF0805009490860BFF34F8FBFF35C
:106050006F8F00BF08BD000004030400004400402F
:106060000C000020060306000400002004ED00E000
:106070002DE9F04107460D46144698460026A5F244
:10608000074020B1A0F5FE40F93868B900E00BE008
:10609000E078A17840EA012640F20740864202D12A
:1060A000002004F02BFB00BF00BF294602A001F036
:1060B0007FF8BDE8F08100005B55706C6F61645F34
:1060C00048616E646C65725D636D64203D2030785C
:1060D00025780D0A0000000000BFFEE72DE9F04121
:1060E00005460F4616461C464FF47A705249086022
:1060F00000BF286800F4007038B14F48016800689C
:10610000401E4D4A10600029F3D14FF47A704A497D
:10611000086000BF40F20161284602F0F3FF38B189
:10612000454801680068401E434A10600029F1D1CB
:10613000284603F00EF84FF47A703F49086000BF1C
:106140004FF4A061284602F0DDFF38B93A480168F3
:106150000068401E384A10600029F1D101223946FA
:10616000284602F0DEFF4FF47A703349086000BF22
:1061700040F20151284602F0C5FF38B92E480168A7
:106180000068401E2C4A10600029F1D140F20151F4
:10619000284602F0A3FF32E0012C16D14FF47A70AA
:1061A0002549086000BF40F20251284602F0AAFFCC
:1061B00038B9214801680068401E1F4A1060002954
:1061C000F1D10021284602F0D1FE4FF47A701A492D
:1061D000086000BF40F20651284602F093FF38B92C
:1061E000154801680068401E134A10600029F1D16B
:1061F000284602F067FF06F8010B601EC4B2002CAF
:10620000CAD1284602F0AAFF4FF47A700A49086002
:1062100000BF286800F4007038B1074801680068C2
:10622000401E054A10600029F3D10121284602F0E2
:106230009DFE0020BDE8F081CC0000202DE9F0415A
:1062400005460F4614461E464FF47A703C490860D6
:1062500000BF40F20161284602F054FF38B13848CF
:1062600001680068401E364A10600029F1D12846B6
:1062700002F06FFF4FF47A703149086000BF4FF4AD
:10628000A061284602F03EFF38B92D480168006839
:10629000401E2B4A10600029F1D16FF001023946EF
:1062A000284602F03EFF4FF47A702549086000BF8F
:1062B00040F20151284602F025FF38B92048016814
:1062C0000068401E1E4A10600029F1D140F20151C1
:1062D000284602F003FF17E02178284602F0F6FE78
:1062E0004FF47A701649086000BF40F20751284603
:1062F00002F008FF38B9124801680068401E104AD1
:1063000010600029F1D1641C301EA6F10101CEB24B
:10631000E2D1284602F022FF4FF47A700849086063
:1063200000BF286800F4007038B1054801680068B3
:10633000401E034A10600029F3D10020BDE8F0811F
:10634000CC0000208AB0FFF741FD01F08DFF3BE05B
:106350004FF0FF311D48006805F008FF69461C48F2
:10636000007800F08FF90298E0B9009C19480068A5
:106370004DF69911484342F2676104FB0100001495
:1063800014490860084614A10268154800F020FF6F
:1063900000BFFFF747FB0446214612A0009A00F019
:1063A00007FF09E00A480578029C224614A1164816
:1063B00000F00EFF00BF00BF01210548007800F08B
:1063C00025F8022002F000FAC2E7000000000020D9
:1063D000E401002034000020722533640000000036
:1063E0002C000020257352616E6765446174612E34
:1063F00072616E67655F6D6D203D2025640D0A003A
:10640000452D2530326400003800002070B5064666
:106410000C46072C06DC22461521304600F092FC83
:10642000054601E06FF00105284670BD10B5024633
:10643000014CE174002010BD1C0100202DE9F04149
:1064400080460C4616460C4890F8780058B14D2C02
:1064500009DB842C07DCA4F14D00074979310F5C7E
:106460003770002505E032462146404600F03CFAF0
:1064700005462846BDE8F0811C0100202DE9F041C9
:1064800080460C461646124890F87800B0B14D2C64
:1064900014DB812C12DCA4F14D010D4A79328818ED
:1064A00001780906427841EA0241827841EA0221F4
:1064B000C27841EA02073760002505E032462146EE
:1064C000404600F02DFA05462846BDE8F081000060
:1064D0001C0100202DE9F04180460C4617460E486D
:1064E00090F8780078B14D2C0DDB832C0BDCA4F1F7
:1064F0004D01094A793288184178027841EA02262A
:106500003E80002505E03A462146404600F049FA23
:1065100005462846BDE8F0811C01002070B5044600
:106520000D46164633462A4621460248FFF7D6FD59
:1065300070BD00000054004070B504460D4616467C
:1065400033462A4621460248FFF778FE70BD000018
:10655000005400402DE9FF41074655202C49088191
:106560006420488100212A48017401202849887448
:10657000C87481F8C400384600F03EFD00BF03AA8D
:106580002421384600F0B0F9044604B13BE09DF9FF
:106590000C001F4981F8C50001AA2621384600F0E9
:1065A000BFF9044604B12EE001986FF30F0008B95B
:1065B000184801901649019808606A461E2138461D
:1065C00000F0EFF9044604B11DE0BDF800004FF4FF
:1065D0007A714843C6090E484660384600F082FC8E
:1065E0000546002D00DA0EE002AA1621384600F01A
:1065F0007BF9044604B106E09DF80800012800D1AB
:1066000005B1012400BF00BF204604B0BDE8F08101
:106610001C010020F803CE0070B5054600BF2846D7
:1066200000F006FA0446002C00DA17E004212846A0
:1066300000F017F8044604B110E0C8220A212846E9
:1066400000F023F9044604B108E0284600F01AFEE1
:1066500007212846FFF7DAFE044600BF00BF2046A8
:1066600070BD70B506460C46042C07DC2346F822A4
:106670001421304600F0FAF9054601E06FF00105FB
:10668000284670BD7CB506460C46304600F0DAFB65
:10669000054605B13FE02146304600F043F8054687
:1066A000002D36D101AA66213046FFF713FF0546BB
:1066B00075BBBDF8040060606A464D213046FFF7A7
:1066C000BDFE054625B99DF800000011A06000E060
:1066D00000BF2146304600F003FD054605B11AE033
:1066E0000F48C07C58B12146304600F095FD054664
:1066F0002DB9606A18B1606AA060208C20600848DB
:1067000090F8C40030B12146304600F0BDFB01E0F6
:1067100000E000BF00BF304600F0AEFB28467CBD65
:106720001C010020F8B507460C466A46622138462F
:10673000FFF784FE054635B90448867C9DF80000C5
:1067400016FB00F020602846F8BD00001C01002068
:106750002DE9FF5F81464FF47A700390401002905C
:106760001F48B0F808A0B0F80AB000BF6A461C2164
:10677000484600F0B9F8044604B12CE09DF80080CA
:10678000484600F075FC0546002D02DA4FF0FF3454
:1067900021E008EB4800C0EBC810C5EBC00601AA19
:1067A000B821484600F0BCF8044604B113E0019853
:1067B000000201904FF4FA710AFB01F0019948437D
:1067C00006FB0BF1B0FBF1F7BAB22221484600F00C
:1067D000E5FA044600BF00BF204604B0BDE8F09FC4
:1067E0001C0100202DE9F04107460D460DB10124A2
:1067F00000E000242346FE222D21384600F036F921
:1068000006463046BDE8F0812DE9F04107460C46CA
:1068100000BF40F6F610844202D96FF0010515E082
:106820000A2C00D20A240A20B4FBF0F0C6B2324689
:106830001B21384600F086FA054605B105E00A201E
:10684000B4FBF0F0B04200D0022500BF00BF2846E4
:10685000BDE8F08170B506460D46002400BF2A460B
:106860001C21304600F06EFA044604B10AE03046BE
:10687000FFF76EFF044604B104E0304600F032FB3F
:10688000044600BF00BF204670BD2DE9F04106461A
:106890000C4617463A461921304600F053FA054691
:1068A0002DB922461A21304600F04CFA05462846FA
:1068B000BDE8F08170B506460D46032D07DC2A467B
:1068C0001821304600F03EFA044614B101E06FF0A2
:1068D0000104204670BD70B5044603212046FFF731
:1068E000E9FF0546284670BD2DE9FC4180460D466E
:1068F00017466C46281220706570022221464046D9
:10690000FFF71AFE064646B9012221464046FFF728
:1069100005FE06460EB9207838703046BDE8FC8189
:106920002DE9FC4180460D4617466C462812207022
:106930006570022221464046FFF7FEFD06468EB9ED
:10694000042221464046FFF7E9FD064656B9207865
:106950000006617840EA0140A17840EA0120E17830
:10696000084338603046BDE8FC812DE9FC4781468C
:106970000C4616461F466D46201228706C70022287
:1069800029464846FFF7D8FD8046B8F1000F05D1EB
:10699000FAB231464846FFF7C1FD80464046BDE8A1
:1069A000FC872DE9FC4180460D4617466C462812AF
:1069B00020706570022221464046FFF7BDFD064665
:1069C0005EB9022221464046FFF7A8FD064626B9D9
:1069D0006078217840EA012038803046BDE8FC81AB
:1069E0002DE9F04107460D460DB1012400E00024D9
:1069F00022461721384600F0A5F906463046BDE884
:106A0000F081024600204FF0804100E08908914269
:106A1000FCD809E04318934204D84318D21A01EB7A
:106A2000500000E0400889080029F3D170470000B9
:106A300070B5064600250C48807C012800D100BFB7
:106A4000304600F063F90446002C00DA09E0002C1F
:106A500000DD00BF002D00DA00BF0DB904B12546EE
:106A600000BF284670BD00001C0100202DE9FC4736
:106A700081460D46174698466C4628122070657070
:106A8000022221464846FFF757FD06468EB90122ED
:106A9000A11C4846FFF742FD064656B9A07838408B
:106AA00040EA0800A070032221464846FFF744FD53
:106AB00006463046BDE8FC8710B50446012240F288
:106AC0000721204600F03EF901224FF402712046D2
:106AD00000F038F900229621204600F033F95422C4
:106AE0009721204600F02EF90022E321204600F0F5
:106AF00029F90422E421204600F024F90222E521AC
:106B0000204600F01FF90122E621204600F01AF984
:106B10000322E721204600F015F90222F521204644
:106B200000F010F90522D921204600F00BF920468B
:106B300000F02EFB00229F21204600F003F92822BE
:106B4000A321204600F0FEF80022B721204600F0E5
:106B5000F9F82822BB21204600F0F4F80922B221DE
:106B6000204600F0EFF80922CA21204600F0EAF89A
:106B700001224FF4CC71204600F0E4F817224FF4C4
:106B8000D871204600F0DEF8002240F2AD11204618
:106B900000F0D8F80522FF21204600F0D3F80522A6
:106BA0004FF48071204600F0CDF8052240F2991193
:106BB000204600F0C7F81B224FF4D371204600F0A6
:106BC000C1F83E224FF4D671204600F0BBF81F22D8
:106BD00040F2A711204600F0B5F8002230212046EF
:106BE00000F0B0F810221121204600F0ABF830225E
:106BF0004FF48571204600F0A5F846223F2120463B
:106C000000F0A0F8FF223121204600F09BF863221B
:106C10004021204600F096F801222E21204600F067
:106C200091F8FF222C21204600F08CF809221B212C
:106C3000204600F087F831223E21204600F082F8FD
:106C400024221421204600F07DF832212046FFF74F
:106C500001FE002010BD00002DE9F04781460C46E2
:106C6000012C4ADB032C48D8601E264931F81070ED
:106C70003A469621484600F091F805462248847429
:106C800090F9C50090FBF4F04FFA80F808F0FF028D
:106C90002421484600F056F8054655B9142090FBCB
:106CA000F4F000F0FF0A52462121484600F04AF86D
:106CB00005468DB91448007C70B113488689807CE4
:106CC00096FBF0F086B2FF2E00DDFF26F2B2252102
:106CD000484600F037F805464DB9012C01D1012096
:106CE00000E0002001464846FFF77CFD054635B927
:106CF00000BF012C03D0032501E06FF001052846F9
:106D0000BDE8F087C0C900081C01002070B5054629
:106D100000BF2846FFF7D0FE044604B100E000BFE4
:106D200000BF54B90648817C2846FFF795FF04460A
:106D300000221621284600F005F8204670BD00000C
:106D40001C0100202DE9FC4107460D4616466C4605
:106D5000281220706570A670032221463846FFF77E
:106D6000EBFB80464046BDE8FC812DE9FC4107462F
:106D70000E4615466C46301220706670280EA070C4
:106D8000280CE070280A20716571062221463846D9
:106D9000FFF7D2FB80464046BDE8FC812DE9FC416F
:106DA00007460D4616466C46281220706570301254
:106DB000A070E670042221463846FFF7BDFB8046EE
:106DC0004046BDE8FC8100002DED048B82B023E03D
:106DD000322002F023FB322003F0DCFBFEF7FCFD47
:106DE00001F0A8FF10EE104A2046FDF77CFC41ECB4
:106DF000180B01F099FF10EE104A2046FDF773FCC6
:106E000041EC190B8DED008B53EC192B03A000F016
:106E1000CFF9322004F034FCDAE700002F2A766143
:106E20006C75653A25663A25662A2F0D0A00000022
:106E300001B504226946024801F0E6FC08BD0000E5
:106E400000E0030870B506460A4890F8780068B973
:106E50000120084981F8780001F1790538232A4694
:106E60004D213046FFF781FD044600E00024204616
:106E700070BD00001C0100200021024A82F8781039
:106E8000704700001C0100202DE9F04781460D46A7
:106E9000EF681148874219D23946484600F0B4F8E5
:106EA00004460E4890F81280A8F101000C4931F810
:106EB00010600A48B0F8C000A04202DA0748B0F8F3
:106EC000C040B44200DD3446EC6101E00020E861DE
:106ED0000020BDE8F0870000100905001C0100201B
:106EE000C6C900082DE9F04F87B082464FF0000B6D
:106EF00000BF06AA2A215046FFF7F6FC044604B15B
:106F000070E09DF8180018B94FF0010B282006908A
:106F10009DF818004FF47A7110FB01F0C70902AA1E
:106F20002D215046FFF7E0FC044604B15AE003AAC5
:106F30001C215046FFF7D8FC044604B152E004AAD5
:106F4000B8215046FFF7ECFC044604B14AE001AA20
:106F50002C215046FFF7C8FC044604B142E09DF8DE
:106F600004004FF47A5191FBF0F12248C0F8BC10B4
:106F70004568AF4202D3C0F8B87003E000211D4855
:106F8000C0F8B8109DF8080000F0020070B105AA22
:106F900026215046FFF705FD044604B122E0BDF866
:106FA00014004FF47A714843C60900E000260498A3
:106FB00001029DF80C00001FB1FBF0F8701B40456A
:106FC00001DBA6EB05089DF8040008FB00F04FEA82
:106FD00010194946504600F017F881B20548A0F84C
:106FE000C01000BF00BF04B95C46204607B0BDE832
:106FF000F08F00001C0100205021024AC2F8B4109A
:10700000704700001C0100202DE9F04782460E4623
:107010001548D0F8B490D0F8BC70D0F8B880002EE5
:107020001DDD124890FBF6F0A0F5F274002C01DC97
:10703000002516E0B4F5005F06DA04FB08F007EB64
:107040000901B0FBF1F405E007EB0900B4FBF0F037
:1070500000FB08F42046FFF7D4FC054601E06FF082
:1070600000452846BDE8F0871C010020006889091A
:107070002DE9F14F82B04FF018094FF0460A4FF05A
:10708000C80B072001906A4640F209110298FFF7E9
:107090002BFC8046B8F1000F03D04FF0FF30BDE865
:1070A000FE8F9DF80000019900EA01046A464FF442
:1070B00085710298FFF718FC8046B8F1000F02D0E6
:1070C0004FF0FF30EBE79DF8005009EB0A0005EBAD
:1070D000850100EB4106601C00FB06B73846DEE781
:1070E0002DE9FF5F81460D46002003900027804672
:1070F0000290019000906FF0004A4FF0060B0026BE
:1071000000BF02AA6C214846FFF7B8F9044604B153
:1071100039E00298504501D90020029001AA74215B
:107120004846FFF7ABF9044604B12CE003AA7C21E2
:107130004846FFF7A3F9044604B124E06A468021DB
:107140004846FFF79BF9044604B11CE003986861C8
:107150000098A861009E00990398884200D9039E78
:107160000EB94FF218664FF47A7102984843B0FB9B
:10717000F6F7019800FB0BF04843B0FBF6F82F61DF
:10718000C5F80C8000BF00BF204604B0BDE8F09FEA
:1071900070B504460026054806683246DA212046C6
:1071A000FFF7E3FD0546284670BD00001C010020E6
:1071B0000FB4054B10B503A9044A029800F0B8FCBF
:1071C00010BC5DF814FB0000058D00087002002063
:1071D0000FB4084B10B504A902AA039800F0A8FC4C
:1071E000044602A9002001F03AF8204610BC5DF8E0
:1071F00014FB00005F82000802E008C8121F08C1EB
:10720000002AFAD170477047002001E001C1121F27
:10721000002AFBD1704700002DE9FE4381460C4651
:107220000027174890F8128000BF02AA6421484640
:10723000FFF704F9064606B11DE09DF808702089A5
:1072400080B2E168CDE9001007FB08F082B2208827
:1072500081B24846236900F039F80546002D02DA6C
:107260004FF0FF3607E0258407FB08F060840448F0
:10727000416F616200BF00BF3046BDE8FE83000081
:107280001C010020024600200F4B586100230E48CD
:10729000C365036643668366C366A0F85830036718
:1072A00000210AE04FF6FF7307481C3020F8113028
:1072B0000023143040F82130491C0A29F2DB002356
:1072C00001488361002070471C0100202DE9FF4F19
:1072D000A7B017461D4600BF002023900120229032
:1072E0004FF00009002021901F901E901D901C90CF
:1072F0001B901A90199018900026179016901590D0
:1073000014901390129011904FF4E16007904FF495
:1073100096700490FC48807CC0EB00200390359868
:107320000C2806D00D280AD00E2803D00F2812D121
:1073300006E000BF1020219000201F9016E000BF43
:1073400010202190F048807CC82110FB01F028908B
:1073500001201F900AE00398874204D300201F9069
:107360000120239001E001201F9000BF00BF28985A
:107370002690E54840680590E348D0F8B8000C90A6
:10738000059800F548700B90B4210C9848434FF4D1
:107390009C71B0FBF1F1059808440A9040F252311B
:1073A0000C9848434FF49C71B0FBF1F105980844E8
:1073B00009904FF4AF610C9848434FF49C71B0FBB7
:1073C000F1F10598084408903C2F06DA0B988542A5
:1073D00003D24FF0100901202390A52F06DA0A9856
:1073E000854203D24FF0100901202390A52F05DA22
:1073F0000A989630854201D201201E9043F69821CA
:107400003498884202D901201A9023904B2D02D241
:1074100001201A902390BC48006BC8B1BA48006B99
:10742000A8420AD2B848006B281A64214843B649DA
:10743000096BB0FBF1F019900CE0B348006B401BF6
:1074400064214843B049096BB0FBF1F0199001E0A9
:10745000002019901998322801D901201A901A9801
:10746000012816D10020A849486100240BE04FF6FE
:10747000FF71A5481C3020F814100021143040F88A
:107480002410601C84B20A2CF1DB00219E4881612B
:1074900012E009240EE0611E9B481C3030F81110E8
:1074A00020F81410611E143050F8211040F82410F8
:1074B000601E84B2002CEEDC1F98012803D1924993
:1074C0002898888303E04FF6FF718F4881838E48A8
:1074D00005638069401C8C498861B7F5AF7F02DA8B
:1074E0000998854208D3B7F5AF7F02DB089885423B
:1074F00002D3012023900DE0219858B135980C2833
:1075000002D035980E2801D1DDF884900120239017
:107510000020229006AA4FF4D6712798FFF7E4F9CD
:107520008046B8F1000F00D011E29DF818002090BD
:10753000082324AA4FF486712798FFF716FA80468D
:10754000B8F1000F00D002E29DF8900000069DF80F
:10755000911000EB01409DF8921000EB01209DF886
:10756000931000EB010A9DF8940000069DF8951019
:1075700000EB01409DF8961000EB01209DF897105C
:1075800000EB010B1A98012805D0239801281DD182
:10759000229801281AD120983E280AD03E224FF482
:1075A000D6712798FFF7CEFB8046B8F1000F00D0C8
:1075B000CDE15548C0F85CA0C0F860B0C0F864A048
:1075C000C0F868B000205049486128E020983E2863
:1075D00005D14D48C0F85CA0C0F860B004E04A484E
:1075E000C0F864A0C0F868B04748007D00F0010012
:1075F00010B93C20069001E03E2006909DF818202E
:107600004FF4D6712798FFF79DFB8046B8F1000F25
:1076100000D09CE13C484069401C3B4948612398AC
:1076200001280CD13848C0F87490B9F1100F02D17C
:10763000039880B2269026982BB0BDE8F08F324890
:10764000016E806E814205D92F48016E806E081A46
:10765000109001E0002010902B491098C8661E98E9
:1076600018B94FF4E160079002E04FF461700790A1
:107670002548C16D406E814205D92348C16D406ED9
:10768000081A0F9004E02048416EC06D081A0F9050
:1076900007990F98884204D907990F98401A0E90BD
:1076A00001E000200E9007990F9808440D900E9964
:1076B0001098884203D30D991098884204D901206C
:1076C0001D904FF01009CCE00F484069012802D806
:1076D0000520189001E00320189005204FF46171F7
:1076E0001E239622CDE900102946349800F036F981
:1076F0000490002600201790169015901490139077
:10770000129000241AE000001C010020914830F87B
:1077100014004FF6FF7188420ED0701C86B28D485F
:1077200030F814101798084417908A48143050F80D
:107730002410149808441490601C84B20A2C01DAB6
:10774000062EE3DB002E07DD1798B0FBF6F016904F
:107750001498B0FBF6F013900026002017901490B8
:10776000002428E07B4830F814004FF6FF7188426F
:107770001FD0701C86B2774830F814101698091A7A
:10778000744830F814201698121A179801FB02005A
:1077900017907048143050F824101398091A6D4847
:1077A000143050F824201398121A149801FB020088
:1077B0001490601C84B20A2C01DA062ED2DB1898D1
:1077C00086420ADB1798B0FBF6F080B21590149849
:1077D000B0FBF6F080B2129002E0002015901290FB
:1077E0005D491298884238D21898864202DA4FF0E2
:1077F000100936E040F6AC51129888420DD240F69E
:10780000A6610498081A1299484340F6AC51B0FB9F
:10781000F1F104980844119002E040F6A66011903E
:107820004C481C38406F10B9119880001190049991
:107830001598B1EBC00F04D9062E02DB01201B9076
:107840000FE011991598884202D201201C9008E09F
:1078500001201D904FF0100903E001201D904FF012
:1078600010091F9880B93B481C38B0F85800002810
:107870004BDD38481C38B0F85800401E81B23548FE
:107880001C38A0F8581040E01D98012813D1314849
:107890001C38B0F85800801C81B22E481C38A0F863
:1078A0005810B0F8580004282FDD042129481C384E
:1078B000A0F8581029E01C9801281ED125481C3832
:1078C000B0F85800002820DD4FF0100921481C387E
:1078D000B0F8580001280ADD1E481C38B0F85800DE
:1078E000401E81B21B481C38A0F858100DE0002142
:1078F00018481C38A0F8581007E01B98012804D13C
:10790000002114481C38A0F8581012481C38406F49
:1079100088B9B9F1000F0ED001240AE04FF6FF71CB
:107920000C4820F814100021143040F82410601C7A
:1079300084B20A2CF2DB07481C38C0F87490B9F105
:10794000100F02D1039880B22690269874E64FF06B
:10795000FF3071E638010020905F01002DE9F04111
:1079600004460F46DDE9065644B14FF0640C07FBB0
:107970000CFCBCFBF4FC1FFA8CF101E042F20F712D
:10798000994201D310460FE0B14201D828460BE0DE
:10799000A1EB060CA5EB02080CFB08FCA3EB060808
:1079A000BCFBF8FCA5EB0C00BDE8F0812DE9FF5F06
:1079B00082B00021DDE90430020DDDF840B0034360
:1079C00018D044F61050A2F2FF3242431514119819
:1079D00001281FD0A5EB0B00401C5FEA000A4FF006
:1079E00000064E4FDFF83891B046504615D5CAF123
:1079F000000413E0119801244AA3012801D16FEA81
:107A00000B010298119AC0E90031C0E9024206B0A8
:107A1000BDE8F09FCBF10000DFE704460021404ABB
:107A2000491842EB0450CDE9001012E0E00707D0FE
:107A300032463B4640464946FCF7E3FD80468946D0
:107A400032463B4610461946FCF7DBFD06460F461C
:107A50006410002CEAD1DDE90401DDE90023BAF16C
:107A6000000F06DAFCF7CDFD42464B46FCF7C9FD98
:107A700005E0FCF738FF42464B46FCF734FF04466E
:107A80000E460022284BFCF741FE03D84FF0FF3092
:107A9000014607E00022254B20463146FCF70AFD4F
:107AA000FCF790FF102409E0002C0ADB0A220023D7
:107AB000FCF75AFE039B30321A55641E50EA01024D
:107AC000F2D1641C039AC4F111031444119A012ADF
:107AD00003D0012208430DD10AE0084304D000205E
:107AE0004FF0110B119072E7A3EB0B056D1E0DE02B
:107AF0005B4504DD4FF0000205F1010504E003DA07
:107B00004FF00002A5F10105002AECD0029811996E
:107B1000C0E90231C0E9004579E7000000001440E7
:107B20000000F03F300000000000F0430000E03FA4
:107B30002DE9FF4F95B09B468946064600250FE28A
:107B4000252877D100242746F84A0121059400E032
:107B5000044316F8013F203B01FA03F01042F7D12D
:107B600030782A2811D06FF02F033078A0F130023E
:107B7000092A16D8059A44F0020402EB820203EBAC
:107B800042021044761C0590EFE759F8042B059249
:107B9000002A03DA504244F40054059044F00204F1
:107BA000761C30782E2816D116F8010F44F0040404
:107BB0002A280DD06FF02F023078A0F13003092B66
:107BC00009D807EB870302EB4303C718761CF3E7DA
:107BD00059F8047B761C30786C280FD006DC4C28D2
:107BE00017D068280DD06A2814D104E0742810D06A
:107BF0007A280FD10DE044F400140AE044F4801414
:107C000001E044F440147278824202D104F58014F9
:107C1000761C761C307866280BD013DC582877D079
:107C200009DC002875D04528F6D04628F4D047282E
:107C30001AD19DE118E0632835D0642879D06528F1
:107C400012D195E1702873D008DC6728F1D069283B
:107C50006FD06E280DD06F2806D1B5E073282CD0D8
:107C6000752875D0782874D05A46179990476D1C9E
:107C700075E1C4F30250022809D003280DD0D9F8C9
:107C8000001004280DD00D6009F1040967E1D9F84E
:107C90000010EA17C1E90052F6E7D9F800100D808C
:107CA000F2E70D70F0E719F8041B8DF800100020C2
:107CB0008DF80100EA46012003E059F804AB4FF0CB
:107CC000FF3061074FF0000102D40DE008F101011F
:107CD0008846B9420FDA8045F8DB1AF80810002907
:107CE000F4D108E008F1010188468142FADB1AF874
:107CF00008100029F6D105985B46A0EB080721463D
:107D00003846179A00F094FA284400EB080507E07B
:107D10004DE029E10DE01AF8010B5A4617999047FA
:107D2000B8F10108F7D25B4621463846179A13E1AD
:107D300042E00A220092C4F302524FF0000A022AE3
:107D400008D059F804CB032A4FEAEC710AD00DE0B1
:107D500029E02AE009F1070121F00702F2E802C157
:107D6000914609E00FFA8CFC4FEAEC71042A03D12A
:107D70004FFA8CFC4FEAEC71002907DA0A46002121
:107D8000DCF1000C61EB02012D2202E0220504D59A
:107D90002B228DF80420012203E0E20701D02022EB
:107DA000F7E7904659E00A2102E010220DE0102189
:107DB0004FF0000A00910BE010224FF0000A44F04F
:107DC00004040827009203E008224FF0000A009202
:107DD000C4F30252022A05D059F804CB0021032A29
:107DE00008D009E009F1070121F00702F2E802C119
:107DF000914605E01FFA8CFC042A01D10CF0FF0C1F
:107E00004FF00008220728D5702806D0009B83F089
:107E1000100353EA0A0305D00EE040228DF8042037
:107E2000012208E05CEA010206D030228DF804202D
:107E30008DF8050002229046009B83F0080353EA68
:107E40000A030AD15CEA010201D1620705D530229A
:107E50008DF804204FF001087F1E582804D034A06C
:107E600003900EA802900DE036A0F9E75346604655
:107E7000009AFCF779FC84460398825C0298401EC5
:107E8000029002705CEA0100F0D1029806A9081A7B
:107E900000F1200A600702D524F4803400E00127B5
:107EA000574502DDA7EB0A0000E0002000EB0A01C5
:107EB000009005984144401A0590E00306D45B46C3
:107EC0002146179A059800F0B3F90544002706E00B
:107ED00001A85A46C05D179990476D1C7F1C474505
:107EE000F6DBE0030CD55B462146179A059800F0B7
:107EF0009FF9054404E030205A46179990476D1CBD
:107F00000099481E00900029F5DC08E002980299CB
:107F10005A460078491C0291179990476D1CBAF196
:107F20000001AAF1010AF1DC65E100000928010065
:107F300030313233343536373839616263646566DF
:107F400000000000303132333435363738394142A1
:107F5000434445460000000000F058F90544761CF3
:107F6000307800287FF4ECAD19B02846BDE8F08FDA
:107F7000620700D4062709F1070222F0070CFCE88B
:107F80000223E14603F000485FEA080C02D00FF23A
:107F9000702C0DE05FEA045C02D50FF2682C07E05C
:107FA0005FEAC47C02D00FF2602C01E0AFF2700CEB
:107FB0004FF0FF3823F00043CDF850C065280CD0B7
:107FC00006DC452809D046281DD047283DD13DE094
:107FD000662818D067287ED138E00021112F01DBF8
:107FE000112000E0781CCDE9000106A90EA8FFF7DA
:107FF000DDFCDDE90F010E9A03910021009207F1EB
:10800000010A04914DE04FF000400097CDE90110C6
:1080100006A90EA8FFF7CAFCDDE90F0203920E9B2A
:1080200011990022DDF80CA00093049211B9791C7B
:1080300000EB010AB7EB0A0004D4C0F1FF3007F1EE
:10804000010A0490AAEB0700019044E0012F00DA36
:1080500001270021112F01DD112000E03846CDE974
:10806000000106A90EA8FFF7A1FCDDE90F010E9A99
:108070000391002104910092BA4621070CD4039980
:10808000514500DA8A46BAF1010F05DD009AAAF1DE
:108090000101515C302908D0B84202DA10F1040F16
:1080A00006DA0121CDE9011015E0AAF10101E9E7A5
:1080B000002805DC049901440491AAEB000102E0C8
:1080C000411C514500DD8A460499401A401C01902C
:1080D0004FF000400290200704D40198504501DB86
:1080E000CDF8048000208DF84F0002980DF14F0765
:1080F000B0F1004F25D02B200E9002984FF00208CF
:1081000000280CDA404202902D200E9007E00A2150
:108110000298FCF713FB3031029007F8011DB8F10B
:108120000001A8F10108F2DC02980028EFD1791EC5
:108130000E980870307800F0200040F0450007F8F5
:10814000020D12A8C01B00F107081498007800B1B6
:10815000012000EB0A01019801EBE0710598414410
:10816000401A401E0590E00306D45B462146179A4C
:10817000059800F05DF805441498007818B15A4647
:10818000179990476D1CE00324D55B462146179A4A
:10819000059800F04DF805441CE00498002807DB22
:1081A000DDE90301884203DD0098405C179901E096
:1081B000179930205A469047049805F10105401C54
:1081C00004900198401E019004D12E205A46179920
:1081D00090476D1CBAF10001AAF1010ADDDC05E04F
:1081E00017F8010B5A46179990476D1CB8F100011A
:1081F000A8F10108F4DC5B462146179A0598ABE626
:108200002D0000002B000000200000002DE9F041AF
:10821000044600251E461746880404D405E0394666
:108220002020B0476D1C641EF9D52846BDE8F081BA
:108230002DE9F041044600251E469046C80301D5AD
:10824000302700E02027880404D505E04146384661
:10825000B0476D1C641EF9D52846BDE8F0810A6858
:10826000531C0B601070704710B540F2026002F0B2
:10827000E3F84FF4C06002F0DFF802230322042188
:108280000B4800F0C5FD00220A21072001F09AF9F1
:108290000121002000F070FD01220021022000F0E9
:1082A0002FFA022000F098FA022000F08DFA10BD9B
:1082B0000008014010B5044640F2036002F0BCF82B
:1082C00040F2157002F0B8F8C02303221C210B48BD
:1082D00000F09EFD00220A49204600F053FE522382
:1082E00000221146204600F026FF204600F0F1FE55
:1082F0000121204600F03AFE10BD0000000C0140B4
:10830000801A060010B500F01FFD02F0A1FC10BDA0
:1083100070B505460C462146284600F0A1F908B97B
:1083200000BFFEE704EB8400810005F1080040581F
:1083300020F0010104EB8400820005F10800815067
:1083400070BD70B505460C462146284600F088F9F8
:1083500008B900BFFEE704EB8400810005F10800C6
:10836000405840F0010104EB8400820005F1080050
:10837000815070BD70B505460C462146284600F078
:108380006FF908B900BFFEE704EB8400810005F136
:108390000800405820F0200104EB8400820005F121
:1083A0000800815070BD70B504460D462946204630
:1083B00000F056F908B900BFFEE705EB8500810023
:1083C00004F10800405820F0010105EB850082000F
:1083D00004F108008150002105EB8500820004F1C2
:1083E0000800815005EB8500820004F10C008150EB
:1083F00005EB8500820004F11000815005EB85003B
:10840000820004F1140081506068AA000F2191409D
:108410000843606070BD2DE9F04104460D461646E4
:108420002946204600F01CF908B900BFFEE705EB1D
:108430008500820004F110003168815005EB850051
:10844000820004F11400B1688150308A81B205EBDA
:108450008500820004F10C00815005EB850081004D
:1084600004F10800475827F47C57F1687068084306
:1084700071690843074305EB8500810004F108009A
:108480004750307E01280ED105EB8500810004F1B4
:108490000800405840F0400105EB8500820004F1DF
:1084A000080081500DE005EB8500810004F1080013
:1084B000405820F0400105EB8500820004F10800DF
:1084C0008150707E01280ED105EB8500810004F1FA
:1084D0000800405840F0800105EB8500820004F15F
:1084E000080081500DE005EB8500810004F10800D3
:1084F000405820F0800105EB8500820004F108005F
:108500008150B07E70B905EB8500810004F1080050
:10851000405820F0100105EB8500820004F10800AE
:1085200081500DE005EB8500810004F10800405802
:1085300040F0100105EB8500820004F10800815035
:10854000BDE8F08170B504460D4616462946204622
:1085500000F086F808B900BFFEE705EB8500810052
:1085600004F108004058304305EB85018A0004F10E
:108570000801885070BD10B543688C0002FA04F4FD
:108580002343436010BD70B5034600BF00BF022AFD
:1085900004D0042A11D0082A2DD11DE018688E00BD
:1085A00002FA06F600EA060501EB8100860003F1F7
:1085B0000800805900F002041FE018688E0002FADB
:1085C00006F600EA060501EB8100860003F10800CB
:1085D000805900F0040410E018688E0002FA06F6D4
:1085E00000EA060501EB8100860003F108008059CE
:1085F00000F0080401E000BFFEE700BF15B10CB1B8
:10860000012070BD0020FCE770B506460C461546FB
:108610002146304600F024F808B900BFFEE704EB1D
:108620008400810006F11400455070BD70B5054608
:108630000C462146284600F013F808B900BFFEE7B3
:1086400004EB8400810005F10800405820F48041CB
:1086500004EB8400820005F10800815070BD000029
:1086600002460120034B9A4202D1042900DD00207A
:10867000704700000004024008B900BFFEE7002177
:108680000160416001768160C1604176016181765F
:108690004161704770B506460C4615462146304686
:1086A000FFF7DEFF08B900BFFEE7A9B204EB8400C4
:1086B000820006F10C00815070BD70B505460C4675
:1086C00021462846FFF7CCFF08B900BFFEE704EBC0
:1086D0008400810005F10C00405870BD10B50446BF
:1086E000204600F041FD00F093FD10BD10B501F0F3
:1086F000D3FE00F013FE01F0E7FE00F027FE10BDF0
:1087000010B52C4B1B6883432A4C2360231D1B6828
:108710008343241D2360231D1B688343241D236082
:10872000231D1B688343241D236011B101290ED131
:1087300005E0204B1B6803431E4C236008E01D4BE3
:108740001B1D1B6803431B4C241D236000E000BF5E
:1087500000BF22B1012A0FD0022A27D119E0154B00
:1087600008331B680343134C08342360231D1B6824
:108770008343241D23601AE00E4B08331B68834398
:108780000C4C08342360231D1B680343241D236005
:108790000DE0084B08331B680343064C0834236084
:1087A000231D1B680343241D236000E000BF00BF9E
:1087B00010BD000000040140024909688143014ADC
:1087C0001160704700040140024909680143014AF1
:1087D00011607047000401400149086070470000C3
:1087E0001404014001460748006800EA01020548F8
:1087F0001438006800EA010312B10BB10120704780
:108800000020FCE7140401402DE9F84F06460C4611
:1088100015464FF0000AD146CB460020009000F0EC
:10882000EFF906F00109A6EB0906F70A03E0F802E2
:1088300000F070F97F1C7019B7EBD02FF7D9B9F1A0
:10884000000F1CD02078000200903046009900F004
:10885000EBF8804640F2053000F0D6F84FF4417056
:1088600000F0D2F840F2023000F0CEF8B8F1000F7C
:1088700001D0B2466FE0B61CA5EB0905641C0027C9
:1088800028E014F82710B800401C205C41EA0021C1
:10889000B800801C205C41EA0041B800C01C205C8C
:1088A00041EA006B5946304600F0CCF98046361D4F
:1088B00040F2053000F0A8F84FF4417000F0A4F841
:1088C00040F2023000F0A0F8B8F1000F01D0B2463B
:1088D00041E07F1CB7EB950FD3D305F00300C0B385
:1088E00005F00300012804D0022806D0032816D181
:1088F0000AE0681E14F800B014E0A81E215C681E8F
:10890000205C41EA002B0DE0E81E215CA81E205CE3
:1089100041EA0021681E205C41EA004B02E04FF072
:10892000000B00BF00BF5946304600F08BF980466F
:1089300040F2053000F068F84FF4417000F064F840
:1089400040F2023000F060F8B8F1000F02D0B246F9
:1089500001E0FFE700BF00F0C7F85046BDE8F88F20
:1089600000B50346012200BF00F00CF802465B1E72
:10897000012A01D1002BF7D1012A00D1042210468F
:1089800000BD000000200A49C96801F0010109B1D9
:1089900001200CE00649C96801F0100109B103206B
:1089A00005E00349C96801F0040101B102207047E4
:1089B0000020024000B50346012200BF00F00CF881
:1089C00002465B1E012A01D1002BF7D1012A00D1FA
:1089D0000422104600BD000000200A49C96C01F0C5
:1089E000010109B101200CE00649C96C01F0100138
:1089F00009B1032005E00349C96C01F0040101B18C
:108A00000220704700200240064A02EB90110968DC
:108A100000F01F0301229A401143024B03EB901216
:108A2000116070470020024070B504460D460026D4
:108A30002A480088B0F5007F35D92948844219D2E8
:108A40004FF47020FFF78CFF0646002E43D12548D7
:108A5000006940F001002349086125804FF470202F
:108A6000FFF77EFF06461F48006920F001001D4900
:108A7000086130E04FF47020FFF79CFF064656BBBC
:108A80001848006D40F001001649086525804FF434
:108A90007020FFF78FFF06461248006D20F001009E
:108AA0001049086517E04FF47020FFF759FF06469C
:108AB0008EB90C48006940F001000A490861258020
:108AC0004FF47020FFF74CFF06460648006920F07F
:108AD000010004490861304670BD0000E0F7FF1F47
:108AE000FFFF0708002002400848006940F08000AE
:108AF0000649086106480088B0F5007F04D9084699
:108B0000006D40F0800008657047000000200240C2
:108B1000E0F7FF1F30B5054636480088B0F5007F06
:108B200048D9354885421ED24FF47020FFF718FF10
:108B30000446002C5BD13148006940F002002F4907
:108B4000086108464561006940F0400008614FF443
:108B50007020FFF705FF04462848006920F0020056
:108B60002649086143E04FF47020FFF723FF0446D5
:108B7000002C3CD12148006D40F002001F490865DF
:108B800008464565C06900F0020008B10846456125
:108B90001A48006D40F04000184908654FF47020F5
:108BA000FFF708FF04461548006D20F00200134946
:108BB00008651CE04FF47020FFF7D2FE0446B4B9FC
:108BC0000E48006940F002000C4908610846456102
:108BD000006940F0400008614FF47020FFF7C0FECC
:108BE00004460648006920F0020004490861204656
:108BF00030BD0000E0F7FF1FFFFF07080020024024
:108C00000C48006900F0800020B10B480949486019
:108C10000A4848600A480088B0F5007F09D905482D
:108C2000006D00F0800020B1034802494864034809
:108C3000486470470020024023016745AB89EFCDAF
:108C4000E0F7FF1F70B504460D4600262A4800884D
:108C5000B0F5007F35D92948844219D24FF47020ED
:108C6000FFF77EFE0646002E43D12548006940F0FE
:108C700001002349086125604FF47020FFF770FE62
:108C800006461F48006920F001001D49086130E0D8
:108C90004FF47020FFF78EFE064656BB1848006D55
:108CA00040F001001649086525604FF47020FFF779
:108CB00081FE06461248006D20F00100104908654B
:108CC00017E04FF47020FFF74BFE06468EB90C48B4
:108CD000006940F001000A49086125604FF47020E6
:108CE000FFF73EFE06460648006920F001000449F1
:108CF0000861304670BD0000E0F7FF1FFFFF070866
:108D00000020024070B504460D4600BF072105480B
:108D100002F0C9FA0028F9D02146024802F062FAAE
:108D2000002070BD00380140014890ED000A7047F6
:108D300048020020014890ED000A70474C020020D4
:108D4000416170470161704710B540F2026001F067
:108D500073FB4FF4C06001F06FFB40230322182126
:108D6000044800F055F8802303221821014800F040
:108D70004FF810BD0008014010B500228B071C0FF2
:108D80000F2303FA04F204290EDA204B9B68934365
:108D90001E4CA36023469B688C07240F00FA04F442
:108DA00023431A4CA3602FE008290EDA174BDB6827
:108DB0009343164CE3602346DB688C07240F00FACC
:108DC00004F42343114CE3601EE00C290EDA0F4B30
:108DD0001B6993430D4C236123461B698C07240FA9
:108DE00000FA04F42343094C23610DE0074B5B694F
:108DF0009343064C636123465B698C07240F00FA9A
:108E000004F42343014C636110BD000000000140E5
:108E1000F0B5044616460025002201F00F0501F0CA
:108E2000100747B1042E05D145F00305E76B1F433A
:108E3000E76300E0354300201EE0012787401F4024
:108E4000C7B122684FEA800C0F2707FA0CF7BA4324
:108E5000870005FA07F73A43282904D101278740FC
:108E60001F40676105E0482903D1012787401F4063
:108E700027612260471CB8B20828DED3082022E010
:108E8000012787401F40E7B16268A0F108074FEA59
:108E9000870C0F2707FA0CF7BA43A0F10807BF00A9
:108EA00005FA07F73A43282904D1012787401F40D4
:108EB000676105E0482903D1012787401F402761EA
:108EC0006260471CB8B21028DAD3F0BD0246906841
:108ED000084008B1012070470020FCE7F0B50A46C1
:108EE000002300240021002500F00046B6F1004FC9
:108EF00002D11D4EF16901E01B4E7168C0F30345BC
:108F000083B200F44016B6F5401F08D121F0E061AD
:108F1000154E766826F0E066134F7E6012E000F48E
:108F20008016B6F5801F06D1032606FA05F4A14384
:108F300041F0E06106E0460D360103FA06F6B14362
:108F400041F0E06122B1460D360103FA06F63143E5
:108F500000F00046B6F1004F02D1034EF16101E08E
:108F6000014E7160F0BD000000000140012904D1F4
:108F7000026842F48062026003E0026822F48062C8
:108F8000026070472DE9F05F04460E4692460EB926
:108F900000BFFEE7022001F0A3F907464648B7FBF1
:108FA000F0F8B8F13C0F01D34FF03C08D4F804B00E
:108FB0002BF07F0B4BEA080BC4F804B03F48864205
:108FC0001ED83D48B7FBF0F000F10109B9F13C0FA4
:108FD00002D33C20206207E0B9F1020F02D8022040
:108FE000206201E0C4F820907000B7FBF0F5042D7A
:108FF00000D20425E069C5F30B010843E06158E0A5
:109000002F4886422CD84FF4967008FB00F04FF49E
:109010007A71B0FBF1F0401C2062BAF1000F08D168
:1090200006EB4600B7FBF0F5E06920F48040E06114
:1090300009E006EBC60000EB0610B7FBF0F5E069AF
:1090400040F48040E061C5F30B0008B945F001052C
:10905000E06940F40040E061E0692843E06128E015
:10906000C8EB0810C0004FF47A71B0FBF1F0401C5F
:109070002062BAF1000F08D106EB4600B7FBF0F50D
:10908000E06920F48040E06109E006EBC60000EBF7
:109090000610B7FBF0F5E06940F48040E061E0695C
:1090A00040F40040E061E0692843E0610120C4F839
:1090B0009000BDE8F09F000040420F00A086010034
:1090C000801A060001460869C0B27047CAB2026140
:1090D0007047016841F001010160704710B540F22E
:1090E0000152914202D1426982690AE000EB911279
:1090F000126801F01F040123A3409A4300EB91136F
:109100001A6010BD10B5024602EB9110006801F024
:109110001F040123A340184008B1012010BD002006
:10912000FCE712F1020F02D121F0010101E041F050
:1091300001010161704730B50C460021016821F042
:10914000020121430160C3F3090342EA030585607C
:1091500030BD016841F4807101607047016841F4DD
:10916000007101607047000010B5044640F20260D3
:1091700001F062F94FF4C06001F05EF940F2117045
:1091800001F05AF90423032218211F48FFF740FE7B
:109190000823032204211C48FFF73AFE1B4802F073
:1091A00025F82146194801F0D5FF0021174802F0A3
:1091B000EFF80021154802F0DBF80021134802F017
:1091C000C7F80021114802F085F800210F4802F08D
:1091D00079F804210D4802F0C3F808210B4802F089
:1091E000CFF800220921262000F0ECF94FF441715C
:1091F000064802F077F840F20631044802F072F8AF
:10920000024802F04BF810BD000801400044004045
:1092100000B587B04FF4A06001F00EF906213C487C
:10922000FFF7C1F86846FFF727FA01208DF81A000A
:109230000020029001208DF8190000200390049076
:109240003448009000208DF8180001904FF44050F1
:1092500005906A4606212E48FFF7DDF805212C48C7
:10926000FFF7A1F86846FFF707FA00208DF81A000B
:109270002948029001208DF81900002003904FF436
:10928000806004902348009000208DF8180003901F
:109290004FF4405005906A4605211D48FFF7BBF882
:1092A00005211B48FFF766F805211948FFF7BEF9AD
:1092B00006211748FFF75EF806211548FFF7B6F9B3
:1092C00040211448001F01F0D9FF00221146102050
:1092D00000F078F9022205210D48FFF733F9052146
:1092E0000B48FFF72EF880210A48001F01F0CEFF3F
:1092F00000221146112000F065F9022206210448DF
:10930000FFF720F906210248FFF702F807B000BD79
:1093100000000240044400409C5C002010B540F274
:109320000B6001F089F840F2066001F085F84FF417
:10933000C06001F081F84FF4206303224821024805
:10934000FFF766FD10BD00000018014000B587B0B2
:10935000244801F0D9FC01212348FFF7BFFD40F26A
:10936000176005900020ADF80C00ADF80E00ADF8C8
:109370001000ADF812008DF8180003A9194801F08B
:1093800037FD01A801F0F8FA0520ADF80A00002029
:10939000ADF804000120ADF806000020ADF808008B
:1093A00001AA00210F4801F06FFD01AA01210D481B
:1093B00001F06AFD00231A4603210A4801F01AFE53
:1093C0000121084801F007FE0121064801F0FFFDD8
:1093D00000220A21192000F0F5F8024801F002FDF0
:1093E00007B000BD002C0140C000160010B50121DF
:1093F0000348FFF7A5FC02210148FFF7A3FC10BDBD
:109400000018014010B501210348FFF79BFC022121
:109410000148FFF795FC10BD0018014001460120EE
:109420003F4A12683F4B1A603D4A243A126802F0E4
:109430001002102A01D1821E00E001223A4B1A705C
:109440003A4A92F9002093F900309A4201D0002064
:109450005BE0002200EE102A334A1278012A17D16D
:10946000304A1268324B1B689A4209D22D4A126860
:1094700002F5C3622E4B1B68D21A00EE102A23E0BD
:10948000284A12682A4B1B68D21A00EE102A1BE0E9
:10949000254A92F90020521CB2B9224A1268244B84
:1094A0001B689A4209D9224A126802F5C3621D4B11
:1094B0001B68D21A00EE102A06E01D4A1268194BEA
:1094C0001B68D21A00EE102A174A92F9002000EE0B
:1094D000902AF8EEE00A9FED171A60EE810A9FEDE0
:1094E000161A60EE810AB8EE401A60EE810ADFEDCE
:1094F000131A80EEA11A00EE901AF8EE600AC1EE7F
:10950000201A0F4AC2ED001A00BF064A1268084B23
:109510001A60054A92F90020044B1A707047000047
:10952000242C0140680200206C020020640200200C
:1095300060020020D80F4940000082420000C3446E
:10954000480200201CB562B64FF4407000F09CF851
:1095500003220021012002F0D1FA0F490860032202
:109560000021012002F0CAFA0C4908600322002100
:10957000012002F0C3FA0A4908600A4801210023C9
:109580006422CDE9001008A10A4802F013FF02F09E
:1095900065F900BFFEE70000000000200400002085
:1095A0000800002014000020496E69745461736B38
:1095B000000000003153000810B5FEF7A3FEFBF7D2
:1095C0008DFB10BD2DE9F04103460D4616460024E3
:1095D0000027A0462A48006800F4E060B0F5E06F7C
:1095E00003D100BF4FF0040830E02548006800F4C4
:1095F000E060B0F5C06F03D101274FF0030825E00C
:109600001F48006800F4E060B0F5A06F02D10227A7
:10961000B8461BE01A48006800F4E060B0F5806FBF
:1096200003D103274FF0010810E01548006800F44B
:10963000E060B0F5407F03D104274FF0000805E05B
:109640004FF4A06000F020F80227B846C7F10400EC
:1096500005FA00F4C8F104010F20C840304004436B
:1096600024010848C45403F01F0101208840591107
:10967000890001F1E021C1F80001BDE8F08100009E
:109680000CED00E000E400E002490143024A1160F1
:10969000704700000000FA050CED00E070B50446CC
:1096A0000D461148046011480560FFF73DFBDFEDF2
:1096B000100A20EE200ABDEEC00A10EE106A0A4819
:1096C00001683046FCF732F8FFF734FBDFED080A9B
:1096D00020EE200ABDEEC00A10EE106A03480168B1
:1096E0003046FCF729FB70BD380200203C02002008
:1096F00000007A442DE9F04105460E461C480768F3
:109700001C480068001D01F04BFE50B91948006864
:1097100090F82C10012088401749096881431648A9
:109720000160681C38B936B112480168091D134838
:1097300001F074FE1AE07C190E4800684460BC42D7
:1097400007D20C480168091D0D48006801F04CFE65
:109750000CE008480168091D0A48006801F044FE51
:1097600009480068844201D207480460BDE8F081DE
:1097700058000020440000205C000020FC0B00206A
:109780004C000020480000207400002010B5044662
:1097900001F050FE24480068401C2349086023481B
:1097A000006840B9214804600846006801280DD1CE
:1097B00000F00EFA0AE01E48006838B91B4800683D
:1097C000C06AE16A884201D81848046019480068F4
:1097D000401C1849086008460068206494F82C1062
:1097E0000120884014490968084313490860E16A68
:1097F00001EB8101114A02EB8100211D01F00EFEF7
:1098000001F042FE0A48006868B108480068C06A72
:10981000E16A884207D24FF0805009490860BFF3DF
:109820004F8FBFF36F8F10BD540000204400002005
:1098300060000020700000205C000020E40A00208E
:1098400004ED00E010B501F0F5FD10480068D0B956
:109850000F4801F0B9FD0F4801F0B6FD0C480E4964
:1098600008600C480D49086000220C210A2002F013
:1098700045F9064908600846006820B108A1034878
:10988000006801F0C1FE01F0FFFD10BD8C0000205A
:10989000100C0020240C00208400002088000020F0
:1098A000546D72510000000010B516E001F0C2FDC9
:1098B0000C48C068C468201D01F072FD0A480068A9
:1098C000401E0949086009480068401E07490860B1
:1098D00001F0DAFD204600F05FF804480068002837
:1098E000E4D110BDE80B00205400002050000020FF
:1098F00070B504460D46206C70B1216CE0680144DF
:10990000E160D4E90210884201D32168E160284671
:10991000226CE168FAF7A8FD70BD2DE9F04104461C
:109920000F4615464FF00008A66B206C48B920681A
:1099300000282CD1A06802F031FE80460020A060F3
:1099400025E07DB93946226C6068FAF78DFD216CFF
:10995000606808446060D4E90101884217D3206838
:10996000606014E03946226CE068FAF77DFD216CF6
:10997000E068411AE1602168E068884203D2216C06
:10998000A068411AE160022D01D106B1761E701C5B
:10999000A0634046BDE8F08110B50446206B01F09D
:1099A00091FD204601F08EFD10BD01464A6A22B1AC
:1099B0000A6B1268C2F10A0000E000207047000044
:1099C0000146084A126812680AB9012200E0002222
:1099D0000A600A6822B9034A1268D268106800E077
:1099E000002070478400002030B54FF4A043174892
:1099F00000F007042CB1C01D20F00700134C041B1D
:109A00001B1B0246124C22600024114D6C60D018C2
:109A1000083820F007000F4C206000240D4D2D6801
:109A20006C600C4D2D682C601146441A4C60094C3A
:109A300024680C60084D4C682C60084D4C682C6004
:109A40004FF00044064D2C6030BD0000380C002063
:109A500098000020A0000020A8000020A400002002
:109A6000B400002000BFFFF71FFF06480068012870
:109A7000F9D94FF0805004490860BFF34F8FBFF30E
:109A80006F8FF0E7E40A002004ED00E02DE9F041DB
:109A900006460D4617469846069C0DB9246000E020
:109AA0002760E66325640121204602F079F884F8F6
:109AB0004C80BDE8F0812DE9F05F82460E4690466D
:109AC0009B460A9F0C9C4FEA8801A522206BFAF75F
:109AD000DFFCA8F10100216B01EB800929F00709E7
