:020000040800F2
:1080000078230020F98200086F8A0008678A000838
:108010006B8A000857880008318C000800000000B7
:10802000000000000000000000000000398200088D
:10803000A98800080000000095820008198B00083C
:1080400013830008138300081383000813830008B8
:10805000138300081383000813830008AD88000809
:108060001383000813830008138300081383000898
:1080700013830008138300085D8800087D880008CA
:108080001383000813830008138300081383000878
:108090001383000813830008138300081383000868
:1080A0001383000813830008138300081383000858
:1080B0001383000813830008138300081383000848
:1080C0001383000813830008138300081383000838
:1080D00013830008BD8B0008138300081383000876
:1080E0001383000813830008138300081383000818
:1080F00013830008138300081383000800000000A6
:108100001383000800000000138300081383000895
:1081100013830008138300081383000813830008E7
:1081200013830008138300081383000813830008D7
:1081300013830008138300081383000813830008C7
:1081400013830008138300081383000813830008B7
:1081500000F002F800F061F80AA090E8000C8244F8
:108160008344AAF10107DA4501D100F056F8AFF2D5
:10817000090EBAE80F0013F0010F18BFFB1A43F005
:1081800001031847A0580000C05800000A444FF0EF
:10819000000C10F8013B13F0070408BF10F8014B66
:1081A0001D1108BF10F8015B641E05D010F8016BAB
:1081B000641E01F8016BF9D113F0080F1EBF10F80F
:1081C000014BAD1C0C1B09D16D1E58BF01F801CB32
:1081D000FAD505E014F8016B01F8016B6D1EF9D5B5
:1081E0009142D6D3704700000023002400250026CA
:1081F000103A28BF78C1FBD8520728BF30C148BF0A
:108200000B607047642900F0D380002070471FB5D1
:1082100005F03AFB1FBD10B510BD00F0E2FA1146A3
:10822000FFF7F5FF02F0EAFD00F000FB03B4FFF7F3
:10823000F2FF03BC00F008FB2C4B19680868B0E89B
:10824000F04F80F30988BFF36F8F4FF0000080F389
:10825000118870470000000008480068006880F33B
:1082600008884FF0000080F3148862B661B6BFF34F
:108270004F8FBFF36F8F00DF00BF00BF08ED00E03E
:10828000DFF80C00016841F470010160704700BF25
:1082900088ED00E0EFF30980BFF36F8F134B1A688E
:1082A0001EF0100F08BF20ED108A20E9F04F10607B
:1082B00009B44FF0500080F31188BFF34F8FBFF324
:1082C0006F8F04F0ABFA4FF0000080F3118809BC07
:1082D00019680868B0E8F04F1EF0100F08BFB0EC46
:1082E000108A80F30988BFF36F8F70472800002041
:1082F000EFF30580704700000948804709480047B0
:10830000FEE7FEE7FEE7FEE7FEE7FEE7FEE7FEE745
:10831000FEE7FEE704480549054A064B70470000A2
:108320004D8B000851810008781B00207823002025
:10833000781F0020781F00200FB41CB5074B06AA39
:108340007B4469460090059800F0DFF900206946FB
:1083500000F0EEF91CBC5DF814FB0000ED0300001A
:1083600070B5044685690068C10601D5302600E075
:108370002026C00707D070BDD4E9012130469047C0
:10838000206A401C20626D1EF6D570BD70B5044693
:1083900085690078C00707D170BDD4E9012120208C
:1083A0009047206A401C20626D1EF6D570BD00000B
:1083B0002DE9F0410646002410687529314616A5BE
:1083C00010D0AFF30080002802DA404213A507E086
:1083D00031688A0701D512A502E0490704D511A525
:1083E000012401E0AFF3008000210A2206F12407F6
:1083F00009E0B0FBF2FCB0FBF2F302FB1C003030F2
:1084000078541846491C0028F3D123462A463046A2
:10841000BDE8F04100F01BB9000000002D00000095
:108420002B000000200000002DE9F05F8946044683
:108430004FF0000ADFF824B1FB44C0F820A020462A
:10844000E168884700287DD0252806D0D4E901219D
:108450009047206A401C2062F1E700255F462046D5
:10846000E16888472028064607DB312E05D2B81977
:1084700010F8200C08B10543F1E7A80701D525F055
:108480000405C4F81CA00027C4F818A02A2E09D09F
:10849000304602F035F838B304EB8708303EC8F8B0
:1084A000186019E059F8041B204604EB870291611B
:1084B000E1688847012F064618D1E069002820DAD4
:1084C00025F020051DE0D8F8180000EB800006EB31
:1084D00040003038C8F818002046E1688847064652
:1084E00002F00EF80028EED1012F0AD02E2E08D16E
:1084F0002046E16888477F1C0646022F45F020058C
:10850000C4DBA069002803DA404245F00105A06100
:10851000E80701D025F01005A6B1A6F14100192801
:1085200002D8203645F400654A463146204625608B
:108530004D46FFF767FE60B1012807D0ED1D25F01D
:10854000070000E007E000F1080978E705F10409F9
:1085500075E730467AE7206ABDE8F09F7254000064
:10856000032A40F2308010F0030C00F0158011F85F
:10857000013BBCF1020F624498BF11F801CB00F837
:10858000013B38BF11F8013BA2F1040298BF00F88B
:1085900001CB38BF00F8013B11F0030300F0CD80A0
:1085A000083AC0F0088051F8043B083A51F804CB6F
:1085B000A0E80810F5E7121D5CBF51F8043B40F835
:1085C000043BAFF30080D20724BF11F8013B11F840
:1085D00001CB48BF11F8012B24BF00F8013B00F884
:1085E00001CB48BF00F8012B704702F0FF0343EABC
:1085F000032242EA024200F0D4B84FF0000200B574
:10860000134694469646203922BFA0E80C50A0E8B5
:108610000C50B1F12001BFF4F7AF090728BFA0E863
:108620000C5048BF0CC05DF804EB890028BF40F82F
:10863000042B08BF704748BF20F8022B11F0804F71
:1086400018BF00F8012B70477047704770472DE93D
:10865000F0470D4699469246044600F12408016809
:10866000880604D5E06921F01001216000E00120B6
:10867000A84201DD471B00E00027A1697A1902EB3F
:108680000900081AA0612078C00602D42046FFF72E
:1086900067FE002608E0D4E901211AF80600904799
:1086A000206A401C761C20624E45F4DB2078C00610
:1086B0000AD52046FFF754FE06E0D4E90121302018
:1086C0009047206A401C2062381EA7F10107F4DCA5
:1086D00007E0D4E9012118F805009047206A401C02
:1086E0002062281EA5F10105F3DC2046FFF74EFEAF
:1086F0002078000602D50220BDE8F0870120FBE7C4
:1087000001694A1C02610878704700B58FB0CDE955
:1087100001310021059105497944CDE90310114645
:108720006846FFF781FE0FB000BD0000E5FFFFFFC8
:108730000A6802F8010B0A60704710B5203AC0F0D1
:108740000B80B1E81850203AA0E81850B1E8185052
:10875000A0E81850BFF4F5AF5FEA027C24BFB1E88F
:108760001850A0E8185044BF18C918C0BDE8104000
:108770005FEA827C24BF51F8043B40F8043B08BF09
:108780007047D20728BF31F8023B48BF11F8012BD0
:1087900028BF20F8023B48BF00F8012B70474FF07C
:1087A00000020429C0F0128010F0030C3FF427AF40
:1087B000CCF1040CBCF1020F18BF00F8012BA8BFCC
:1087C00020F8022BA1EB0C01FFF719BF5FEAC17C77
:1087D00024BF00F8012B00F8012B48BF00F8012B43
:1087E0007047754600F02CF8AE46050069465346C2
:1087F00020F00700854618B020B5FFF78BFDBDE8D7
:1088000020404FF000064FF000074FF000084FF0F7
:10881000000B21F00701AC46ACE8C009ACE8C00988
:10882000ACE8C009ACE8C0098D46704710B50446F5
:10883000AFF300802046BDE81040FFF7F7BC000012
:1088400000487047141B002001491820ABBEFEE70A
:1088500026000200704700BFFEE7000010B50222AC
:108860000321054801F0EFFF20B101220321024856
:1088700001F0E1FF10BD00000000024010B502222F
:108880000421074801F0DFFF40B10648006800F00E
:10889000BFF801220421024801F0CDFF10BD000005
:1088A00000000240000000207047000008B50220D0
:1088B00002F0D6F8B8B169460B48006804F0AAFA8D
:1088C00001210A48007800F036FB022002F0C2F8CD
:1088D000009838B14FF0805005490860BFF34F8FC2
:1088E000BFF36F8F00BF08BD0C000020C80100203F
:1088F00004ED00E02DE9F04104460D4616464FF028
:1089000000083146204600F029F820B31DB31EE0D0
:1089100000BF5022EFF3118182F31188BFF34F8F14
:10892000BFF36F8F00BF0846E2682168B1FBF2F326
:1089300002FB13172978A268D1552168491C2160D0
:10894000014681F3118800BF6D1C761E00BF002E0A
:10895000DED14FF001084046BDE8F081F0B5044695
:108960000E4600BF5021EFF3118081F31188BFF351
:108970004F8FBFF36F8F00BF054654B1204600F004
:1089800013F8E168081AB04201D3012002E0002088
:1089900000E00020074600BF85F3118800BF38467D
:1089A000F0BD016142617047F0B5014699B100BF69
:1089B0005026EFF3118586F31188BFF34F8FBFF375
:1089C0006F8F00BF2C460A684B68D01A254685F386
:1089D000118800BF00E00020F0BD70B5B8B1B1B1A2
:1089E000AAB100BF5025EFF3118485F31188BFF3BE
:1089F0004F8FBFF36F8F00BF234600240460446095
:108A00008160C2601C4684F3118800BF00BF70BD46
:108A1000F0B5ADF2044D04460026002701A86169B7
:108A20008847064600BF5021EFF3118081F311887B
:108A3000BFF34F8FBFF36F8F00BF05462046FFF790
:108A4000B3FFA189081A87B2BE4200DD3E46324616
:108A500001A92046FFF74EFF00BF85F3118800BF34
:108A60000DF2044DF0BD00BFFEE700BFFEE770470A
:108A700010B5522026490870084604784FF48070DB
:108A800024490860052003F085FD4FF480702149DA
:108A9000091F0860052003F07DFD00BF012003F0E1
:108AA00079FD1B48007800F0EBFA002118480078A7
:108AB00000F052FA1648007800F04AFB02211448F0
:108AC000007800F0E5FE01211148007800F089FDF2
:108AD00032210F48007800F057FC00231A46642129
:108AE0000B48007800F0B8FC07210948007800F036
:108AF00022FA0748007800F0EFFC002104480078D3
:108B000000F06FFD01210248007800F014FA10BD5A
:108B1000C8010020140C014010B500BF502080F3A4
:108B20001188BFF34F8FBFF36F8F00BF04F012FCAB
:108B300018B14FF080500449086000BF002080F356
:108B4000118800BF10BD000004ED00E008B5184812
:108B5000006840F47000164908601648006840F04C
:108B60000100144908600846406840F080004860F1
:108B70000020009002E00098401C009044F6206124
:108B800000988842F7D300200A494860C862084626
:108B9000006809490840074908604FF41F008860D1
:108BA0000846006820F48020086003F055F908BDED
:108BB00088ED00E000100240FFFFF6FE08B5164900
:108BC000164803F032FB60B115480068FFF720FF3C
:108BD0001149124803F01CFB104800680F48001DA3
:108BE000006810490D4803F020FB98B169460E4813
:108BF000006804F00FF90B49084803F009FB0098DE
:108C000038B14FF0805009490860BFF34F8FBFF370
:108C10006F8F00BF08BD000004030400003801404E
:108C20000000002006030600A800002004ED00E07C
:108C300000BFFEE72DE9F04105460F4616461C46EB
:108C400000BF286800F400700028FAD100BF40F28D
:108C50000161284602F08CF80028F8D1284602F07D
:108C6000AEF800BF4FF4A061284602F081F800285A
:108C7000F8D001223946284602F089F800BF40F2B8
:108C80000151284602F074F80028F8D040F2015152
:108C9000284602F059F81CE0012C0BD100BF40F22D
:108CA0000251284602F064F80028F8D00021284636
:108CB00001F092FF00BF40F20651284602F058F83A
:108CC0000028F8D0284602F033F806F8010B601EA1
:108CD000C4B2002CE0D1284602F076F800BF286824
:108CE00000F400700028FAD10121284601F074FF39
:108CF0000020BDE8F0812DE9F04105460F461446FD
:108D00001E4600BF40F20161284602F031F80028FB
:108D1000F8D1284602F053F800BF4FF4A06128466E
:108D200002F026F80028F8D06FF0010239462846F4
:108D300002F02DF800BF40F20151284602F018F869
:108D40000028F8D040F20151284601F0FDFF0CE068
:108D50002178284601F0F0FF00BF40F20751284675
:108D600002F006F80028F8D0641C301EA6F10101BC
:108D7000CEB2EDD1284602F027F800BF286800F4F3
:108D800000700028FAD1BDE8F08100008EB0032207
:108D90000021012003F03CFE20490860FFF768FE37
:108DA00001F0B6FB38E04FF0FF311C48006804F0DA
:108DB00067F904A91A48007800F024FA069808BB5D
:108DC000049C184800684DF69911484342F26761C7
:108DD00004FB0100001413490860084612A1026850
:108DE0001348FFF7A9FA00BF0020019002900390FA
:108DF00010A101A8049AFFF79FFA042101A803F02B
:108E000057F809E006480578069C22460AA10C4856
:108E1000FFF792FA00BF00BFC5E700000C0000207A
:108E2000C8010020180000207225336400000000F3
:108E30001000002025640A00452D25303264000012
:108E40001C00002070B506460C46042C08DCE00629
:108E5000030EC7221421304600F024FC054601E031
:108E60006FF00105284670BD2DE9F04107460C461C
:108E700024F04004072C00DD072444F0400632466D
:108E80003F21384600F07AFD05460DB9024884823C
:108E90002846BDE8F0810000F80000202DE9F041EF
:108EA00007460D46012D02DB681E84B200E02C4609
:108EB000B4F5E87F02DD4FF4E87403E0FF2C01D144
:108EC000601C84B222464021384600F083FD0646ED
:108ED0000EB9024844823046BDE8F081F800002017
:108EE0002DE9F04106460C4640F6F610844200DBC0
:108EF00004460A2094FBF0F0C7B23A463E213046C1
:108F000000F03CFD05462846BDE8F0812DE9F04122
:108F100006460C46174622463C21304600F02EFD00
:108F200005462DB93A463A21304600F027FD054660
:108F30002846BDE8F08170B506460C46072C06DCD5
:108F400022461521304600F019FD054601E06FF07C
:108F50000105284670BD000010B50246014C61763F
:108F6000002010BDF80000202DE9F04180460C469D
:108F700016460C4890F8800058B14D2C09DB842C23
:108F800007DCA4F14D00074981310F5C37700025E3
:108F900005E032462146404600F0A7FA054628463D
:108FA000BDE8F081F80000202DE9F04180460C4634
:108FB0001646124890F88000B0B14D2C14DB812C7D
:108FC00012DCA4F14D010D4A81328818017809069E
:108FD000427841EA0241827841EA0221C27841EABC
:108FE00002073760002505E032462146404600F082
:108FF00098FA05462846BDE8F0810000F8000020F8
:109000002DE9F04180460C4617460E4890F8800046
:1090100078B14D2C0DDB832C0BDCA4F14D01094AFA
:10902000813288184178027841EA02263E80002584
:1090300005E03A462146404600F0B4FA0546284687
:10904000BDE8F081F800002070B504460D461646D4
:1090500033462A4621460248FFF7ECFD70BD00006A
:109060000054004070B504460D46164633462A4665
:1090700021460248FFF73FFE70BD0000005400404B
:109080002DE9FF41074655202F490881642048817A
:1090900000212D48017401202B4908766420488264
:1090A00001208882C882487681F8CC00384600F0DA
:1090B00081FD00BF03AA2421384600F016FA0446B9
:1090C00004B13BE09DF90C001F4981F8CD0001AAD5
:1090D0002621384600F025FA044604B12EE0019816
:1090E0006FF30F0008B919480190174901980860FB
:1090F0006A461E21384600F055FA044604B11DE0C8
:10910000BDF800004FF47A714843C6090E48466026
:10911000384600F0C5FC0546002D00DA0EE002AA34
:109120001621384600F0E1F9044604B106E09DF846
:109130000800012800D105B1012400BF00BF20466E
:1091400004B0BDE8F0810000F8000020F803CE0074
:1091500070B5054600BF284600F06AFA0446002CA8
:1091600000DA3BE00421284600F03BF8044604B155
:1091700034E0C8220A21284600F047F9044604B129
:109180002CE064212846FFF789FE044604B125E05F
:10919000C8212846FFF7A4FE044604B11EE00021C2
:1091A0002846FFF761FE044604B117E0FF220021C4
:1091B0002846FFF7ABFE044604B10FE00421284621
:1091C000FFF740FE044604B108E0284600F004FE24
:1091D00007212846FFF7AFFE044600BF00BF204628
:1091E00070BD70B506460C46042C07DC2346F822F9
:1091F0001421304600F056FA054601E06FF00105F3
:10920000284670BD7CB506460C46304600F0F8FB9B
:10921000054605B13FE02146304600F043F80546DB
:10922000002D36D101AA66213046FFF7E9FE05463A
:1092300075BBBDF8040060606A464D213046FFF7FB
:1092400093FE054625B99DF800000011A06000E0DE
:1092500000BF2146304600F021FD054605B11AE069
:109260000F48407E58B12146304600F07FFD05464C
:109270002DB9606A18B1606AA060208C206008482F
:1092800090F8CC0030B12146304600F0DBFB01E025
:1092900000E000BF00BF304600F0CCFB28467CBD9C
:1092A000F8000020F8B507460C466A4662213846A9
:1092B000FFF75AFE054635B90448067E9DF80000C2
:1092C00016FB00F020602846F8BD0000F8000020E2
:1092D0002DE9FF5F81464FF47A70039040100290B1
:1092E0001F48B0F808A0B0F80AB000BF6A461C21B9
:1092F000484600F0FAF8044604B12CE09DF80080DE
:10930000484600F093FC0546002D02DA4FF0FF348A
:1093100021E008EB4800C0EBC810C5EBC00601AA6D
:10932000B821484600F0FDF8044604B113E0019866
:10933000000201904FF4FA710AFB01F001994843D1
:1093400006FB0BF1B0FBF1F7BAB22221484600F060
:1093500041FB044600BF00BF204604B0BDE8F09FBB
:10936000F80000202DE9F04107460D460DB101241B
:1093700000E000242346FE222D21384600F092F919
:1093800006463046BDE8F0812DE9F04107460C461F
:1093900000BF40F6F610844202D96FF0010515E0D7
:1093A0000A2C00D20A240A20B4FBF0F0C6B23246DE
:1093B0001B21384600F0E2FA054605B105E00A2017
:1093C000B4FBF0F0B04200D0022500BF00BF284639
:1093D000BDE8F08170B506460D46002400BF2A4660
:1093E0001C21304600F0CAFA044604B10AE03046B7
:1093F000FFF76EFF044604B104E0304600F050FB76
:10940000044600BF00BF204670BD2DE9F04106466E
:109410000C4617463A461921304600F0AFFA054689
:109420002DB922461A21304600F0A8FA05462846F2
:10943000BDE8F08170B506460D46032D07DC2A46CF
:109440001821304600F09AFA044614B101E06FF09A
:109450000104204670BD00002DE9F05F81460E46F4
:10946000174698461B48057EC5EB0520B04203DB36
:10947000C5EB0520B84202DA6FF0010427E000BF17
:10948000B8F1000F06D00121484600F0AAF80446C2
:1094900004B11BE097FBF5F000F0FF0A96FBF5F036
:1094A00000F0FF0B524659464846FFF7AEFF044610
:1094B00004B100BFB8F1000F07D00021484600F00A
:1094C00090F8824604B9544600BF00BF00BF204652
:1094D000BDE8F09FF800002070B504460321204647
:1094E000FFF7A8FF0546284670BD2DE9FC418046E0
:1094F0000D4617466C4628122070657002222146E0
:109500004046FFF7AFFD064646B9012221464046D8
:10951000FFF79AFD06460EB9207838703046BDE850
:10952000FC812DE9FC4180460D4617466C46281209
:1095300020706570022221464046FFF793FD0646E3
:109540008EB9042221464046FFF77EFD064656B9F5
:1095500020780006617840EA0140A17840EA0120C5
:10956000E178084338603046BDE8FC812DE9FC47CE
:1095700081460C4616461F466D46201228706C70B8
:10958000022229464846FFF76DFD8046B8F1000FDC
:1095900005D1FAB231464846FFF756FD80464046AF
:1095A000BDE8FC872DE9FC4180460D4617466C4618
:1095B000281220706570022221464046FFF752FDB6
:1095C00006465EB9022221464046FFF73DFD0646AB
:1095D00026B96078217840EA012038803046BDE81D
:1095E000FC812DE9F04107460D460DB1012400E054
:1095F000002422461721384600F0C0F906463046BE
:10960000BDE8F081024600204FF0804100E089086B
:109610009142FCD809E04318934204D84318D21A67
:1096200001EB500000E0400889080029F3D17047A1
:10963000F8B5064600251A48007E012800D100BF73
:10964000304600F07FF90446002C00DA26E0002CBA
:1096500000DD00BF00BF6A464FF490713046FFF74F
:1096600044FF054605B111E09DF800000C49C88291
:109670006A463F213046FFF738FF054605B105E051
:109680009DF800103046FFF7EFFB00BF00BF002D34
:1096900000DA00BF0DB904B1254600BF2846F8BD69
:1096A000F80000202DE9FC4781460D4617469846F4
:1096B0006C46281220706570022221464846FFF74A
:1096C000D1FC06468EB90122A11C4846FFF7BCFC1E
:1096D000064656B9A078384040EA0800A070032238
:1096E00021464846FFF7BEFC06463046BDE8FC87EB
:1096F00010B50446012240F20721204600F03EF951
:1097000001224FF40271204600F038F90022962120
:10971000204600F033F954229721204600F02EF91C
:109720000022E321204600F029F90422E42120460A
:1097300000F024F90222E521204600F01FF9012261
:10974000E621204600F01AF90322E721204600F026
:1097500015F90222F521204600F010F90522D92141
:10976000204600F00BF9204600F0F0FA00229F217D
:10977000204600F003F92822A321204600F0FEF83D
:109780000022B721204600F0F9F82822BB2120460C
:1097900000F0F4F80922B221204600F0EFF8092287
:1097A000CA21204600F0EAF801224FF4CC7120468D
:1097B00000F0E4F817224FF4D871204600F0DEF8EC
:1097C000002240F2AD11204600F0D8F80522FF211A
:1097D000204600F0D3F805224FF48071204600F0B7
:1097E000CDF8052240F29911204600F0C7F81B225F
:1097F0004FF4D371204600F0C1F83E224FF4D671E9
:10980000204600F0BBF81F2240F2A711204600F0CE
:10981000B5F800223021204600F0B0F810221121C6
:10982000204600F0ABF830224FF48571204600F05E
:10983000A5F846223F21204600F0A0F8FF22312162
:10984000204600F09BF863224021204600F096F865
:1098500001222E21204600F091F8FF222C212046E3
:1098600000F08CF809221B21204600F087F83122F5
:109870003E21204600F082F824221421204600F0E8
:109880007DF832212046FFF7A5FD002010BD000025
:109890002DE9F04781460C46012C4ADB032C48D8C1
:1098A000601E264931F810703A469621484600F06D
:1098B00091F805462248047690F9CD0090FBF4F02B
:1098C0004FFA80F808F0FF022421484600F056F8CD
:1098D000054655B9142090FBF4F000F0FF0A5246FB
:1098E0002121484600F04AF805468DB91448007C0D
:1098F00070B113488689007E96FBF0F086B2FF2E89
:1099000000DDFF26F2B22521484600F037F8054673
:109910004DB9012C01D1012000E00020014648464C
:10992000FFF720FD054635B900BF012C03D0032504
:1099300001E06FF001052846BDE8F08792D80008E5
:10994000F800002070B5054600BF2846FFF7D0FE9E
:10995000044604B100E000BF00BF54B90648017ED0
:109960002846FFF795FF044600221621284600F0FE
:1099700005F8204670BD0000F80000202DE9FC41EC
:1099800007460D4616466C46281220706570A67074
:10999000032221463846FFF765FB80464046BDE876
:1099A000FC812DE9FC4107460E4615466C463012F7
:1099B00020706670280EA070280CE070280A2071B4
:1099C0006571062221463846FFF74CFB804640462B
:1099D000BDE8FC812DE9FC4107460D4616466C4664
:1099E0002812207065703012A070E67004222146A3
:1099F0003846FFF737FB80464046BDE8FC81000053
:109A000070B506460A4890F8800068B901200849F8
:109A100081F8800001F1810538232A464D21304626
:109A2000FFF7A4FD044600E00024204670BD0000BE
:109A3000F80000200021024A82F8801070470000E0
:109A4000F80000202DE9F04781460D46EF681148E7
:109A5000874219D23946484600F0B4F804460E4809
:109A600090F81880A8F101000C4931F810600A48FC
:109A7000B0F8C800A04202DA0748B0F8C840B442C3
:109A800000DD3446EC6101E00020E8610020BDE823
:109A9000F087000010090500F800002098D80008A1
:109AA0002DE9F04F87B082464FF0000B00BF06AAA9
:109AB0002A215046FFF719FD044604B170E09DF8D5
:109AC000180018B94FF0010B282006909DF81800D7
:109AD0004FF47A7110FB01F0C70902AA2D215046FC
:109AE000FFF703FD044604B15AE003AA1C215046C7
:109AF000FFF7FBFC044604B152E004AAB82150462B
:109B0000FFF70FFD044604B14AE001AA2C2150469C
:109B1000FFF7EBFC044604B142E09DF804004FF46B
:109B20007A5191FBF0F12248C0F8C4104568AF4269
:109B300002D3C0F8C07003E000211D48C0F8C01077
:109B40009DF8080000F0020070B105AA26215046D9
:109B5000FFF728FD044604B122E0BDF814004FF4DD
:109B60007A714843C60900E00026049801029DF876
:109B70000C00001FB1FBF0F8701B404501DBA6EBA9
:109B800005089DF8040008FB00F04FEA101949464B
:109B9000504600F017F881B20548A0F8C81000BF81
:109BA00000BF04B95C46204607B0BDE8F08F000056
:109BB000F80000205021024AC2F8BC107047000093
:109BC000F80000202DE9F04782460E461548D0F8EF
:109BD000BC90D0F8C470D0F8C080002E1DDD1248B3
:109BE00090FBF6F0A0F5F274002C01DC002516E0E5
:109BF000B4F5005F06DA04FB08F007EB0901B0FBDF
:109C0000F1F405E007EB0900B4FBF0F000FB08F409
:109C10002046FFF7F7FC054601E06FF000452846B7
:109C2000BDE8F087F8000020006889092DE9F14FB0
:109C300082B04FF018094FF0460A4FF0C80B0720CA
:109C400001906A4640F209110298FFF74EFC8046E7
:109C5000B8F1000F03D04FF0FF30BDE8FE8F9DF844
:109C60000000019900EA01046A464FF485710298E8
:109C7000FFF73BFC8046B8F1000F02D04FF0FF30F9
:109C8000EBE79DF8005009EB0A0005EB850100EBBE
:109C90004106601C00FB06B73846DEE72DE9FF5F92
:109CA00081460D46002003900027804602900190D7
:109CB00000906FF0004A4FF0060B002600BF02AA8A
:109CC0006C214846FFF770F9044604B139E0029868
:109CD000504501D90020029001AA74214846FFF79F
:109CE00063F9044604B12CE003AA7C214846FFF73F
:109CF0005BF9044604B124E06A4680214846FFF738
:109D000053F9044604B11CE0039868610098A86107
:109D1000009E00990398884200D9039E0EB94FF225
:109D200018664FF47A7102984843B0FBF6F7019831
:109D300000FB0BF04843B0FBF6F82F61C5F80C8030
:109D400000BF00BF204604B0BDE8F09F70B50446D8
:109D50000026054806683246DA212046FFF721FE34
:109D60000546284670BD0000F80000202DE9FE439E
:109D700081460C460027174890F8188000BF02AAB9
:109D800064214846FFF7F0F8064606B11DE09DF84D
:109D90000870208980B2E168CDE9001007FB08F067
:109DA00082B2208881B24846236900F039F805461E
:109DB000002D02DA4FF0FF3607E0258407FB08F09C
:109DC00060840448C16F616200BF00BF3046BDE8D7
:109DD000FE830000F8000020024600200F4BD861EF
:109DE00000230E4843668366C36603674367A0F893
:109DF0006030836700210AE04FF6FF730748243084
:109E000020F811300023143040F82130491C0A2971
:109E1000F2DB00230148036200207047F8000020B5
:109E20002DE9FF4FA7B017461D4600BF0020239025
:109E3000012022904FF00009002021901F901E90D9
:109E40001D901C901B901A90199018900026179046
:109E50001690159014901390129011904FF4E160A9
:109E600007904FF496700490FC48007EC0EB0020F1
:109E7000039035980C2806D00D280AD00E2803D060
:109E80000F2812D106E000BF1020219000201F9063
:109E900016E000BF10202190F048007EC82110FB82
:109EA00001F0289001201F900AE00398874204D314
:109EB00000201F900120239001E001201F9000BF8F
:109EC00000BF28982690E54840680590E348D0F800
:109ED000C0000C90059800F548700B90B4210C98C8
:109EE00048434FF49C71B0FBF1F1059808440A9087
:109EF00040F252310C9848434FF49C71B0FBF1F1A1
:109F00000598084409904FF4AF610C9848434FF40A
:109F10009C71B0FBF1F10598084408903C2F06DADB
:109F20000B98854203D24FF0100901202390A52FF2
:109F300006DA0A98854203D24FF0100901202390D7
:109F4000A52F05DA0A989630854201D201201E908D
:109F500043F698213498884202D901201A90239020
:109F60004B2D02D201201A902390BC48806BC8B1BF
:109F7000BA48806BA8420AD2B848806B281A64217C
:109F80004843B649896BB0FBF1F019900CE0B34837
:109F9000806B401B64214843B049896BB0FBF1F0F2
:109FA000199001E0002019901998322801D9012058
:109FB0001A901A98012816D10020A849C8610024D7
:109FC0000BE04FF6FF71A548243020F81410002153
:109FD000143040F82410601C84B20A2CF1DB0021FC
:109FE0009E48016212E009240EE0611E9B48243065
:109FF00030F8111020F81410611E143050F82110A0
:10A0000040F82410601E84B2002CEEDC1F9801285A
:10A0100003D192492898888403E04FF6FF718F4856
:10A0200081848E488563006A401C8C490862B7F5BC
:10A03000AF7F02DA0998854208D3B7F5AF7F02DB1C
:10A040000898854202D3012023900DE0219858B151
:10A0500035980C2802D035980E2801D1DDF884906F
:10A06000012023900020229006AA4FF4D671279851
:10A07000FFF73BFA8046B8F1000F00D011E29DF8DF
:10A0800018002090082324AA4FF486712798FFF720
:10A090006DFA8046B8F1000F00D002E29DF8900002
:10A0A00000069DF8911000EB01409DF8921000EB26
:10A0B00001209DF8931000EB010A9DF89400000622
:10A0C0009DF8951000EB01409DF8961000EB0120E3
:10A0D0009DF8971000EB010B1A98012805D02398E2
:10A0E00001281DD1229801281AD120983E280AD093
:10A0F0003E224FF4D6712798FFF740FC8046B8F116
:10A10000000F00D0CDE15548C0F864A0C0F868B099
:10A11000C0F86CA0C0F870B000205049C86128E0B9
:10A1200020983E2805D14D48C0F864A0C0F868B01A
:10A1300004E04A48C0F86CA0C0F870B04748007FFF
:10A1400000F0010010B93C20069001E03E2006908E
:10A150009DF818204FF4D6712798FFF70FFC804622
:10A16000B8F1000F00D09CE13C48C069401C3B495D
:10A17000C861239801280CD13848C0F87C90B9F107
:10A18000100F02D1039880B2269026982BB0BDE81C
:10A19000F08F3248816E006F814205D92F48816E61
:10A1A000006F081A109001E0002010902B491098C1
:10A1B00048671E9818B94FF4E160079002E04FF429
:10A1C000617007902548416EC06E814205D92348D1
:10A1D000416EC06E081A0F9004E02048C16E406EB8
:10A1E000081A0F9007990F98884204D907990F9879
:10A1F000401A0E9001E000200E9007990F98084435
:10A200000D900E991098884203D30D9910988842AA
:10A2100004D901201D904FF01009CCE00F48C0690F
:10A22000012802D80520189001E00320189005208D
:10A230004FF461711E239622CDE90010294634980F
:10A2400000F036F904900026002017901690159023
:10A2500014901390129000241AE00000F8000020DF
:10A26000914830F814004FF6FF7188420ED0701CF0
:10A2700086B28D4830F814101798084417908A4811
:10A28000143050F82410149808441490601C84B2C0
:10A290000A2C01DA062EE3DB002E07DD1798B0FB4F
:10A2A000F6F016901498B0FBF6F0139000260020FC
:10A2B00017901490002428E07B4830F814004FF6E3
:10A2C000FF7188421FD0701C86B2774830F8141096
:10A2D0001698091A744830F814201698121A17980C
:10A2E00001FB020017907048143050F824101398A6
:10A2F000091A6D48143050F824201398121A149833
:10A3000001FB02001490601C84B20A2C01DA062EB4
:10A31000D2DB189886420ADB1798B0FBF6F080B2C1
:10A3200015901498B0FBF6F080B2129002E0002075
:10A33000159012905D491298884238D2189886423A
:10A3400002DA4FF0100936E040F6AC51129888421C
:10A350000DD240F6A6610498081A1299484340F6B7
:10A36000AC51B0FBF1F104980844119002E040F6C2
:10A37000A66011904C482438C06F10B91198800025
:10A38000119004991598B1EBC00F04D9062E02DB89
:10A3900001201B900FE011991598884202D20120EC
:10A3A0001C9008E001201D904FF0100903E00120EF
:10A3B0001D904FF010091F9880B93B482438B0F821
:10A3C000600000284BDD38482438B0F86000401E9B
:10A3D00081B235482438A0F8601040E01D9801286B
:10A3E00013D131482438B0F86000801C81B22E4867
:10A3F0002438A0F86010B0F8600004282FDD042194
:10A4000029482438A0F8601029E01C9801281ED1A2
:10A4100025482438B0F86000002820DD4FF01009EE
:10A4200021482438B0F8600001280ADD1E4824388D
:10A43000B0F86000401E81B21B482438A0F86010BC
:10A440000DE0002118482438A0F8601007E01B98A0
:10A45000012804D1002114482438A0F860101248C3
:10A460002438C06F88B9B9F1000F0ED001240AE07A
:10A470004FF6FF710C4820F814100021143040F8FA
:10A480002410601C84B20A2CF2DB07482438C0F880
:10A490007C90B9F1100F02D1039880B226902698D3
:10A4A00074E64FF0FF3071E61C010020905F010060
:10A4B0002DE9F04104460F46DDE9065644B14FF060
:10A4C000640C07FB0CFCBCFBF4FC1FFA8CF101E0F4
:10A4D00042F20F71994201D310460FE0B14201D808
:10A4E00028460BE0A1EB060CA5EB02080CFB08FCD0
:10A4F000A3EB0608BCFBF8FCA5EB0C00BDE8F08163
:10A5000030380A2801D2012070470020704700002F
:10A5100010B540F2026001F0E5FB4FF4C06001F0BD
:10A52000E1FB0223032204210A4800F0F7FA00228B
:10A530000A21072000F0ECFC0121002000F0A2FA23
:10A5400001220021022000F029FA022000F082FA04
:10A5500010BD00000008014010B5044640F2036041
:10A5600001F0C0FB40F2157001F0BCFBC0230322D8
:10A570001C210B4800F0D2FA00220A49204600F0C4
:10A5800037FB522300221146204600F00AFC2046E9
:10A5900000F0D5FB0121204600F01EFB10BD00009D
:10A5A000000C0140801A060010B504460322002169
:10A5B000012002F02DFA0549086000F093FC2046C6
:10A5C00001F0DEFC01F076FD10BD0000A8000020C7
:10A5D00070B505460C462146284600F0A1F908B999
:10A5E00000BFFEE704EB8400810005F1080040583D
:10A5F00020F0010104EB8400820005F10800815085
:10A6000070BD70B505460C462146284600F088F915
:10A6100008B900BFFEE704EB8400810005F10800E3
:10A62000405840F0010104EB8400820005F108006D
:10A63000815070BD70B505460C462146284600F095
:10A640006FF908B900BFFEE704EB8400810005F153
:10A650000800405820F0200104EB8400820005F13E
:10A660000800815070BD70B504460D46294620464D
:10A6700000F056F908B900BFFEE705EB8500810040
:10A6800004F10800405820F0010105EB850082002C
:10A6900004F108008150002105EB8500820004F1DF
:10A6A0000800815005EB8500820004F10C00815008
:10A6B00005EB8500820004F11000815005EB850058
:10A6C000820004F1140081506068AA000F219140BB
:10A6D0000843606070BD2DE9F04104460D46164602
:10A6E0002946204600F01CF908B900BFFEE705EB3B
:10A6F0008500820004F110003168815005EB85006F
:10A70000820004F11400B1688150308A81B205EBF7
:10A710008500820004F10C00815005EB850081006A
:10A7200004F10800475827F47C57F1687068084323
:10A7300071690843074305EB8500810004F10800B7
:10A740004750307E01280ED105EB8500810004F1D1
:10A750000800405840F0400105EB8500820004F1FC
:10A76000080081500DE005EB8500810004F1080030
:10A77000405820F0400105EB8500820004F10800FC
:10A780008150707E01280ED105EB8500810004F117
:10A790000800405840F0800105EB8500820004F17C
:10A7A000080081500DE005EB8500810004F10800F0
:10A7B000405820F0800105EB8500820004F108007C
:10A7C0008150B07E70B905EB8500810004F108006E
:10A7D000405820F0100105EB8500820004F10800CC
:10A7E00081500DE005EB8500810004F10800405820
:10A7F00040F0100105EB8500820004F10800815053
:10A80000BDE8F08170B504460D461646294620463F
:10A8100000F086F808B900BFFEE705EB850081006F
:10A8200004F108004058304305EB85018A0004F12B
:10A830000801885070BD10B543688C0002FA04F41A
:10A840002343436010BD70B5034600BF00BF022A1A
:10A8500004D0042A11D0082A2DD11DE018688E00DA
:10A8600002FA06F600EA060501EB8100860003F114
:10A870000800805900F002041FE018688E0002FAF8
:10A8800006F600EA060501EB8100860003F10800E8
:10A89000805900F0040410E018688E0002FA06F6F1
:10A8A00000EA060501EB8100860003F108008059EB
:10A8B00000F0080401E000BFFEE700BF15B10CB1D5
:10A8C000012070BD0020FCE770B506460C46154619
:10A8D0002146304600F024F808B900BFFEE704EB3B
:10A8E0008400810006F11400455070BD70B5054626
:10A8F0000C462146284600F013F808B900BFFEE7D1
:10A9000004EB8400810005F10800405820F48041E8
:10A9100004EB8400820005F10800815070BD000046
:10A9200002460120034B9A4202D1042900DD002097
:10A93000704700000004024008B900BFFEE7002194
:10A940000160416001768160C1604176016181767C
:10A950004161704770B506460C46154621463046A3
:10A96000FFF7DEFF08B900BFFEE7A9B204EB8400E1
:10A97000820006F10C00815070BD70B505460C4692
:10A9800021462846FFF7CCFF08B900BFFEE704EBDD
:10A990008400810005F10C00405870BD10B52C4BAF
:10A9A0001B6883432A4C2360231D1B688343241D9B
:10A9B0002360231D1B688343241D2360231D1B6804
:10A9C0008343241D236011B101290ED105E0204BE2
:10A9D0001B6803431E4C236008E01D4B1B1D1B68B6
:10A9E00003431B4C241D236000E000BF00BF22B1C5
:10A9F000012A0FD0022A27D119E0154B08331B6812
:10AA00000343134C08342360231D1B688343241D18
:10AA100023601AE00E4B08331B6883430C4C083448
:10AA20002360231D1B680343241D23600DE0084B96
:10AA300008331B680343064C08342360231D1B683E
:10AA40000343241D236000E000BF00BF10BD0000D1
:10AA500000040140014908607047000014040140EF
:10AA600001460748006800EA0102054814380068FA
:10AA700000EA010312B10BB1012070470020FCE78E
:10AA80001404014010B500228B071C0F0F2303FA9A
:10AA900004F204290EDA204B9B6893431E4CA360FA
:10AAA00023469B688C07240F00FA04F423431A4CB6
:10AAB000A3602FE008290EDA174BDB689343164C8E
:10AAC000E3602346DB688C07240F00FA04F4234379
:10AAD000114CE3601EE00C290EDA0F4B1B69934307
:10AAE0000D4C236123461B698C07240F00FA04F4E4
:10AAF0002343094C23610DE0074B5B699343064CEC
:10AB0000636123465B698C07240F00FA04F4234336
:10AB1000014C636110BD000000000140F0B5044627
:10AB200016460025002201F00F0501F0100747B17D
:10AB3000042E05D145F00305E76B1F43E76300E0F2
:10AB4000354300201EE0012787401F40C7B122681F
:10AB50004FEA800C0F2707FA0CF7BA43870005FA73
:10AB600007F73A43282904D1012787401F4067612E
:10AB700005E0482903D1012787401F402761226053
:10AB8000471CB8B20828DED3082022E001278740FE
:10AB90001F40E7B16268A0F108074FEA870C0F2752
:10ABA00007FA0CF7BA43A0F10807BF0005FA07F748
:10ABB0003A43282904D1012787401F40676105E0F7
:10ABC000482903D1012787401F4027616260471C45
:10ABD000B8B21028DAD3F0BD012904D1026842F4DA
:10ABE0008062026003E0026822F4806202607047C3
:10ABF0002DE9F05F04460E4692460EB900BFFEE70F
:10AC0000022000F0C3FF07464648B7FBF0F8B8F152
:10AC10003C0F01D34FF03C08D4F804B02BF07F0B6D
:10AC20004BEA080BC4F804B03F4886421ED83D48A2
:10AC3000B7FBF0F000F10109B9F13C0F02D33C2061
:10AC4000206207E0B9F1020F02D80220206201E081
:10AC5000C4F820907000B7FBF0F5042D00D2042555
:10AC6000E069C5F30B010843E06158E02F488642D4
:10AC70002CD84FF4967008FB00F04FF47A71B0FBBB
:10AC8000F1F0401C2062BAF1000F08D106EB46003B
:10AC9000B7FBF0F5E06920F48040E06109E006EBE5
:10ACA000C60000EB0610B7FBF0F5E06940F4804009
:10ACB000E061C5F30B0008B945F00105E06940F417
:10ACC0000040E061E0692843E06128E0C8EB08103B
:10ACD000C0004FF47A71B0FBF1F0401C2062BAF171
:10ACE000000F08D106EB4600B7FBF0F5E06920F451
:10ACF0008040E06109E006EBC60000EB0610B7FB00
:10AD0000F0F5E06940F48040E061E06940F4004023
:10AD1000E061E0692843E0610120C4F89000BDE8EB
:10AD2000F09F000040420F00A0860100801A06003C
:10AD300001460869C0B27047CAB202617047016833
:10AD400041F001010160704710B540F2015291429B
:10AD500002D1426982690AE000EB9112126801F0A7
:10AD60001F040123A3409A4300EB91131A6010BD06
:10AD700010B5024602EB9110006801F01F04012398
:10AD8000A340184008B1012010BD0020FCE712F1DB
:10AD9000020F02D121F0010101E041F00101016146
:10ADA000704730B50C460021016821F002012143B3
:10ADB0000160C3F3090342EA0305856030BD016801
:10ADC00041F4807101607047016841F400710160D5
:10ADD000704700000FE04FF40050074948614FF4FE
:10ADE0007A7001F0D7FB4FF40050034908614FF42B
:10ADF0007A7001F0CFFBEEE7001001401CB54FF474
:10AE00000041080300F0F0F862B6254A25492648BB
:10AE10000068FDF7C6FD4FF48062244922480068AF
:10AE2000FDF7DBFD4FF4E130FFF7BEFB2048FFF7F5
:10AE300093FB40F2046000F055FF4FF400530322EF
:10AE400010211C48FFF76AFE4FF4005019490861B1
:10AE500040F2036000F046FF4FF48073032210219C
:10AE60001548FFF75BFE4FF48070134914310860FA
:10AE70001248012100238222CDE9001010A11348BD
:10AE800002F022FA124800210B468222CDE900107E
:10AE900010A1134802F018FA01F06AFC00BFFEE7A7
:10AEA00061BE0008B1BE000800000020E4010020DF
:10AEB0000054004000100140000C0140040000203C
:10AEC0006C6564546573745461736B00D5AD000890
:10AED00008000020564C36313830785461736B00CE
:10AEE0008D8D000810B54FF4407000F073F800220B
:10AEF00011460F2000F00CF8002211460E2000F041
:10AF000007F800220A21252000F002F810BD0000F9
:10AF10002DE9F04103460D46164600240027A046C1
:10AF20002A48006800F4E060B0F5E06F03D100BF8C
:10AF30004FF0040830E02548006800F4E060B0F508
:10AF4000C06F03D101274FF0030825E01F480068B8
:10AF500000F4E060B0F5A06F02D10227B8461BE014
:10AF60001A48006800F4E060B0F5806F03D1032751
:10AF70004FF0010810E01548006800F4E060B0F5FB
:10AF8000407F03D104274FF0000805E04FF4A06094
:10AF900000F020F80227B846C7F1040005FA00F4D3
:10AFA000C8F104010F20C840304004432401084880
:10AFB000C45403F01F01012088405911890001F198
:10AFC000E021C1F80001BDE8F08100000CED00E0D7
:10AFD00000E400E002490143024A116070470000AA
:10AFE0000000FA050CED00E0024A0A400243024B61
:10AFF0001A60704780FFFF1F08ED00E02DE9F04167
:10B0000005460E461C4807681C480068001D01F0F4
:10B0100050F950B91948006890F82C100120884068
:10B0200017490968814316480160681C38B936B170
:10B0300012480168091D134801F079F91AE07C19DA
:10B040000E4800684460BC4207D20C480168091DE4
:10B050000D48006801F051F90CE008480168091D2D
:10B060000A48006801F049F909480068844201D2A1
:10B0700007480460BDE8F0813C0000202800002063
:10B0800040000020D8060020300000202C000020C6
:10B090005800002010B5044601F056F92448006815
:10B0A000401C234908602348006840B921480460D7
:10B0B0000846006801280DD100F0E0F90AE01E48BA
:10B0C000006838B91B480068C06AE16A884201D844
:10B0D0001848046019480068401C18490860084670
:10B0E0000068206494F82C100120884014490968F5
:10B0F000084313490860E16A01EB8101114A02EB40
:10B100008100211D01F013F901F048F90A48006897
:10B1100068B108480068C06AE16A884207D24FF007
:10B12000805009490860BFF34F8FBFF36F8F10BD88
:10B130003800002028000020440000205400002097
:10B14000400000202406002004ED00E010B501F0CE
:10B15000FBF810480068D0B90F4801F0BEF80F485E
:10B1600001F0BBF80C480E4908600C480D49086016
:10B1700000220C210A2001F04BFC06490860084619
:10B18000006820B108A10348006801F0C7F901F088
:10B1900005F910BD70000020EC060020000700201B
:10B1A000680000206C000020546D72510000000007
:10B1B00010B516E001F0C8F80C48C068C468201D3E
:10B1C00001F077F80A480068401E094908600948FC
:10B1D0000068401E0749086001F0E0F8204600F0D2
:10B1E0005FF8044800680028E4D110BDC4060020C0
:10B1F000380000203400002070B504460D46206C55
:10B2000070B1216CE0680144E160D4E90210884229
:10B2100001D32168E1602846226CE168FDF7A0F9BE
:10B2200070BD2DE9F04104460F4615464FF0000869
:10B23000A66B206C48B9206800282CD1A06802F0C9
:10B240002DF980460020A06025E07DB93946226CAA
:10B250006068FDF785F9216C606808446060D4E996
:10B260000101884217D32068606014E03946226CDF
:10B27000E068FDF775F9216CE068411AE16021682A
:10B28000E068884203D2216CA068411AE160022D77
:10B2900001D106B1761E701CA0634046BDE8F08166
:10B2A00010B50446206B01F097F8204601F094F8A1
:10B2B00010BD01464A6A22B10A6B1268C2F105004C
:10B2C00000E00020704700000146084A126812683A
:10B2D0000AB9012200E000220A600A6822B9034A82
:10B2E0001268D268106800E00020704768000020F3
:10B2F00030B54FF48053174800F007042CB1C01D3F
:10B3000020F00700134C041B1B1B0246124C22604A
:10B310000024114D6C60D018083820F007000F4C45
:10B32000206000240D4D2D686C600C4D2D682C6044
:10B330001146441A4C60094C24680C60084D4C6856
:10B340002C60084D4C682C604FF00044064D2C607A
:10B3500030BD0000140700207C0000208400002085
:10B360008C000020880000209800002000BFFFF71C
:10B370001FFF064800680128F9D94FF080500449A2
:10B380000860BFF34F8FBFF36F8FF0E724060020F4
:10B3900004ED00E02DE9F04106460D4617469846BB
:10B3A000069C0DB9246000E02760E6632564012156
:10B3B000204601F07FFB84F84C80BDE8F0812DE948
:10B3C000F05F82460E4690469B460A9F0C9C4FEAD1
:10B3D0008801A522206BFDF708F9A8F10100216B77
:10B3E00001EB800929F0070909F0070008B90120DD
:10B3F00000E0002050B900BF502080F31188BFF357
:10B400004F8FBFF36F8F00BF00BFFEE786B10025EF
:10B4100007E0715D04F134004155705D00B902E050
:10B420006D1C0A2DF5D300BF00213D20015502E01F
:10B43000002084F83400052F00D30427E762A764B6
:10B440000020E064201D00F055FF04F1180000F01A
:10B4500051FF2461C7F10500A061646200202065EE
:10B4600084F854005A465146484600F079FB206063
:10B470000B9808B10B980460BDE8F09F10B500244C
:10B4800007E004EB84010F4A02EB810000F025FF86
:10B49000641C052CF5D30C4800F01FFF0B4800F08E
:10B4A0001CFF0B4800F019FF0A4800F016FF0A487D
:10B4B00000F013FF0448094908600448084908607F
:10B4C00010BD000024060020880600209C060020F5
:10B4D000B0060020C4060020D80600202C00002062
:10B4E0003000002010B50146164800E000680368EF
:10B4F0008B42FBD30246436813448B4204D143681A
:10B500004C682344436001460A464B681344046870
:10B51000A34211D10C4C03682468A34208D04B68A5
:10B520000468646823444B6003681B680B6005E093
:10B53000054B1B680B6001E003680B60884200D07C
:10B54000016010BD7C000020840000202DE9F04146
:10B5500004460D4616461F464FF0000865602461FC
:10B56000B5420CD8F01BA169884202D34FF0010804
:10B5700011E0211D0948006800F0BFFE0BE0BE424B
:10B5800004D2BD4202D34FF0010804E0211D04485B
:10B59000006800F0B2FE4046BDE8F0816C0000207B
:10B5A0006800002070B5054600F0CEFEA86B08B913
:10B5B000012400E0002400F0F1FE204670BD70B5CB
:10B5C000054600F0C1FEA86BE96B884201D1012459
:10B5D00000E0002400F0E2FE204670BDF8B505460C
:10B5E0000F461A480068C068C468201D00F061FE5C
:10B5F00094F8280000F00400E8B1A06941192B4636
:10B600003A462046FFF7A2FFD8B1002003462A465B
:10B6100001460090204602F0F5F8064656B900BFF4
:10B62000502080F31188BFF34F8FBFF36F8F00BF9F
:10B6300000BFFEE705E094F8280020F0010084F840
:10B6400028002046216A8847F8BD000068000020D5
:10B6500070B586B08BE003980028FBDB059C606921
:10B6600008B9012000E0002010B9201D00F021FEE3
:10B6700002A800F0DBF8054603980A2875D2DFE837
:10B6800000F009050739416306083A4200BF00BFD0
:10B6900000BF00BF94F8280040F0010084F82800A3
:10B6A0000498A269811803462A462046FFF74EFFF8
:10B6B000F8B12046216A884794F8280000F0040079
:10B6C000B8B1002000900498A169421800231946DF
:10B6D000204602F097F8064656B900BF502080F386
:10B6E0001188BFF34F8FBFF36F8F00BF00BFFEE71E
:10B6F00000BF3BE000BF94F8280020F0010084F870
:10B70000280033E000BF94F8280040F0010084F8DE
:10B7100028000498A061A06908B1012000E0002081
:10B7200050B900BF502080F31188BFF34F8FBFF393
:10B730006F8F00BF00BFFEE7A06941192B462A4664
:10B740002046FFF703FF11E094F8280000F0020004
:10B7500018B9204600F040FE05E094F8280020F0DB
:10B76000010084F8280001E0FFE700BF00BF0022CD
:10B7700003A90448006801F0CFFB00287FF46BAFF9
:10B7800006B070BD70000020F8B505460C4601F00B
:10B790003DF8684600F04AF80646009820BB44B9D8
:10B7A000B54206D801F080FF31462846FFF716FF64
:10B7B0001CE03CB10E480068006808B9012000E0B8
:10B7C00000200446A91B22460A48006800F0BCFE7F
:10B7D00001F06AFF50B94FF0805007490860BFF38D
:10B7E0004F8FBFF36F8F01E001F05EFFF8BD0000E7
:10B7F0006C0000207000002004ED00E009480068A3
:10B80000006808B9012000E0002020B14FF0FF30AF
:10B810000549086005E003480068C06800680249FF
:10B82000086070472C0000205800002070B50446C6
:10B8300001F08AFD054607480068854204D200F001
:10B840000BF80120206001E0002020600148056025
:10B85000284670BD780000202DE9F84334E02548E3
:10B860000068C068056823480068C068C468201D77
:10B8700000F01FFD2046216A884794F8280000F058
:10B88000040008B3A0694619AE4207D96660246176
:10B89000211D1848006800F030FD15E00020034627
:10B8A0002A4601460090204601F0ACFF074657B9F2
:10B8B00000BF502080F31188BFF34F8FBFF36F8F0D
:10B8C00000BF00BFFEE700BF0A480068006808B973
:10B8D000012000E000200028C1D00648D0F80080F8
:10B8E00005480068034908600348C0F80080BDE8C7
:10B8F000F8830000680000206C0000200E480068FB
:10B90000401C08B9012000E0002050B900BF5020C1
:10B9100080F31188BFF34F8FBFF36F8F00BF00BF5D
:10B92000FEE700BF502080F31188BFF34F8FBFF3B5
:10B930006F8F00BF00BFFEE79C00002008B500BF6E
:10B940006846FFF7C1FC044620460099FFF71CFF3C
:10B95000FFF77EFEF4E770B5044600F0F5FC94F9BD
:10B96000455010E0606A08B9012000E0002038B9B5
:10B9700004F1240001F04CFE18B100F045FE00E097
:10B9800003E0681E45B2002DECDC00BFFF2084F808
:10B99000450000F003FD00F0D7FC94F9445010E09E
:10B9A000206908B9012000E0002048B904F1100026
:10B9B00001F02EFE08B100F027FE681E45B200E03F
:10B9C00001E0002DECDC00BFFF2084F8440000F013
:10B9D000E5FC70BD2DE9F04104464FF0000800F091
:10B9E00015FF5148006808B9FFF782FC4F4800680E
:10B9F000204000287ED13CB304F10800A04223D9A6
:10BA0000083404F0070000B304F00700C0F1080098
:10BA10002044A04216D904F00700C0F108000444F5
:10BA200004F0070008B9012000E0002068B900BF59
:10BA3000502080F31188BFF34F8FBFF36F8F00BF8B
:10BA400000BFFEE7002400E00024002C54D038485A
:10BA50000068844250D8374E3046056801E02E46D3
:10BA60002D686868A04202D228680028F7D12E48C5
:10BA70000068854240D0306800F1080828683060CE
:10BA80006868001B102819D92F1907F0070008B99A
:10BA9000012000E0002050B900BF502080F3118841
:10BAA000BFF34F8FBFF36F8F00BF00BFFEE7686823
:10BAB000001B78606C603846FFF714FD1C4968680D
:10BAC0000968081A1A490860084600681A4909688E
:10BAD000884203D21648006817490860134968680D
:10BAE0000968084368600020286014480068401C0A
:10BAF000124900E000E0086001F0D6FD08F0070000
:10BB000008B9012000E0002050B900BF502080F3A8
:10BB10001188BFF34F8FBFF36F8F00BF00BFFEE7E9
:10BB20004046BDE8F081000084000020980000201D
:10BB3000880000207C0000208C0000209000002065
:10BB40000648006830B10549096801F14C00C96C2C
:10BB5000491C01600148006870470000280000206F
:10BB6000001F4FF080730360001F21F0010303608A
:10BB7000001F054B036014380260001F6FF00203C2
:10BB80000360203870470000FDB800082DE9F04F31
:10BB90008CB0074600200A904AA090E8004CC0688C
:10BBA000CDE905BECDF810A007900FF21C1ADAE916
:10BBB000000ACDE9020A0FF2101ADAE9000ACDE90B
:10BBC000000A44484068C0F381000B900B9820B1F4
:10BBD000012804D002283FD103E03F4A3EE03E4A1C
:10BBE0003CE03C48406800F4803CBCF5803F12D10A
:10BBF0003848C06A00F08048B8F1000F01D1364CD7
:10BC000000E0364C3348406800F40039B9F5003F95
:10BC100002D1334C00E0324C2E484068C0F38341DF
:10BC20002C48406800F0006008B141F0100129483C
:10BC3000406800F0804008B141F020010F2901D296
:10BC4000891C06E00F2903D33E2901D8491C00E0D6
:10BC50003F2104FB01F201E01F4A00BF00BF1D4865
:10BC60004068C0F3031504A8465D22FA06F319489C
:10BC70004068C0F3022502A8465D23FA06F0099049
:10BC800014484068C0F3C2251DF8056023FA06F089
:10BC9000089037B1012F06D0022F06D0032F0AD10A
:10BCA00006E00A9208E00A9306E009980A9003E089
:10BCB00008980A9000E000BF00BF0A980CB0BDE8E9
:10BCC000F08F0000000000000000000001020304EB
:10BCD000060708090010024000127A00006CDC021E
:10BCE00000093D00064A02EB9011096800F01F03AD
:10BCF00001229A401143024B03EB901211607047EE
:10BD000000100240064A02EB9011096800F01F0380
:10BD100001229A409143024B03EB9012116070474D
:10BD200000100240064A02EB9011096800F01F0360
:10BD300001229A401143024B03EB901211607047AD
:10BD400000100240002000213F4A126842F4803275
:10BD50003D4B1A6000BF401C3B4A126802F40031A0
:10BD600019B94FF6FF729042F5D1374A126802F4C2
:10BD700000320AB900BFFEE7334AD26942F080526E
:10BD8000314BDA61314A126842F440422F4B1A605B
:10BD90002D4A52682C4B5A601A4652685A601A460D
:10BDA000526842F480625A601A46526822F4403265
:10BDB0005A601A46526842F440325A601A46526833
:10BDC000234B1A40204B5A601A465268214B1A43A3
:10BDD0001D4B5A601A46126842F080721A6000BF0A
:10BDE000194A126802F00072002AF9D0174A126844
:10BDF00042F48032154B1A6000BF144A526802F4B4
:10BE00008032002AF9D0114A126842F400320F4BF6
:10BE10001A6000BF0D4A526802F40032002AF9D0BD
:10BE2000094A526822F00302074B5A601A465268C8
:10BE300042F002025A6000BF034A526802F0080250
:10BE4000002AF9D070470000001002400070004046
:10BE5000FFFFC3B70000340810B5FFF773FF10BD34
:10BE600070B5054604211048FEF7B2FB04210E48C8
:10BE7000FEF783FDC0F5806084B222460B49284658
:10BE8000FCF76EFB094A04210748FEF71DFD4FF43D
:10BE9000806204210448FEF75DFD04210248FEF79C
:10BEA000B0FB204670BD00000000024014170020C7
:10BEB00070B504460D4603210B48FEF789FB224668
:10BEC00003210948FEF700FD2A4603210648FEF734
:10BED00041FD03210448FEF794FB4FF0FF31034876
:10BEE000006801F0CDF870BD00000240A8000020FD
:10BEF0002DE9F04704460D460027B846B94600260E
:10BF00001D49601A8C421CD006DC1C48204470B1CC
:10BF1000B0F5806F1FD10FE0B0F5806F16D0B0F58F
:10BF20006C4F18D10320FFF731FE074614E00220C2
:10BF3000FFF72CFE07460FE00220FFF727FE07461B
:10BF40000AE00220FFF722FE074605E00220FFF785
:10BF50001DFE074600E000BF00BF07EB5500B0FB29
:10BF6000F5F64FF6F07006EA000806F00F0948EA09
:10BF70000900A060BDE8F087004C004000BCFFBF96
:10BF800010B5044640F20260FFF7ACFE4FF4C0600B
:10BF9000FFF7A8FE40F20E60FFF7A4FE4FF4007317
:10BFA000032218211D48FEF7B9FD4FF480630322D8
:10BFB00004211A48FEF7B2FD194800F033F8214673
:10BFC0001748FFF795FF0021154800F06AF9002196
:10BFD000134800F056F90021114800F042F9002101
:10BFE0000F4800F000F900210D4800F0F4F804219A
:10BFF0000B4800F03EF90821094800F04AF94FF4D7
:10C000004171074800F0F7F840F20631044800F0AB
:10C01000F2F8034800F0DAF810BD00000008014013
:10C020000038014010B504462049601A8C4228D0DF
:10C0300006DC1F48204490B1B0F5806F33D117E083
:10C04000B0F5806F26D0B0F56C4F2CD140F20E3099
:10C05000FFF768FE40F20E30FFF754FE24E040F296
:10C060001140FFF75FFE40F21140FFF74BFE1BE06F
:10C0700040F21240FFF756FE40F21240FFF742FE38
:10C0800012E040F21340FFF74DFE40F21340FFF77D
:10C0900039FE09E040F21440FFF744FE40F214403C
:10C0A000FFF730FE00E000BF00BF10BD004C0040B5
:10C0B00000BCFFBF00B587B04FF4A060FFF712FED1
:10C0C00003213748FEF7CFFA6846FEF735FC01201A
:10C0D0008DF81A000020029001208DF81900002030
:10C0E000039004902F48009000208DF818000190D4
:10C0F0004FF4405005906A4603212948FEF7EBFAB9
:10C1000004212748FEF7AFFA6846FEF715FC002029
:10C110008DF81A002448029001208DF819000020A3
:10C1200003904FF4806004901E48009000208DF82A
:10C13000180003904FF4405005906A4604211848B7
:10C14000FEF7C9FA03211648FEF774FA03211448D2
:10C15000FEF7CCFB04211248FEF76CFA04211048CC
:10C16000FEF7C4FB40210F48001F00F01FF8022219
:10C1700004210B48FEF746FB04210948FEF741FA6B
:10C1800080210848001F00F019F80222032104480A
:10C19000FEF738FB03210248FEF71AFA07B000BD8C
:10C1A0000000024004380140141700200A46002114
:10C1B000416921F040011143416170470A46002165
:10C1C000416921F08001114341617047C16841F428
:10C1D0000051C16070470A460021416921F4007195
:10C1E0001143416170470A460021416921F4807181
:10C1F00011434161704710B500EB9112126801F0D4
:10C200001F040123A3401A4300EB91131A6010BDD1
:10C2100010B500EB91521268C1F304440123A3400E
:10C220009A4300EB91531A6010BD70B5024600238B
:10C230000024C1F38910105801F01F060125B540F4
:10C2400000EA050302EB91500068C1F304460125A2
:10C25000B54000EA050414B10BB1012070BD002007
:10C26000FCE7C26822F4C062C260C2680A43C260CE
:10C2700070470A460021C16821F004011143C160E2
:10C280007047026922F44052026102690A43026166
:10C2900070470A460021C16821F008011143C160BE
:10C2A0007047C26822F48052C260C2680A43C2600A
:10C2B000704701460A69D1E901309860D1E901036C
:10C2C00058605068884201D1886850600020086139
:10C2D0001068401E10601068704700F1080141604E
:10C2E0004FF0FF31816000F10801C1600161002160
:10C2F0000160704700210161704710B502460B686C
:10C300005C1C0CB9106907E002F1080000E040680D
:10C31000446824689C42FAD944684C604C68A16027
:10C32000886041600A611468641C146010BD426832
:10C330004A6093688B6093685960916008610368F4
:10C340005B1C03607047000000BF502080F3118821
:10C35000BFF34F8FBFF36F8F00BF0E480068401CC4
:10C360000C49086008460068012812D10A48006894
:10C37000C0B208B9012000E0002050B900BF502031
:10C3800080F31188BFF34F8FBFF36F8F00BF00BFE3
:10C39000FEE770479C00002004ED00E00D480068B7
:10C3A00050B900BF502080F31188BFF34F8FBFF307
:10C3B0006F8F00BF00BFFEE706480068401E0549BA
:10C3C00008600846006820B9002080F3118800BF8B
:10C3D00000BF70479C00002070B506463546002E11
:10C3E00044D0083D2C46224960680968084008B1DD
:10C3F000012000E0002050B900BF502080F31188D8
:10C40000BFF34F8FBFF36F8F00BF00BFFEE7206801
:10C4100008B9012000E0002050B900BF502080F38F
:10C420001188BFF34F8FBFF36F8F00BF00BFFEE7D0
:10C430000F49606809680840C0B12068B0B90C496C
:10C44000606809688843606000F0E0F90949606845
:10C4500009680844074908602046FFF743F8064882
:10C460000068401C0449086001F01EF970BD00001E
:10C4700098000020880000209400002000204FF049
:10C48000E02108618861064800684FF47A71B0FBCA
:10C49000F1F0401E4FF0E02148610720086170472D
:10C4A0002400002070B5FBF723FF0446102C16D3A0
:10C4B00004F1E02090F8F05315480078854201DB44
:10C4C000012000E0002050B900BF502080F3118807
:10C4D000BFF34F8FBFF36F8F00BF00BFFEE70D4864
:10C4E000006800F4E0600C490968884201D8012026
:10C4F00000E0002050B900BF502080F31188BFF346
:10C500004F8FBFF36F8F00BF00BFFEE770BD00000D
:10C51000A00000200CED00E0A40000200246002056
:10C520000BE0084B53F8303033B9064B43F830106A
:10C5300003EBC0035A6002E0401C0828F1D300BF9F
:10C5400070470000E40500202DE9F04105460E4645
:10C5500017462C46FFF7F8FE94F94400401C10B92A
:10C56000002084F8440094F94500401C10B90020D4
:10C5700084F84500FFF712FFA06B28B93A46314610
:10C5800004F1240000F062F82046FFF7E4F9BDE86A
:10C59000F081000070B504460025D4B1124800684F
:10C5A00008B9012000E0002050B900BF502080F3FE
:10C5B0001188BFF34F8FBFF36F8F00BF00BFFEE73F
:10C5C00000F024F900212046FEF718FD01F06CF878
:10C5D00005463DB94FF0805004490860BFF34F8FC6
:10C5E000BFF36F8F70BD00006400002004ED00E019
:10C5F0000349096801600349096841607047000008
:10C60000500000203C0000200120014908607047D4
:10C610004C00002070B504460D4654B900BF5020B0
:10C6200080F31188BFF34F8FBFF36F8F00BF00BF40
:10C63000FEE70548016818312046FFF75EFE01213C
:10C640002846FEF7DBFC70BD2800002070B50546CB
:10C650000E46144655B900BF502080F31188BFF331
:10C660004F8FBFF36F8F00BF00BFFEE70648016822
:10C6700018312846FFF75BFE0CB14FF0FF3621461C
:10C680003046FEF7BBFC70BD280000202DE9F047C6
:10C6900006460F4634464FF00109002E60D0E06C8C
:10C6A00050B900BF502080F31188BFF34F8FBFF304
:10C6B0006F8F00BF00BFFEE7A06CB84201D23D46BD
:10C6C00000E0A56CE06AA8424AD0E06C012847D19E
:10C6D00024480068844201D0012000E0002050B9C5
:10C6E00000BF502080F31188BFF34F8FBFF36F8FCF
:10C6F00000BF00BFFEE7D4F82C80E562A06900F01F
:10C70000004010B9C5F10500A06108EB8801164A88
:10C7100002EB81016069884201D1012000E0002024
:10C72000F0B1201DFFF7C5FD40B994F82C10012091
:10C7300088400E49096881430C48016094F82C1028
:10C740000120884009490968084308490860E16AEE
:10C7500001EB8101044A02EB8100211DFFF7E7FD97
:10C76000BDE8F087280000202406002040000020BB
:10C770001CB51E4800210B468222CDE900101CA1E9
:10C780001D4800F0A1FD0446012C02D101F00EF875
:10C790000446012C15D100BF502080F31188BFF34F
:10C7A0004F8FBFF36F8F00BF4FF0FF30134908600A
:10C7B00001201349086000201249086000F074F855
:10C7C00010E0601C08B1012000E0002050B900BF5B
:10C7D000502080F31188BFF34F8FBFF36F8F00BFDE
:10C7E00000BFFEE7084800681CBD00005C00002098
:10C7F00049444C45000000006DB30008580000207B
:10C80000440000203C000020600000200248006836
:10C81000401C014908607047640000201D48006802
:10C8200018B101201C49086032E000201A49086054
:10C830001A480068B0FA80F0C0F11F0101EB8100D6
:10C84000174A52F8200008B1012000E0002050B93A
:10C8500000BF502080F31188BFF34F8FBFF36F8F5D
:10C8600000BF00BFFEE701EB81020D4B03EB82002E
:10C8700042685268426000F108024368934202D164
:10C880004268526842604268D268064B1A6000BF34
:10C8900070470000640000204C0000204000002091
:10C8A00024060020280000201CB552480068524988
:10C8B000884201D0012000E0002050B900BF502084
:10C8C00080F31188BFF34F8FBFF36F8F00BF00BF9E
:10C8D000FEE7484800684849491E884201D00120C7
:10C8E00000E0002050B900BF502080F31188BFF352
:10C8F0004F8FBFF36F8F00BF00BFFEE73F49084671
:10C9000000780190FF200A461070084600780090D9
:10C910009DF8000000F0F0009DF80020904201D149
:10C92000012000E0002050B900BF502080F31188A2
:10C93000BFF34F8FBFF36F8F00BF00BFFEE79DF8BF
:10C94000000000F050002E4A107007202D4A1060A1
:10C9500009E02C480068401E2A4A10609DF800003B
:10C960004006000E00909DF8000000F08000802836
:10C97000EFD024480068C0F10700042801D101204D
:10C9800000E0002050B900BF502080F31188BFF3B1
:10C990004F8FBFF36F8F00BF00BFFEE719480068DD
:10C9A0000002184A10601046008800F4E060106031
:10C9B000124A019810700F482030006840F470004F
:10C9C0000C49203108600846006840F0704008605B
:10C9D000FFF754FD00200C490860FBF751FC0B48A1
:10C9E000006840F0404009490860FBF735FC002032
:10C9F0001CBD000000ED00E071C20F4100E400E04A
:10CA0000A0000020A40000209C00002034EF00E0E3
:10CA10002DE9F84306460F4690460EB1012000E08E
:10CA2000002050B900BF502080F31188BFF34F8F12
:10CA3000BFF36F8F00BF00BFFEE706FB07F51FB116
:10CA4000B5FBF7F0B04201D1012000E0002050B961
:10CA500000BF502080F31188BFF34F8FBFF36F8F5B
:10CA600000BF00BFFEE705F15000A84201D9012038
:10CA700000E0002050B900BF502080F31188BFF3C0
:10CA80004F8FBFF36F8F00BF00BFFEE705F150006F
:10CA9000FEF7A0FF04464CB1A14609F150094346F8
:10CAA0004A46394630460094FEF774FC2046BDE8FD
:10CAB000F883000070B505460E462C4654B900BFF9
:10CAC000502080F31188BFF34F8FBFF36F8F00BFEB
:10CAD00000BFFEE7FFF738FCD4E90F12206801FB26
:10CAE0000200A0600020A06320686060E06B401E30
:10CAF000226C216800FB0211E160FF2084F84400F1
:10CB000084F845009EB9206908B9012000E00020A2
:10CB1000A8B904F1100000F07BFD80B14FF0805007
:10CB200009490860BFF34F8FBFF36F8F07E004F12F
:10CB30001000FFF7D2FB04F12400FFF7CEFBFFF754
:10CB40002DFC012070BD000004ED00E02DE9FF4345
:10CB500083B0064688461D464FF00009344654B956
:10CB600000BF502080F31188BFF34F8FBFF36F8F4A
:10CB700000BF00BFFEE7B8F1000F01D1206C08B97B
:10CB8000012000E0002050B900BF502080F3118840
:10CB9000BFF34F8FBFF36F8F00BF00BFFEE7022DC3
:10CBA00002D1E06B012801D1012000E0002050B942
:10CBB00000BF502080F31188BFF34F8FBFF36F8FFA
:10CBC00000BF00BFFEE700F0AFFB08B9059808B949
:10CBD000012000E0002050B900BF502080F31188F0
:10CBE000BFF34F8FBFF36F8F00BF00BFFEE700BFE3
:10CBF000FFF7AAFBA06BE16B884201D3022D28D17D
:10CC00002A4641462046FEF70CFB0746606A08B9F3
:10CC1000012000E0002068B904F1240000F0F8FCD5
:10CC200088B14FF0805032490860BFF34F8FBFF397
:10CC30006F8F08E03FB14FF080502D490860BFF37F
:10CC40004F8FBFF36F8FFFF7A9FB012007B0BDE83F
:10CC5000F083059818B9FFF7A1FB0020F6E7B9F1BA
:10CC6000000F04D101A8FFF7C3FC4FF00109FFF743
:10CC700095FBFFF7CBFDFFF767FB94F94400401CE1
:10CC800010B9002084F8440094F94500401C10B904
:10CC9000002084F84500FFF781FB05A901A800F0FA
:10CCA000CBFAF0B92046FEF78AFCA0B104F11000DF
:10CCB0000599FFF7AFFC2046FEF74DFE00F0F4FCAF
:10CCC000002895D14FF0805009490860BFF34F8F7D
:10CCD000BFF36F8F8CE72046FEF73DFE00F0E4FCCB
:10CCE00086E72046FEF737FE00F0DEFC0020ADE7C9
:10CCF00004ED00E02DE9F84F07468B4690461E46AE
:10CD00003C4654B900BF502080F31188BFF34F8FC9
:10CD1000BFF36F8F00BF00BFFEE7BBF1000F01D173
:10CD2000206C08B9012000E0002050B900BF50205D
:10CD300080F31188BFF34F8FBFF36F8F00BF00BF29
:10CD4000FEE7022E02D1E06B012801D1012000E0B4
:10CD5000002050B900BF502080F31188BFF34F8FDF
:10CD6000BFF36F8F00BF00BFFEE7FFF79BFB00BF65
:10CD70005021EFF3118081F31188BFF34F8FBFF380
:10CD80006F8F00BF0546A06BE16B884201D3022E76
:10CD900037D194F945A0A06B009032465946204601
:10CDA000FEF73FFA0AF1010088B9606A08B901206C
:10CDB00000E0002050B904F1240000F029FC28B163
:10CDC000B8F1000F02D00120C8F8000016E0BAF157
:10CDD0007F0F01D0012000E0002050B900BF50209B
:10CDE00080F31188BFF34F8FBFF36F8F00BF00BF79
:10CDF000FEE70AF1010040B284F845004FF0010956
:10CE000001E04FF0000900BF85F3118800BF4846DC
:10CE1000BDE8F88F2DE9F04706460F46344654B971
:10CE200000BF502080F31188BFF34F8FBFF36F8F87
:10CE300000BF00BFFEE7206C08B9012000E0002021
:10CE400050B900BF502080F31188BFF34F8FBFF35C
:10CE50006F8F00BF00BFFEE7206808B9A06808B95F
:10CE6000012000E0002050B900BF502080F311885D
:10CE7000BFF34F8FBFF36F8F00BF00BFFEE7FFF719
:10CE800011FB00BF5021EFF3118081F31188BFF334
:10CE90004F8FBFF36F8F00BF0546D4F838A0E06B0B
:10CEA000504530D994F945900AF10100A06309F189
:10CEB000010070B9606A08B9012000E00020F8B9EB
:10CEC00004F1240000F0A4FBD0B1CFB10120386000
:10CED00016E0B9F17F0F01D0012000E0002050B929
:10CEE00000BF502080F31188BFF34F8FBFF36F8FC7
:10CEF00000BF00BFFEE709F1010040B284F8450021
:10CF00004FF0010801E04FF0000800BF85F31188E1
:10CF100000BF4046BDE8F0872DE9F74183B00546E4
:10CF20000E464FF000082C4654B900BF502080F345
:10CF30001188BFF34F8FBFF36F8F00BF00BFFEE7B5
:10CF40000EB9206C08B9012000E0002050B900BFE4
:10CF5000502080F31188BFF34F8FBFF36F8F00BF56
:10CF600000BFFEE700F0E0F908B9059808B9012014
:10CF700000E0002050B900BF502080F31188BFF3BB
:10CF80004F8FBFF36F8F00BF00BFFEE700BFFFF7FB
:10CF9000DBF9A76BF7B131462046FEF72DF9781E75
:10CFA000A063206908B9012000E0002060B904F105
:10CFB000100000F02DFB38B14FF080502F49086071
:10CFC000BFF34F8FBFF36F8FFFF7E8F9012006B073
:10CFD000BDE8F081059818B9FFF7E0F90020F6E701
:10CFE000B8F1000F04D101A8FFF702FB4FF00108D0
:10CFF000FFF7D4F9FFF70AFCFFF7A6F994F944000C
:10D00000401C10B9002084F8440094F94500401CED
:10D0100010B9002084F84500FFF7C0F905A901A860
:10D0200000F00AF9F0B92046FEF7BCFAA0B104F10D
:10D0300024000599FFF7EEFA2046FEF78CFC00F07D
:10D0400033FB0028A3D14FF080500C490860BFF398
:10D050004F8FBFF36F8F9AE72046FEF77CFC00F0FE
:10D0600023FB94E72046FEF776FC00F01DFB2046EC
:10D07000FEF798FA00288AD00020A8E704ED00E027
:10D080002DE9F34182B005464FF000082C460026FA
:10D0900054B900BF502080F31188BFF34F8FBFF306
:10D0A0006F8F00BF00BFFEE7206C08B9012000E0D1
:10D0B000002050B900BF502080F31188BFF34F8F7C
:10D0C000BFF36F8F00BF00BFFEE700F02DF908B976
:10D0D000039808B9012000E0002050B900BF50209B
:10D0E00080F31188BFF34F8FBFF36F8F00BF00BF76
:10D0F000FEE700BFFFF728F9A76BFFB1781EA0631A
:10D10000206810B9FEF71CFDA060206908B9012055
:10D1100000E0002060B904F1100000F079FA38B1A5
:10D120004FF0805043490860BFF34F8FBFF36F8FBC
:10D13000FFF734F9012004B0BDE8F081039898B9F5
:10D140000EB9012000E0002050B900BF502080F34C
:10D150001188BFF34F8FBFF36F8F00BF00BFFEE793
:10D16000FFF71CF90020E6E7B8F1000F04D168468C
:10D17000FFF73EFA4FF00108FFF710F9FFF746FB03
:10D18000FFF7E2F894F94400401C10B9002084F83D
:10D19000440094F94500401C10B9002084F8450073
:10D1A000FFF7FCF803A9684600F046F840BB2046AC
:10D1B000FEF7F8F9F0B1206838B9FFF7C5F8A068B4
:10D1C00000F0CAF90646FFF7E9F804F124000399D4
:10D1D000FFF720FA2046FEF7BEFB00F065FA0028B4
:10D1E00088D14FF0805013490860BFF34F8FBFF3D1
:10D1F0006F8F7FE72046FEF7AEFB00F055FA79E728
:10D200002046FEF7A8FB00F04FFA2046FEF7CAF9C9
:10D210000028EED05EB1FFF797F82046FEF749F8F8
:10D2200007463946A068FFF731FAFFF7B7F8002044
:10D2300081E7000004ED00E070B505460C4655B9E5
:10D2400000BF502080F31188BFF34F8FBFF36F8F63
:10D2500000BF00BFFEE754B900BF502080F3118823
:10D26000BFF34F8FBFF36F8F00BF00BFFEE7FFF725
:10D270006BF8134802686868131A2068401C08B9E4
:10D28000002619E00F4928680968884206D06868B6
:10D29000904203D80126002020600DE020689842CB
:10D2A00007D92068C01A20602846FFF7A1F9002698
:10D2B00002E0002020600126FFF770F8304670BDC4
:10D2C0003C000020500000202DE9FF4F85B0804633
:10D2D00089461746DDE912ABB800FEF77BFB064630
:10D2E00056B15820FEF776FB04460CB1266304E0E5
:10D2F0003046FFF771F800E000247CB10020CDE952
:10D3000000ABCDE902403A4649464046089BFEF74D
:10D3100056F82046FDF7BEFE012501E04FF0FF352F
:10D32000284609B0BDE8F08F0549096809B9012010
:10D3300005E00449096809B9022000E000207047AF
:10D340004400002064000020014908687047000084
:10D350003C0000202DE9F0414FF0000844480068EF
:10D3600000287CD143480068451C4248056015BB35
:10D3700041480068006808B9012000E0002050B969
:10D3800000BF502080F31188BFF34F8FBFF36F8F22
:10D3900000BF00BFFEE738480768384800683649D4
:10D3A00008603648076036480068401C3449086009
:10D3B000FEF724FA00BF3348006885423CD300BF23
:10D3C0002D480068006808B9012000E0002020B165
:10D3D0004FF0FF302B4908602DE027480068C068F7
:10D3E000C4686668B54202D22648066023E0201D64
:10D3F000FEF75FFFA06A18B104F11800FEF759FFAD
:10D4000094F82C10012088401F49096808431E49E0
:10D410000860E16A01EB81011C4A02EB8100211DD9
:10D42000FEF785FF1A49E06A0968C96A8842C7D3CE
:10D430004FF00108C4E700BF15480068C06A00EB60
:10D440008000124951F82000012801D94FF001084D
:10D450001048006808B14FF0010805E0FFE70E48EA
:10D460000068401C0C4908604046BDE8F08100009F
:10D47000640000203C0000202C0000203000002030
:10D48000500000205800002040000020240600200A
:10D49000280000204C0000204800002070B5054600
:10D4A0002C460026002D4ED028480068844201D129
:10D4B000012000E0002050B900BF502080F3118807
:10D4C000BFF34F8FBFF36F8F00BF00BFFEE7E06C6D
:10D4D00050B900BF502080F31188BFF34F8FBFF3C6
:10D4E0006F8F00BF00BFFEE7E06C401EE064A16CE0
:10D4F000E06A884227D0E06C28BB201DFEF7D9FEE9
:10D5000040B994F82C1001208840114909688143E2
:10D510000F480160A06CE062E06AC0F10500A06104
:10D5200094F82C10012088400949096808430849EB
:10D530000860E16A01EB8101064A02EB8100211DCE
:10D54000FEF7F5FE0126304670BD000028000020E1
:10D55000400000202406002070B505462C46002619
:10D56000002D4DD02749E06A0968C96A884240D237
:10D57000A06900F0004028B922480068C06AC0F1E4
:10D580000500A061E16A01EB81011F4A02EB810104
:10D590006069884201D1012000E0002018B3201DFD
:10D5A000FEF787FE40B994F82C10012088401749F7
:10D5B000096881431548016012480068C06AE0624A
:10D5C00094F82C10012088401049096808430F493D
:10D5D0000860E16A01EB81010B4A02EB8100211D29
:10D5E000FEF7A5FE03E007480068C06AE062012676
:10D5F00006E00449A06C0968C96A884200D2012685
:10D60000304670BD28000020240600204000002085
:10D6100070B50646F068C46854B900BF502080F366
:10D620001188BFF34F8FBFF36F8F00BF00BFFEE7BE
:10D6300004F11800FEF73DFE15480068A8B9201D4A
:10D64000FEF737FE94F82C10012088401149096834
:10D65000084310490860E16A01EB81010E4A02EBC0
:10D660008100211DFEF763FE04E004F118010B4860
:10D67000FEF75DFE0A49E06A0968C96A884204D972
:10D68000012501200749086000E00025284670BDFB
:10D69000640000204000002024060020B006002086
:10D6A000280000204C00002070B5002400263648D9
:10D6B000006850B900BF502080F31188BFF34F8F2E
:10D6C000BFF36F8F00BF00BFFEE7FEF73DFE2E48A1
:10D6D0000068401E2C4908600846006800284FD1A9
:10D6E0002A48006800284BD024E02948C068C46854
:10D6F00004F11800FEF7DDFD201DFEF7DAFD94F8B9
:10D700002C100120884023490968084321490860FA
:10D71000E16A01EB8101204A02EB8100211DFEF745
:10D7200006FE1E49E06A0968C96A884202D30120E0
:10D730001B4908601648006808B9012000E0002075
:10D740000028D2D00CB1FEF759F81648056865B12B
:10D7500000BFFFF7FFFD10B10120114908606D1EE9
:10D76000002DF6D100200F4908600D48006838B13F
:10D77000012630070C490860BFF34F8FBFF36F8F4E
:10D78000FEF70CFE304670BD64000020380000201B
:10D79000B0060020400000202406002028000020C1
:10D7A0004C0000204800002004ED00E01CB50024DF
:10D7B000FDF7CCFC0E48006858B10E48022100234A
:10D7C0004FF48272CDE900100BA10D48FFF77CFDEC
:10D7D000044654B900BF502080F31188BFF34F8F27
:10D7E000BFF36F8F00BF00BFFEE720461CBD0000E7
:10D7F0007000002074000020546D72205376630086
:10D800003DB900082DE9FE4304460D4616461F4665
:10D81000DDF828804FF0000954B900BF502080F394
:10D820001188BFF34F8FBFF36F8F00BF00BFFEE7BC
:10D830001448006810B3009501960294062D15DA7D
:10D84000FFF772FD022808D10023424669460D48C1
:10D850000068FFF77BF9814610E000231A4669460D
:10D8600008480068FFF772F9814607E000233A464E
:10D87000694604480068FFF73DFA81464846BDE81E
:10D88000FE830000700000204FF04070E1EE100AAF
:10D890007047FD007F005400B9007201440200147B
:10D8A000000A00058002AB014001000100280400CD
:10D8B000000800000000000000020001000010004D
:10D8C00046696C746572656420627920706F737448
:10D8D0002070726F63657373696E672028574146C5
:10D8E000290000004E6F742075736564203130008C
:10D8F0004E6F742075736564203900004D61782087
:10D90000436F6E76657267656E6365004E6F205477
:10D9100061726765742049676E6F72650000000070
:10D920004561726C7920436F6E76657267656E63D0
:10D930006520457374696D617465000052616E679E
:10D94000696E672066696C746572696E6720285716
:10D95000414629206F6E2D676F696E6700000000D9
:10D96000564353454C205761746368646F670000E9
:10D97000504C4C31204C6F636B000000504C4C32CB
:10D98000204C6F636B0000004D6178205369676E17
:10D99000616C20546F204E6F697365205261746909
:10D9A0006F0000004E6F204572726F720000000021
:10D9B000564353454C205761746368646F67205425
:10D9C00065737400564353454C20436F6E74696E03
:10D9D0007569747920546573740000005261772072
:10D9E00052616E67696E6720416C676F20556E6487
:10D9F0006572666C6F7700005261772052616E67C6
:10DA0000696E6720416C676F204F766572666C6F38
:10DA10007700000044617461206E6F74207265614C
:10DA20006479000044DA000800000020CC01000006
:10DA30008C810008A0DA0008CC010020AC21000095
:10DA4000E881000813CC0102212004380E270702C8
:10DA50003B041AAA01C113A4D91B08C4041AB004B8
:10DA60001A60041A70041A7C041A200413FCD81BD0
:10DA7000080C081AF0081AE4041A880C1ADC041AB4
:10DA8000F8042AE02019041AC0181A3C081314DA02
:10DA900082081255726412643A010201B269B4003C
:04000005080081511D
:00000001FF
