:020000040800F2
:10400000C837002025420008EB460008D5460008C6
:10401000E7460008AD430008E5490008000000003D
:1040200000000000000000000000000065410008E2
:10403000FD43000800000000C1410008C948000815
:104040003F4200083F4200083F4200083F4200084C
:104050003F4200083F4200083F4200080144000878
:104060003F4200083F4200083F4200083F4200082C
:104070003F4200083F420008B1430008D143000816
:104080003F4200083F4200083F4200083F4200080C
:104090003F4200083F4200083F4200083F420008FC
:1040A0003F4200083F4200083F4200083F420008EC
:1040B0003F4200083F4200083F4200083F420008DC
:1040C0003F4200083F4200083F4200083F420008CC
:1040D0003F420008714900083F4200083F42000883
:1040E0003F4200083F4200083F4200083F420008AC
:1040F0003F4200083F4200083F4200080000000025
:104100003F420008000000003F4200083F42000814
:104110003F4200083F4200083F4200083F4200087B
:104120003F4200083F4200083F4200083F4200086B
:104130003F4200083F4200083F4200083F4200085B
:104140003F4200083F4200083F4200083F4200084B
:10415000DFF80CD000F0CEF800480047BD6F000833
:10416000C83700202C4B19680868B0E8F04F80F37E
:104170000988BFF36F8F4FF0000080F311887047FC
:104180000000000008480068006880F308884FF0CD
:10419000000080F3148862B661B6BFF34F8FBFF39F
:1041A0006F8F00DF00BF00BF08ED00E0DFF80C00FC
:1041B000016841F470010160704700BF88ED00E0C4
:1041C000EFF30980BFF36F8F134B1A681EF0100FC7
:1041D00008BF20ED108A20E9F04F106009B44FF0BD
:1041E000500080F31188BFF34F8FBFF36F8F04F03F
:1041F0004DFC4FF0000080F3118809BC1968086875
:10420000B0E8F04F1EF0100F08BFB0EC108A80F33A
:104210000988BFF36F8F704730000020EFF30580EF
:10422000704700000648804706480047FEE7FEE763
:10423000FEE7FEE7FEE7FEE7FEE7FEE7FEE7FEE756
:10424000014900085141000840EA01039B0703D0DF
:1042500009E008C9121F08C0042AFAD203E011F8C5
:10426000013B00F8013B521EF9D27047D2B201E087
:1042700000F8012B491EFBD270470022F6E710B56B
:1042800013460A4604461946FFF7F0FF204610BDC4
:104290002DE9F05F0546002092469B46884606467B
:1042A000814640241BE0284641464746224600F00E
:1042B00042F853465A46C01A914110D31146184647
:1042C000224600F029F82D1A67EB01084F462246D6
:1042D0000120002100F020F817EB00094E41201EBC
:1042E000A4F10104DFDC484631462A464346BDE8D6
:1042F000F09F0000064C074D06E0E06840F0010327
:1043000094E8070098471034AC42F6D3FFF724FF37
:10431000689C0008889C0008202A04DB203A00FAE8
:1043200002F1002070479140C2F1200320FA03F30C
:10433000194390407047202A04DB203A21FA02F00A
:104340000021704721FA02F3D040C2F120029140CF
:1043500008431946704770B58C1810F8015B15F0CA
:10436000070301D110F8013B2A1106D110F8012BE7
:1043700003E010F8016B01F8016B5B1EF9D12B070C
:1043800005D40023521E0DD401F8013BFAE710F8C2
:10439000013BCB1A921C03E013F8015B01F8015BAF
:1043A000521EF9D5A142D8D3002070BD00BFFEE750
:1043B00010B502220321054802F019FB20B10122A9
:1043C0000321024802F00BFB10BD00000000024078
:1043D00010B502220421074802F009FB40B106484B
:1043E000006800F009F901220421024802F0F7FAFE
:1043F00010BD0000000002400000002070470000D7
:1044000008B5022002F000FCA8B169460A4800681D
:1044100004F038FE072002F09FFE022002F0EEFBBF
:10442000009838B14FF0805004490860BFF34F8FB7
:10443000BFF36F8F00BF08BD1400002004ED00E043
:1044400002E0642004F0DEF9FBE72DE9F0410446C8
:104450000D4616464FF000083146204600F029F878
:1044600020B31DB300BF5022EFF3118182F31188F6
:10447000BFF34F8FBFF36F8F00BF08460DE0E268B8
:104480002168B1FBF2F302FB13172978A268D1551A
:104490002168491C21606D1C761E002EEFD100BFE3
:1044A00080F3118800BF4FF0010800BF4046BDE80F
:1044B000F081F0B504460E4600BF5021EFF31180A5
:1044C00081F31188BFF34F8FBFF36F8F00BF054695
:1044D00054B1204600F013F8E168081AB04201D345
:1044E000012002E0002000E00020074600BF85F325
:1044F000118800BF3846F0BD016142617047F0B5D8
:10450000014699B100BF5026EFF3118586F311885B
:10451000BFF34F8FBFF36F8F00BF2C460A684B6805
:10452000D01A254685F3118800BF00E00020F0BDB9
:1045300070B5044600BF5020EFF3118180F311885D
:10454000BFF34F8FBFF36F8F00BF0D464CB12046B6
:10455000FFF7D5FFE168884201D1012002E0002089
:1045600000E00120064600BF85F3118800BF3046F9
:1045700070BD70B5B8B1B1B1AAB100BF5025EFF3AD
:10458000118485F31188BFF34F8FBFF36F8F00BF86
:1045900023460024046044608160C2601C4684F3AA
:1045A000118800BF00BF70BDF0B504460D4600275E
:1045B00004B32046FFF7BCFFE0B900BF5022EFF381
:1045C000118182F31188BFF34F8FBFF36F8F00BF4C
:1045D0000846E2682168B1FBF2F302FB1316A168FA
:1045E0008D552168491C2160014681F3118800BF67
:1045F000012700BF3846F0BDF0B5ADF2044D0446CA
:104600000026002701A861698847064600BF50219F
:10461000EFF3118081F31188BFF34F8FBFF36F8FDA
:1046200000BF05462046FFF76AFFA189081A87B236
:10463000BE4200DD3E46324601A92046FFF705FF97
:1046400000BF85F3118800BF0DF2044DF0BD70B5B9
:1046500004462046FFF753FF002839D000BF502101
:10466000EFF3118081F31188BFF34F8FBFF36F8F8A
:1046700000BF0546E1682068B0FBF1F201FB1200C3
:104680002060E1686068B0FBF1F201FB120060603D
:10469000D4E9000188420BD2A389A6889B1B99B25A
:1046A000D4E901639819226990470020606070BDC9
:1046B0002388A6889B1B99B2D4E9016398192269C3
:1046C00090472068606000BF85F3118800BF00BF7D
:1046D00000BFECE700BFFEE704E002F0BFFD64208E
:1046E00004F090F8F9E700BFFEE770470EB52448E4
:1046F000407980B12248008821498978204AD278BF
:10470000CDE9002102901E48037942791DA122487B
:1047100001F0AEF932E01A48007968B11848008813
:1047200017498978CDE900101548C37802791BA193
:10473000194801F09DF921E01148C07850B11048A6
:10474000008800900E488378C27818A1124801F0C2
:104750008FF913E00A48807838B1094803888278D5
:1047600015A10D4801F084F908E00548008828B13A
:104770000348028812A1084801F07AF906480EBDE4
:10478000B00000205B25643A25643A25643A25642C
:104790003A25645D00000000602F00205B25643A2C
:1047A00025643A25643A25645D0000005B25643A7F
:1047B00025643A25645D00005B25643A25645D004C
:1047C0005B25645D0000000017480088401C164906
:1047D000088008460088B0F57A7F23D108468078A3
:1047E000401C887000200880084680783C2819D139
:1047F0000846C078401CC870002088700846C07801
:104800003C280FD108460079401C08710020C87070
:1048100008460079182805D108464079401C48719F
:104820000020087170470000B000002010B5522031
:1048300023490870084604784FF4807021490860C5
:10484000052003F0DFFF4FF480701E49091F086048
:10485000052003F0D7FF00BF012003F0D3FF184865
:10486000007800F005FB00211548007800F06CFA94
:104870001348007800F05EFB01211148007800F039
:1048800079FE01210E48007800F038FD00210C4827
:10489000007800F047FC07210948007800F044FA4E
:1048A0000748007800F0A5FC00210548007800F0DA
:1048B00025FD01210248007800F036FA10BD000005
:1048C000D4010020140C014010B5FFF77DFF00BF9C
:1048D000502080F31188BFF34F8FBFF36F8F00BF5D
:1048E00004F070FE18B14FF080500449086000BF1A
:1048F000002080F3118800BF10BD000004ED00E02F
:1049000008B51848006840F4700016490860164859
:10491000006840F00100144908600846406840F013
:10492000800048600020009002E00098401C009049
:1049300044F6206100988842F7D300200A49486075
:10494000C8620846006809490840074908604FF4F2
:104950001F0088600846006820F48020086003F08B
:10496000B3FB08BD88ED00E000100240FFFFF6FE3B
:1049700008B51649164803F090FD60B11548006867
:10498000FFF73AFE1149124803F07AFD104800681B
:104990000F48001D006810490D4803F07EFD98B1D6
:1049A00069460E48006804F06DFB0B49084803F0A7
:1049B00067FD009838B14FF0805009490860BFF397
:1049C0004F8FBFF36F8F00BF08BD000004030400CA
:1049D000003801400000002006030600B800002057
:1049E00004ED00E000BFFEE72DE9F04105460F466B
:1049F00016461C464FF47A705249086000BF28687A
:104A000000F4007038B14F4801680068401E4D4AFC
:104A100010600029F3D14FF47A704A49086000BF52
:104A200040F20161284602F083FA38B14548016836
:104A30000068401E434A10600029F1D1284602F068
:104A40009EFA4FF47A703F49086000BF4FF4A061AE
:104A5000284602F06DFA38B93A4801680068401EED
:104A6000384A10600029F1D101223946284602F067
:104A70006EFA4FF47A703349086000BF40F201517A
:104A8000284602F055FA38B92E4801680068401EE1
:104A90002C4A10600029F1D140F20151284602F061
:104AA00033FA32E0012C16D14FF47A7025490860B0
:104AB00000BF40F20251284602F03AFA38B92148C4
:104AC00001680068401E1F4A10600029F1D10021D2
:104AD000284602F061F94FF47A701A49086000BF65
:104AE00040F20651284602F023FA38B91548016809
:104AF0000068401E134A10600029F1D1284602F0D8
:104B0000F7F906F8010B601EC4B2002CCAD1284682
:104B100002F03AFA4FF47A700A49086000BF286838
:104B200000F4007038B1074801680068401E054A6B
:104B300010600029F3D10121284602F02DF9002050
:104B4000BDE8F081BC0000202DE9F04105460F468C
:104B500014461E464FF47A703C49086000BF40F28C
:104B60000161284602F0E4F938B13848016800686C
:104B7000401E364A10600029F1D1284602F0FFF9A4
:104B80004FF47A703149086000BF4FF4A0612846A5
:104B900002F0CEF938B92D4801680068401E2B4A52
:104BA00010600029F1D16FF001023946284602F069
:104BB000CEF94FF47A702549086000BF40F20151E8
:104BC000284602F0B5F938B9204801680068401E4F
:104BD0001E4A10600029F1D140F20151284602F02E
:104BE00093F917E02178284602F086F94FF47A709D
:104BF0001649086000BF40F20751284602F098F9B4
:104C000038B9124801680068401E104A1060002937
:104C1000F1D1641C301EA6F10101CEB2E2D12846CA
:104C200002F0B2F94FF47A700849086000BF2868B2
:104C300000F4007038B1054801680068401E034A5E
:104C400010600029F3D10020BDE8F081BC000020F5
:104C50008AB003220021012004F012F822490860E2
:104C6000FFF7E4FD01F028FD3DE04FF0FF311E4865
:104C7000006804F03DFB69461C48007800F090F99C
:104C80000298E0B9009C1A4800684DF69911484313
:104C900042F2676104FB01000014154908600846F0
:104CA00014A10268154800F0E3FE00BFFFF71EFDE7
:104CB0000446214612A0009A00F0CAFE09E00B4803
:104CC0000578029C224615A1164800F0D1FE00BFCF
:104CD00000BF01210548007800F026F800220A21D3
:104CE000072002F045FAC0E714000020D40100209C
:104CF000200000207225336400000000180000200E
:104D0000257352616E6765446174612E72616E67CE
:104D1000655F6D6D203D2025640A0000452D25301E
:104D2000326400002400002070B506460C46072CB3
:104D300006DC22461521304600F092FC054601E0D3
:104D40006FF00105284670BD10B50246014CE174B4
:104D5000002010BD0C0100202DE9F04180460C46DA
:104D600016460C4890F8780058B14D2C09DB842C7D
:104D700007DCA4F14D00074979310F5C377000253D
:104D800005E032462146404600F03CFA05462846FA
:104D9000BDE8F0810C0100202DE9F04180460C4671
:104DA0001646124890F87800B0B14D2C14DB812CD7
:104DB00012DCA4F14D010D4A7932881801780906F8
:104DC000427841EA0241827841EA0221C27841EA0E
:104DD00002073760002505E032462146404600F0D4
:104DE0002DFA05462846BDE8F08100000C010020A0
:104DF0002DE9F04180460C4617460E4890F87800A1
:104E000078B14D2C0DDB832C0BDCA4F14D01094A4C
:104E1000793288184178027841EA02263E800025DE
:104E200005E03A462146404600F049FA0546284644
:104E3000BDE8F0810C01002070B504460D46164611
:104E400033462A4621460248FFF7CEFD70BD0000DA
:104E50000054004070B504460D46164633462A46B7
:104E600021460248FFF770FE70BD0000005400406C
:104E70002DE9FF41074655202C49088164204881CF
:104E800000212A480174012028498874C87481F8D7
:104E9000C400384600F000FD00BF03AA24213846B4
:104EA00000F0B0F9044604B13BE09DF90C001F4945
:104EB00081F8C50001AA2621384600F0BFF9044652
:104EC00004B12EE001986FF30F0008B91848019063
:104ED0001649019808606A461E21384600F0EFF92D
:104EE000044604B11DE0BDF800004FF47A71484358
:104EF000C6090E484660384600F044FC0546002DC1
:104F000000DA0EE002AA1621384600F07BF90446CA
:104F100004B106E09DF80800012800D105B1012484
:104F200000BF00BF204604B0BDE8F0810C010020A6
:104F3000F803CE0070B5054600BF284600F006FA1B
:104F40000446002C00DA17E00421284600F017F888
:104F5000044604B110E0C8220A21284600F023F9D3
:104F6000044604B108E0284600F0DCFD072128468D
:104F7000FFF7DAFE044600BF00BF204670BD70B5E3
:104F800006460C46042C07DC2346F8221421304642
:104F900000F0FAF9054601E06FF00105284670BD02
:104FA0007CB506460C46304600F09CFB054605B134
:104FB0003FE02146304600F043F80546002D36D14B
:104FC00001AA66213046FFF713FF054675BBBDF801
:104FD000040060606A464D213046FFF7BDFE05467D
:104FE00025B99DF800000011A06000E000BF214637
:104FF000304600F0C5FC054605B11AE00F48C07CFC
:1050000058B12146304600F057FD05462DB9606A7B
:1050100018B1606AA060208C2060084890F8C40035
:1050200030B12146304600F07FFB01E000E000BFD8
:1050300000BF304600F070FB28467CBD0C0100200C
:10504000F8B507460C466A4662213846FFF784FEEB
:10505000054635B90448867C9DF8000016FB00F033
:1050600020602846F8BD00000C0100202DE9FF5FFC
:1050700081464FF47A700390401002901F48B0F8B8
:1050800008A0B0F80AB000BF6A461C21484600F0EC
:10509000B9F8044604B12CE09DF80080484600F0C1
:1050A00037FC0546002D02DA4FF0FF3421E008EB13
:1050B0004800C0EBC810C5EBC00601AAB82148469D
:1050C00000F0BCF8044604B113E00198000201901E
:1050D0004FF4FA710AFB01F00199484306FB0BF10A
:1050E000B0FBF1F7BAB22221484600F0E5FA0446D7
:1050F00000BF00BF204604B0BDE8F09F0C010020B7
:105100002DE9F04107460D460DB1012400E00024D1
:105110002346FE222D21384600F036F90646304659
:10512000BDE8F0812DE9F04107460C4600BF40F68E
:10513000F610844202D96FF0010515E00A2C00D266
:105140000A240A20B4FBF0F0C6B232461B213846CE
:1051500000F086FA054605B105E00A20B4FBF0F040
:10516000B04200D0022500BF00BF2846BDE8F08154
:1051700070B506460D46002400BF2A461C21304665
:1051800000F06EFA044604B10AE03046FFF76EFF05
:10519000044604B104E0304600F0F4FA044600BFCF
:1051A00000BF204670BD2DE9F04106460C4617466B
:1051B0003A461921304600F053FA05462DB92246E9
:1051C0001A21304600F04CFA05462846BDE8F08129
:1051D00070B506460D46032D07DC2A4618213046D9
:1051E00000F03EFA044614B101E06FF001042046DD
:1051F00070BD70B5044603212046FFF7E9FF054660
:10520000284670BD2DE9FC4180460D4617466C4688
:10521000281220706570022221464046FFF71AFED0
:10522000064646B9012221464046FFF705FE0646DE
:105230000EB9207838703046BDE8FC812DE9FC417C
:1052400080460D4617466C46281220706570022273
:1052500021464046FFF7FEFD06468EB90422214650
:105260004046FFF7E9FD064656B92078000661780A
:1052700040EA0140A17840EA0120E1780843386023
:105280003046BDE8FC812DE9FC4781460C461646B8
:105290001F466D46201228706C700222294648462F
:1052A000FFF7D8FD8046B8F1000F05D1FAB23146BC
:1052B0004846FFF7C1FD80464046BDE8FC872DE922
:1052C000FC4180460D4617466C46281220706570DA
:1052D000022221464046FFF7BDFD06465EB9022286
:1052E00021464046FFF7A8FD064626B9607821789A
:1052F00040EA012038803046BDE8FC812DE9F041CC
:1053000007460D460DB1012400E000242246172176
:10531000384600F0A5F906463046BDE8F081024661
:1053200000204FF0804100E089089142FCD809E05C
:105330004318934204D84318D21A01EB500000E0FE
:10534000400889080029F3D17047000070B506466F
:1053500000250C48807C012800D100BF304600F0B9
:1053600063F90446002C00DA09E0002C00DD00BFE0
:10537000002D00DA00BF0DB904B1254600BF284654
:1053800070BD00000C0100202DE9FC4781460D4650
:10539000174698466C4628122070657002222146F6
:1053A0004846FFF757FD06468EB90122A11C484624
:1053B000FFF742FD064656B9A078384040EA08009B
:1053C000A070032221464846FFF744FD06463046BA
:1053D000BDE8FC8710B50446012240F207212046B3
:1053E00000F03EF901224FF40271204600F038F936
:1053F00000229621204600F033F9542297212046BE
:1054000000F02EF90022E321204600F029F90422C1
:10541000E421204600F024F90222E521204600F094
:105420001FF90122E621204600F01AF90322E721A4
:10543000204600F015F90222F521204600F010F96F
:105440000522D921204600F00BF9204600F0F0FAA1
:1054500000229F21204600F003F92822A3212046A4
:1054600000F0FEF80022B721204600F0F9F82822CB
:10547000BB21204600F0F4F80922B221204600F0BA
:10548000EFF80922CA21204600F0EAF801224FF481
:10549000CC71204600F0E4F817224FF4D871204672
:1054A00000F0DEF8002240F2AD11204600F0D8F8FE
:1054B0000522FF21204600F0D3F805224FF4807129
:1054C000204600F0CDF8052240F29911204600F068
:1054D000C7F81B224FF4D371204600F0C1F83E22DA
:1054E0004FF4D671204600F0BBF81F2240F2A711FE
:1054F000204600F0B5F800223021204600F0B0F838
:1055000010221121204600F0ABF830224FF48571B3
:10551000204600F0A5F846223F21204600F0A0F8E2
:10552000FF223121204600F09BF8632240212046D3
:1055300000F096F801222E21204600F091F8FF227B
:105540002C21204600F08CF809221B21204600F077
:1055500087F831223E21204600F082F824221421CF
:10556000204600F07DF832212046FFF701FE0020A2
:1055700010BD00002DE9F04781460C46012C4ADBA6
:10558000032C48D8601E264931F810703A469621FF
:10559000484600F091F805462248847490F9C50009
:1055A00090FBF4F04FFA80F808F0FF0224214846FF
:1055B00000F056F8054655B9142090FBF4F000F0C1
:1055C000FF0A52462121484600F04AF805468DB9A7
:1055D0001448007C70B113488689807C96FBF0F0FB
:1055E00086B2FF2E00DDFF26F2B22521484600F0EC
:1055F00037F805464DB9012C01D1012000E000200B
:1056000001464846FFF77CFD054635B900BF012C31
:1056100003D0032501E06FF001052846BDE8F087BF
:10562000F89A00080C01002070B5054600BF284616
:10563000FFF7D0FE044604B100E000BF00BF54B93C
:105640000648817C2846FFF795FF04460022162174
:10565000284600F005F8204670BD00000C0100202F
:105660002DE9FC4107460D4616466C46281220706F
:105670006570A670032221463846FFF7EBFB804693
:105680004046BDE8FC812DE9FC4107460E46154623
:105690006C46301220706670280EA070280CE070E6
:1056A000280A20716571062221463846FFF7D2FB91
:1056B00080464046BDE8FC812DE9FC4107460D4689
:1056C00016466C462812207065703012A070E67085
:1056D000042221463846FFF7BDFB80464046BDE820
:1056E000FC81000070B506460A4890F8780068B959
:1056F0000120084981F8780001F1790538232A460C
:105700004D213046FFF7BFFD044600E0002420464F
:1057100070BD00000C0100200021024A82F87810C0
:10572000704700000C0100202DE9F04781460D462E
:10573000EF681148874219D23946484600F0B4F85C
:1057400004460E4890F81280A8F101000C4931F887
:1057500010600A48B0F8C000A04202DA0748B0F86A
:10576000C040B44200DD3446EC6101E00020E86155
:105770000020BDE8F0870000100905000C010020A2
:10578000FE9A00082DE9F04F87B082464FF0000BDB
:1057900000BF06AA2A215046FFF734FD044604B193
:1057A00070E09DF8180018B94FF0010B2820069002
:1057B0009DF818004FF47A7110FB01F0C70902AA96
:1057C0002D215046FFF71EFD044604B15AE003AAFE
:1057D0001C215046FFF716FD044604B152E004AA0E
:1057E000B8215046FFF72AFD044604B14AE001AA59
:1057F0002C215046FFF706FD044604B142E09DF817
:1058000004004FF47A5191FBF0F12248C0F8BC102B
:105810004568AF4202D3C0F8B87003E000211D48CC
:10582000C0F8B8109DF8080000F0020070B105AA99
:1058300026215046FFF743FD044604B122E0BDF89F
:1058400014004FF47A714843C60900E0002604981A
:1058500001029DF80C00001FB1FBF0F8701B4045E1
:1058600001DBA6EB05089DF8040008FB00F04FEAF9
:1058700010194946504600F017F881B20548A0F8C3
:10588000C01000BF00BF04B95C46204607B0BDE8A9
:10589000F08F00000C0100205021024AC2F8B41021
:1058A000704700000C0100202DE9F04782460E46AB
:1058B0001548D0F8B490D0F8BC70D0F8B880002E5D
:1058C0001DDD124890FBF6F0A0F5F274002C01DC0F
:1058D000002516E0B4F5005F06DA04FB08F007EBDC
:1058E0000901B0FBF1F405E007EB0900B4FBF0F0AF
:1058F00000FB08F42046FFF712FD054601E06FF0BB
:1059000000452846BDE8F0870C01002000688909A1
:105910002DE9F14F82B04FF018094FF0460A4FF0D1
:10592000C80B072001906A4640F209110298FFF760
:1059300069FC8046B8F1000F03D04FF0FF30BDE89E
:10594000FE8F9DF80000019900EA01046A464FF4B9
:1059500085710298FFF756FC8046B8F1000F02D01F
:105960004FF0FF30EBE79DF8005009EB0A0005EB24
:10597000850100EB4106601C00FB06B73846DEE7F8
:105980002DE9FF5F81460D460020039000278046E9
:105990000290019000906FF0004A4FF0060B002635
:1059A00000BF02AA6C214846FFF7F6F9044604B18D
:1059B00039E00298504501D90020029001AA7421D3
:1059C0004846FFF7E9F9044604B12CE003AA7C211C
:1059D0004846FFF7E1F9044604B124E06A46802115
:1059E0004846FFF7D9F9044604B11CE00398686102
:1059F0000098A861009E00990398884200D9039EF0
:105A00000EB94FF218664FF47A7102984843B0FB12
:105A1000F6F7019800FB0BF04843B0FBF6F82F6156
:105A2000C5F80C8000BF00BF204604B0BDE8F09F61
:105A300070B504460026054806683246DA2120463D
:105A4000FFF721FE0546284670BD00000C0100202E
:105A50000FB4054B10B503A9044A029800F0F6FBF9
:105A600010BC5DF814FB00002D6C0008D80100206C
:105A70000FB4084B10B504A902AA039800F0E6FB86
:105A8000044602A9002000F012FE204610BC5DF87A
:105A900014FB0000AF66000802E008C8121F08C12E
:105AA000002AFAD170477047002001E001C1121F9F
:105AB000002AFBD1704700002DE9FE4381460C46C9
:105AC0000027174890F8128000BF02AA64214846B8
:105AD000FFF742F9064606B11DE09DF808702089DF
:105AE00080B2E168CDE9001007FB08F082B220889F
:105AF00081B24846236900F039F80546002D02DAE4
:105B00004FF0FF3607E0258407FB08F06084044867
:105B1000416F616200BF00BF3046BDE8FE830000F8
:105B20000C010020024600200F4B586100230E4854
:105B3000C365036643668366C366A0F8583003678F
:105B400000210AE04FF6FF7307481C3020F811309F
:105B50000023143040F82130491C0A29F2DB0023CD
:105B600001488361002070470C0100202DE9FF4FA0
:105B7000A7B017461D4600BF0020239001202290A9
:105B80004FF00009002021901F901E901D901C9046
:105B90001B901A9019901890002617901690159047
:105BA00014901390129011904FF4E16007904FF40D
:105BB00096700490FC48807CC0EB002003903598E0
:105BC0000C2806D00D280AD00E2803D00F2812D199
:105BD00006E000BF1020219000201F9016E000BFBB
:105BE00010202190F048807CC82110FB01F0289003
:105BF00001201F900AE00398874204D300201F90E1
:105C00000120239001E001201F9000BF00BF2898D1
:105C10002690E54840680590E348D0F8B8000C901D
:105C2000059800F548700B90B4210C9848434FF448
:105C30009C71B0FBF1F1059808440A9040F2523192
:105C40000C9848434FF49C71B0FBF1F1059808445F
:105C500009904FF4AF610C9848434FF49C71B0FB2E
:105C6000F1F10598084408903C2F06DA0B9885421C
:105C700003D24FF0100901202390A52F06DA0A98CD
:105C8000854203D24FF0100901202390A52F05DA99
:105C90000A989630854201D201201E9043F6982141
:105CA0003498884202D901201A9023904B2D02D2B9
:105CB00001201A902390BC48006BC8B1BA48006B11
:105CC000A8420AD2B848006B281A64214843B64952
:105CD000096BB0FBF1F019900CE0B348006B401B6E
:105CE00064214843B049096BB0FBF1F0199001E021
:105CF000002019901998322801D901201A901A9879
:105D0000012816D10020A849486100240BE04FF675
:105D1000FF71A5481C3020F814100021143040F801
:105D20002410601C84B20A2CF1DB00219E488161A2
:105D300012E009240EE0611E9B481C3030F811105F
:105D400020F81410611E143050F8211040F824106F
:105D5000601E84B2002CEEDC1F98012803D192490A
:105D60002898888303E04FF6FF718F4881838E481F
:105D700005638069401C8C498861B7F5AF7F02DA02
:105D80000998854208D3B7F5AF7F02DB08988542B2
:105D900002D3012023900DE0219858B135980C28AA
:105DA00002D035980E2801D1DDF88490012023908F
:105DB0000020229006AA4FF4D6712798FFF722FA06
:105DC0008046B8F1000F00D011E29DF81800209035
:105DD000082324AA4FF486712798FFF754FA8046C7
:105DE000B8F1000F00D002E29DF8900000069DF887
:105DF000911000EB01409DF8921000EB01209DF8FE
:105E0000931000EB010A9DF8940000069DF8951090
:105E100000EB01409DF8961000EB01209DF89710D3
:105E200000EB010B1A98012805D0239801281DD1F9
:105E3000229801281AD120983E280AD03E224FF4F9
:105E4000D6712798FFF70CFC8046B8F1000F00D000
:105E5000CDE15548C0F85CA0C0F860B0C0F864A0BF
:105E6000C0F868B000205049486128E020983E28DA
:105E700005D14D48C0F85CA0C0F860B004E04A48C5
:105E8000C0F864A0C0F868B04748007D00F0010089
:105E900010B93C20069001E03E2006909DF81820A5
:105EA0004FF4D6712798FFF7DBFB8046B8F1000F5F
:105EB00000D09CE13C484069401C3B494861239824
:105EC00001280CD13848C0F87490B9F1100F02D1F4
:105ED000039880B2269026982BB0BDE8F08F324808
:105EE000016E806E814205D92F48016E806E081ABE
:105EF000109001E0002010902B491098C8661E9861
:105F000018B94FF4E160079002E04FF46170079018
:105F10002548C16D406E814205D92348C16D406E50
:105F2000081A0F9004E02048416EC06D081A0F90C7
:105F300007990F98884204D907990F98401A0E9034
:105F400001E000200E9007990F9808440D900E99DB
:105F50001098884203D30D991098884204D90120E3
:105F60001D904FF01009CCE00F484069012802D87D
:105F70000520189001E00320189005204FF461716E
:105F80001E239622CDE900102946349800F036F9F8
:105F900004900026002017901690159014901390EE
:105FA000129000241AE000000C010020914830F803
:105FB00014004FF6FF7188420ED0701C86B28D48D7
:105FC00030F814101798084417908A48143050F885
:105FD0002410149808441490601C84B20A2C01DA2E
:105FE000062EE3DB002E07DD1798B0FBF6F01690C7
:105FF0001498B0FBF6F01390002600201790149030
:10600000002428E07B4830F814004FF6FF718842E6
:106010001FD0701C86B2774830F814101698091AF1
:10602000744830F814201698121A179801FB0200D1
:1060300017907048143050F824101398091A6D48BE
:10604000143050F824201398121A149801FB0200FF
:106050001490601C84B20A2C01DA062ED2DB189848
:1060600086420ADB1798B0FBF6F080B215901498C0
:10607000B0FBF6F080B2129002E000201590129072
:106080005D491298884238D21898864202DA4FF059
:10609000100936E040F6AC51129888420DD240F615
:1060A000A6610498081A1299484340F6AC51B0FB17
:1060B000F1F104980844119002E040F6A6601190B6
:1060C0004C481C38406F10B9119880001190049909
:1060D0001598B1EBC00F04D9062E02DB01201B90EE
:1060E0000FE011991598884202D201201C9008E017
:1060F00001201D904FF0100903E001201D904FF08A
:1061000010091F9880B93B481C38B0F85800002887
:106110004BDD38481C38B0F85800401E81B2354875
:106120001C38A0F8581040E01D98012813D13148C0
:106130001C38B0F85800801C81B22E481C38A0F8DA
:106140005810B0F8580004282FDD042129481C38C5
:10615000A0F8581029E01C9801281ED125481C38A9
:10616000B0F85800002820DD4FF0100921481C38F5
:10617000B0F8580001280ADD1E481C38B0F8580055
:10618000401E81B21B481C38A0F858100DE00021B9
:1061900018481C38A0F8581007E01B98012804D1B3
:1061A000002114481C38A0F8581012481C38406FC1
:1061B00088B9B9F1000F0ED001240AE04FF6FF7143
:1061C0000C4820F814100021143040F82410601CF2
:1061D00084B20A2CF2DB07481C38C0F87490B9F17D
:1061E000100F02D1039880B22690269874E64FF0E3
:1061F000FF3071E628010020905F01002DE9F04199
:1062000004460F46DDE9065644B14FF0640C07FB27
:106210000CFCBCFBF4FC1FFA8CF101E042F20F71A4
:10622000994201D310460FE0B14201D828460BE055
:10623000A1EB060CA5EB02080CFB08FCA3EB06087F
:10624000BCFBF8FCA5EB0C00BDE8F0812DE9FF4F8D
:106250008DB00F460546002606E025280BD0DDE967
:106260000F1290476D1C761C28780028F5D111B0CC
:106270003046BDE8F08F0024A246A1460122EC4939
:1062800000E0044315F8013F203B02FA03F0084206
:10629000F7D128782A2810D06FF02F022878A0F1A3
:1062A0003001092914D80AEB8A0102EB410144F0BC
:1062B000020400EB010A6D1CF0E701CF5FEA000A5F
:1062C00003D544F40054CAF1000A44F002046D1CE2
:1062D00028782E2817D115F8010F44F004042A2835
:1062E0000ED06FF02F022878A0F1300109290AD8CA
:1062F00009EB890102EB410100EB01096D1CF2E79A
:1063000057F8049B6D1C28786C280FD006DC4C28AD
:1063100017D068280DD06A2814D104E0742810D052
:106320007A280FD10DE044F400140AE044F48014FC
:1063300001E044F440146978814202D104F58014EC
:106340006D1C6D1C2A786E2A1FD00CDC632A31D09C
:1063500004DC002A8BD0582A11D1A3E0642A68D02B
:10636000692A0CD165E0732A2ED004DC6F2A73D021
:10637000702A04D19BE0752A6FD0782A6ED010461F
:10638000DDE90F129047761C50E1C4F30250022859
:1063900006D0032809D0042801CF09D0066045E1C2
:1063A00001CFF117C0E9006140E101CF06803DE176
:1063B00006703BE117F8040B8DF8000000208DF803
:1063C0000100EB46012003E057F804BB4FF0FF301B
:1063D00061074FF0000102D40DE008F10101884689
:1063E00049450FDA8045F8DB1BF808100029F4D185
:1063F00008E008F1010188468142FADB1BF8081029
:106400000029F6D1DDE90F23AAEB080081462146D9
:1064100000F036F9304400EB080604E0DDE90F1225
:106420001BF8010B9047B8F10108F7D22146484606
:10643000F7E00A21C4F302534FF0000B0891022B3E
:1064400004D001CFC117032B09D00AE0FF1D27F0AC
:106450000707F7E8020108E032E01FE020E000B2A1
:10646000C117042B01D140B2C117031E71F1000303
:1064700007DA4FF0000CD0EB0C006CEB01012D2380
:1064800002E0230504D52B238DF82430012303E0FB
:10649000E30701D02023F7E7984658E00A2110E0EF
:1064A00010210EE010204FF0000B08900CE010219E
:1064B0004FF0000B44F004044FF00809089103E08A
:1064C00008214FF0000B0891C4F30253022B04D0B3
:1064D00001CF0021032B06D006E0FF1D27F00707A0
:1064E000F7E8020103E080B2042B00D1C0B24FF004
:1064F000000823072BD5702A07D0DDF820C08CF0C8
:10650000100C5CEA0B0C05D00EE040238DF8243013
:10651000012308E050EA010306D030238DF824302F
:106520008DF8252002239846DDF820C08CF0080C59
:106530005CEA0B0C0BD150EA010301D1630706D5CD
:1065400030238DF824304FF00108A9F10109582AB1
:1065500004D038A20B9208AA0A920BE03AA2F9E7FB
:106560005B46089AFDF794FE0B9B9B5C0A9A521EB1
:106570000A92137050EA0102F2D10A98ADEB0000C2
:1065800000F1200B600702D524F4803401E04FF0C5
:106590000109D94502DDA9EB0B0000E0002000EB6A
:1065A0000B0141440890AAEB010AE00306D4DDE99F
:1065B0000F232146504600F063F806444FF00009CF
:1065C00008E009A911F80900DDE90F12904709F167
:1065D0000109761CC145F4DBE0030CD5DDE90F238E
:1065E0002146504600F04CF8064404E0DDE90F1265
:1065F00030209047761C0899481E08900029F5DC49
:1066000008E00A980A990078491C0A91DDE90F12FE
:106610009047761CBBF10001ABF1010BF1DC214688
:106620005046DDE90F2300F019F806446D1C1BE607
:106630000928010030313233343536373839616258
:10664000636465660000000030313233343536371C
:106650003839414243444546000000002DE9F041ED
:10666000044600251E461746880404D405E0394632
:106670002020B0476D1C641EF9D52846BDE8F08186
:106680002DE9F041044600251E469046C80301D579
:10669000302700E02027880404D505E0414638462D
:1066A000B0476D1C641EF9D52846BDE8F0810A6824
:1066B000531C0B601070704710B540F2026001F07F
:1066C00049FC4FF4C06001F045FC02230322042181
:1066D0000A4800F003FB00220A21072000F048FDD1
:1066E0000121002000F0AEFA01220021022000F07A
:1066F00029FA022000F082FA10BD000000080140D3
:1067000010B5044640F2036001F024FC40F215701D
:1067100001F020FCC02303221C210B4800F0DEFA0C
:1067200000220A49204600F043FB52230022114672
:10673000204600F016FC204600F0E1FB0121204637
:1067400000F02AFB10BD0000000C0140801A06007A
:1067500010B5044603220021012002F091FA0549F8
:10676000086000F0E3FC204601F042FD01F0DAFD94
:1067700010BD0000B800002070B505460C4621464B
:10678000284600F0A1F908B900BFFEE704EB840039
:10679000810005F10800405820F0010104EB84005D
:1067A000820005F10800815070BD70B505460C46A9
:1067B0002146284600F088F908B900BFFEE704EB3F
:1067C0008400810005F10800405840F0010104EB0D
:1067D0008400820005F10800815070BD70B5054647
:1067E0000C462146284600F06FF908B900BFFEE7C5
:1067F00004EB8400810005F10800405820F02001DE
:1068000004EB8400820005F10800815070BD70B572
:1068100004460D462946204600F056F908B900BF47
:10682000FEE705EB8500810004F10800405820F0E8
:10683000010105EB8500820004F108008150002170
:1068400005EB8500820004F10800815005EB85000E
:10685000820004F10C00815005EB8500820004F1F8
:106860001000815005EB8500820004F11400815076
:106870006068AA000F2191400843606070BD2DE957
:10688000F04104460D4616462946204600F01CF904
:1068900008B900BFFEE705EB8500820004F1100097
:1068A0003168815005EB8500820004F11400B16865
:1068B0008150308A81B205EB8500820004F10C0022
:1068C000815005EB8500810004F10800475827F44A
:1068D0007C57F1687068084371690843074305EB0A
:1068E0008500810004F108004750307E01280ED158
:1068F00005EB8500810004F10800405840F040019C
:1069000005EB8500820004F1080081500DE005EBE5
:106910008500810004F10800405820F0400105EB9B
:106920008500820004F108008150707E01280ED19C
:1069300005EB8500810004F10800405840F080011B
:1069400005EB8500820004F1080081500DE005EBA5
:106950008500810004F10800405820F0800105EB1B
:106960008500820004F108008150B07E70B905EB0B
:106970008500810004F10800405820F0100105EB6B
:106980008500820004F1080081500DE005EB8500D0
:10699000810004F10800405840F0100105EB85002B
:1069A000820004F108008150BDE8F08170B5044612
:1069B0000D4616462946204600F086F808B900BF65
:1069C000FEE705EB8500810004F1080040583043E4
:1069D00005EB85018A0004F10801885070BD10B5EF
:1069E00043688C0002FA04F42343436010BD70B581
:1069F000034600BF00BF022A04D0042A11D0082A8F
:106A00002DD11DE018688E0002FA06F600EA060590
:106A100001EB8100860003F10800805900F00204B8
:106A20001FE018688E0002FA06F600EA060501EB80
:106A30008100860003F10800805900F0040410E092
:106A400018688E0002FA06F600EA060501EB8100DE
:106A5000860003F10800805900F0080401E000BF3F
:106A6000FEE700BF15B10CB1012070BD0020FCE7AE
:106A700070B506460C4615462146304600F024F80F
:106A800008B900BFFEE704EB8400810006F11400A2
:106A9000455070BD70B505460C462146284600F0AD
:106AA00013F808B900BFFEE704EB8400810005F18C
:106AB0000800405820F4804104EB8400820005F176
:106AC0000800815070BD000002460120034B9A422D
:106AD00002D1042900DD00207047000000040240BC
:106AE00008B900BFFEE700210160416001768160C6
:106AF000C1604176016181764161704770B506469B
:106B00000C46154621463046FFF7DEFF08B900BFA8
:106B1000FEE7A9B204EB8400820006F10C0081506C
:106B200070BD70B505460C4621462846FFF7CCFFE0
:106B300008B900BFFEE704EB8400810005F10C00FA
:106B4000405870BD10B52C4B1B6883432A4C236002
:106B5000231D1B688343241D2360231D1B6883435F
:106B6000241D2360231D1B688343241D236011B152
:106B700001290ED105E0204B1B6803431E4C236006
:106B800008E01D4B1B1D1B6803431B4C241D236089
:106B900000E000BF00BF22B1012A0FD0022A27D196
:106BA00019E0154B08331B680343134C083423606A
:106BB000231D1B688343241D23601AE00E4B0833FA
:106BC0001B6883430C4C08342360231D1B6803435C
:106BD000241D23600DE0084B08331B680343064C5B
:106BE00008342360231D1B680343241D236000E039
:106BF00000BF00BF10BD0000000401400149086053
:106C0000704700001404014001460748006800EA8C
:106C1000010205481438006800EA010312B10BB103
:106C2000012070470020FCE71404014070B50446C1
:106C30000D46E1B202480068FDF7B6FC002070BDC9
:106C40000000002010B500228B071C0F0F2303FA51
:106C500004F204290EDA204B9B6893431E4CA36078
:106C600023469B688C07240F00FA04F423431A4C34
:106C7000A3602FE008290EDA174BDB689343164C0C
:106C8000E3602346DB688C07240F00FA04F42343F7
:106C9000114CE3601EE00C290EDA0F4B1B69934385
:106CA0000D4C236123461B698C07240F00FA04F462
:106CB0002343094C23610DE0074B5B699343064C6A
:106CC000636123465B698C07240F00FA04F42343B5
:106CD000014C636110BD000000000140F0B50446A6
:106CE00016460025002201F00F0501F0100747B1FC
:106CF000042E05D145F00305E76B1F43E76300E071
:106D0000354300201EE0012787401F40C7B122689D
:106D10004FEA800C0F2707FA0CF7BA43870005FAF1
:106D200007F73A43282904D1012787401F406761AC
:106D300005E0482903D1012787401F4027612260D1
:106D4000471CB8B20828DED3082022E0012787407C
:106D50001F40E7B16268A0F108074FEA870C0F27D0
:106D600007FA0CF7BA43A0F10807BF0005FA07F7C6
:106D70003A43282904D1012787401F40676105E075
:106D8000482903D1012787401F4027616260471CC3
:106D9000B8B21028DAD3F0BD012904D1026842F458
:106DA0008062026003E0026822F480620260704741
:106DB0002DE9F05F04460E4692460EB900BFFEE78D
:106DC000022001F01BF807464648B7FBF0F8B8F17F
:106DD0003C0F01D34FF03C08D4F804B02BF07F0BEC
:106DE0004BEA080BC4F804B03F4886421ED83D4821
:106DF000B7FBF0F000F10109B9F13C0F02D33C20E0
:106E0000206207E0B9F1020F02D80220206201E0FF
:106E1000C4F820907000B7FBF0F5042D00D20425D3
:106E2000E069C5F30B010843E06158E02F48864252
:106E30002CD84FF4967008FB00F04FF47A71B0FB39
:106E4000F1F0401C2062BAF1000F08D106EB4600B9
:106E5000B7FBF0F5E06920F48040E06109E006EB63
:106E6000C60000EB0610B7FBF0F5E06940F4804087
:106E7000E061C5F30B0008B945F00105E06940F495
:106E80000040E061E0692843E06128E0C8EB0810B9
:106E9000C0004FF47A71B0FBF1F0401C2062BAF1EF
:106EA000000F08D106EB4600B7FBF0F5E06920F4CF
:106EB0008040E06109E006EBC60000EB0610B7FB7E
:106EC000F0F5E06940F48040E061E06940F40040A2
:106ED000E061E0692843E0610120C4F89000BDE86A
:106EE000F09F000040420F00A0860100801A0600BB
:106EF00001460869C0B27047CAB2026170470168B2
:106F000041F001010160704710B540F20152914219
:106F100002D1426982690AE000EB9112126801F025
:106F20001F040123A3409A4300EB91131A6010BD84
:106F300010B5024602EB9110006801F01F04012316
:106F4000A340184008B1012010BD0020FCE712F159
:106F5000020F02D121F0010101E041F001010161C4
:106F6000704730B50C460021016821F00201214331
:106F70000160C3F3090342EA0305856030BD01687F
:106F800041F4807101607047016841F40071016053
:106F9000704700000FE04FF40050074948614FF47C
:106FA0007A7001F02FFC4FF40050034908614FF450
:106FB0007A7001F027FCEEE7001001401CB538485C
:106FC0000068A0F1006421464FF0006000F03CF939
:106FD00062B6344A344935480068FDF78DFA4FF4FB
:106FE0008062334931480068FDF7C3FA4FF4E1206D
:106FF000FFF7AEFB2F48FFF783FB40F2046000F081
:10700000A9FF4FF40053032210212B48FFF766FE1F
:107010004FF400502849086140F2036000F09AFFE5
:107020004FF48073032210212448FFF757FE4FF4DA
:10703000807022491431086019480068A0F100618D
:107040001FA0FEF705FD2548012100238222CDE97E
:10705000001023A1254802F06FFA254804210023DF
:107060008222CDE9001023A1254802F065FA2548C7
:10707000022100238222CDE9001023A1244802F03E
:107080005BFA2448032100238222CDE9001022A1CB
:10709000254802F051FA01F0A3FC00BFFEE7000012
:1070A00000E80308D18000082181000800000020CA
:1070B000F40100200054004000100140000C014089
:1070C0004150502043757272656E74204164647241
:1070D000657373203D20307825780A000400002075
:1070E0006C6564546573745461736B00956F00082C
:1070F00010000020564C36313830785461736B00E4
:10710000514C0008080000204C6F675461736B00FD
:10711000D94600080C000020456D657267656E63F6
:10712000795461736B0000004144000810B54FF4BE
:10713000407000F07FF8002211460F2000F018F890
:10714000002211460E2000F013F800220A2125200B
:1071500000F00EF810BD000000F01F020121914068
:10716000024A431142F823107047000080E100E01A
:107170002DE9F04103460D46164600240027A0469F
:107180002A48006800F4E060B0F5E06F03D100BF6A
:107190004FF0040830E02548006800F4E060B0F5E6
:1071A000C06F03D101274FF0030825E01F48006896
:1071B00000F4E060B0F5A06F02D10227B8461BE0F2
:1071C0001A48006800F4E060B0F5806F03D103272F
:1071D0004FF0010810E01548006800F4E060B0F5D9
:1071E000407F03D104274FF0000805E04FF4A06072
:1071F00000F020F80227B846C7F1040005FA00F4B1
:10720000C8F104010F20C84030400443240108485D
:10721000C45403F01F01012088405911890001F175
:10722000E021C1F80001BDE8F08100000CED00E0B4
:1072300000E400E002490143024A11607047000087
:107240000000FA050CED00E0024A0A400243024B3E
:107250001A60704780FFFF1F08ED00E010B502487C
:107260000068FDF7F4F910BD000000202DE9F041A1
:1072700005460E461C4807681C480068001D01F0C2
:1072800050F950B91948006890F82C100120884036
:1072900017490968814316480160681C38B936B13E
:1072A00012480168091D134801F079F91AE07C19A8
:1072B0000E4800684460BC4207D20C480168091DB2
:1072C0000D48006801F051F90CE008480168091DFB
:1072D0000A48006801F049F909480068844201D26F
:1072E00007480460BDE8F081440000203000002021
:1072F000480000202407002038000020340000202F
:107300006000002010B5044601F056F924480068DA
:10731000401C234908602348006840B921480460A4
:107320000846006801280DD100F0E0F90AE01E4887
:10733000006838B91B480068C06AE16A884201D811
:107340001848046019480068401C1849086008463D
:107350000068206494F82C100120884014490968C2
:10736000084313490860E16A01EB8101114A02EB0D
:107370008100211D01F013F901F048F90A48006865
:1073800068B108480068C06AE16A884207D24FF0D5
:10739000805009490860BFF34F8FBFF36F8F10BD56
:1073A00040000020300000204C0000205C00002045
:1073B000480000203406002004ED00E010B501F084
:1073C000FBF810480068D0B90F4801F0BEF80F482C
:1073D00001F0BBF80C480E4908600C480D490860E4
:1073E00000220C210A2001F04BFC064908600846E7
:1073F000006820B108A10348006801F0C7F901F056
:1074000005F910BD78000020380700204C07002047
:107410007000002074000020546D725100000000C4
:1074200010B516E001F0C8F80C48C068C468201D0B
:1074300001F077F80A480068401E094908600948C9
:107440000068401E0749086001F0E0F8204600F09F
:107450005FF8044800680028E4D110BD1007002040
:10746000400000203C00002070B504460D46206C12
:1074700070B1216CE0680144E160D4E902108842F7
:1074800001D32168E1602846226CE168FCF7DCFE4C
:1074900070BD2DE9F04104460F4615464FF0000837
:1074A000A66B206C48B9206800282CD1A06802F097
:1074B0002DF980460020A06025E07DB93946226C78
:1074C0006068FCF7C1FE216C606808446060D4E924
:1074D0000101884217D32068606014E03946226CAD
:1074E000E068FCF7B1FE216CE068411AE1602168B8
:1074F000E068884203D2216CA068411AE160022D45
:1075000001D106B1761E701CA0634046BDE8F08133
:1075100010B50446206B01F097F8204601F094F86E
:1075200010BD01464A6A22B10A6B1268C2F1080016
:1075300000E00020704700000146084A1268126807
:107540000AB9012200E000220A600A6822B9034A4F
:107550001268D268106800E00020704770000020B8
:1075600030B54FF42053174800F007042CB1C01D6C
:1075700020F00700134C041B1B1B0246124C226018
:107580000024114D6C60D018083820F007000F4C13
:10759000206000240D4D2D686C600C4D2D682C6012
:1075A0001146441A4C60094C24680C60084D4C6824
:1075B0002C60084D4C682C604FF00044064D2C6048
:1075C00030BD000060070020840000208C000020F7
:1075D0009400002090000020A000002000BFFFF7D2
:1075E0001FFF064800680128F9D94FF08050044970
:1075F0000860BFF34F8FBFF36F8FF0E734060020B2
:1076000004ED00E02DE9F04106460D461746984688
:10761000069C0DB9246000E02760E6632564012123
:10762000204601F07FFB84F84C80BDE8F0812DE915
:10763000F05F82460E4690469B460A9F0C9C4FEA9E
:107640008801A522206BFCF711FEA8F10100216B37
:1076500001EB800929F0070909F0070008B90120AA
:1076600000E0002050B900BF502080F31188BFF324
:107670004F8FBFF36F8F00BF00BFFEE786B10025BD
:1076800007E0715D04F134004155705D00B902E01E
:107690006D1C0A2DF5D300BF00213D20015502E0ED
:1076A000002084F83400082F00D30727E762A7647E
:1076B0000020E064201D00F055FF04F1180000F0E8
:1076C00051FF2461C7F10800A061646200202065B9
:1076D00084F854005A465146484600F079FB206031
:1076E0000B9808B10B980460BDE8F09F10B500241A
:1076F00007E004EB84010F4A02EB810000F025FF54
:10770000641C082CF5D30C4800F01FFF0B4800F058
:107710001CFF0B4800F019FF0A4800F016FF0A484A
:1077200000F013FF0448094908600448084908604C
:1077300010BD000034060020D4060020E80600201A
:10774000FC06002010070020240700203400002041
:107750003800002010B50146164800E000680368B4
:107760008B42FBD30246436813448B4204D14368E7
:107770004C682344436001460A464B68134404683E
:10778000A34211D10C4C03682468A34208D04B6873
:107790000468646823444B6003681B680B6005E061
:1077A000054B1B680B6001E003680B60884200D04A
:1077B000016010BD840000208C0000202DE9F04104
:1077C00004460D4616461F464FF0000865602461CA
:1077D000B5420CD8F01BA169884202D34FF00108D2
:1077E00011E0211D0948006800F0BFFE0BE0BE4219
:1077F00004D2BD4202D34FF0010804E0211D044829
:10780000006800F0B2FE4046BDE8F0817400002040
:107810007000002070B5054600F0CEFEA86B08B9D8
:10782000012400E0002400F0F1FE204670BD70B598
:10783000054600F0C1FEA86BE96B884201D1012426
:1078400000E0002400F0E2FE204670BDF8B50546D9
:107850000F461A480068C068C468201D00F061FE29
:1078600094F8280000F00400E8B1A06941192B4603
:107870003A462046FFF7A2FFD8B1002003462A4629
:1078800001460090204602F0F5F8064656B900BFC2
:10789000502080F31188BFF34F8FBFF36F8F00BF6D
:1078A00000BFFEE705E094F8280020F0010084F80E
:1078B00028002046216A8847F8BD0000700000209B
:1078C00070B586B08BE003980028FBDB059C6069EF
:1078D00008B9012000E0002010B9201D00F021FEB1
:1078E00002A800F0DBF8054603980A2875D2DFE805
:1078F00000F009050739416306083A4200BF00BF9E
:1079000000BF00BF94F8280040F0010084F8280070
:107910000498A269811803462A462046FFF74EFFC5
:10792000F8B12046216A884794F8280000F0040046
:10793000B8B1002000900498A169421800231946AC
:10794000204602F097F8064656B900BF502080F353
:107950001188BFF34F8FBFF36F8F00BF00BFFEE7EB
:1079600000BF3BE000BF94F8280020F0010084F83D
:10797000280033E000BF94F8280040F0010084F8AC
:1079800028000498A061A06908B1012000E000204F
:1079900050B900BF502080F31188BFF34F8FBFF361
:1079A0006F8F00BF00BFFEE7A06941192B462A4632
:1079B0002046FFF703FF11E094F8280000F00200D2
:1079C00018B9204600F040FE05E094F8280020F0A9
:1079D000010084F8280001E0FFE700BF00BF00229B
:1079E00003A90448006801F0CFFB00287FF46BAFC7
:1079F00006B070BD78000020F8B505460C4601F0D1
:107A00003DF8684600F04AF80646009820BB44B9A5
:107A1000B54206D801F080FF31462846FFF716FF31
:107A20001CE03CB10E480068006808B9012000E085
:107A300000200446A91B22460A48006800F0BCFE4C
:107A400001F06AFF50B94FF0805007490860BFF35A
:107A50004F8FBFF36F8F01E001F05EFFF8BD0000B4
:107A6000740000207800002004ED00E00948006860
:107A7000006808B9012000E0002020B14FF0FF307D
:107A80000549086005E003480068C06800680249CD
:107A900008607047340000206000002070B5044684
:107AA00001F08AFD054607480068854204D200F0CF
:107AB0000BF80120206001E00020206001480560F3
:107AC000284670BD800000202DE9F84334E02548A9
:107AD0000068C068056823480068C068C468201D45
:107AE00000F01FFD2046216A884794F8280000F026
:107AF000040008B3A0694619AE4207D96660246144
:107B0000211D1848006800F030FD15E000200346F4
:107B10002A4601460090204601F0ACFF074657B9BF
:107B200000BF502080F31188BFF34F8FBFF36F8FDA
:107B300000BF00BFFEE700BF0A480068006808B940
:107B4000012000E000200028C1D00648D0F80080C5
:107B500005480068034908600348C0F80080BDE894
:107B6000F883000070000020740000200E480068B8
:107B7000401C08B9012000E0002050B900BF50208F
:107B800080F31188BFF34F8FBFF36F8F00BF00BF2B
:107B9000FEE700BF502080F31188BFF34F8FBFF383
:107BA0006F8F00BF00BFFEE7A400002008B500BF34
:107BB0006846FFF7C1FC044620460099FFF71CFF0A
:107BC000FFF77EFEF4E770B5044600F0F5FC94F98B
:107BD000455010E0606A08B9012000E0002038B983
:107BE00004F1240001F04CFE18B100F045FE00E065
:107BF00003E0681E45B2002DECDC00BFFF2084F8D6
:107C0000450000F003FD00F0D7FC94F9445010E06B
:107C1000206908B9012000E0002048B904F11000F3
:107C200001F02EFE08B100F027FE681E45B200E00C
:107C300001E0002DECDC00BFFF2084F8440000F0E0
:107C4000E5FC70BD2DE9F04104464FF0000800F05E
:107C500015FF5148006808B9FFF782FC4F480068DB
:107C6000204000287ED13CB304F10800A04223D973
:107C7000083404F0070000B304F00700C0F1080066
:107C80002044A04216D904F00700C0F108000444C3
:107C900004F0070008B9012000E0002068B900BF27
:107CA000502080F31188BFF34F8FBFF36F8F00BF59
:107CB00000BFFEE7002400E00024002C54D0384828
:107CC0000068844250D8374E3046056801E02E46A1
:107CD0002D686868A04202D228680028F7D12E4893
:107CE0000068854240D0306800F10808286830609C
:107CF0006868001B102819D92F1907F0070008B968
:107D0000012000E0002050B900BF502080F311880E
:107D1000BFF34F8FBFF36F8F00BF00BFFEE76868F0
:107D2000001B78606C603846FFF714FD1C496868DA
:107D30000968081A1A490860084600681A4909685B
:107D4000884203D2164800681749086013496868DA
:107D50000968084368600020286014480068401CD7
:107D6000124900E000E0086001F0D6FD08F00700CD
:107D700008B9012000E0002050B900BF502080F376
:107D80001188BFF34F8FBFF36F8F00BF00BFFEE7B7
:107D90004046BDE8F08100008C000020A0000020DB
:107DA0009000002084000020940000209800002013
:107DB0000648006830B10549096801F14C00C96CFA
:107DC000491C016001480068704700003000002035
:107DD000001F4FF080730360001F21F00103036058
:107DE000001F054B036014380260001F6FF0020390
:107DF00003602038704700006D7B00082DE9F04FCC
:107E00008CB0074600200A904AA090E8004CC06859
:107E1000CDE905BECDF810A007900FF21C1ADAE9E3
:107E2000000ACDE9020A0FF2101ADAE9000ACDE9D8
:107E3000000A44484068C0F381000B900B9820B1C1
:107E4000012804D002283FD103E03F4A3EE03E4AE9
:107E50003CE03C48406800F4803CBCF5803F12D1D7
:107E60003848C06A00F08048B8F1000F01D1364CA4
:107E700000E0364C3348406800F40039B9F5003F63
:107E800002D1334C00E0324C2E484068C0F38341AD
:107E90002C48406800F0006008B141F0100129480A
:107EA000406800F0804008B141F020010F2901D264
:107EB000891C06E00F2903D33E2901D8491C00E0A4
:107EC0003F2104FB01F201E01F4A00BF00BF1D4833
:107ED0004068C0F3031504A8465D22FA06F319486A
:107EE0004068C0F3022502A8465D23FA06F0099017
:107EF00014484068C0F3C2251DF8056023FA06F057
:107F0000089037B1012F06D0022F06D0032F0AD1D7
:107F100006E00A9208E00A9306E009980A9003E056
:107F200008980A9000E000BF00BF0A980CB0BDE8B6
:107F3000F08F0000000000000000000001020304B8
:107F4000060708090010024000127A00006CDC02EB
:107F500000093D00064A02EB9011096800F01F037A
:107F600001229A401143024B03EB901211607047BB
:107F700000100240064A02EB9011096800F01F034E
:107F800001229A409143024B03EB9012116070471B
:107F900000100240064A02EB9011096800F01F032E
:107FA00001229A401143024B03EB9012116070477B
:107FB00000100240002000213F4A126842F4803243
:107FC0003D4B1A6000BF401C3B4A126802F400316E
:107FD00019B94FF6FF729042F5D1374A126802F490
:107FE00000320AB900BFFEE7334AD26942F080523C
:107FF000314BDA61314A126842F440422F4B1A6029
:108000002D4A52682C4B5A601A4652685A601A46DA
:10801000526842F480625A601A46526822F4403232
:108020005A601A46526842F440325A601A46526800
:10803000234B1A40204B5A601A465268214B1A4370
:108040001D4B5A601A46126842F080721A6000BFD7
:10805000194A126802F00072002AF9D0174A126811
:1080600042F48032154B1A6000BF144A526802F481
:108070008032002AF9D0114A126842F400320F4BC4
:108080001A6000BF0D4A526802F40032002AF9D08B
:10809000094A526822F00302074B5A601A46526896
:1080A00042F002025A6000BF034A526802F008021E
:1080B000002AF9D070470000001002400070004014
:1080C000FFFFC3B70000340810B5FFF773FF10BD02
:1080D00070B5054604211048FEF74EFB04210E48FA
:1080E000FEF71FFDC0F5806084B222460B4928468A
:1080F000FCF7AAF8094A04210748FEF7B9FC4FF437
:10810000806204210448FEF7F9FC04210248FEF7CE
:108110004CFB204670BD000000000240C42F002030
:1081200070B504460D4603210B48FEF725FB224699
:1081300003210948FEF79CFC2A4603210648FEF766
:10814000DDFC03210448FEF730FB4FF0FF3103480C
:10815000006801F0CDF870BD00000240B8000020BA
:108160002DE9F04704460D460027B846B9460026DB
:108170001D49601A8C421CD006DC1C48204470B19A
:10818000B0F5806F1FD10FE0B0F5806F16D0B0F55D
:108190006C4F18D10320FFF731FE074614E0022090
:1081A000FFF72CFE07460FE00220FFF727FE0746E9
:1081B0000AE00220FFF722FE074605E00220FFF753
:1081C0001DFE074600E000BF00BF07EB5500B0FBF7
:1081D000F5F64FF6F07006EA000806F00F0948EAD7
:1081E0000900A060BDE8F087004C004000BCFFBF64
:1081F00010B5044640F20260FFF7ACFE4FF4C060D9
:10820000FFF7A8FE40F20E60FFF7A4FE4FF40073E4
:10821000032218211D48FEF761FD4FF480630322FD
:1082200004211A48FEF75AFD194800F033F8214698
:108230001748FFF795FF0021154800F06AF9002163
:10824000134800F056F90021114800F042F90021CE
:108250000F4800F000F900210D4800F0F4F8042167
:108260000B4800F03EF90821094800F04AF94FF4A4
:108270004171074800F0F7F840F20631044800F079
:10828000F2F8034800F0DAF810BD000000080140E1
:108290000038014010B504462049601A8C4228D0AD
:1082A00006DC1F48204490B1B0F5806F33D117E051
:1082B000B0F5806F26D0B0F56C4F2CD140F20E3067
:1082C000FFF768FE40F20E30FFF754FE24E040F264
:1082D0001140FFF75FFE40F21140FFF74BFE1BE03D
:1082E00040F21240FFF756FE40F21240FFF742FE06
:1082F00012E040F21340FFF74DFE40F21340FFF74B
:1083000039FE09E040F21440FFF744FE40F2144009
:10831000FFF730FE00E000BF00BF10BD004C004082
:1083200000BCFFBF00B587B04FF4A060FFF712FE9E
:1083300003213748FEF76BFA6846FEF7D1FB0120B0
:108340008DF81A000020029001208DF819000020FD
:10835000039004902F48009000208DF818000190A1
:108360004FF4405005906A4603212948FEF787FAEA
:1083700004212748FEF74BFA6846FEF7B1FB0020C0
:108380008DF81A002448029001208DF81900002071
:1083900003904FF4806004901E48009000208DF8F8
:1083A000180003904FF4405005906A460421184885
:1083B000FEF765FA03211648FEF710FA0321144868
:1083C000FEF768FB04211248FEF708FA0421104862
:1083D000FEF760FB40210F48001F00F01FF802224B
:1083E00004210B48FEF7E2FA04210948FEF7DDF903
:1083F00080210848001F00F019F8022203210448D8
:10840000FEF7D4FA03210248FEF7B6F907B000BD23
:108410000000024004380140C42F00200A46002119
:10842000416921F040011143416170470A46002132
:10843000416921F08001114341617047C16841F4F5
:108440000051C16070470A460021416921F4007162
:108450001143416170470A460021416921F480714E
:1084600011434161704710B500EB9112126801F0A1
:108470001F040123A3401A4300EB91131A6010BD9F
:1084800010B500EB91521268C1F304440123A340DC
:108490009A4300EB91531A6010BD70B50246002359
:1084A0000024C1F38910105801F01F060125B540C2
:1084B00000EA050302EB91500068C1F30446012570
:1084C000B54000EA050414B10BB1012070BD0020D5
:1084D000FCE7C26822F4C062C260C2680A43C2609C
:1084E00070470A460021C16821F004011143C160B0
:1084F0007047026922F44052026102690A43026134
:1085000070470A460021C16821F008011143C1608B
:108510007047C26822F48052C260C2680A43C260D7
:10852000704701460A69D1E901309860D1E9010339
:1085300058605068884201D1886850600020086106
:108540001068401E10601068704700F1080141601B
:108550004FF0FF31816000F10801C160016100212D
:108560000160704700210161704710B502460B6839
:108570005C1C0CB9106907E002F1080000E04068DB
:10858000446824689C42FAD944684C604C68A160F5
:10859000886041600A611468641C146010BD426800
:1085A0004A6093688B6093685960916008610368C2
:1085B0005B1C03607047000000BF502080F31188EF
:1085C000BFF34F8FBFF36F8F00BF0E480068401C92
:1085D0000C49086008460068012812D10A48006862
:1085E000C0B208B9012000E0002050B900BF5020FF
:1085F00080F31188BFF34F8FBFF36F8F00BF00BFB1
:10860000FEE77047A400002004ED00E00D4800687C
:1086100050B900BF502080F31188BFF34F8FBFF3D4
:108620006F8F00BF00BFFEE706480068401E054987
:1086300008600846006820B9002080F3118800BF58
:1086400000BF7047A400002070B506463546002ED6
:1086500044D0083D2C46224960680968084008B1AA
:10866000012000E0002050B900BF502080F31188A5
:10867000BFF34F8FBFF36F8F00BF00BFFEE72068CF
:1086800008B9012000E0002050B900BF502080F35D
:108690001188BFF34F8FBFF36F8F00BF00BFFEE79E
:1086A0000F49606809680840C0B12068B0B90C493A
:1086B000606809688843606000F0E0F90949606813
:1086C00009680844074908602046FFF743F8064850
:1086D0000068401C0449086001F01EF970BD0000EC
:1086E000A0000020900000209C00002000204FF0FF
:1086F000E02108618861064800684FF47A71B0FB98
:10870000F1F0401E4FF0E0214861072008617047FA
:108710002C00002070B5FBF781FD0446102C16D309
:1087200004F1E02090F8F05315480078854201DB11
:10873000012000E0002050B900BF502080F31188D4
:10874000BFF34F8FBFF36F8F00BF00BFFEE70D4831
:10875000006800F4E0600C490968884201D80120F3
:1087600000E0002050B900BF502080F31188BFF313
:108770004F8FBFF36F8F00BF00BFFEE770BD0000DB
:10878000A80000200CED00E0AC0000200246002014
:108790000BE0084B53F8303033B9064B43F8301038
:1087A00003EBC0035A6002E0401C0828F1D300BF6D
:1087B00070470000F40500202DE9F04105460E4603
:1087C00017462C46FFF7F8FE94F94400401C10B9F8
:1087D000002084F8440094F94500401C10B90020A2
:1087E00084F84500FFF712FFA06B28B93A463146DE
:1087F00004F1240000F062F82046FFF7E4F9BDE838
:10880000F081000070B504460025D4B1124800681C
:1088100008B9012000E0002050B900BF502080F3CB
:108820001188BFF34F8FBFF36F8F00BF00BFFEE70C
:1088300000F024F900212046FEF718FD01F06CF845
:1088400005463DB94FF0805004490860BFF34F8F93
:10885000BFF36F8F70BD00006C00002004ED00E0DE
:1088600003490968016003490968416070470000D5
:108870005800002044000020012001490860704792
:108880005400002070B504460D4654B900BF502076
:1088900080F31188BFF34F8FBFF36F8F00BF00BF0E
:1088A000FEE70548016818312046FFF75EFE01210A
:1088B0002846FEF7DBFC70BD3000002070B5054691
:1088C0000E46144655B900BF502080F31188BFF3FF
:1088D0004F8FBFF36F8F00BF00BFFEE706480168F0
:1088E00018312846FFF75BFE0CB14FF0FF362146EA
:1088F0003046FEF7BBFC70BD300000202DE9F0478C
:1089000006460F4634464FF00109002E60D0E06C59
:1089100050B900BF502080F31188BFF34F8FBFF3D1
:108920006F8F00BF00BFFEE7A06CB84201D23D468A
:1089300000E0A56CE06AA8424AD0E06C012847D16B
:1089400024480068844201D0012000E0002050B992
:1089500000BF502080F31188BFF34F8FBFF36F8F9C
:1089600000BF00BFFEE7D4F82C80E562A06900F0EC
:10897000004010B9C5F10800A06108EB8801164A53
:1089800002EB81016069884201D1012000E00020F2
:10899000F0B1201DFFF7C5FD40B994F82C1001205F
:1089A00088400E49096881430C48016094F82C10F6
:1089B0000120884009490968084308490860E16ABC
:1089C00001EB8101044A02EB8100211DFFF7E7FD65
:1089D000BDE8F08730000020340600204800002069
:1089E0001CB51E4800210B468222CDE900101CA1B7
:1089F0001D4800F0A1FD0446012C02D101F00EF843
:108A00000446012C15D100BF502080F31188BFF31C
:108A10004F8FBFF36F8F00BF4FF0FF3013490860D7
:108A200001201349086000201249086000F074F822
:108A300010E0601C08B1012000E0002050B900BF28
:108A4000502080F31188BFF34F8FBFF36F8F00BFAB
:108A500000BFFEE7084800681CBD0000640000205D
:108A600049444C4500000000DD750008600000200E
:108A70004C000020440000206800002002480068EC
:108A8000401C0149086070476C0000201D480068C8
:108A900018B101201C49086032E000201A49086022
:108AA0001A480068B0FA80F0C0F11F0101EB8100A4
:108AB000174A52F8200008B1012000E0002050B908
:108AC00000BF502080F31188BFF34F8FBFF36F8F2B
:108AD00000BF00BFFEE701EB81020D4B03EB8200FC
:108AE00042685268426000F108024368934202D132
:108AF0004268526842604268D268064B1A6000BF02
:108B0000704700006C000020540000204800002046
:108B100034060020300000201CB55248006852493D
:108B2000884201D0012000E0002050B900BF502051
:108B300080F31188BFF34F8FBFF36F8F00BF00BF6B
:108B4000FEE7484800684849491E884201D0012094
:108B500000E0002050B900BF502080F31188BFF31F
:108B60004F8FBFF36F8F00BF00BFFEE73F4908463E
:108B700000780190FF200A461070084600780090A7
:108B80009DF8000000F0F0009DF80020904201D117
:108B9000012000E0002050B900BF502080F3118870
:108BA000BFF34F8FBFF36F8F00BF00BFFEE79DF88D
:108BB000000000F050002E4A107007202D4A10606F
:108BC00009E02C480068401E2A4A10609DF8000009
:108BD0004006000E00909DF8000000F08000802804
:108BE000EFD024480068C0F10700042801D101201B
:108BF00000E0002050B900BF502080F31188BFF37F
:108C00004F8FBFF36F8F00BF00BFFEE719480068AA
:108C10000002184A10601046008800F4E0601060FE
:108C2000124A019810700F482030006840F470001C
:108C30000C49203108600846006840F07040086028
:108C4000FFF754FD00200C490860FBF7AFFA0B4812
:108C5000006840F0404009490860FBF793FA0020A3
:108C60001CBD000000ED00E071C20F4100E400E017
:108C7000A8000020AC000020A400002034EF00E099
:108C80002DE9F84306460F4690460EB1012000E05C
:108C9000002050B900BF502080F31188BFF34F8FE0
:108CA000BFF36F8F00BF00BFFEE706FB07F51FB1E4
:108CB000B5FBF7F0B04201D1012000E0002050B92F
:108CC00000BF502080F31188BFF34F8FBFF36F8F29
:108CD00000BF00BFFEE705F15000A84201D9012006
:108CE00000E0002050B900BF502080F31188BFF38E
:108CF0004F8FBFF36F8F00BF00BFFEE705F150003D
:108D0000FEF7A0FF04464CB1A14609F150094346C5
:108D10004A46394630460094FEF774FC2046BDE8CA
:108D2000F883000070B505460E462C4654B900BFC6
:108D3000502080F31188BFF34F8FBFF36F8F00BFB8
:108D400000BFFEE7FFF738FCD4E90F12206801FBF3
:108D50000200A0600020A06320686060E06B401EFD
:108D6000226C216800FB0211E160FF2084F84400BE
:108D700084F845009EB9206908B9012000E0002070
:108D8000A8B904F1100000F07BFD80B14FF08050D5
:108D900009490860BFF34F8FBFF36F8F07E004F1FD
:108DA0001000FFF7D2FB04F12400FFF7CEFBFFF722
:108DB0002DFC012070BD000004ED00E02DE9FF4313
:108DC00083B0064688461D464FF00009344654B924
:108DD00000BF502080F31188BFF34F8FBFF36F8F18
:108DE00000BF00BFFEE7B8F1000F01D1206C08B949
:108DF000012000E0002050B900BF502080F311880E
:108E0000BFF34F8FBFF36F8F00BF00BFFEE7022D90
:108E100002D1E06B012801D1012000E0002050B90F
:108E200000BF502080F31188BFF34F8FBFF36F8FC7
:108E300000BF00BFFEE700F0AFFB08B9059808B916
:108E4000012000E0002050B900BF502080F31188BD
:108E5000BFF34F8FBFF36F8F00BF00BFFEE700BFB0
:108E6000FFF7AAFBA06BE16B884201D3022D28D14A
:108E70002A4641462046FEF70CFB0746606A08B9C1
:108E8000012000E0002068B904F1240000F0F8FCA3
:108E900088B14FF0805032490860BFF34F8FBFF365
:108EA0006F8F08E03FB14FF080502D490860BFF34D
:108EB0004F8FBFF36F8FFFF7A9FB012007B0BDE80D
:108EC000F083059818B9FFF7A1FB0020F6E7B9F188
:108ED000000F04D101A8FFF7C3FC4FF00109FFF711
:108EE00095FBFFF7CBFDFFF767FB94F94400401CAF
:108EF00010B9002084F8440094F94500401C10B9D2
:108F0000002084F84500FFF781FB05A901A800F0C7
:108F1000CBFAF0B92046FEF78AFCA0B104F11000AC
:108F20000599FFF7AFFC2046FEF74DFE00F0F4FC7C
:108F3000002895D14FF0805009490860BFF34F8F4A
:108F4000BFF36F8F8CE72046FEF73DFE00F0E4FC98
:108F500086E72046FEF737FE00F0DEFC0020ADE796
:108F600004ED00E02DE9F84F07468B4690461E467B
:108F70003C4654B900BF502080F31188BFF34F8F97
:108F8000BFF36F8F00BF00BFFEE7BBF1000F01D141
:108F9000206C08B9012000E0002050B900BF50202B
:108FA00080F31188BFF34F8FBFF36F8F00BF00BFF7
:108FB000FEE7022E02D1E06B012801D1012000E082
:108FC000002050B900BF502080F31188BFF34F8FAD
:108FD000BFF36F8F00BF00BFFEE7FFF79BFB00BF33
:108FE0005021EFF3118081F31188BFF34F8FBFF34E
:108FF0006F8F00BF0546A06BE16B884201D3022E44
:1090000037D194F945A0A06B0090324659462046CE
:10901000FEF73FFA0AF1010088B9606A08B9012039
:1090200000E0002050B904F1240000F029FC28B130
:10903000B8F1000F02D00120C8F8000016E0BAF124
:109040007F0F01D0012000E0002050B900BF502068
:1090500080F31188BFF34F8FBFF36F8F00BF00BF46
:10906000FEE70AF1010040B284F845004FF0010923
:1090700001E04FF0000900BF85F3118800BF4846AA
:10908000BDE8F88F2DE9F04706460F46344654B93F
:1090900000BF502080F31188BFF34F8FBFF36F8F55
:1090A00000BF00BFFEE7206C08B9012000E00020EF
:1090B00050B900BF502080F31188BFF34F8FBFF32A
:1090C0006F8F00BF00BFFEE7206808B9A06808B92D
:1090D000012000E0002050B900BF502080F311882B
:1090E000BFF34F8FBFF36F8F00BF00BFFEE7FFF7E7
:1090F00011FB00BF5021EFF3118081F31188BFF302
:109100004F8FBFF36F8F00BF0546D4F838A0E06BD8
:10911000504530D994F945900AF10100A06309F156
:10912000010070B9606A08B9012000E00020F8B9B8
:1091300004F1240000F0A4FBD0B1CFB101203860CD
:1091400016E0B9F17F0F01D0012000E0002050B9F6
:1091500000BF502080F31188BFF34F8FBFF36F8F94
:1091600000BF00BFFEE709F1010040B284F84500EE
:109170004FF0010801E04FF0000800BF85F31188AF
:1091800000BF4046BDE8F0872DE9F74183B00546B2
:109190000E464FF000082C4654B900BF502080F313
:1091A0001188BFF34F8FBFF36F8F00BF00BFFEE783
:1091B0000EB9206C08B9012000E0002050B900BFB2
:1091C000502080F31188BFF34F8FBFF36F8F00BF24
:1091D00000BFFEE700F0E0F908B9059808B90120E2
:1091E00000E0002050B900BF502080F31188BFF389
:1091F0004F8FBFF36F8F00BF00BFFEE700BFFFF7C9
:10920000DBF9A76BF7B131462046FEF72DF9781E42
:10921000A063206908B9012000E0002060B904F1D2
:10922000100000F02DFB38B14FF080502F4908603E
:10923000BFF34F8FBFF36F8FFFF7E8F9012006B040
:10924000BDE8F081059818B9FFF7E0F90020F6E7CE
:10925000B8F1000F04D101A8FFF702FB4FF001089D
:10926000FFF7D4F9FFF70AFCFFF7A6F994F94400D9
:10927000401C10B9002084F8440094F94500401CBB
:1092800010B9002084F84500FFF7C0F905A901A82E
:1092900000F00AF9F0B92046FEF7BCFAA0B104F1DB
:1092A00024000599FFF7EEFA2046FEF78CFC00F04B
:1092B00033FB0028A3D14FF080500C490860BFF366
:1092C0004F8FBFF36F8F9AE72046FEF77CFC00F0CC
:1092D00023FB94E72046FEF776FC00F01DFB2046BA
:1092E000FEF798FA00288AD00020A8E704ED00E0F5
:1092F0002DE9F34182B005464FF000082C460026C8
:1093000054B900BF502080F31188BFF34F8FBFF3D3
:109310006F8F00BF00BFFEE7206C08B9012000E09E
:10932000002050B900BF502080F31188BFF34F8F49
:10933000BFF36F8F00BF00BFFEE700F02DF908B943
:10934000039808B9012000E0002050B900BF502068
:1093500080F31188BFF34F8FBFF36F8F00BF00BF43
:10936000FEE700BFFFF728F9A76BFFB1781EA063E7
:10937000206810B9FEF71CFDA060206908B9012023
:1093800000E0002060B904F1100000F079FA38B173
:109390004FF0805043490860BFF34F8FBFF36F8F8A
:1093A000FFF734F9012004B0BDE8F081039898B9C3
:1093B0000EB9012000E0002050B900BF502080F31A
:1093C0001188BFF34F8FBFF36F8F00BF00BFFEE761
:1093D000FFF71CF90020E6E7B8F1000F04D168465A
:1093E000FFF73EFA4FF00108FFF710F9FFF746FBD1
:1093F000FFF7E2F894F94400401C10B9002084F80B
:10940000440094F94500401C10B9002084F8450040
:10941000FFF7FCF803A9684600F046F840BB204679
:10942000FEF7F8F9F0B1206838B9FFF7C5F8A06881
:1094300000F0CAF90646FFF7E9F804F124000399A1
:10944000FFF720FA2046FEF7BEFB00F065FA002881
:1094500088D14FF0805013490860BFF34F8FBFF39E
:109460006F8F7FE72046FEF7AEFB00F055FA79E7F5
:109470002046FEF7A8FB00F04FFA2046FEF7CAF997
:109480000028EED05EB1FFF797F82046FEF749F8C6
:1094900007463946A068FFF731FAFFF7B7F8002012
:1094A00081E7000004ED00E070B505460C4655B9B3
:1094B00000BF502080F31188BFF34F8FBFF36F8F31
:1094C00000BF00BFFEE754B900BF502080F31188F1
:1094D000BFF34F8FBFF36F8F00BF00BFFEE7FFF7F3
:1094E0006BF8134802686868131A2068401C08B9B2
:1094F000002619E00F4928680968884206D0686884
:10950000904203D80126002020600DE02068984298
:1095100007D92068C01A20602846FFF7A1F9002665
:1095200002E0002020600126FFF770F8304670BD91
:1095300044000020580000202DE9FF4F85B08046F0
:1095400089461746DDE912ABB800FEF77BFB0646FD
:1095500056B15820FEF776FB04460CB1266304E0B2
:109560003046FFF771F800E000247CB10020CDE91F
:1095700000ABCDE902403A4649464046089BFEF71B
:1095800056F82046FDF7BEFE012501E04FF0FF35FD
:10959000284609B0BDE8F08F0549096809B90120DE
:1095A00005E00449096809B9022000E0002070477D
:1095B0004C0000206C000020014908687047000042
:1095C000440000202DE9F0414FF0000844480068B5
:1095D00000287CD143480068451C4248056015BB03
:1095E00041480068006808B9012000E0002050B937
:1095F00000BF502080F31188BFF34F8FBFF36F8FF0
:1096000000BF00BFFEE738480768384800683649A1
:1096100008603648076036480068401C34490860D6
:10962000FEF724FA00BF3348006885423CD300BFF0
:109630002D480068006808B9012000E0002020B132
:109640004FF0FF302B4908602DE027480068C068C4
:10965000C4686668B54202D22648066023E0201D31
:10966000FEF75FFFA06A18B104F11800FEF759FF7A
:1096700094F82C10012088401F49096808431E49AE
:109680000860E16A01EB81011C4A02EB8100211DA7
:10969000FEF785FF1A49E06A0968C96A8842C7D39C
:1096A0004FF00108C4E700BF15480068C06A00EB2E
:1096B0008000124951F82000012801D94FF001081B
:1096C0001048006808B14FF0010805E0FFE70E48B8
:1096D0000068401C0C4908604046BDE8F08100006D
:1096E0006C000020440000203400002038000020DE
:1096F00058000020600000204800002034060020B0
:1097000030000020540000205000002070B50546B5
:109710002C460026002D4ED028480068844201D1F6
:10972000012000E0002050B900BF502080F31188D4
:10973000BFF34F8FBFF36F8F00BF00BFFEE7E06C3A
:1097400050B900BF502080F31188BFF34F8FBFF393
:109750006F8F00BF00BFFEE7E06C401EE064A16CAD
:10976000E06A884227D0E06C28BB201DFEF7D9FEB6
:1097700040B994F82C1001208840114909688143B0
:109780000F480160A06CE062E06AC0F10800A061CF
:1097900094F82C10012088400949096808430849B9
:1097A0000860E16A01EB8101064A02EB8100211D9C
:1097B000FEF7F5FE0126304670BD000030000020A7
:1097C000480000203406002070B505462C460026CF
:1097D000002D4DD02749E06A0968C96A884240D205
:1097E000A06900F0004028B922480068C06AC0F1B2
:1097F0000800A061E16A01EB81011F4A02EB8101CF
:109800006069884201D1012000E0002018B3201DCA
:10981000FEF787FE40B994F82C10012088401749C4
:10982000096881431548016012480068C06AE06217
:1098300094F82C10012088401049096808430F490A
:109840000860E16A01EB81010B4A02EB8100211DF6
:10985000FEF7A5FE03E007480068C06AE062012643
:1098600006E00449A06C0968C96A884200D2012652
:10987000304670BD30000020340600204800002033
:1098800070B50646F068C46854B900BF502080F334
:109890001188BFF34F8FBFF36F8F00BF00BFFEE78C
:1098A00004F11800FEF73DFE15480068A8B9201D18
:1098B000FEF737FE94F82C10012088401149096802
:1098C000084310490860E16A01EB81010E4A02EB8E
:1098D0008100211DFEF763FE04E004F118010B482E
:1098E000FEF75DFE0A49E06A0968C96A884204D940
:1098F000012501200749086000E00025284670BDC9
:109900006C0000204800002034060020FC060020E7
:10991000300000205400002070B500240026364896
:10992000006850B900BF502080F31188BFF34F8FFB
:10993000BFF36F8F00BF00BFFEE7FEF73DFE2E486E
:109940000068401E2C4908600846006800284FD176
:109950002A48006800284BD024E02948C068C46821
:1099600004F11800FEF7DDFD201DFEF7DAFD94F886
:109970002C100120884023490968084321490860C8
:10998000E16A01EB8101204A02EB8100211DFEF713
:1099900006FE1E49E06A0968C96A884202D30120AE
:1099A0001B4908601648006808B9012000E0002043
:1099B0000028D2D00CB1FEF759F81648056865B1F9
:1099C00000BFFFF7FFFD10B10120114908606D1EB7
:1099D000002DF6D100200F4908600D48006838B10D
:1099E000012630070C490860BFF34F8FBFF36F8F1C
:1099F000FEF70CFE304670BD6C00002040000020D9
:109A0000FC06002048000020340600203000002022
:109A1000540000205000002004ED00E01CB500249C
:109A2000FDF7CCFC0E48006858B10E480221002317
:109A30004FF48272CDE900100BA10D48FFF77CFDB9
:109A4000044654B900BF502080F31188BFF34F8FF4
:109A5000BFF36F8F00BF00BFFEE720461CBD0000B4
:109A6000780000207C000020546D72205376630043
:109A7000AD7B00082DE9FE4304460D4616461F4601
:109A8000DDF828804FF0000954B900BF502080F362
:109A90001188BFF34F8FBFF36F8F00BF00BFFEE78A
:109AA0001448006810B3009501960294062D15DA4B
:109AB000FFF772FD022808D10023424669460D488F
:109AC0000068FFF77BF9814610E000231A466946DB
:109AD00008480068FFF772F9814607E000233A461C
