:020000040800F2
:10400000584D002025420008C7510008A54D000862
:10401000C3510008CD450008A55900080000000064
:1040200000000000000000000000000065410008E2
:104030005948000800000000C141000895570008D9
:104040003F4200083F4200083F4200083F4200084C
:104050003F4200083F4200083F420008AD490008C7
:104060003F4200083F4200083F4200083F4200082C
:104070003F4200083F42000899470008B94700083E
:10408000E5470008054800083F4200083F42000895
:104090003F4200083F4200083F420008ED49000847
:1040A0003F4200083F4200083F4200083F420008EC
:1040B0003D5800083F4200083F4200083F420008C8
:1040C0003F4200083F4200083F4200083F420008CC
:1040D0003F42000855580008C95800083F420008F0
:1040E0003F4200083F4200083F4200083F420008AC
:1040F0003F4200083F4200083F4200080000000025
:104100003F420008000000003F4200083F42000814
:104110003F4200083F4200083F4200083F4200087B
:104120003F4200083F4200083F4200083F4200086B
:104130003F4200083F4200083F4200083F4200085B
:104140003F4200083F4200083F4200083F4200084B
:10415000DFF80CD000F0DEF9004800477586000853
:10416000584D00202C4B19680868B0E8F04F80F3D8
:104170000988BFF36F8F4FF0000080F311887047FC
:104180000000000008480068006880F308884FF0CD
:10419000000080F3148862B661B6BFF34F8FBFF39F
:1041A0006F8F00DF00BF00BF08ED00E0DFF80C00FC
:1041B000016841F470010160704700BF88ED00E0C4
:1041C000EFF30980BFF36F8F134B1A681EF0100FC7
:1041D00008BF20ED108A20E9F04F106009B44FF0BD
:1041E000500080F31188BFF34F8FBFF36F8F06F03D
:1041F00097FA4FF0000080F3118809BC196808682D
:10420000B0E8F04F1EF0100F08BFB0EC108A80F33A
:104210000988BFF36F8F704748000020EFF30580D7
:10422000704700000648804706480047FEE7FEE763
:10423000FEE7FEE7FEE7FEE7FEE7FEE7FEE7FEE756
:10424000CD57000851410008002800D170470029CF
:1042500000D17047002A00D170472DE9F81F00F007
:10426000030301F00304A34211D1C3F1040303F0DB
:104270000303012B1DD3012A00D2F2E011F8014BF8
:1042800000F8014BA3F10103A2F10102F1E700F0F4
:10429000010301F00104A34200D094E0012B44D3B8
:1042A00011F8014B00F8014BA3F10103A2F1010247
:1042B000F4E7B2F5B47F26D3B1E8F81FA0E8F81F01
:1042C000B1E8F81FA0E8F81FB1E8F81FA0E8F81F50
:1042D000B1E8F81FA0E8F81FB1E8F81FA0E8F81F40
:1042E000B1E8F81FA0E8F81FB1E8F81FA0E8F81F30
:1042F000B1E8F81FA0E8F81FB1E8F81FA0E8F81F20
:10430000A2F5B472D5E7282A06D3B1E8F81FA0E8D1
:10431000F81FA2F12802F6E7042A06D351F8043B5D
:1043200040F8043BA2F10402F6E7202A42D331F818
:10433000023B20F8023B31F8023B20F8023B31F807
:10434000023B20F8023B31F8023B20F8023B31F8F7
:10435000023B20F8023B31F8023B20F8023B31F8E7
:10436000023B20F8023B31F8023B20F8023B31F8D7
:10437000023B20F8023B31F8023B20F8023B31F8C7
:10438000023B20F8023B31F8023B20F8023B31F8B7
:10439000023B20F8023B31F8023B20F8023B31F8A7
:1043A000023B20F8023B31F8023B20F8023BA2F12D
:1043B0002002BAE7022A06D331F8023B20F8023B7A
:1043C000A2F10202F6E7102A42D311F8013B00F8ED
:1043D000013B11F8013B00F8013B11F8013B00F8EB
:1043E000013B11F8013B00F8013B11F8013B00F8DB
:1043F000013B11F8013B00F8013B11F8013B00F8CB
:10440000013B11F8013B00F8013B11F8013B00F8BA
:10441000013B11F8013B00F8013B11F8013B00F8AA
:10442000013B11F8013B00F8013B11F8013B00F89A
:10443000013B11F8013B00F8013B11F8013B00F88A
:10444000013B11F8013B00F8013BA2F11002BAE771
:10445000012A06D311F8013B00F8013BA2F1010249
:10446000F6E7BDE8F81F704740EA01039B0703D059
:1044700009E008C9121F08C0042AFAD203E011F8A3
:10448000013B00F8013B521EF9D27047D2B201E065
:1044900000F8012B491EFBD270470022F6E710B549
:1044A00013460A4604461946FFF7F0FF204610BDA2
:1044B0002DE9F05F0546002092469B468846064659
:1044C000814640241BE0284641464746224600F0EC
:1044D00042F853465A46C01A914110D31146184625
:1044E000224600F029F82D1A67EB01084F462246B4
:1044F0000120002100F020F817EB00094E41201E9A
:10450000A4F10104DFDC484631462A464346BDE8B3
:10451000F09F0000064C074D06E0E06840F0010304
:1045200094E8070098471034AC42F6D3FFF714FE26
:1045300048B9000868B90008202A04DB203A00FACC
:1045400002F1002070479140C2F1200320FA03F3EA
:10455000194390407047202A04DB203A21FA02F0E8
:104560000021704721FA02F3D040C2F120029140AD
:1045700008431946704770B58C1810F8015B15F0A8
:10458000070301D110F8013B2A1106D110F8012BC5
:1045900003E010F8016B01F8016B5B1EF9D12B07EA
:1045A00005D40023521E0DD401F8013BFAE710F8A0
:1045B000013BCB1A921C03E013F8015B01F8015B8D
:1045C000521EF9D5A142D8D3002070BD00BFFEE72E
:1045D00070B502464FF6FF7041F22104002513E04A
:1045E00012F8015B80EA052000230BE000F400468E
:1045F0001EB184EA4006B0B203E04FF6FF7606EA49
:1046000040005B1C082BF1DB0B1EA1F10101E7D17F
:1046100070BD10B5024641F2210381EA022100205B
:104620000BE001F400441CB183EA4104A1B203E0B1
:104630004FF6FF7404EA4101401C0828F1DB0846EC
:1046400010BD06E000F0EEF800F0FEF80A2005F0DC
:1046500023FFF7E72DE9FE4306460D4690469946AF
:1046600000240020009001900290A5F2022020B1C9
:10467000A0F5FE40FE38F0B91CE000222046641C84
:104680000DF8002002222046641C0DF80020204670
:10469000641C0DF80020A3B26A464FF40241304674
:1046A00000F016F800F098FE0746394603A002F025
:1046B000B1F900E000BF00BFBDE8FE832573537071
:1046C0006565642046726F6D20486F73740D0A0033
:1046D0002DE9F043CBB006460F4690461D46002418
:1046E000A146A5222146641C0DF801202146641C28
:1046F0000DF8012005F10800C0F307222146641CD3
:104700000DF80120C2B22146641C0DF80120320AC6
:104710002146641C0DF80120F2B22146641C0DF8FC
:1047200001203A0A2146641C0DF80120FAB2214604
:10473000641C0DF801200DEB04002A464146FFF7EA
:1047400083FD601984B2A91D0DF10200FFF740FF3F
:1047500081464FEA19222046611C8CB20DF80020D8
:1047600009F0FF022046611C8CB20DF800205A228D
:104770002046611C8CB20DF800205A200DF8040070
:1047800005F10C0269460348006800F042F94BB09D
:10479000BDE8F0831400002010B502220321054873
:1047A00003F0FBF820B101220321024803F0EDF8E9
:1047B00010BD00000000024010B50222042107488D
:1047C00003F0EBF840B10648006800F03DFA012222
:1047D0000421024803F0D9F810BD00000000024097
:1047E0000C00002010B502220521054803F0D5F881
:1047F00020B101220521024803F0C7F810BD0000D6
:104800000000024010B502220621054803F0C5F859
:1048100020B101220621024803F0B7F810BD0000C4
:104820000000024010B506E00648006800F0A4F958
:10483000044600F071FE0348006800F044F90028C7
:10484000F2D110BD1000002010B50248006800F041
:104850002AFA10BD140000207047000010B540F285
:10486000066004F05DFE012303221021124803F0CC
:10487000C3FC0223032210210F4803F0BDFC0423D4
:10488000032210210C4803F0B7FC08230322102157
:10489000094803F0B1FC0121074803F047FC02215D
:1048A000054803F043FC0421034803F03FFC0821C2
:1048B000014803F03BFC10BD001801402DE9F04118
:1048C00005460F461446C5F30A01254A88182246B4
:1048D0003946FFF7B9FC2348008820442149088065
:1048E00008460088C0F30A00D8B91F4800681F496D
:1048F00001EBC0261B4802881949304603F08CF9A9
:104900001848038832461848016819A002F082F856
:1049100015480068401C14490860002011490880AF
:104920001AE0802C18D210480068104901EBC0260C
:104930000C4802880A49304603F06EF9094803889A
:104940003246094801680AA002F064F800200549CF
:1049500008800549086000BF2819BDE8F081000003
:104960004C400020F0010020EC0100200010020863
:104970005B6672616D652069642025645D437572B4
:1049800072656E7420446F776E6C6F616420416451
:10499000647265737320307825782C4F54415F43DF
:1049A0006F756E74203D2025640D0A0008B5022045
:1049B00003F020F9A8B169460A48006806F0ACF98E
:1049C000022003F001F9022003F00EF9009838B13B
:1049D0004FF0805004490860BFF34F8FBFF36F8FD3
:1049E00000BF08BD0000002004ED00E010B54FF44A
:1049F000007003F0FFF828B100F048FB4FF400709E
:104A000003F0F2F810BD03E04FF47A7005F044FDB6
:104A1000FAE72DE9F04104460D4616464FF000082E
:104A20003146204600F029F820B31DB300BF5022C4
:104A3000EFF3118182F31188BFF34F8FBFF36F8FB4
:104A400000BF08460DE0E2682168B1FBF2F302FB0B
:104A500013172978A268D1552168491C21606D1C63
:104A6000761E002EEFD100BF80F3118800BF4FF0FB
:104A7000010800BF4046BDE8F081F0B504460E468F
:104A800000BF5021EFF3118081F31188BFF34F8FE6
:104A9000BFF36F8F00BF054654B1204600F013F8F6
:104AA000E168081AB04201D3012002E0002000E0D2
:104AB0000020074600BF85F3118800BF3846F0BDCF
:104AC000016142617047F0B5014699B100BF5026BF
:104AD000EFF3118586F31188BFF34F8FBFF36F8F0C
:104AE00000BF2C460A684B68D01A254685F311880A
:104AF00000BF00E00020F0BD70B5054600BF5021AA
:104B0000EFF3118081F31188BFF34F8FBFF36F8FE5
:104B100000BF04463DB12846FFF7D5FF08B9012084
:104B200002E0002000E00120064600BF84F3118867
:104B300000BF304670BD70B5044600BF5020EFF393
:104B4000118180F31188BFF34F8FBFF36F8F00BFC8
:104B50000D464CB12046FFF7B6FFE168884201D10F
:104B6000012002E0002000E00120064600BF85F39E
:104B7000118800BF304670BD70B50446002620463F
:104B8000FFF7BAFFD8B900BF5022EFF3118182F3CB
:104B90001188BFF34F8FBFF36F8F00BF0846E268E5
:104BA0006168B1FBF2F302FB1315A1684E5D616809
:104BB000491C6160014681F3118800BF00BF304687
:104BC00070BD70B5B8B1B1B1AAB100BF5025EFF357
:104BD000118485F31188BFF34F8FBFF36F8F00BF30
:104BE00023460024046044608160C2601C4684F354
:104BF000118800BF00BF70BDF0B504460D46002708
:104C000004B32046FFF797FFE0B900BF5022EFF34F
:104C1000118182F31188BFF34F8FBFF36F8F00BFF5
:104C20000846E2682168B1FBF2F302FB1316A168A3
:104C30008D552168491C2160014681F3118800BF10
:104C4000012700BF3846F0BDF0B5ADF2044D054672
:104C5000686910B90DF2044DF0BD0026002701A8C7
:104C600069698847064600BF5021EFF3118081F340
:104C70001188BFF34F8FBFF36F8F00BF04462846E4
:104C8000FFF721FFA989081A87B2BE4200DD3E4620
:104C9000324601A92846FFF7BCFE00BF84F3118805
:104CA00000BF00BFD6E770B50446206900B970BDEB
:104CB0002046FFF708FF002839D000BF5021EFF34E
:104CC000118081F31188BFF34F8FBFF36F8F00BF47
:104CD0000546E1682068B0FBF1F201FB120020609C
:104CE000E1686068B0FBF1F201FB12006060D4E99A
:104CF000000188420BD2A389A6889B1B99B2D4E9F4
:104D0000016398192269904700206060CFE72388EB
:104D1000A6889B1B99B2D4E9016398192269904730
:104D20002068606000BF85F3118800BF00BF00BF2E
:104D3000BDE7000070B504460D4629460948FFF757
:104D400047FC064633462246294607A001F062FE8C
:104D5000B44204D1284601F09DFC002070BD012022
:104D6000FCE700000010020846696C6553697A652B
:104D7000203D2025642042797465732C46696C655A
:104D8000435243203D20307825782C46696C65439A
:104D9000524341637475616C203D20307825780D55
:104DA0000A00000000BFFEE71CB500225049514830
:104DB0000068FFF785FE4FF480624F494D48006858
:104DC000FFF7FFFE4D4A00214D480068FFF778FECF
:104DD0004FF480624B494A480068FFF7F2FE002218
:104DE00049494A480068FFF76BFE4FF48062484922
:104DF00046480068FFF7E5FE464802F079FE4FF4AA
:104E0000E12002F07DFE444802F05EFC04F03EFC2E
:104E100003F06AFC40F2046004F082FB4FF400539C
:104E2000032210213D4803F0E7F94FF400503B49BD
:104E3000086140F2036004F073FB4FF480730322B7
:104E40001021374803F0D8F94FF4807034491431F9
:104E5000086005F0FBF93348042100236422CDE902
:104E6000001031A1334806F0B1F933480221002384
:104E70006422CDE9001031A1324806F0A7F932488A
:104E8000032100236422CDE9001030A1334806F04D
:104E90009DF93348062100234FF48062CDE90010CC
:104EA00030A1354806F092F93448052100234FF42B
:104EB0008062CDE9001032A1364806F087F905F08E
:104EC000EFF935A136A001F0A5FD0FE04FF4005039
:104ED000124948614FF47A7005F0DEFA4FF4005041
:104EE0000E4908614FF47A7005F0D6FAEEE700003B
:104EF000099D00080C0000204C020020499D00087C
:104F00001000002064060020999D00081400002075
:104F10007C0A0020C0C62D00005400400010014053
:104F2000000C014024000020564C363138307854B3
:104F300061736B00115C00081C0000204C6F67540B
:104F400061736B00B551000820000020456D65724B
:104F500067656E63795461736B000000074A00084F
:104F60002C000020436F6D6D756E69636174696F0D
:104F70006E5461736B000000434600082800002057
:104F800053656E736F7255706C6F6164696F6E54A8
:104F900061736B008957000856302E302E310000A7
:104FA0004150502025732069732052756E6E696ED2
:104FB000670D0A00704710B5044600F001F810BDF7
:104FC00008B524480078012804D0022809D0032815
:104FD00038D127E002201F490870000202F0FCFDD2
:104FE00036E04FF400711C4803F064F948B94FF4FF
:104FF000007002F0E9FD19480068401C174908607C
:105000000BE000200346024603210090144800688C
:1050100006F0A0FB00200F4908704FF4007002F06A
:10502000DBFD15E000200B49087003460246032112
:1050300000900B48006806F08DFB4FF4007002F002
:10504000CBFD05E00348017806A001F0E3FC00BFBA
:1050500000BF08BD28020020000C01402C020020E7
:10506000240200205B4B65795F43616C6C42616395
:105070006B5F464D535D6572726F7220737461741D
:1050800065203D2025640D0A000000001CB5314854
:10509000007810B1022854D11DE006F0DDF8044676
:1050A000002001AB2246062100902B48006806F044
:1050B00051FB019838B14FF0805028490860BFF388
:1050C0004F8FBFF36F8F4FF4007002F07DFD012012
:1050D000204908703BE022480068642808D3204833
:1050E000006800EB800041001EA001F093FC07E087
:1050F0001B48006800EB800041001FA001F08AFC03
:1051000000201749086006F0A7F80446002001AB0C
:105110002246072100901048006806F01BFB01980A
:1051200038B14FF080500D490860BFF34F8FBFF387
:105130006F8F4FF4007002F047FD0320054908709F
:1051400005E00448017811A001F064FC00BF00BF35
:105150001CBD0000280200202402002004ED00E015
:105160002C0200206C6F6E672070726573732025AF
:1051700064206D730D0A000073686F727420707282
:10518000657373202564206D730D0A005B4B657990
:105190005F496E746572727570745F464D535D65DC
:1051A00072726F72207374617465203D2025640DE6
:1051B0000A00000004E003F009FB642005F06CF92C
:1051C000F9E700BFFEE770472DE9FE4F83460E4624
:1051D0001546002400200090019002903046B6F55C
:1051E000A06F0BD0A0F20250002864D0012826D076
:1051F000A0F5FE40FE38002820D186E0287840B295
:1052000046490870084602782046641C0DF80020C4
:1052100000222046641C0DF80020320A2046641C3F
:105220000DF80020F2B22046641C0DF80020A3B255
:105230006A464FF405415846FFF74AFA66E0287877
:1052400040B23649087068780006A97840EA014003
:10525000E97840EA0120297940EA0107A8796979CB
:1052600040EA0128424639462DA001F0D3FB4246D0
:10527000E91D3846FFF722FB3249086027480278CB
:105280002046641C0DF8002000222046641C0DF806
:105290000020320A2046641C0DF80020F2B220469D
:1052A000641C0DF80020A3B26A464FF4054158462D
:1052B000FFF70EFA2AE0287840B218490870A8785B
:1052C000697840EA01291F4801684846FFF732FD26
:1052D0008246124802782046641C0DF800202046C1
:1052E000641C0DF800A0320A2046641C0DF8002052
:1052F000F2B22046641C0DF80020A3B26A464FF4B7
:1053000005415846FFF7E4F900E000BF00BF314611
:105310000DA001F07FFBBDE8FE8F00001002002011
:105320004F54415F4F6666736574203D2025642CA1
:105330004F54415F4C656E677468203D2025640DB5
:105340000A000000140200205B55706C6F61645FFE
:1053500048616E646C65725D636D64203D203078D9
:1053600025780D0A000000002DE9FE4306460C4694
:105370009046994600250020009001900290022C52
:1053800004D0A4F500400238A8B913E00022284652
:105390006D1C0DF80020ABB26A4648F2020130469F
:1053A000FFF796F900F018F80746394603A001F018
:1053B00031FB00E000BF00BFBDE8FE8325734865F8
:1053C0006172742042656172742046726F6D20486C
:1053D0006F73740D0A0000000EB52448407980B147
:1053E0002248008821498978204AD278CDE90021D5
:1053F00002901E48037942791DA1224801F01AFB50
:1054000032E01A48007968B118480088174989784D
:10541000CDE900101548C37802791BA1194801F0A5
:1054200009FB21E01148C07850B110480088009075
:105430000E488378C27818A1124801F0FBFA13E0F5
:105440000A48807838B109480388827815A10D4848
:1054500001F0F0FA08E00548008828B10348028806
:1054600012A1084801F0E6FA06480EBDC800002067
:105470005B25643A25643A25643A25643A25645DDF
:1054800000000000E83700205B25643A25643A25D7
:10549000643A25645D0000005B25643A25643A2582
:1054A000645D00005B25643A25645D005B25645DF6
:1054B0000000000017480088401C16490880084674
:1054C0000088B0F57A7F23D108468078401C887028
:1054D00000200880084680783C2819D10846C0780A
:1054E000401CC870002088700846C0783C280FD146
:1054F00008460079401C08710020C87008460079F1
:10550000182805D108464079401C487100200871D0
:1055100070470000C800002070B50446704800784D
:105520000D287DD2DFE800F0070D1B2939475765AC
:10553000839DA4B6C000A52C02D101206849087043
:10554000CBE0A52C07D10220654908704FF6FF700B
:105550006449488102E0002061490870BDE02002F2
:1055600060490880084641892046FFF752F85D49A6
:10557000488103205A490870AFE05A480088204407
:1055800058490880084641892046FFF742F85549A6
:1055900048810420524908709FE020025149488008
:1055A000084641892046FFF734F84E4948810520D6
:1055B0004B49087091E04B48408820444949488055
:1055C000084641892046FFF724F8464948810620CD
:1055D0004349087081E02002424988800846418999
:1055E0002046FFF716F83F49488107203C490870DC
:1055F00073E03C48808820443A4988800020C88075
:10560000084641892046FFF704F836494881084694
:10561000C18800880838814205D10920304900E05E
:1056200057E0087002E008202D49087055E02D4829
:10563000C188C088401C2B4AD08002F10C00445421
:105640000C3841892046FEF7E4FF26494881084688
:10565000C18800880838814202D109202049087099
:105660003BE020021F4908810A201D49087034E0F0
:105670001C48008920441B49088108460089498943
:10568000884203D000201649087002E00B2014491C
:10569000087022E05A2C03D10C201149087002E056
:1056A00000200F49087018E05A2C0ED10D48808850
:1056B000C0F303250B4AD388918850880A4A52F8D0
:1056C0002560084A0C32B04700BF0020044908702A
:1056D00003E000200249087000BF00BF70BD000059
:1056E000F20100204C480020F801002010B55220A3
:1056F00023490870084604784FF4807021490860F7
:10570000052004F0C9FE4FF480701E49091F08608F
:10571000052004F0C1FE00BF012004F0BDFE1848C2
:10572000007800F07DFB00211548007800F0E4FAD5
:105730001348007800F0D6FB01211148007800F0F2
:10574000F1FE01210E48007800F0B0FD00210C4868
:10575000007800F0BFFC07210948007800F0BCFA8F
:105760000748007800F01DFD00210548007800F092
:105770009DFD01210248007800F0AEFA10BD000046
:10578000E8010020140C014002E00A2004F084FE2D
:10579000FBE7000010B5FFF78DFE00BF502080F33F
:1057A0001188BFF34F8FBFF36F8F00BF05F05EFD11
:1057B00018B14FF080500449086000BF002080F30A
:1057C000118800BF10BD000004ED00E008B51848C6
:1057D000006840F47000164908601648006840F000
:1057E0000100144908600846406840F080004860A5
:1057F0000020009002E00098401C009044F62061D8
:1058000000988842F7D300200A494860C8620846D9
:10581000006809490840074908604FF41F00886084
:105820000846006820F48020086003F0D1FF08BD1E
:1058300088ED00E000100240FFFFF6FE10B50221E7
:10584000480704F054FA18B10221480704F04CFA52
:1058500010BD704708B51649164804F068FC60B1E1
:1058600015480068FFF7F0F91149124804F052FC9E
:10587000104800680F48001D006810490D4804F0EA
:1058800056FC98B169460E48006805F045FA0B4988
:10589000084804F03FFC009838B14FF080500949A7
:1058A0000860BFF34F8FBFF36F8F00BF08BD0000CC
:1058B00004030400003801400C0000200603060029
:1058C0000800002004ED00E008B51649164804F071
:1058D0002EFC60B115480068FFF7B6F9114912486F
:1058E00004F018FC104800680F48001D00681049BB
:1058F0000D4804F01CFC98B169460E48006805F09C
:105900000BFA0B49084804F005FC009838B14FF039
:10591000805009490860BFF34F8FBFF36F8F00BFFE
:1059200008BD0000040304000044004010000020F3
:10593000060306000400002004ED00E02DE9F0411C
:1059400007460D46144698460026A5F2074020B1AA
:10595000A0F5FE40F93868B900E00BE0E078A178E6
:1059600040EA012640F20740864202D1002003F0BF
:1059700027FE00BF00BF294602A001F04BF8BDE89A
:10598000F08100005B55706C6F61645F48616E640C
:105990006C65725D636D64203D20307825780D0A5A
:1059A0000000000000BFFEE72DE9F04105460F466C
:1059B00016461C464FF47A705249086000BF2868AA
:1059C00000F4007038B14F4801680068401E4D4A2D
:1059D00010600029F3D14FF47A704A49086000BF83
:1059E00040F20161284602F039FD38B145480168AE
:1059F0000068401E434A10600029F1D1284602F099
:105A000054FD4FF47A703F49086000BF4FF4A06125
:105A1000284602F023FD38B93A4801680068401E64
:105A2000384A10600029F1D101223946284602F097
:105A300024FD4FF47A703349086000BF40F20151F1
:105A4000284602F00BFD38B92E4801680068401E58
:105A50002C4A10600029F1D140F20151284602F091
:105A6000E9FC32E0012C16D14FF47A702549086028
:105A700000BF40F20251284602F0F0FC38B921483C
:105A800001680068401E1F4A10600029F1D1002102
:105A9000284602F017FC4FF47A701A49086000BFDC
:105AA00040F20651284602F0D9FC38B91548016881
:105AB0000068401E134A10600029F1D1284602F008
:105AC000ADFC06F8010B601EC4B2002CCAD12846FA
:105AD00002F0F0FC4FF47A700A49086000BF2868B1
:105AE00000F4007038B1074801680068401E054A9C
:105AF00010600029F3D10121284602F0E3FB0020C9
:105B0000BDE8F081D00000202DE9F04105460F46A8
:105B100014461E464FF47A703C49086000BF40F2BC
:105B20000161284602F09AFC38B1384801680068E3
:105B3000401E364A10600029F1D1284602F0B5FC1B
:105B40004FF47A703149086000BF4FF4A0612846D5
:105B500002F084FC38B92D4801680068401E2B4AC9
:105B600010600029F1D16FF001023946284602F099
:105B700084FC4FF47A702549086000BF40F201515F
:105B8000284602F06BFC38B9204801680068401EC6
:105B90001E4A10600029F1D140F20151284602F05E
:105BA00049FC17E02178284602F03CFC4FF47A705B
:105BB0001649086000BF40F20751284602F04EFC2B
:105BC00038B9124801680068401E104A1060002968
:105BD000F1D1641C301EA6F10101CEB2E2D12846FB
:105BE00002F068FC4FF47A700849086000BF28682A
:105BF00000F4007038B1054801680068401E034A8F
:105C000010600029F3D10020BDE8F081D000002011
:105C10008AB0FFF76BFD01F031FD3BE04FF0FF3143
:105C20001D48006805F0AEF969461C48007800F090
:105C30008FF90298E0B9009C194800684DF6991157
:105C4000484342F2676104FB0100001414490860F4
:105C5000084614A10268154800F0ECFE00BFFFF7EB
:105C6000BBFB0446214612A0009A00F0D3FE09E0D7
:105C70000A480578029C224614A1164800F0DAFE74
:105C800000BF00BF01210548007800F025F8022080
:105C900001F0A2FFC2E7000000000020E8010020A0
:105CA000380000207225336400000000300000201E
:105CB000257352616E6765446174612E72616E670F
:105CC000655F6D6D203D2025640D0A00452D253052
:105CD000326400003C00002070B506460C46072CDC
:105CE00006DC22461521304600F092FC054601E014
:105CF0006FF00105284670BD10B50246014CE174F5
:105D0000002010BD200100202DE9F04180460C4606
:105D100016460C4890F8780058B14D2C09DB842CBD
:105D200007DCA4F14D00074979310F5C377000257D
:105D300005E032462146404600F03CFA054628463A
:105D4000BDE8F081200100202DE9F04180460C469D
:105D50001646124890F87800B0B14D2C14DB812C17
:105D600012DCA4F14D010D4A793288180178090638
:105D7000427841EA0241827841EA0221C27841EA4E
:105D800002073760002505E032462146404600F014
:105D90002DFA05462846BDE8F081000020010020CC
:105DA0002DE9F04180460C4617460E4890F87800E1
:105DB00078B14D2C0DDB832C0BDCA4F14D01094A8D
:105DC000793288184178027841EA02263E8000251F
:105DD00005E03A462146404600F049FA0546284685
:105DE000BDE8F0812001002070B504460D4616463E
:105DF00033462A4621460248FFF7D6FD70BD000013
:105E00000054004070B504460D46164633462A46F7
:105E100021460248FFF778FE70BD000000540040A4
:105E20002DE9FF41074655202C490881642048810F
:105E300000212A480174012028498874C87481F817
:105E4000C400384600F00AFD00BF03AA24213846EA
:105E500000F0B0F9044604B13BE09DF90C001F4985
:105E600081F8C50001AA2621384600F0BFF9044692
:105E700004B12EE001986FF30F0008B918480190A3
:105E80001649019808606A461E21384600F0EFF96D
:105E9000044604B11DE0BDF800004FF47A71484398
:105EA000C6090E484660384600F04EFC0546002DF7
:105EB00000DA0EE002AA1621384600F07BF904460B
:105EC00004B106E09DF80800012800D105B10124C5
:105ED00000BF00BF204604B0BDE8F08120010020D3
:105EE000F803CE0070B5054600BF284600F006FA5C
:105EF0000446002C00DA17E00421284600F017F8C9
:105F0000044604B110E0C8220A21284600F023F913
:105F1000044604B108E0284600F0E6FD07212846C3
:105F2000FFF7DAFE044600BF00BF204670BD70B523
:105F300006460C46042C07DC2346F8221421304682
:105F400000F0FAF9054601E06FF00105284670BD42
:105F50007CB506460C46304600F0A6FB054605B16A
:105F60003FE02146304600F043F80546002D36D18B
:105F700001AA66213046FFF713FF054675BBBDF841
:105F8000040060606A464D213046FFF7BDFE0546BD
:105F900025B99DF800000011A06000E000BF214677
:105FA000304600F0CFFC054605B11AE00F48C07C32
:105FB00058B12146304600F061FD05462DB9606AB2
:105FC00018B1606AA060208C2060084890F8C40076
:105FD00030B12146304600F089FB01E000E000BF0F
:105FE00000BF304600F07AFB28467CBD200100202F
:105FF000F8B507460C466A4662213846FFF784FE2C
:10600000054635B90448867C9DF8000016FB00F073
:1060100020602846F8BD0000200100202DE9FF5F28
:1060200081464FF47A700390401002901F48B0F8F8
:1060300008A0B0F80AB000BF6A461C21484600F02C
:10604000B9F8044604B12CE09DF80080484600F001
:1060500041FC0546002D02DA4FF0FF3421E008EB49
:106060004800C0EBC810C5EBC00601AAB8214846DD
:1060700000F0BCF8044604B113E00198000201905E
:106080004FF4FA710AFB01F00199484306FB0BF14A
:10609000B0FBF1F7BAB22221484600F0E5FA044617
:1060A00000BF00BF204604B0BDE8F09F20010020E3
:1060B0002DE9F04107460D460DB1012400E0002412
:1060C0002346FE222D21384600F036F9064630469A
:1060D000BDE8F0812DE9F04107460C4600BF40F6CF
:1060E000F610844202D96FF0010515E00A2C00D2A7
:1060F0000A240A20B4FBF0F0C6B232461B2138460F
:1061000000F086FA054605B105E00A20B4FBF0F080
:10611000B04200D0022500BF00BF2846BDE8F08194
:1061200070B506460D46002400BF2A461C213046A5
:1061300000F06EFA044604B10AE03046FFF76EFF45
:10614000044604B104E0304600F0FEFA044600BF05
:1061500000BF204670BD2DE9F04106460C461746AB
:106160003A461921304600F053FA05462DB9224629
:106170001A21304600F04CFA05462846BDE8F08169
:1061800070B506460D46032D07DC2A461821304619
:1061900000F03EFA044614B101E06FF0010420461D
:1061A00070BD70B5044603212046FFF7E9FF0546A0
:1061B000284670BD2DE9FC4180460D4617466C46C9
:1061C000281220706570022221464046FFF71AFE11
:1061D000064646B9012221464046FFF705FE06461F
:1061E0000EB9207838703046BDE8FC812DE9FC41BD
:1061F00080460D4617466C462812207065700222B4
:1062000021464046FFF7FEFD06468EB90422214690
:106210004046FFF7E9FD064656B92078000661784A
:1062200040EA0140A17840EA0120E1780843386063
:106230003046BDE8FC812DE9FC4781460C461646F8
:106240001F466D46201228706C700222294648466F
:10625000FFF7D8FD8046B8F1000F05D1FAB23146FC
:106260004846FFF7C1FD80464046BDE8FC872DE962
:10627000FC4180460D4617466C462812207065701A
:10628000022221464046FFF7BDFD06465EB90222C6
:1062900021464046FFF7A8FD064626B960782178DA
:1062A00040EA012038803046BDE8FC812DE9F0410C
:1062B00007460D460DB1012400E0002422461721B7
:1062C000384600F0A5F906463046BDE8F0810246A2
:1062D00000204FF0804100E089089142FCD809E09D
:1062E0004318934204D84318D21A01EB500000E03F
:1062F000400889080029F3D17047000070B50646B0
:1063000000250C48807C012800D100BF304600F0F9
:1063100063F90446002C00DA09E0002C00DD00BF20
:10632000002D00DA00BF0DB904B1254600BF284694
:1063300070BD0000200100202DE9FC4781460D467C
:10634000174698466C462812207065700222214636
:106350004846FFF757FD06468EB90122A11C484664
:10636000FFF742FD064656B9A078384040EA0800DB
:10637000A070032221464846FFF744FD06463046FA
:10638000BDE8FC8710B50446012240F207212046F3
:1063900000F03EF901224FF40271204600F038F976
:1063A00000229621204600F033F9542297212046FE
:1063B00000F02EF90022E321204600F029F9042202
:1063C000E421204600F024F90222E521204600F0D5
:1063D0001FF90122E621204600F01AF90322E721E5
:1063E000204600F015F90222F521204600F010F9B0
:1063F0000522D921204600F00BF9204600F0FAFAD8
:1064000000229F21204600F003F92822A3212046E4
:1064100000F0FEF80022B721204600F0F9F828220B
:10642000BB21204600F0F4F80922B221204600F0FA
:10643000EFF80922CA21204600F0EAF801224FF4C1
:10644000CC71204600F0E4F817224FF4D8712046B2
:1064500000F0DEF8002240F2AD11204600F0D8F83E
:106460000522FF21204600F0D3F805224FF4807169
:10647000204600F0CDF8052240F29911204600F0A8
:10648000C7F81B224FF4D371204600F0C1F83E221A
:106490004FF4D671204600F0BBF81F2240F2A7113E
:1064A000204600F0B5F800223021204600F0B0F878
:1064B00010221121204600F0ABF830224FF48571F4
:1064C000204600F0A5F846223F21204600F0A0F823
:1064D000FF223121204600F09BF863224021204614
:1064E00000F096F801222E21204600F091F8FF22BC
:1064F0002C21204600F08CF809221B21204600F0B8
:1065000087F831223E21204600F082F8242214210F
:10651000204600F07DF832212046FFF701FE0020E2
:1065200010BD00002DE9F04781460C46012C4ADBE6
:10653000032C48D8601E264931F810703A4696213F
:10654000484600F091F805462248847490F9C50049
:1065500090FBF4F04FFA80F808F0FF02242148463F
:1065600000F056F8054655B9142090FBF4F000F001
:10657000FF0A52462121484600F04AF805468DB9E7
:106580001448007C70B113488689807C96FBF0F03B
:1065900086B2FF2E00DDFF26F2B22521484600F02C
:1065A00037F805464DB9012C01D1012000E000204B
:1065B00001464846FFF77CFD054635B900BF012C72
:1065C00003D0032501E06FF001052846BDE8F08700
:1065D000D8B700082001002070B5054600BF284646
:1065E000FFF7D0FE044604B100E000BF00BF54B97D
:1065F0000648817C2846FFF795FF044600221621B5
:10660000284600F005F8204670BD0000200100205B
:106610002DE9FC4107460D4616466C4628122070AF
:106620006570A670032221463846FFF7EBFB8046D3
:106630004046BDE8FC812DE9FC4107460E46154663
:106640006C46301220706670280EA070280CE07026
:10665000280A20716571062221463846FFF7D2FBD1
:1066600080464046BDE8FC812DE9FC4107460D46C9
:1066700016466C462812207065703012A070E670C5
:10668000042221463846FFF7BDFB80464046BDE860
:10669000FC81000001B504226946024801F0BCFA01
:1066A00008BD000000E0030870B506460A4890F8EF
:1066B000780068B90120084981F8780001F179056E
:1066C00038232A464D213046FFF7B5FD044600E049
:1066D0000024204670BD0000200100200021024A55
:1066E00082F8781070470000200100202DE9F04763
:1066F00081460D46EF681148874219D2394648460F
:1067000000F0B4F804460E4890F81280A8F1010099
:106710000C4931F810600A48B0F8C000A04202DA13
:106720000748B0F8C040B44200DD3446EC6101E0F7
:106730000020E8610020BDE8F08700001009050096
:1067400020010020DEB700082DE9F04F87B0824617
:106750004FF0000B00BF06AA2A215046FFF72AFD82
:10676000044604B170E09DF8180018B94FF0010B11
:10677000282006909DF818004FF47A7110FB01F064
:10678000C70902AA2D215046FFF714FD044604B1A3
:106790005AE003AA1C215046FFF70CFD044604B141
:1067A00052E004AAB8215046FFF720FD044604B188
:1067B0004AE001AA2C215046FFF7FCFC044604B134
:1067C00042E09DF804004FF47A5191FBF0F1224829
:1067D000C0F8BC104568AF4202D3C0F8B87003E0FF
:1067E00000211D48C0F8B8109DF8080000F0020014
:1067F00070B105AA26215046FFF739FD044604B1C1
:1068000022E0BDF814004FF47A714843C60900E055
:106810000026049801029DF80C00001FB1FBF0F85F
:10682000701B404501DBA6EB05089DF8040008FB42
:1068300000F04FEA10194946504600F017F881B2AF
:106840000548A0F8C01000BF00BF04B95C46204650
:1068500007B0BDE8F08F0000200100205021024A5F
:10686000C2F8B41070470000200100202DE9F04765
:1068700082460E461548D0F8B490D0F8BC70D0F8D7
:10688000B880002E1DDD124890FBF6F0A0F5F274E2
:10689000002C01DC002516E0B4F5005F06DA04FBED
:1068A00008F007EB0901B0FBF1F405E007EB090084
:1068B000B4FBF0F000FB08F42046FFF708FD0546A6
:1068C00001E06FF000452846BDE8F0872001002078
:1068D000006889092DE9F14F82B04FF018094FF097
:1068E000460A4FF0C80B072001906A4640F2091192
:1068F0000298FFF75FFC8046B8F1000F03D04FF01D
:10690000FF30BDE8FE8F9DF80000019900EA010408
:106910006A464FF485710298FFF74CFC8046B8F147
:10692000000F02D04FF0FF30EBE79DF8005009EB6D
:106930000A0005EB850100EB4106601C00FB06B771
:106940003846DEE72DE9FF5F81460D4600200390C3
:10695000002780460290019000906FF0004A4FF0AF
:10696000060B002600BF02AA6C214846FFF7ECF98F
:10697000044604B139E00298504501D90020029044
:1069800001AA74214846FFF7DFF9044604B12CE060
:1069900003AA7C214846FFF7D7F9044604B124E056
:1069A0006A4680214846FFF7CFF9044604B11CE04F
:1069B000039868610098A861009E00990398884236
:1069C00000D9039E0EB94FF218664FF47A710298FF
:1069D0004843B0FBF6F7019800FB0BF04843B0FBCF
:1069E000F6F82F61C5F80C8000BF00BF204604B048
:1069F000BDE8F09F70B5044600260548066832469B
:106A0000DA212046FFF717FE0546284670BD000034
:106A1000200100200FB4054B10B503A9044A0298C9
:106A200000F0F6FB10BC5DF814FB000015810008B7
:106A3000300200200FB4084B10B504A902AA039835
:106A400000F0E6FB044602A9002000F012FE2046FA
:106A500010BC5DF814FB00007376000802E008C863
:106A6000121F08C1002AFAD170477047002001E0C8
:106A700001C1121F002AFBD1704700002DE9FE431F
:106A800081460C460027174890F8128000BF02AAE2
:106A900064214846FFF738F9064606B11DE09DF827
:106AA0000870208980B2E168CDE9001007FB08F08A
:106AB00082B2208881B24846236900F039F8054641
:106AC000002D02DA4FF0FF3607E0258407FB08F0BF
:106AD00060840448416F616200BF00BF3046BDE87A
:106AE000FE83000020010020024600200F4B586169
:106AF00000230E48C365036643668366C366A0F839
:106B00005830036700210AE04FF6FF7307481C3036
:106B100020F811300023143040F82130491C0A2994
:106B2000F2DB002301488361002070472001002030
:106B30002DE9FF4FA7B017461D4600BF0020239048
:106B4000012022904FF00009002021901F901E90FC
:106B50001D901C901B901A90199018900026179069
:106B60001690159014901390129011904FF4E160CC
:106B700007904FF496700490FC48807CC0EB002096
:106B8000039035980C2806D00D280AD00E2803D083
:106B90000F2812D106E000BF1020219000201F9086
:106BA00016E000BF10202190F048807CC82110FB27
:106BB00001F0289001201F900AE00398874204D337
:106BC00000201F900120239001E001201F9000BFB2
:106BD00000BF28982690E54840680590E348D0F823
:106BE000B8000C90059800F548700B90B4210C98F3
:106BF00048434FF49C71B0FBF1F1059808440A90AA
:106C000040F252310C9848434FF49C71B0FBF1F1C3
:106C10000598084409904FF4AF610C9848434FF42D
:106C20009C71B0FBF1F10598084408903C2F06DAFE
:106C30000B98854203D24FF0100901202390A52F15
:106C400006DA0A98854203D24FF0100901202390FA
:106C5000A52F05DA0A989630854201D201201E90B0
:106C600043F698213498884202D901201A90239043
:106C70004B2D02D201201A902390BC48006BC8B162
:106C8000BA48006BA8420AD2B848006B281A64219F
:106C90004843B649096BB0FBF1F019900CE0B348DA
:106CA000006B401B64214843B049096BB0FBF1F015
:106CB000199001E0002019901998322801D901207B
:106CC0001A901A98012816D10020A849486100247A
:106CD0000BE04FF6FF71A5481C3020F8141000217E
:106CE000143040F82410601C84B20A2CF1DB00211F
:106CF0009E48816112E009240EE0611E9B481C3011
:106D000030F8111020F81410611E143050F82110C2
:106D100040F82410601E84B2002CEEDC1F9801287D
:106D200003D192492898888303E04FF6FF718F487A
:106D300081838E4805638069401C8C498861B7F562
:106D4000AF7F02DA0998854208D3B7F5AF7F02DB3F
:106D50000898854202D3012023900DE0219858B174
:106D600035980C2802D035980E2801D1DDF8849092
:106D7000012023900020229006AA4FF4D671279874
:106D8000FFF718FA8046B8F1000F00D011E29DF825
:106D900018002090082324AA4FF486712798FFF743
:106DA0004AFA8046B8F1000F00D002E29DF8900048
:106DB00000069DF8911000EB01409DF8921000EB49
:106DC00001209DF8931000EB010A9DF89400000645
:106DD0009DF8951000EB01409DF8961000EB012006
:106DE0009DF8971000EB010B1A98012805D0239805
:106DF00001281DD1229801281AD120983E280AD0B6
:106E00003E224FF4D6712798FFF702FC8046B8F176
:106E1000000F00D0CDE15548C0F85CA0C0F860B0CC
:106E2000C0F864A0C0F868B000205049486128E06C
:106E300020983E2805D14D48C0F85CA0C0F860B04D
:106E400004E04A48C0F864A0C0F868B04748007D34
:106E500000F0010010B93C20069001E03E200690B1
:106E60009DF818204FF4D6712798FFF7D1FB804684
:106E7000B8F1000F00D09CE13C484069401C3B4900
:106E80004861239801280CD13848C0F87490B9F1B2
:106E9000100F02D1039880B2269026982BB0BDE83F
:106EA000F08F3248016E806E814205D92F48016E05
:106EB000806E081A109001E0002010902B49109865
:106EC000C8661E9818B94FF4E160079002E04FF4CD
:106ED000617007902548C16D406E814205D92348F5
:106EE000C16D406E081A0F9004E02048416EC06DDD
:106EF000081A0F9007990F98884204D907990F989C
:106F0000401A0E9001E000200E9007990F98084457
:106F10000D900E991098884203D30D9910988842CD
:106F200004D901201D904FF01009CCE00F484069B2
:106F3000012802D80520189001E0032018900520B0
:106F40004FF461711E239622CDE900102946349832
:106F500000F036F904900026002017901690159046
:106F600014901390129000241AE0000020010020D9
:106F7000914830F814004FF6FF7188420ED0701C13
:106F800086B28D4830F814101798084417908A4834
:106F9000143050F82410149808441490601C84B2E3
:106FA0000A2C01DA062EE3DB002E07DD1798B0FB72
:106FB000F6F016901498B0FBF6F01390002600201F
:106FC00017901490002428E07B4830F814004FF606
:106FD000FF7188421FD0701C86B2774830F81410B9
:106FE0001698091A744830F814201698121A17982F
:106FF00001FB020017907048143050F824101398C9
:10700000091A6D48143050F824201398121A149855
:1070100001FB02001490601C84B20A2C01DA062ED7
:10702000D2DB189886420ADB1798B0FBF6F080B2E4
:1070300015901498B0FBF6F080B2129002E0002098
:10704000159012905D491298884238D2189886425D
:1070500002DA4FF0100936E040F6AC51129888423F
:107060000DD240F6A6610498081A1299484340F6DA
:10707000AC51B0FBF1F104980844119002E040F6E5
:10708000A66011904C481C38406F10B911988000D0
:10709000119004991598B1EBC00F04D9062E02DBAC
:1070A00001201B900FE011991598884202D201200F
:1070B0001C9008E001201D904FF0100903E0012012
:1070C0001D904FF010091F9880B93B481C38B0F84C
:1070D000580000284BDD38481C38B0F85800401ED6
:1070E00081B235481C38A0F8581040E01D9801289E
:1070F00013D131481C38B0F85800801C81B22E489A
:107100001C38A0F85810B0F8580004282FDD0421CE
:1071100029481C38A0F8581029E01C9801281ED1D5
:1071200025481C38B0F85800002820DD4FF0100921
:1071300021481C38B0F8580001280ADD1E481C38C8
:10714000B0F85800401E81B21B481C38A0F85810F7
:107150000DE0002118481C38A0F8581007E01B98D3
:10716000012804D1002114481C38A0F858101248F6
:107170001C38406F88B9B9F1000F0ED001240AE025
:107180004FF6FF710C4820F814100021143040F81D
:107190002410601C84B20A2CF2DB07481C38C0F8AB
:1071A0007490B9F1100F02D1039880B226902698FE
:1071B00074E64FF0FF3071E63C010020905F010063
:1071C0002DE9F04104460F46DDE9065644B14FF083
:1071D000640C07FB0CFCBCFBF4FC1FFA8CF101E017
:1071E00042F20F71994201D310460FE0B14201D82B
:1071F00028460BE0A1EB060CA5EB02080CFB08FCF3
:10720000A3EB0608BCFBF8FCA5EB0C00BDE8F08185
:107210002DE9FF4F8DB00F460546002606E02528D4
:107220000BD0DDE90F1290476D1C761C28780028E2
:10723000F5D111B03046BDE8F08F0024A246A1463A
:107240000122EC4900E0044315F8013F203B02FA1B
:1072500003F00842F7D128782A2810D06FF02F02C7
:107260002878A0F13001092914D80AEB8A0102EB31
:10727000410144F0020400EB010A6D1CF0E701CF6C
:107280005FEA000A03D544F40054CAF1000A44F04E
:1072900002046D1C28782E2817D115F8010F44F030
:1072A00004042A280ED06FF02F022878A0F13001B4
:1072B00009290AD809EB890102EB410100EB010918
:1072C0006D1CF2E757F8049B6D1C28786C280FD0D2
:1072D00006DC4C2817D068280DD06A2814D104E0A9
:1072E000742810D07A280FD10DE044F400140AE07D
:1072F00044F4801401E044F440146978814202D1DE
:1073000004F580146D1C6D1C2A786E2A1FD00CDCCD
:10731000632A31D004DC002A8BD0582A11D1A3E093
:10732000642A68D0692A0CD165E0732A2ED004DC67
:107330006F2A73D0702A04D19BE0752A6FD0782A07
:107340006ED01046DDE90F129047761C50E1C4F371
:107350000250022806D0032809D0042801CF09D002
:10736000066045E101CFF117C0E9006140E101CFBE
:1073700006803DE106703BE117F8040B8DF8000034
:1073800000208DF80100EB46012003E057F804BB14
:107390004FF0FF3061074FF0000102D40DE008F11B
:1073A0000101884649450FDA8045F8DB1BF80810D3
:1073B0000029F4D108E008F1010188468142FADB96
:1073C0001BF808100029F6D1DDE90F23AAEB08000D
:1073D0008146214600F036F9304400EB080604E00F
:1073E000DDE90F121BF8010B9047B8F10108F7D245
:1073F00021464846F7E00A21C4F302534FF0000B40
:107400000891022B04D001CFC117032B09D00AE049
:10741000FF1D27F00707F7E8020108E032E01FE050
:1074200020E000B2C117042B01D140B2C117031EE6
:1074300071F1000307DA4FF0000CD0EB0C006CEB9D
:1074400001012D2302E0230504D52B238DF82430E0
:10745000012303E0E30701D02023F7E7984658E033
:107460000A2110E010210EE010204FF0000B0890D0
:107470000CE010214FF0000B44F004044FF0080919
:10748000089103E008214FF0000B0891C4F3025368
:10749000022B04D001CF0021032B06D006E0FF1DF4
:1074A00027F00707F7E8020103E080B2042B00D1C0
:1074B000C0B24FF0000823072BD5702A07D0DDF8A3
:1074C00020C08CF0100C5CEA0B0C05D00EE04023C1
:1074D0008DF82430012308E050EA010306D0302360
:1074E0008DF824308DF8252002239846DDF820C041
:1074F0008CF0080C5CEA0B0C0BD150EA010301D1B3
:10750000630706D530238DF824304FF00108A9F128
:107510000109582A04D038A20B9208AA0A920BE05B
:107520003AA2F9E75B46089AFCF7C2FF0B9B9B5C0B
:107530000A9A521E0A92137050EA0102F2D10A9876
:10754000ADEB000000F1200B600702D524F480347D
:1075500001E04FF00109D94502DDA9EB0B0000E085
:10756000002000EB0B0141440890AAEB010AE00364
:1075700006D4DDE90F232146504600F063F80644A7
:107580004FF0000908E009A911F80900DDE90F1220
:10759000904709F10109761CC145F4DBE0030CD5E5
:1075A000DDE90F232146504600F04CF8064404E084
:1075B000DDE90F1230209047761C0899481E08908C
:1075C0000029F5DC08E00A980A990078491C0A911C
:1075D000DDE90F129047761CBBF10001ABF1010B06
:1075E000F1DC21465046DDE90F2300F019F806448E
:1075F0006D1C1BE609280100303132333435363733
:1076000038396162636465660000000030313233EE
:10761000343536373839414243444546000000008E
:107620002DE9F041044600251E461746880404D47F
:1076300005E039462020B0476D1C641EF9D5284668
:10764000BDE8F0812DE9F041044600251E46904634
:10765000C80301D5302700E02027880404D505E0C1
:1076600041463846B0476D1C641EF9D52846BDE832
:10767000F0810A68531C0B601070704710B540F21F
:10768000026001F04DFF4FF4C06001F049FF02239A
:10769000032204210B4800F0AFFD00220A2107203D
:1076A00001F028F80121002000F05AFD01220021FC
:1076B000022000F02DFA022000F096FA022000F0DD
:1076C0008BFA10BD0008014010B5044640F203607B
:1076D00001F026FF40F2157001F022FFC0230322C3
:1076E0001C210B4800F088FD00220A49204600F0CA
:1076F000F5FD522300221146204600F0C8FE204628
:1077000000F093FE0121204600F0DCFD10BD0000DA
:10771000000C0140801A060010B500F009FD02F0CF
:10772000C5F910BD70B505460C462146284600F047
:10773000A1F908B900BFFEE704EB8400810005F160
:107740000800405820F0010104EB8400820005F19C
:107750000800815070BD70B505460C46214628468C
:1077600000F088F908B900BFFEE704EB840081004F
:1077700005F10800405840F0010104EB840082004C
:1077800005F10800815070BD70B505460C462146D4
:10779000284600F06FF908B900BFFEE704EB84004B
:1077A000810005F10800405820F0200104EB84001E
:1077B000820005F10800815070BD70B504460D4689
:1077C0002946204600F056F908B900BFFEE705EB50
:1077D0008500810004F10800405820F0010105EB0C
:1077E0008500820004F108008150002105EB85002E
:1077F000820004F10800815005EB8500820004F14D
:107800000C00815005EB8500820004F110008150CE
:1078100005EB8500820004F1140081506068AA0025
:107820000F2191400843606070BD2DE9F04104468E
:107830000D4616462946204600F01CF908B900BF3F
:10784000FEE705EB8500820004F1100031688150ED
:1078500005EB8500820004F11400B1688150308A84
:1078600081B205EB8500820004F10C00815005EB2C
:107870008500810004F10800475827F47C57F1681F
:107880007068084371690843074305EB8500810070
:1078900004F108004750307E01280ED105EB850029
:1078A000810004F10800405840F0400105EB8500DC
:1078B000820004F1080081500DE005EB8500810095
:1078C00004F10800405820F0400105EB85008200DB
:1078D00004F108008150707E01280ED105EB85006F
:1078E000810004F10800405840F0800105EB85005C
:1078F000820004F1080081500DE005EB8500810055
:1079000004F10800405820F0800105EB850082005A
:1079100004F108008150B07E70B905EB850081004C
:1079200004F10800405820F0100105EB85008200AA
:1079300004F1080081500DE005EB8500810004F1A1
:107940000800405840F0100105EB8500820004F16A
:1079500008008150BDE8F08170B504460D4616461A
:107960002946204600F086F808B900BFFEE705EB7F
:107970008500810004F108004058304305EB850183
:107980008A0004F10801885070BD10B543688C006E
:1079900002FA04F42343436010BD70B5034600BFF0
:1079A00000BF022A04D0042A11D0082A2DD11DE0DC
:1079B00018688E0002FA06F600EA060501EB81005F
:1079C000860003F10800805900F002041FE01868E7
:1079D0008E0002FA06F600EA060501EB8100860039
:1079E00003F10800805900F0040410E018688E00CC
:1079F00002FA06F600EA060501EB8100860003F1B3
:107A00000800805900F0080401E000BFFEE700BF55
:107A100015B10CB1012070BD0020FCE770B5064621
:107A20000C4615462146304600F024F808B900BF40
:107A3000FEE704EB8400810006F11400455070BDA0
:107A400070B505460C462146284600F013F808B9E3
:107A500000BFFEE704EB8400810005F108004058F8
:107A600020F4804104EB8400820005F1080081507D
:107A700070BD000002460120034B9A4202D1042946
:107A800000DD0020704700000004024008B900BF7C
:107A9000FEE700210160416001768160C1604176AE
:107AA000016181764161704770B506460C46154606
:107AB00021463046FFF7DEFF08B900BFFEE7A9B256
:107AC00004EB8400820006F10C00815070BD70B59B
:107AD00005460C4621462846FFF7CCFF08B900BFF3
:107AE000FEE704EB8400810005F10C00405870BDF6
:107AF00010B50446204602F0B7F902F053FA10BD63
:107B000010B50446204600F0DBFC00F02DFD10BD52
:107B100010B52C4B1B6883432A4C2360231D1B6824
:107B20008343241D2360231D1B688343241D23607E
:107B3000231D1B688343241D236011B101290ED12D
:107B400005E0204B1B6803431E4C236008E01D4BDF
:107B50001B1D1B6803431B4C241D236000E000BF5A
:107B600000BF22B1012A0FD0022A27D119E0154BFC
:107B700008331B680343134C08342360231D1B6820
:107B80008343241D23601AE00E4B08331B68834394
:107B90000C4C08342360231D1B680343241D236001
:107BA0000DE0084B08331B680343064C0834236080
:107BB000231D1B680343241D236000E000BF00BF9A
:107BC00010BD000000040140024909688143014AD8
:107BD0001160704700040140024909680143014AED
:107BE00011607047000401400149086070470000BF
:107BF0001404014001460748006800EA01020548F4
:107C00001438006800EA010312B10BB1012070477B
:107C10000020FCE7140401402DE9F84F06460C460D
:107C200015464FF0000AD146CB460020009000F0E8
:107C3000EFF906F00109A6EB0906F70A03E0F802DE
:107C400000F070F97F1C7019B7EBD02FF7D9B9F19C
:107C5000000F1CD02078000200903046009900F000
:107C6000EBF8804640F2053000F0D6F84FF4417052
:107C700000F0D2F840F2023000F0CEF8B8F1000F78
:107C800001D0B2466FE0B61CA5EB0905641C0027C5
:107C900028E014F82710B800401C205C41EA0021BD
:107CA000B800801C205C41EA0041B800C01C205C88
:107CB00041EA006B5946304600F0CCF98046361D4B
:107CC00040F2053000F0A8F84FF4417000F0A4F83D
:107CD00040F2023000F0A0F8B8F1000F01D0B24637
:107CE00041E07F1CB7EB950FD3D305F00300C0B381
:107CF00005F00300012804D0022806D0032816D17D
:107D00000AE0681E14F800B014E0A81E215C681E8A
:107D1000205C41EA002B0DE0E81E215CA81E205CDF
:107D200041EA0021681E205C41EA004B02E04FF06E
:107D3000000B00BF00BF5946304600F08BF980466B
:107D400040F2053000F068F84FF4417000F064F83C
:107D500040F2023000F060F8B8F1000F02D0B246F5
:107D600001E0FFE700BF00F0C7F85046BDE8F88F1C
:107D700000B50346012200BF00F00CF802465B1E6E
:107D8000012A01D1002BF7D1012A00D1042210468B
:107D900000BD000000200A49C96801F0010109B1D5
:107DA00001200CE00649C96801F0100109B1032067
:107DB00005E00349C96801F0040101B102207047E0
:107DC0000020024000B50346012200BF00F00CF87D
:107DD00002465B1E012A01D1002BF7D1012A00D1F6
:107DE0000422104600BD000000200A49C96C01F0C1
:107DF000010109B101200CE00649C96C01F0100134
:107E000009B1032005E00349C96C01F0040101B187
:107E10000220704700200240064A02EB90110968D8
:107E200000F01F0301229A401143024B03EB901212
:107E3000116070470020024070B504460D460026D0
:107E40002A480088B0F5007F35D92948844219D2E4
:107E50004FF47020FFF78CFF0646002E43D12548D3
:107E6000006940F001002349086125804FF470202B
:107E7000FFF77EFF06461F48006920F001001D49FC
:107E8000086130E04FF47020FFF79CFF064656BBB8
:107E90001848006D40F001001649086525804FF430
:107EA0007020FFF78FFF06461248006D20F001009A
:107EB0001049086517E04FF47020FFF759FF064698
:107EC0008EB90C48006940F001000A49086125801C
:107ED0004FF47020FFF74CFF06460648006920F07B
:107EE000010004490861304670BD0000E0F7FF1F43
:107EF000FFFF0708002002400848006940F08000AA
:107F00000649086106480088B0F5007F04D9084694
:107F1000006D40F0800008657047000000200240BE
:107F2000E0F7FF1F30B5054636480088B0F5007F02
:107F300048D9354885421ED24FF47020FFF718FF0C
:107F40000446002C5BD13148006940F002002F4903
:107F5000086108464561006940F0400008614FF43F
:107F60007020FFF705FF04462848006920F0020052
:107F70002649086143E04FF47020FFF723FF0446D1
:107F8000002C3CD12148006D40F002001F490865DB
:107F900008464565C06900F0020008B10846456121
:107FA0001A48006D40F04000184908654FF47020F1
:107FB000FFF708FF04461548006D20F00200134942
:107FC00008651CE04FF47020FFF7D2FE0446B4B9F8
:107FD0000E48006940F002000C49086108464561FE
:107FE000006940F0400008614FF47020FFF7C0FEC8
:107FF00004460648006920F0020004490861204652
:1080000030BD0000E0F7FF1FFFFF0708002002401F
:108010000C48006900F0800020B10B480949486015
:108020000A4848600A480088B0F5007F09D9054829
:10803000006D00F0800020B1034802494864034805
:10804000486470470020024023016745AB89EFCDAB
:10805000E0F7FF1F70B504460D4600262A48008849
:10806000B0F5007F35D92948844219D24FF47020E9
:10807000FFF77EFE0646002E43D12548006940F0FA
:1080800001002349086125604FF47020FFF770FE5E
:1080900006461F48006920F001001D49086130E0D4
:1080A0004FF47020FFF78EFE064656BB1848006D51
:1080B00040F001001649086525604FF47020FFF775
:1080C00081FE06461248006D20F001001049086547
:1080D00017E04FF47020FFF74BFE06468EB90C48B0
:1080E000006940F001000A49086125604FF47020E2
:1080F000FFF73EFE06460648006920F001000449ED
:108100000861304670BD0000E0F7FF1FFFFF070861
:108110000020024070B504460D46E1B202480068F6
:10812000FCF76AFD002070BD0C0000204161704723
:1081300010B540F2026001F0F3F94FF4C06001F0B5
:10814000EFF9402303221821044800F055F880235A
:1081500003221821014800F04FF810BD000801402B
:1081600010B500228B071C0F0F2303FA04F2042919
:108170000EDA204B9B6893431E4CA36023469B68FA
:108180008C07240F00FA04F423431A4CA3602FE059
:1081900008290EDA174BDB689343164CE36023463D
:1081A000DB688C07240F00FA04F42343114CE360CE
:1081B0001EE00C290EDA0F4B1B6993430D4C236113
:1081C00023461B698C07240F00FA04F42343094C4F
:1081D00023610DE0074B5B699343064C63612346C3
:1081E0005B698C07240F00FA04F42343014C63619C
:1081F00010BD000000000140F0B504461646002501
:10820000002201F00F0501F0100747B1042E05D13F
:1082100045F00305E76B1F43E76300E035430020AB
:108220001EE0012787401F40C7B122684FEA800C3B
:108230000F2707FA0CF7BA43870005FA07F73A4306
:10824000282904D1012787401F40676105E048299C
:1082500003D1012787401F4027612260471CB8B225
:108260000828DED3082022E0012787401F40E7B11D
:108270006268A0F108074FEA870C0F2707FA0CF78E
:10828000BA43A0F10807BF0005FA07F73A432829C7
:1082900004D1012787401F40676105E0482903D1C9
:1082A000012787401F4027616260471CB8B2102831
:1082B000DAD3F0BD02469068084008B1012070474B
:1082C0000020FCE7012904D1026842F480620260C8
:1082D00003E0026822F48062026070472DE9F05FDB
:1082E00004460E4692460EB900BFFEE7022001F09A
:1082F0006BF807464648B7FBF0F8B8F13C0F01D3DE
:108300004FF03C08D4F804B02BF07F0B4BEA080B7D
:10831000C4F804B03F4886421ED83D48B7FBF0F091
:1083200000F10109B9F13C0F02D33C20206207E0C3
:10833000B9F1020F02D80220206201E0C4F82090B7
:108340007000B7FBF0F5042D00D20425E069C5F3F9
:108350000B010843E06158E02F4886422CD84FF4C7
:10836000967008FB00F04FF47A71B0FBF1F0401CFE
:108370002062BAF1000F08D106EB4600B7FBF0F51A
:10838000E06920F48040E06109E006EBC60000EB04
:108390000610B7FBF0F5E06940F48040E061C5F3FA
:1083A0000B0008B945F00105E06940F40040E061C8
:1083B000E0692843E06128E0C8EB0810C0004FF4F2
:1083C0007A71B0FBF1F0401C2062BAF1000F08D1C5
:1083D00006EB4600B7FBF0F5E06920F48040E06171
:1083E00009E006EBC60000EB0610B7FBF0F5E0690C
:1083F00040F48040E061E06940F40040E061E06901
:108400002843E0610120C4F89000BDE8F09F00001F
:1084100040420F00A0860100801A0600014608694C
:10842000C0B27047CAB202617047016841F00101F1
:108430000160704710B540F20152914202D1426989
:1084400082690AE000EB9112126801F01F04012317
:10845000A3409A4300EB91131A6010BD10B5024679
:1084600002EB9110006801F01F040123A3401840A3
:1084700008B1012010BD0020FCE712F1020F02D16B
:1084800021F0010101E041F001010161704730B5C7
:108490000C460021016821F0020121430160C3F371
:1084A000090342EA0305856030BD016841F480712B
:1084B00001607047016841F400710160704700007D
:1084C00010B5044640F2026001F02AF84FF4C06093
:1084D00001F026F840F2117001F022F80423032283
:1084E00018211F48FFF788FE0823032204211C4897
:1084F000FFF782FE1B4801F00DFD2146194801F0EF
:108500006BFC0021174801F04EFE0021154801F0D8
:108510003AFE0021134801F026FE0021114801F027
:10852000E4FD00210F4801F0D8FD04210D4801F0C1
:1085300022FE08210B4801F02EFE002209212620F0
:1085400000F0D8F84FF44171064801F0D6FD40F232
:108550000631044801F0D1FD024801F0B9FD10BD1B
:10856000000801400044004000B587B04FF4A0600F
:1085700000F0D6FF06213C48FFF71FF96846FFF7D9
:1085800085FA01208DF81A000020029001208DF854
:1085900019000020039004903448009000208DF8CA
:1085A000180001904FF4405005906A4606212E486D
:1085B000FFF73BF905212C48FFF7FFF86846FFF766
:1085C00065FA00208DF81A002948029001208DF8E4
:1085D0001900002003904FF480600490234800901D
:1085E00000208DF8180003904FF4405005906A4623
:1085F00005211D48FFF719F905211B48FFF7C4F8AD
:1086000005211948FFF71CFA06211748FFF7BCF8A7
:1086100006211548FFF714FA40211448001F01F005
:1086200047FD00221146102000F064F802220521C7
:108630000D48FFF791F905210B48FFF78CF88021D1
:108640000A48001F01F03CFD00221146112000F0F5
:1086500051F8022206210448FFF77EF9062102485C
:10866000FFF760F807B000BD00000240044400407E
:108670004C3C00201CB562B64FF4407000F09CF8F2
:1086800003220021012002F045F90F49086003226E
:108690000021012002F03EF90C490860032200216C
:1086A000012002F037F90A4908600A480121002335
:1086B0006422CDE9001008A10A4802F087FD01F00C
:1086C000D9FF00BFFEE700000000002004000020EA
:1086D0000800002018000020496E69745461736B13
:1086E00000000000A94D000810B5FFF715F8FCF7D1
:1086F000B5F810BD2DE9F04103460D46164600249D
:108700000027A0462A48006800F4E060B0F5E06F5A
:1087100003D100BF4FF0040830E02548006800F4A2
:10872000E060B0F5C06F03D101274FF0030825E0EA
:108730001F48006800F4E060B0F5A06F02D1022786
:10874000B8461BE01A48006800F4E060B0F5806F9E
:1087500003D103274FF0010810E01548006800F42A
:10876000E060B0F5407F03D104274FF0000805E03A
:108770004FF4A06000F020F80227B846C7F10400CB
:1087800005FA00F4C8F104010F20C840304004434A
:1087900024010848C45403F01F01012088405911E6
:1087A000890001F1E021C1F80001BDE8F08100007D
:1087B0000CED00E000E400E002490143024A1160D0
:1087C000704700000000FA050CED00E010B502480B
:1087D0000068FCF768FA10BD0C0000202DE9F0419C
:1087E00005460E461C4807681C480068001D01F03D
:1087F000E2FC50B91948006890F82C10012088401C
:1088000017490968814316480160681C38B936B1B8
:1088100012480168091D134801F00BFD1AE07C198C
:108820000E4800684460BC4207D20C480168091D2C
:108830000D48006801F0E3FC0CE008480168091DE0
:108840000A48006801F0DBFC09480068844201D254
:1088500007480460BDE8F0815C000020480000206B
:1088600060000020AC0F0020500000204C000020D1
:108870007800002010B5044601F0E8FC24480068A8
:10888000401C234908602348006840B9214804601F
:108890000846006801280DD100F00EFA0AE01E48D3
:1088A000006838B91B480068C06AE16A884201D88C
:1088B0001848046019480068401C184908600846B8
:1088C0000068206494F82C1001208840144909683D
:1088D000084313490860E16A01EB8101114A02EB88
:1088E0008100211D01F0A5FC01F0DAFC0A480068B6
:1088F00068B108480068C06AE16A884207D24FF050
:10890000805009490860BFF34F8FBFF36F8F10BDD0
:10891000580000204800002064000020740000205F
:1089200060000020BC0E002004ED00E010B501F056
:108930008DFC10480068D0B90F4801F050FC0F487A
:1089400001F04DFC0C480E4908600C480D490860C8
:1089500000220C210A2001F0DDFF064908600846CC
:10896000006820B108A10348006801F059FD01F03A
:1089700097FC10BD90000020C00F0020D40F0020F5
:10898000880000208C000020546D7251000000000F
:1089900010B516E001F05AFC0C48C068C468201DF0
:1089A00001F009FC0A480068401E094908600948AE
:1089B0000068401E0749086001F072FC204600F084
:1089C0005FF8044800680028E4D110BD980F00202B
:1089D000580000205400002070B504460D46206C5D
:1089E00070B1216CE0680144E160D4E90210884272
:1089F00001D32168E1602846226CE168FBF734FD71
:108A000070BD2DE9F04104460F4615464FF00008B1
:108A1000A66B206C48B9206800282CD1A06802F011
:108A2000C9FC80460020A06025E07DB93946226C53
:108A30006068FBF719FD216C606808446060D4E948
:108A40000101884217D32068606014E03946226C27
:108A5000E068FBF709FD216CE068411AE1602168DC
:108A6000E068884203D2216CA068411AE160022DBF
:108A700001D106B1761E701CA0634046BDE8F081AE
:108A800010B50446206B01F029FC204601F026FCBD
:108A900010BD01464A6A22B10A6B1268C2F1080091
:108AA00000E00020704700000146084A1268126882
:108AB0000AB9012200E000220A600A6822B9034ACA
:108AC0001268D268106800E000207047880000201B
:108AD00030B54FF42053174800F007042CB1C01DE7
:108AE00020F00700134C041B1B1B0246124C226093
:108AF0000024114D6C60D018083820F007000F4C8E
:108B0000206000240D4D2D686C600C4D2D682C608C
:108B10001146441A4C60094C24680C60084D4C689E
:108B20002C60084D4C682C604FF00044064D2C60C2
:108B300030BD0000E80F00209C000020A4000020B1
:108B4000AC000020A8000020B800002000BFFFF704
:108B50001FFF064800680128F9D94FF080500449EA
:108B60000860BFF34F8FBFF36F8FF0E7BC0E00209C
:108B700004ED00E02DE9F04106460D461746984603
:108B8000069C0DB9246000E02760E663256401219E
:108B9000204601F011FF84F84C80BDE8F0812DE9FA
:108BA000F05F82460E4690469B460A9F0C9C4FEA19
:108BB0008801A522206BFBF769FCA8F10100216B5D
:108BC00001EB800929F0070909F0070008B9012025
:108BD00000E0002050B900BF502080F31188BFF39F
:108BE0004F8FBFF36F8F00BF00BFFEE786B1002538
:108BF00007E0715D04F134004155705D00B902E099
:108C00006D1C0A2DF5D300BF00213D20015502E067
:108C1000002084F83400082F00D30727E762A764F8
:108C20000020E064201D01F0E7FA04F1180001F0D3
:108C3000E3FA2461C7F10800A061646200202065A6
:108C400084F854005A465146484600F0A7FB20607D
:108C50000B9808B10B980460BDE8F09F2DE9F04730
:108C600006460D4617469846DDE908940DB10120E9
:108C700000E0002050B900BF502080F31188BFF3FE
:108C80004F8FBFF36F8F00BF00BFFEE78CB1FFF7C0
:108C90004DFE2660A561C4F81C80C4F82090201DFC
:108CA00001F0AAFA2FB194F8280040F0040084F8EB
:108CB0002800BDE8F087000010B5002407E004EBB1
:108CC00084010F4A02EB810001F089FA641C082C30
:108CD000F5D30C4801F083FA0B4801F080FA0B48F9
:108CE00001F07DFA0A4801F07AFA0A4801F077FAB1
:108CF00004480949086004480849086010BD00009C
:108D0000BC0E00205C0F0020700F0020840F00209C
:108D1000980F0020AC0F00204C00002050000020D5
:108D200010B50146164800E0006803688B42FBD38B
:108D30000246436813448B4204D143684C68234481
:108D4000436001460A464B6813440468A34211D1AC
:108D50000C4C03682468A34208D04B68046864681C
:108D600023444B6003681B680B6005E0054B1B68E0
:108D70000B6001E003680B60884200D0016010BD09
:108D80009C000020A40000202DE9F04104460D467F
:108D900016461F464FF0000865602461B5420CD8A6
:108DA000F01BA169884202D34FF0010811E0211D98
:108DB0000948006801F023FA0BE0BE4204D2BD422C
:108DC00002D34FF0010804E0211D0448006801F0BF
:108DD00016FA4046BDE8F0818C0000208800002093
:108DE00070B5054601F032FAA86B08B9012400E01D
:108DF000002401F055FA204670BD70B5054601F01B
:108E000025FAA86BE96B884201D1012400E0002417
:108E100001F046FA204670BDF8B505460F461A48DF
:108E20000068C068C468201D01F0C5F994F82800E6
:108E300000F00400E8B1A06941192B463A462046EB
:108E4000FFF7A2FFD8B1002003462A460146009052
:108E5000204602F07FFC064656B900BF502080F342
:108E60001188BFF34F8FBFF36F8F00BF00BFFEE7C6
:108E700005E094F8280020F0010084F8280020463E
:108E8000216A8847F8BD00008800002070B586B0D0
:108E90008BE003980028FBDB059C606908B9012082
:108EA00000E0002010B9201D01F085F902A800F0B3
:108EB000DBF8054603980A2875D2DFE800F00905BB
:108EC0000739416306083A4200BF00BF00BF00BF38
:108ED00094F8280040F0010084F828000498A26962
:108EE000811803462A462046FFF74EFFF8B1204678
:108EF000216A884794F8280000F00400B8B10020E7
:108F000000900498A169421800231946204602F0F7
:108F100021FC064656B900BF502080F31188BFF3EC
:108F20004F8FBFF36F8F00BF00BFFEE700BF3BE076
:108F300000BF94F8280020F0010084F8280033E0F6
:108F400000BF94F8280040F0010084F8280004983D
:108F5000A061A06908B1012000E0002050B900BF65
:108F6000502080F31188BFF34F8FBFF36F8F00BF86
:108F700000BFFEE7A06941192B462A462046FFF7AD
:108F800003FF11E094F8280000F0020018B9204611
:108F900001F0A4F905E094F8280020F0010084F81D
:108FA000280001E0FFE700BF00BF002203A904483A
:108FB000006801F033FF00287FF46BAF06B070BD8E
:108FC00090000020F8B505460C4601F0A1FB68466C
:108FD00000F04AF80646009820BB44B9B54206D8CE
:108FE00002F0EEFA31462846FFF716FF1CE03CB1CE
:108FF0000E480068006808B9012000E0002004461F
:10900000A91B22460A48006801F020FA02F0D8FAAB
:1090100050B94FF0805007490860BFF34F8FBFF33E
:109020006F8F01E002F0CCFAF8BD00008C00002048
:109030009000002004ED00E009480068006808B9CD
:10904000012000E0002020B14FF0FF30054908600A
:1090500005E003480068C06800680249086070477E
:109060004C0000207800002070B5044602F0EEF8B5
:10907000054607480068854204D200F00BF801203D
:10908000206001E00020206001480560284670BD96
:10909000980000202DE9F84334E025480068C068B6
:1090A000056823480068C068C468201D01F083F883
:1090B0002046216A884794F8280000F0040008B38D
:1090C000A0694619AE4207D966602461211D18487F
:1090D000006801F094F815E0002003462A46014696
:1090E0000090204602F036FB074657B900BF5020DB
:1090F00080F31188BFF34F8FBFF36F8F00BF00BFA6
:10910000FEE700BF0A480068006808B9012000E0D7
:1091100000200028C1D00648D0F80080054800682B
:10912000034908600348C0F80080BDE8F8830000E8
:10913000880000208C0000200E480068401C08B900
:10914000012000E0002050B900BF502080F31188BA
:10915000BFF34F8FBFF36F8F00BF00BFFEE700BFAD
:10916000502080F31188BFF34F8FBFF36F8F00BF84
:1091700000BFFEE7BC00002008B500BF6846FFF74F
:1091800093FC044620460099FFF71CFFFFF77EFE84
:10919000F4E770B5044601F059F894F9455010E031
:1091A000606A08B9012000E0002038B904F1240009
:1091B00002F0BAF918B101F0A9F900E003E0681E65
:1091C00045B2002DECDC00BFFF2084F8450001F023
:1091D00067F801F03BF894F9445010E0206908B9B1
:1091E000012000E0002048B904F1100002F09CF9D1
:1091F00008B101F08BF9681E45B200E001E0002DD6
:10920000ECDC00BFFF2084F8440001F049F870BD99
:109210002DE9F04104464FF0000801F079FA514879
:10922000006808B9FFF754FC4F4800682040002848
:109230007ED13CB304F10800A04223D9083404F0E5
:10924000070000B304F00700C0F108002044A0426A
:1092500016D904F00700C0F10800044404F0070028
:1092600008B9012000E0002068B900BF502080F359
:109270001188BFF34F8FBFF36F8F00BF00BFFEE7B2
:10928000002400E00024002C54D0384800688442B8
:1092900050D8374E3046056801E02E462D68686884
:1092A000A04202D228680028F7D12E4800688542E3
:1092B00040D0306800F10808286830606868001BFA
:1092C000102819D92F1907F0070008B9012000E06C
:1092D000002050B900BF502080F31188BFF34F8F9A
:1092E000BFF36F8F00BF00BFFEE76868001B7860A8
:1092F0006C603846FFF714FD1C4968680968081A55
:109300001A490860084600681A490968884203D269
:1093100016480068174908601349686809680843D7
:1093200068600020286014480068401C124900E072
:1093300000E0086002F044F908F0070008B90120D5
:1093400000E0002050B900BF502080F31188BFF327
:109350004F8FBFF36F8F00BF00BFFEE74046BDE8F1
:10936000F0810000A4000020B8000020A800002028
:109370009C000020AC000020B000002006480068DF
:1093800030B10549096801F14C00C96C491C016004
:10939000014800687047000048000020001F4FF09F
:1093A00080730360001F21F001030360001F054B61
:1093B000036014380260001F6FF00203036020385E
:1093C00070470000399100082DE9F04F8CB0074636
:1093D00000200A904AA090E8004CC068CDE905BE84
:1093E000CDF810A007900FF21C1ADAE9000ACDE9B7
:1093F000020A0FF2101ADAE9000ACDE9000A44481D
:109400004068C0F381000B900B9820B1012804D074
:1094100002283FD103E03F4A3EE03E4A3CE03C4860
:10942000406800F4803CBCF5803F12D13848C06AE7
:1094300000F08048B8F1000F01D1364C00E0364C06
:109440003348406800F40039B9F5003F02D1334C8D
:1094500000E0324C2E484068C0F383412C484068FD
:1094600000F0006008B141F010012948406800F0A8
:10947000804008B141F020010F2901D2891C06E08B
:109480000F2903D33E2901D8491C00E03F2104FBEA
:1094900001F201E01F4A00BF00BF1D484068C0F351
:1094A000031504A8465D22FA06F319484068C0F384
:1094B000022502A8465D23FA06F009901448406888
:1094C000C0F3C2251DF8056023FA06F0089037B1F5
:1094D000012F06D0022F06D0032F0AD106E00A92F0
:1094E00008E00A9306E009980A9003E008980A90B9
:1094F00000E000BF00BF0A980CB0BDE8F08F00008C
:109500000000000000000000010203040607080933
:109510000010024000127A00006CDC0200093D00DD
:10952000064A02EB9011096800F01F0301229A40DD
:109530001143024B03EB9012116070470010024080
:10954000064A02EB9011096800F01F0301229A40BD
:109550009143024B03EB90121160704700100240E0
:10956000064A02EB9011096800F01F0301229A409D
:109570001143024B03EB9012116070470010024040
:1095800030B50146002000BF5024EFF3118384F36F
:109590001188BFF34F8FBFF36F8F00BF1A46074B81
:1095A00013F83130012B03D1044B03EBC10358688E
:1095B00000BF82F3118800BF30BD000018020020F8
:1095C00070B505462846FFF7DBFF044624B90AA01C
:1095D000FDF720FA002070BD002600231A46194628
:1095E000204601F035FA064626B90CA0FDF712FA1E
:1095F0000020F0E70120EEE773656D6170686F721F
:109600006520706F7374656420646F65736E277472
:109610002065786973740D0A0000000073656D6140
:1096200070686F726520706F73746564206661691D
:109630006C65640D0A00000010B540F20360FFF78E
:109640006FFF4FF4C060FFF76BFF4FF4007303220E
:1096500004210D48FEF7D0FD00220A211720FFF754
:1096600049F809210120FEF77BFD022200211002AA
:10967000FEF74EFA4FF40070FEF7B6FA4FF40070A2
:10968000FEF7AAFA10BD0000000C014008B506481C
:1096900001231A460A21009004A002F013F806499B
:1096A0000860FFF7C9FF08BDB74F00084B65795444
:1096B000696D657200000000240200200020002176
:1096C0003F4A126842F480323D4B1A6000BF401C92
:1096D0003B4A126802F4003119B94FF6FF7290420A
:1096E000F5D1374A126802F400320AB900BFFEE72A
:1096F000334AD26942F08052314BDA61314A126802
:1097000042F440422F4B1A602D4A52682C4B5A604B
:109710001A4652685A601A46526842F480625A6089
:109720001A46526822F440325A601A46526842F48D
:1097300040325A601A465268234B1A40204B5A60F6
:109740001A465268214B1A431D4B5A601A4612683A
:1097500042F080721A6000BF194A126802F000726B
:10976000002AF9D0174A126842F48032154B1A6069
:1097700000BF144A526802F48032002AF9D0114A1C
:10978000126842F400320F4B1A6000BF0D4A526853
:1097900002F40032002AF9D0094A526822F003028A
:1097A000074B5A601A46526842F002025A6000BFE4
:1097B000034A526802F00802002AF9D070470000FC
:1097C0000010024000700040FFFFC3B700003408E3
:1097D00010B5FFF773FF10BD016841F08001016013
:1097E0007047000010B531B101293FD002297DD06A
:1097F00003297CD1BFE0036A23F00103036283697C
:1098000023F003038361036A148823430362036A1A
:1098100023F002030362036A9488234303626A4BC2
:10982000984202D0694B98421FD1036A23F0040387
:109830000362036A548823430362036A23F0080324
:109840000362036AD48823430362436823F480736A
:1098500043604368148923434360436823F40073DF
:1098600043604368548923434360ABE0036A23F0B9
:1098700010030362836923F440738361036A1488CD
:1098800043EA04130362036A23F020030362036ABA
:10989000948843EA041303624B4B984202D04B4B2B
:1098A000984226D1036A23F040030362036A548876
:1098B00043EA04130362036A23F080030362036A2A
:1098C000D48843EA04130362436823F4806343604B
:1098D0004368148943EA84034360436823F40063C4
:1098E00043604368548943EA840301E002E068E08E
:1098F000436067E0036A23F480730362C36923F063
:109900000303C361036A148843EA04230362036AFE
:1099100023F400730362036A948843EA0423036216
:10992000294B984202D0294B984223D1036A23F451
:1099300080630362036A548843EA04230362036A70
:1099400023F400630362036AD48843EA04230362B6
:10995000436823F4805343604368148943EA041343
:109960004360436823F4005343604368548943EAE7
:109970000413436026E0036A23F480530362C3693F
:1099800023F44073C361036A148843EA0433036217
:10999000036A23F400530362036A948843EA04339E
:1099A0000362094B984202D0084B984208D14368A1
:1099B00023F4804343604368148943EA841343607B
:1099C00000E000BF00BF10BD002C0140003401408A
:1099D00031B101290CD0022913D0032922D118E07A
:1099E000836923F0700383618369134383611AE001
:1099F000836923F4E0438361836943EA022383613B
:109A000011E0C36923F07003C361C3691343C361E9
:109A100009E0C36923F4E043C361C36943EA022355
:109A2000C36100E000BF00BF704731B1012906D01B
:109A3000022906D0032908D105E0426306E08263CB
:109A400004E0C26302E0026400E000BF00BF7047B0
:109A500031B101290CD0022913D0032922D118E0F9
:109A6000836923F0080383618369134383611AE0E8
:109A7000836923F400638361836943EA022383617A
:109A800011E0C36923F00803C361C3691343C361D1
:109A900009E0C36923F40063C361C36943EA022395
:109AA000C36100E000BF00BF7047000000B587B091
:109AB00040F20170FFF734FD2A4800F055F8772096
:109AC000ADF800000020ADF80200ADF8040040F24F
:109AD000E73002900020ADF806008DF80C006946D2
