:020000040800F2
:10400000C04D002025420008ED4D0008094C000875
:10401000E94D0008014600084F5400080000000068
:1040200000000000000000000000000065410008E2
:104030001948000800000000C1410008B9520008FA
:104040003F4200083F4200083F4200083F4200084C
:104050003F4200083F4200083F42000879480008FC
:104060003F4200083F4200083F4200083F4200082C
:104070003F4200083F4200085947000879470008BE
:10408000A5470008C54700083F4200083F42000816
:104090003F4200083F4200083F4200083F420008FC
:1040A0003F4200083F4200083F4200083F420008EC
:1040B0003F4200083F4200083F4200083F420008DC
:1040C0003F4200083F4200083F4200083F420008CC
:1040D0003F42000865530008D95300083F420008DA
:1040E0003F4200083F4200083F4200083F420008AC
:1040F0003F4200083F4200083F4200080000000025
:104100003F420008000000003F4200083F42000814
:104110003F4200083F4200083F4200083F4200087B
:104120003F4200083F4200083F4200083F4200086B
:104130003F4200083F4200083F4200083F4200085B
:104140003F4200083F4200083F4200083F4200084B
:10415000DFF80CD000F0DEF900480047CD80000801
:10416000C04D00202C4B19680868B0E8F04F80F370
:104170000988BFF36F8F4FF0000080F311887047FC
:104180000000000008480068006880F308884FF0CD
:10419000000080F3148862B661B6BFF34F8FBFF39F
:1041A0006F8F00DF00BF00BF08ED00E0DFF80C00FC
:1041B000016841F470010160704700BF88ED00E0C4
:1041C000EFF30980BFF36F8F134B1A681EF0100FC7
:1041D00008BF20ED108A20E9F04F106009B44FF0BD
:1041E000500080F31188BFF34F8FBFF36F8F05F03E
:1041F00065FC4FF0000080F3118809BC196808685D
:10420000B0E8F04F1EF0100F08BFB0EC108A80F33A
:104210000988BFF36F8F704744000020EFF30580DB
:10422000704700000648804706480047FEE7FEE763
:10423000FEE7FEE7FEE7FEE7FEE7FEE7FEE7FEE756
:10424000F152000851410008002800D170470029B0
:1042500000D17047002A00D170472DE9F81F00F007
:10426000030301F00304A34211D1C3F1040303F0DB
:104270000303012B1DD3012A00D2F2E011F8014BF8
:1042800000F8014BA3F10103A2F10102F1E700F0F4
:10429000010301F00104A34200D094E0012B44D3B8
:1042A00011F8014B00F8014BA3F10103A2F1010247
:1042B000F4E7B2F5B47F26D3B1E8F81FA0E8F81F01
:1042C000B1E8F81FA0E8F81FB1E8F81FA0E8F81F50
:1042D000B1E8F81FA0E8F81FB1E8F81FA0E8F81F40
:1042E000B1E8F81FA0E8F81FB1E8F81FA0E8F81F30
:1042F000B1E8F81FA0E8F81FB1E8F81FA0E8F81F20
:10430000A2F5B472D5E7282A06D3B1E8F81FA0E8D1
:10431000F81FA2F12802F6E7042A06D351F8043B5D
:1043200040F8043BA2F10402F6E7202A42D331F818
:10433000023B20F8023B31F8023B20F8023B31F807
:10434000023B20F8023B31F8023B20F8023B31F8F7
:10435000023B20F8023B31F8023B20F8023B31F8E7
:10436000023B20F8023B31F8023B20F8023B31F8D7
:10437000023B20F8023B31F8023B20F8023B31F8C7
:10438000023B20F8023B31F8023B20F8023B31F8B7
:10439000023B20F8023B31F8023B20F8023B31F8A7
:1043A000023B20F8023B31F8023B20F8023BA2F12D
:1043B0002002BAE7022A06D331F8023B20F8023B7A
:1043C000A2F10202F6E7102A42D311F8013B00F8ED
:1043D000013B11F8013B00F8013B11F8013B00F8EB
:1043E000013B11F8013B00F8013B11F8013B00F8DB
:1043F000013B11F8013B00F8013B11F8013B00F8CB
:10440000013B11F8013B00F8013B11F8013B00F8BA
:10441000013B11F8013B00F8013B11F8013B00F8AA
:10442000013B11F8013B00F8013B11F8013B00F89A
:10443000013B11F8013B00F8013B11F8013B00F88A
:10444000013B11F8013B00F8013BA2F11002BAE771
:10445000012A06D311F8013B00F8013BA2F1010249
:10446000F6E7BDE8F81F704740EA01039B0703D059
:1044700009E008C9121F08C0042AFAD203E011F8A3
:10448000013B00F8013B521EF9D27047D2B201E065
:1044900000F8012B491EFBD270470022F6E710B549
:1044A00013460A4604461946FFF7F0FF204610BDA2
:1044B0002DE9F05F0546002092469B468846064659
:1044C000814640241BE0284641464746224600F0EC
:1044D00042F853465A46C01A914110D31146184625
:1044E000224600F029F82D1A67EB01084F462246B4
:1044F0000120002100F020F817EB00094E41201E9A
:10450000A4F10104DFDC484631462A464346BDE8B3
:10451000F09F0000064C074D06E0E06840F0010304
:1045200094E8070098471034AC42F6D3FFF714FE26
:1045300098AC0008B8AC0008202A04DB203A00FA46
:1045400002F1002070479140C2F1200320FA03F3EA
:10455000194390407047202A04DB203A21FA02F0E8
:104560000021704721FA02F3D040C2F120029140AD
:1045700008431946704770B58C1810F8015B15F0A8
:10458000070301D110F8013B2A1106D110F8012BC5
:1045900003E010F8016B01F8016B5B1EF9D12B07EA
:1045A00005D40023521E0DD401F8013BFAE710F8A0
:1045B000013BCB1A921C03E013F8015B01F8015B8D
:1045C000521EF9D5A142D8D3002070BD70B5002588
:1045D000084803F06DF804460748844201D1074DAE
:1045E00005E00648844201D1034D00E0024D284613
:1045F00070BD000000E00308004000080010020841
:1046000000BFFEE770B502464FF6FF7041F221048D
:10461000002513E012F8015B80EA052000230BE07F
:1046200000F400461EB184EA4006B0B203E04FF643
:10463000FF7606EA40005B1C082BF1DB0B1EA1F1A4
:104640000101E7D170BD10B5024641F2210381EAB4
:10465000022100200BE001F400441CB183EA410474
:10466000A1B203E04FF6FF7404EA4101401C0828A0
:10467000F1DB084610BD06E000F0B4F800F0C4F825
:10468000142005F0D7F8F7E7704700002DE9F04354
:10469000CBB00646894615460024002702F0FEFFEF
:1046A0008046A5222146641C0DF801202146641C89
:1046B0000DF8012005F10800C0F307222146641C13
:1046C0000DF80120C2B22146641C0DF801204FEA0A
:1046D00018222146641C0DF8012008F0FF02214633
:1046E000641C0DF80120320A2146641C0DF80120DB
:1046F000F2B22146641C0DF801200DEB04002A469D
:104700004946FFF7A1FD601984B2A91D0DF1020011
:10471000FFF778FF07463A0A2046611C8CB20DF875
:104720000020FAB22046611C8CB20DF800205A22FB
:104730002046611C8CB20DF800205A200DF80400B0
:1047400005F10A0269460348006800F0BBF84BB067
:10475000BDE8F0831400002010B5022203210548B3
:1047600002F075FE20B101220321024802F067FE2B
:1047700010BD00000000024010B5022204210748CD
:1047800002F065FE40B10648006800F0B6F901226B
:104790000421024802F053FE10BD00000000024058
:1047A0000C00002010B502220521054802F04FFE42
:1047B00020B101220521024802F041FE10BD000097
:1047C0000000024010B502220621054802F03FFE1B
:1047D00020B101220621024802F031FE10BD000086
:1047E0000000024010B506E00648006800F01DF920
:1047F000044600F039FC0348006800F0BDF80028CA
:10480000F2D110BD1000002010B50248006800F081
:10481000A3F910BD14000020704700002DE9F041FD
:1048200004460E461546C4F30A01114A505C2A4656
:104830003146FFF709FD0F48008828440D490880DC
:1048400008460088B0F5006F01D0FF2D0CD8FFF7A7
:10485000BDFE0746381907490A88054902F02BFFB3
:1048600000200449088000BF6019BDE8F081000005
:1048700030400020E601002008B5022002F0FCFED6
:10488000A8B169460A48006805F014FC072003F047
:1048900057FC022002F0EAFE009838B14FF0805039
:1048A00004490860BFF34F8FBFF36F8F00BF08BD8F
:1048B0000000002004ED00E003E04FF47A7004F003
:1048C000B9FFFAE72DE9F04104460D4616464FF0D0
:1048D00000083146204600F029F820B31DB300BF80
:1048E0005022EFF3118182F31188BFF34F8FBFF392
:1048F0006F8F00BF08460DE0E2682168B1FBF2F35C
:1049000002FB13172978A268D1552168491C216040
:104910006D1C761E002EEFD100BF80F3118800BF02
:104920004FF0010800BF4046BDE8F081F0B50446F5
:104930000E4600BF5021EFF3118081F31188BFF3C1
:104940004F8FBFF36F8F00BF054654B1204600F074
:1049500013F8E168081AB04201D3012002E00020F8
:1049600000E00020074600BF85F3118800BF3846ED
:10497000F0BD016142617047F0B5014699B100BFD9
:104980005026EFF3118586F31188BFF34F8FBFF3E5
:104990006F8F00BF2C460A684B68D01A254685F3F6
:1049A000118800BF00E00020F0BD70B5054600BFD3
:1049B0005021EFF3118081F31188BFF34F8FBFF3C4
:1049C0006F8F00BF04463DB12846FFF7D5FF08B9F9
:1049D000012002E0002000E00120064600BF84F331
:1049E000118800BF304670BD70B5044600BF50202E
:1049F000EFF3118180F31188BFF34F8FBFF36F8FF7
:104A000000BF0D464CB12046FFF7B6FFE168884273
:104A100001D1012002E0002000E00120064600BF95
:104A200085F3118800BF304670BD70B5044600267E
:104A30002046FFF7BAFFD8B900BF5022EFF311812B
:104A400082F31188BFF34F8FBFF36F8F00BF08460B
:104A5000E2686168B1FBF2F302FB1315A1684E5DD9
:104A60006168491C6160014681F3118800BF00BF85
:104A7000304670BD70B5B8B1B1B1AAB100BF502514
:104A8000EFF3118485F31188BFF34F8FBFF36F8F5E
:104A900000BF23460024046044608160C2601C465D
:104AA00084F3118800BF00BF70BDF0B504460D4609
:104AB000002704B32046FFF797FFE0B900BF50225C
:104AC000EFF3118182F31188BFF34F8FBFF36F8F24
:104AD00000BF0846E2682168B1FBF2F302FB13163F
:104AE000A1688D552168491C2160014681F3118818
:104AF00000BF012700BF3846F0BDF0B5ADF2044D50
:104B00000546686910B90DF2044DF0BD0026002776
:104B100001A869698847064600BF5021EFF311805C
:104B200081F31188BFF34F8FBFF36F8F00BF04462F
:104B30002846FFF721FFA989081A87B2BE4200DD87
:104B40003E46324601A92846FFF7BCFE00BF84F36B
:104B5000118800BF00BFD6E770B50446206900B9D0
:104B600070BD2046FFF708FF002839D000BF502154
:104B7000EFF3118081F31188BFF34F8FBFF36F8F75
:104B800000BF0546E1682068B0FBF1F201FB1200AE
:104B90002060E1686068B0FBF1F201FB1200606028
:104BA000D4E9000188420BD2A389A6889B1B99B245
:104BB000D4E9016398192269904700206060CFE72B
:104BC0002388A6889B1B99B2D4E9016398192269AE
:104BD00090472068606000BF85F3118800BF00BF68
:104BE00000BFBDE770B504460D46FFF7EFFC064673
:104BF00029463046FFF706FDA04203D101F0A2FA94
:104C0000002070BD0120FCE700BFFEE71CB50022BC
:104C1000474948480068FFF7ACFE4FF480624649B8
:104C200044480068FFF726FF444A002144480068D2
:104C3000FFF79FFE4FF48062424941480068FFF74A
:104C400019FF0022404941480068FFF792FE4FF4E7
:104C500080623F493D480068FFF70CFF4FF4E120B8
:104C600002F0A0FC4FF4E12002F0AEFA394802F065
:104C700083FA40F2046004F057F94FF40053032222
:104C80001021354802F0ECFF4FF400503249086122
:104C900040F2036004F048F94FF4807303221021BE
:104CA0002E4802F0DDFF4FF480702C49143108606B
:104CB0002B48042100236422CDE9001029A12C48AF
:104CC00005F052FC2B48022100236422CDE900109C
:104CD00029A12B4805F048FC2A480321002364221F
:104CE000CDE9001028A12C4805F03EFC2B480521F9
:104CF00000234FF48062CDE9001029A12D4805F072
:104D000033FC2D4801682DA001F0DEFB0FE04FF4CD
:104D10000050114948614FF47A7004F08BFD4FF454
:104D200000500D4908614FF47A7004F083FDEEE7FE
:104D3000A59000080C00002030020020E59000083B
:104D400010000020480600203591000814000020C3
:104D5000600A00200054004000100140000C014097
:104D600024000020564C36313830785461736B0083
:104D7000BD5600081C0000204C6F675461736B0027
:104D8000DB4D000820000020456D657267656E638D
:104D9000795461736B000000B948000828000020B6
:104DA000436F6D6D756E69636174696F6E54617385
:104DB0006B0000007746000800E0030841505020D7
:104DC00043757272656E74204164647265737320FA
:104DD0003D20307825780A00704704E003F028FA77
:104DE000642004F027FDF9E700BFFEE770470000EC
:104DF0002DE9F05F05460C4693464FF0000A284621
:104E0000B5F5A06F0BD0A0F20250002855D00128B4
:104E100021D0A0F5FE40FE38002876D174E020783D
:104E200040B23B4908704FF405403A490880384881
:104E300000783949087000204870280A8870CD70C1
:104E400004203649088008460288334931480088E2
:104E5000FFF71CFC59E0207840B22D4908706078BB
:104E60000006A17840EA0140E17840EA012021797A
:104E700040EA0106A079617940EA01273A46E11D3E
:104E80003046FFF7CBFC264908604FF40540214926
:104E900008801F4800782049087000204870280AC0
:104EA0008870CD7004201D490880084602881A4980
:104EB00018480088FFF7EAFB27E0207840B2144941
:104EC0000870A078617840EA0128154801684046DA
:104ED000FFF788FE81464FF405400E4908800C48D4
:104EE00000780D490870084680F80190280A8870FB
:104EF000CD70042009490880084602880649054803
:104F00000088FFF7C3FB00E000BF00BFBDE8F09FD3
:104F10000C020020EE0100203C490020EC010020A2
:104F200010020020704700000EB52448407980B17F
:104F30002248008821498978204AD278CDE9002189
:104F400002901E48037942791DA1224801F0CCFA53
:104F500032E01A48007968B1184800881749897802
:104F6000CDE900101548C37802791BA1194801F05A
:104F7000BBFA21E01148C07850B110480088009079
:104F80000E488378C27818A1124801F0ADFA13E0F8
:104F90000A48807838B109480388827815A10D48FD
:104FA00001F0A2FA08E00548008828B10348028809
:104FB00012A1084801F098FA06480EBDC40000206E
:104FC0005B25643A25643A25643A25643A25645D94
:104FD00000000000CC3700205B25643A25643A25A8
:104FE000643A25645D0000005B25643A25643A2537
:104FF000645D00005B25643A25645D005B25645DAB
:105000000000000017480088401C16490880084628
:105010000088B0F57A7F23D108468078401C8870DC
:1050200000200880084680783C2819D10846C078BE
:10503000401CC870002088700846C0783C280FD1FA
:1050400008460079401C08710020C87008460079A5
:10505000182805D108464079401C48710020087185
:1050600070470000C400002070B50446684800780E
:105070000D2878D2DFE800F0070D1B293947576566
:10508000789299A2AC00A52C02D101206049087049
:10509000BCE0A52C07D102205D4908704FF6FF70D7
:1050A0005C49488102E0002059490870AEE02002C6
:1050B00058490880084641892046FFF7C4FA5549F7
:1050C0004881032052490870A0E0524800882044DB
:1050D00050490880084641892046FFF7B4FA4D49F7
:1050E000488104204A49087090E0200249494880DC
:1050F000084641892046FFF7A6FA4649488105201F
:105100004349087082E04348408820444149488030
:10511000084641892046FFF796FA3E494881062015
:105120003B49087072E020023A498880084641896C
:105130002046FFF788FA374948810720344908702C
:1051400064E0344880882044324988800020C88048
:10515000084641892046FFF776FA2E494881082003
:105160002B49087052E04DE02A48C188C088401C95
:10517000284AD08002F10C0044540C384189204662
:10518000FFF761FA234948810846C188008808383A
:10519000814202D109201E49087037E020021D49D2
:1051A00008810A201A49087030E01A480089204412
:1051B000184908810B201649087027E05A2C03D1A2
:1051C0000C201349087002E00020114908701DE00E
:1051D0005A2C13D10F4800890E49498988420DD1B4
:1051E0000C488088C0F303250A49CA8888880A4980
:1051F00051F8253007490C31984700BF0020044979
:10520000087003E000200249087000BF00BF70BDB5
:10521000E801002030480020F401002010B55220A1
:1052200023490870084604784FF4807021490860CB
:10523000052004F0FFFA4FF480701E49091F086032
:10524000052004F0F7FA00BF012004F0F3FA184833
:10525000007800F03DFB00211548007800F0A4FA2A
:105260001348007800F096FB01211148007800F007
:10527000B1FE01210E48007800F070FD00210C48BD
:10528000007800F07FFC07210948007800F07CFAE4
:105290000748007800F0DDFC00210548007800F0A8
:1052A0005DFD01210248007800F06EFA10BD00009B
:1052B000E4010020140C014010B5FFF7A3FE00BF6D
:1052C000502080F31188BFF34F8FBFF36F8F00BF63
:1052D00005F090F918B14FF080500449086000BF04
:1052E000002080F3118800BF10BD000004ED00E035
:1052F00008B51848006840F4700016490860164860
:10530000006840F00100144908600846406840F019
:10531000800048600020009002E00098401C00904F
:1053200044F6206100988842F7D300200A4948607B
:10533000C8620846006809490840074908604FF4F8
:105340001F0088600846006820F48020086003F091
:10535000A5FE08BD88ED00E000100240FFFFF6FE4C
:105360007047000008B51649164804F0AEF860B161
:1053700015480068FFF7C1FB1149124804F098F87E
:10538000104800680F48001D006810490D4804F0DF
:105390009CF898B169460E48006804F08BFE0B49F2
:1053A000084804F085F8009838B14FF0805009495A
:1053B0000860BFF34F8FBFF36F8F00BF08BD0000C1
:1053C00004030400003801400C000020060306001E
:1053D0000800002004ED00E008B51649164804F066
:1053E00074F860B115480068FFF787FB114912484F
:1053F00004F05EF8104800680F48001D006810496E
:105400000D4804F062F898B169460E48006804F04F
:1054100051FE0B49084804F04BF8009838B14FF0A2
:10542000805009490860BFF34F8FBFF36F8F00BFF3
:1054300008BD0000040304000044004010000020E8
:10544000060306000400002004ED00E0704700BFE2
:10545000FEE700002DE9F04105460F4616461C46C2
:105460004FF47A705249086000BF286800F4007059
:1054700038B14F4801680068401E4D4A106000294D
:10548000F3D14FF47A704A49086000BF40F20161DD
:10549000284602F00FFD38B1454801680068401EFB
:1054A000434A10600029F1D1284602F02AFD4FF44A
:1054B0007A703F49086000BF4FF4A061284602F0AF
:1054C000F9FC38B93A4801680068401E384A106053
:1054D0000029F1D101223946284602F0FAFC4FF4A6
:1054E0007A703349086000BF40F20151284602F04B
:1054F000E1FC38B92E4801680068401E2C4A106053
:105500000029F1D140F20151284602F0BFFC32E0FF
:10551000012C16D14FF47A702549086000BF40F283
:105520000251284602F0C6FC38B9214801680068DB
:10553000401E1F4A10600029F1D10021284602F0C8
:10554000EDFB4FF47A701A49086000BF40F2065133
:10555000284602F0AFFC38B9154801680068401EC3
:10556000134A10600029F1D1284602F083FC06F8A6
:10557000010B601EC4B2002CCAD1284602F0C6FC42
:105580004FF47A700A49086000BF286800F4007080
:1055900038B1074801680068401E054A10600029BC
:1055A000F3D10121284602F0B9FB0020BDE8F081CB
:1055B000CC0000202DE9F04105460F4614461E465A
:1055C0004FF47A703C49086000BF40F20161284600
:1055D00002F070FC38B1384801680068401E364A55
:1055E00010600029F1D1284602F08BFC4FF47A704C
:1055F0003149086000BF4FF4A061284602F05AFC10
:1056000038B92D4801680068401E2B4A10600029F7
:10561000F1D16FF001023946284602F05AFC4FF4EE
:105620007A702549086000BF40F20151284602F017
:1056300041FC38B9204801680068401E1E4A1060CD
:105640000029F1D140F20151284602F01FFC17E079
:105650002178284602F012FC4FF47A70164908604F
:1056600000BF40F20751284602F024FC38B9124826
:1056700001680068401E104A10600029F1D1641CC6
:10568000301EA6F10101CEB2E2D1284602F03EFC66
:105690004FF47A700849086000BF286800F4007071
:1056A00038B1054801680068401E034A10600029AF
:1056B000F3D10020BDE8F081CC0000208AB0FFF7D4
:1056C000ADFD01F035FD3DE04FF0FF311E480068B3
:1056D00004F026FE69461D48007800F091F9029812
:1056E000E0B9009C1A4800684DF69911484342F20F
:1056F000676104FB0100001415490860084615A104
:105700000268164800F0F0FE00BFFFF70DFC0446EB
:10571000214613A0009A00F0D7FE09E00B48057857
:10572000029C224615A1174800F0DEFE00BF00BF14
:1057300001210648007800F027F800220A210720FE
:1057400002F00AFDC0E7000000000020E401002094
:105750003400002072253364000000002C0000207B
:10576000257352616E6765446174612E72616E6764
:10577000655F6D6D203D2025640A0000452D2530B4
:10578000326400003800002070B506460C46072C35
:1057900006DC22461521304600F092FC054601E069
:1057A0006FF00105284670BD10B50246014CE1744A
:1057B000002010BD1C0100202DE9F04180460C4660
:1057C00016460C4890F8780058B14D2C09DB842C13
:1057D00007DCA4F14D00074979310F5C37700025D3
:1057E00005E032462146404600F03CFA0546284690
:1057F000BDE8F0811C0100202DE9F04180460C46F7
:105800001646124890F87800B0B14D2C14DB812C6C
:1058100012DCA4F14D010D4A79328818017809068D
:10582000427841EA0241827841EA0221C27841EAA3
:1058300002073760002505E032462146404600F069
:105840002DFA05462846BDE8F08100001C01002025
:105850002DE9F04180460C4617460E4890F8780036
:1058600078B14D2C0DDB832C0BDCA4F14D01094AE2
:10587000793288184178027841EA02263E80002574
:1058800005E03A462146404600F049FA05462846DA
:10589000BDE8F0811C01002070B504460D46164697
:1058A00033462A4621460248FFF7D4FD70BD00006A
:1058B0000054004070B504460D46164633462A464D
:1058C00021460248FFF776FE70BD000000540040FC
:1058D0002DE9FF41074655202C4908816420488165
:1058E00000212A480174012028498874C87481F86D
:1058F000C400384600F00CFD00BF03AA242138463E
:1059000000F0B0F9044604B13BE09DF90C001F49DA
:1059100081F8C50001AA2621384600F0BFF90446E7
:1059200004B12EE001986FF30F0008B918480190F8
:105930001649019808606A461E21384600F0EFF9C2
:10594000044604B11DE0BDF800004FF47A714843ED
:10595000C6090E484660384600F050FC0546002D4A
:1059600000DA0EE002AA1621384600F07BF9044660
:1059700004B106E09DF80800012800D105B101241A
:1059800000BF00BF204604B0BDE8F0811C0100202C
:10599000F803CE0070B5054600BF284600F006FAB1
:1059A0000446002C00DA17E00421284600F017F81E
:1059B000044604B110E0C8220A21284600F023F969
:1059C000044604B108E0284600F0E8FD0721284617
:1059D000FFF7DAFE044600BF00BF204670BD70B579
:1059E00006460C46042C07DC2346F82214213046D8
:1059F00000F0FAF9054601E06FF00105284670BD98
:105A00007CB506460C46304600F0A8FB054605B1BD
:105A10003FE02146304600F043F80546002D36D1E0
:105A200001AA66213046FFF713FF054675BBBDF896
:105A3000040060606A464D213046FFF7BDFE054612
:105A400025B99DF800000011A06000E000BF2146CC
:105A5000304600F0D1FC054605B11AE00F48C07C85
:105A600058B12146304600F063FD05462DB9606A05
:105A700018B1606AA060208C2060084890F8C400CB
:105A800030B12146304600F08BFB01E000E000BF62
:105A900000BF304600F07CFB28467CBD1C01002086
:105AA000F8B507460C466A4662213846FFF784FE81
:105AB000054635B90448867C9DF8000016FB00F0C9
:105AC00020602846F8BD00001C0100202DE9FF5F82
:105AD00081464FF47A700390401002901F48B0F84E
:105AE00008A0B0F80AB000BF6A461C21484600F082
:105AF000B9F8044604B12CE09DF80080484600F057
:105B000043FC0546002D02DA4FF0FF3421E008EB9C
:105B10004800C0EBC810C5EBC00601AAB821484632
:105B200000F0BCF8044604B113E0019800020190B3
:105B30004FF4FA710AFB01F00199484306FB0BF19F
:105B4000B0FBF1F7BAB22221484600F0E5FA04466C
:105B500000BF00BF204604B0BDE8F09F1C0100203C
:105B60002DE9F04107460D460DB1012400E0002467
:105B70002346FE222D21384600F036F906463046EF
:105B8000BDE8F0812DE9F04107460C4600BF40F624
:105B9000F610844202D96FF0010515E00A2C00D2FC
:105BA0000A240A20B4FBF0F0C6B232461B21384664
:105BB00000F086FA054605B105E00A20B4FBF0F0D6
:105BC000B04200D0022500BF00BF2846BDE8F081EA
:105BD00070B506460D46002400BF2A461C213046FB
:105BE00000F06EFA044604B10AE03046FFF76EFF9B
:105BF000044604B104E0304600F000FB044600BF58
:105C000000BF204670BD2DE9F04106460C46174600
:105C10003A461921304600F053FA05462DB922467E
:105C20001A21304600F04CFA05462846BDE8F081BE
:105C300070B506460D46032D07DC2A46182130466E
:105C400000F03EFA044614B101E06FF00104204672
:105C500070BD70B5044603212046FFF7E9FF0546F5
:105C6000284670BD2DE9FC4180460D4617466C461E
:105C7000281220706570022221464046FFF71AFE66
:105C8000064646B9012221464046FFF705FE064674
:105C90000EB9207838703046BDE8FC812DE9FC4112
:105CA00080460D4617466C46281220706570022209
:105CB00021464046FFF7FEFD06468EB904222146E6
:105CC0004046FFF7E9FD064656B9207800066178A0
:105CD00040EA0140A17840EA0120E17808433860B9
:105CE0003046BDE8FC812DE9FC4781460C4616464E
:105CF0001F466D46201228706C70022229464846C5
:105D0000FFF7D8FD8046B8F1000F05D1FAB2314651
:105D10004846FFF7C1FD80464046BDE8FC872DE9B7
:105D2000FC4180460D4617466C462812207065706F
:105D3000022221464046FFF7BDFD06465EB902221B
:105D400021464046FFF7A8FD064626B9607821782F
:105D500040EA012038803046BDE8FC812DE9F04161
:105D600007460D460DB1012400E00024224617210C
:105D7000384600F0A5F906463046BDE8F0810246F7
:105D800000204FF0804100E089089142FCD809E0F2
:105D90004318934204D84318D21A01EB500000E094
:105DA000400889080029F3D17047000070B5064605
:105DB00000250C48807C012800D100BF304600F04F
:105DC00063F90446002C00DA09E0002C00DD00BF76
:105DD000002D00DA00BF0DB904B1254600BF2846EA
:105DE00070BD00001C0100202DE9FC4781460D46D6
:105DF000174698466C46281220706570022221468C
:105E00004846FFF757FD06468EB90122A11C4846B9
:105E1000FFF742FD064656B9A078384040EA080030
:105E2000A070032221464846FFF744FD064630464F
:105E3000BDE8FC8710B50446012240F20721204648
:105E400000F03EF901224FF40271204600F038F9CB
:105E500000229621204600F033F954229721204653
:105E600000F02EF90022E321204600F029F9042257
:105E7000E421204600F024F90222E521204600F02A
:105E80001FF90122E621204600F01AF90322E7213A
:105E9000204600F015F90222F521204600F010F905
:105EA0000522D921204600F00BF9204600F0FCFA2B
:105EB00000229F21204600F003F92822A32120463A
:105EC00000F0FEF80022B721204600F0F9F8282261
:105ED000BB21204600F0F4F80922B221204600F050
:105EE000EFF80922CA21204600F0EAF801224FF417
:105EF000CC71204600F0E4F817224FF4D871204608
:105F000000F0DEF8002240F2AD11204600F0D8F893
:105F10000522FF21204600F0D3F805224FF48071BE
:105F2000204600F0CDF8052240F29911204600F0FD
:105F3000C7F81B224FF4D371204600F0C1F83E226F
:105F40004FF4D671204600F0BBF81F2240F2A71193
:105F5000204600F0B5F800223021204600F0B0F8CD
:105F600010221121204600F0ABF830224FF4857149
:105F7000204600F0A5F846223F21204600F0A0F878
:105F8000FF223121204600F09BF863224021204669
:105F900000F096F801222E21204600F091F8FF2211
:105FA0002C21204600F08CF809221B21204600F00D
:105FB00087F831223E21204600F082F82422142165
:105FC000204600F07DF832212046FFF701FE002038
:105FD00010BD00002DE9F04781460C46012C4ADB3C
:105FE000032C48D8601E264931F810703A46962195
:105FF000484600F091F805462248847490F9C5009F
:1060000090FBF4F04FFA80F808F0FF022421484694
:1060100000F056F8054655B9142090FBF4F000F056
:10602000FF0A52462121484600F04AF805468DB93C
:106030001448007C70B113488689807C96FBF0F090
:1060400086B2FF2E00DDFF26F2B22521484600F081
:1060500037F805464DB9012C01D1012000E00020A0
:1060600001464846FFF77CFD054635B900BF012CC7
:1060700003D0032501E06FF001052846BDE8F08755
:1060800028AB00081C01002070B5054600BF28465B
:10609000FFF7D0FE044604B100E000BF00BF54B9D2
:1060A0000648817C2846FFF795FF0446002216210A
:1060B000284600F005F8204670BD00001C010020B5
:1060C0002DE9FC4107460D4616466C462812207005
:1060D0006570A670032221463846FFF7EBFB804629
:1060E0004046BDE8FC812DE9FC4107460E461546B9
:1060F0006C46301220706670280EA070280CE0707C
:10610000280A20716571062221463846FFF7D2FB26
:1061100080464046BDE8FC812DE9FC4107460D461E
:1061200016466C462812207065703012A070E6701A
:10613000042221463846FFF7BDFB80464046BDE8B5
:10614000FC81000008B5FEF741FA00900422694680
:10615000014801F0B0FA08BD00E0030870B506463A
:106160000A4890F8780068B90120084981F8780059
:1061700001F1790538232A464D213046FFF7B3FD5A
:10618000044600E00024204670BD00001C010020F1
:106190000021024A82F87810704700001C0100209C
:1061A0002DE9F04781460D46EF681148874219D224
:1061B0003946484600F0B4F804460E4890F812807C
:1061C000A8F101000C4931F810600A48B0F8C0008D
:1061D000A04202DA0748B0F8C040B44200DD3446BD
:1061E000EC6101E00020E8610020BDE8F0870000DC
:1061F000100905001C0100202EAB00082DE9F04F0E
:1062000087B082464FF0000B00BF06AA2A215046F5
:10621000FFF728FD044604B170E09DF8180018B996
:106220004FF0010B282006909DF818004FF47A716A
:1062300010FB01F0C70902AA2D215046FFF712FDFD
:10624000044604B15AE003AA1C215046FFF70AFD98
:10625000044604B152E004AAB8215046FFF71EFDDF
:10626000044604B14AE001AA2C215046FFF7FAFC8B
:10627000044604B142E09DF804004FF47A5191FBCA
:10628000F0F12248C0F8BC104568AF4202D3C0F814
:10629000B87003E000211D48C0F8B8109DF8080050
:1062A00000F0020070B105AA26215046FFF737FD25
:1062B000044604B122E0BDF814004FF47A7148435B
:1062C000C60900E00026049801029DF80C00001F9A
:1062D000B1FBF0F8701B404501DBA6EB05089DF80B
:1062E000040008FB00F04FEA10194946504600F040
:1062F00017F881B20548A0F8C01000BF00BF04B96C
:106300005C46204607B0BDE8F08F00001C0100206D
:106310005021024AC2F8B410704700001C0100204E
:106320002DE9F04782460E461548D0F8B490D0F8D3
:10633000BC70D0F8B880002E1DDD124890FBF6F03E
:10634000A0F5F274002C01DC002516E0B4F5005F26
:1063500006DA04FB08F007EB0901B0FBF1F405E0F5
:1063600007EB0900B4FBF0F000FB08F42046FFF750
:1063700006FD054601E06FF000452846BDE8F087C0
:106380001C010020006889092DE9F14F82B04FF00F
:1063900018094FF0460A4FF0C80B072001906A46D3
:1063A00040F209110298FFF75DFC8046B8F1000F3A
:1063B00003D04FF0FF30BDE8FE8F9DF8000001993B
:1063C00000EA01046A464FF485710298FFF74AFC1F
:1063D0008046B8F1000F02D04FF0FF30EBE79DF898
:1063E000005009EB0A0005EB850100EB4106601C3B
:1063F00000FB06B73846DEE72DE9FF5F81460D4614
:1064000000200390002780460290019000906FF0DA
:10641000004A4FF0060B002600BF02AA6C21484636
:10642000FFF7EAF9044604B139E00298504501D972
:106430000020029001AA74214846FFF7DDF90446C6
:1064400004B12CE003AA7C214846FFF7D5F90446A5
:1064500004B124E06A4680214846FFF7CDF904469E
:1064600004B11CE0039868610098A861009E00993F
:106470000398884200D9039E0EB94FF218664FF474
:106480007A7102984843B0FBF6F7019800FB0BF0D5
:106490004843B0FBF6F82F61C5F80C8000BF00BF81
:1064A000204604B0BDE8F09F70B5044600260548BC
:1064B00006683246DA212046FFF715FE05462846D3
:1064C00070BD00001C0100200FB4054B10B503A9DE
:1064D000044A029800F0F6FB10BC5DF814FB0000C3
:1064E000B17B0008140200200FB4084B10B504A9BA
:1064F00002AA039800F0E6FB044602A9002000F07F
:1065000012FE204610BC5DF814FB00002771000845
:1065100002E008C8121F08C1002AFAD1704770476C
:10652000002001E001C1121F002AFBD170470000CA
:106530002DE9FE4381460C460027174890F812804B
:1065400000BF02AA64214846FFF736F9064606B1A5
:106550001DE09DF80870208980B2E168CDE9001047
:1065600007FB08F082B2208881B24846236900F018
:1065700039F80546002D02DA4FF0FF3607E0258492
:1065800007FB08F060840448416F616200BF00BFF0
:106590003046BDE8FE8300001C01002002460020BA
:1065A0000F4B586100230E48C3650366436683663C
:1065B000C366A0F85830036700210AE04FF6FF7366
:1065C00007481C3020F811300023143040F82130E7
:1065D000491C0A29F2DB002301488361002070472F
:1065E0001C0100202DE9FF4FA7B017461D4600BF34
:1065F00000202390012022904FF0000900202190DC
:106600001F901E901D901C901B901A90199018902E
:1066100000261790169015901490139012901190D8
:106620004FF4E16007904FF496700490FC48807C32
:10663000C0EB0020039035980C2806D00D280AD016
:106640000E2803D00F2812D106E000BF10202190A1
:1066500000201F9016E000BF10202190F048807CA1
:10666000C82110FB01F0289001201F900AE0039838
:10667000874204D300201F900120239001E00120D5
:106680001F9000BF00BF28982690E54840680590FD
:10669000E348D0F8B8000C90059800F548700B90CE
:1066A000B4210C9848434FF49C71B0FBF1F105986C
:1066B00008440A9040F252310C9848434FF49C71C0
:1066C000B0FBF1F10598084409904FF4AF610C98C4
:1066D00048434FF49C71B0FBF1F1059808440890D1
:1066E0003C2F06DA0B98854203D24FF010090120A7
:1066F0002390A52F06DA0A98854203D24FF010099D
:1067000001202390A52F05DA0A989630854201D200
:1067100001201E9043F698213498884202D9012026
:106720001A9023904B2D02D201201A902390BC483E
:10673000006BC8B1BA48006BA8420AD2B848006BD7
:10674000281A64214843B649096BB0FBF1F019904F
:106750000CE0B348006B401B64214843B049096B0F
:10676000B0FBF1F0199001E000201990199832283F
:1067700001D901201A901A98012816D10020A849A1
:10678000486100240BE04FF6FF71A5481C3020F84B
:1067900014100021143040F82410601C84B20A2C1C
:1067A000F1DB00219E48816112E009240EE0611EA8
:1067B0009B481C3030F8111020F81410611E143062
:1067C00050F8211040F82410601E84B2002CEEDC3A
:1067D0001F98012803D192492898888303E04FF637
:1067E000FF718F4881838E4805638069401C8C4906
:1067F0008861B7F5AF7F02DA0998854208D3B7F50B
:10680000AF7F02DB0898854202D3012023900DE080
:10681000219858B135980C2802D035980E2801D10E
:10682000DDF88490012023900020229006AA4FF4E6
:10683000D6712798FFF716FA8046B8F1000F00D0FE
:1068400011E29DF818002090082324AA4FF48671C5
:106850002798FFF748FA8046B8F1000F00D002E20F
:106860009DF8900000069DF8911000EB01409DF806
:10687000921000EB01209DF8931000EB010A9DF8A7
:10688000940000069DF8951000EB01409DF89610CD
:1068900000EB01209DF8971000EB010B1A980128DE
:1068A00005D0239801281DD1229801281AD12098BB
:1068B0003E280AD03E224FF4D6712798FFF700FCFD
:1068C0008046B8F1000F00D0CDE15548C0F85CA07B
:1068D000C0F860B0C0F864A0C0F868B000205049AB
:1068E000486128E020983E2805D14D48C0F85CA0BA
:1068F000C0F860B004E04A48C0F864A0C0F868B0CE
:106900004748007D00F0010010B93C20069001E0EE
:106910003E2006909DF818204FF4D6712798FFF777
:10692000CFFB8046B8F1000F00D09CE13C484069A5
:10693000401C3B494861239801280CD13848C0F8D5
:106940007490B9F1100F02D1039880B22690269866
:106950002BB0BDE8F08F3248016E806E814205D9C0
:106960002F48016E806E081A109001E000201090F0
:106970002B491098C8661E9818B94FF4E16007902B
:1069800002E04FF4617007902548C16D406E81426E
:1069900005D92348C16D406E081A0F9004E02048C5
:1069A000416EC06D081A0F9007990F98884204D95C
:1069B00007990F98401A0E9001E000200E90079959
:1069C0000F9808440D900E991098884203D30D99A2
:1069D0001098884204D901201D904FF01009CCE096
:1069E0000F484069012802D80520189001E00320D3
:1069F000189005204FF461711E239622CDE90010F6
:106A00002946349800F036F90490002600201790AB
:106A10001690159014901390129000241AE0000024
:106A20001C010020914830F814004FF6FF71884295
:106A30000ED0701C86B28D4830F814101798084498
:106A400017908A48143050F8241014980844149071
:106A5000601C84B20A2C01DA062EE3DB002E07DD6F
:106A60001798B0FBF6F016901498B0FBF6F0139060
:106A70000026002017901490002428E07B4830F86E
:106A800014004FF6FF7188421FD0701C86B2774801
:106A900030F814101698091A744830F81420169813
:106AA000121A179801FB020017907048143050F822
:106AB00024101398091A6D48143050F824201398A4
:106AC000121A149801FB02001490601C84B20A2C64
:106AD00001DA062ED2DB189886420ADB1798B0FB43
:106AE000F6F080B215901498B0FBF6F080B21290D8
:106AF00002E00020159012905D491298884238D229
:106B00001898864202DA4FF0100936E040F6AC5190
:106B1000129888420DD240F6A6610498081A12997C
:106B2000484340F6AC51B0FBF1F104980844119091
:106B300002E040F6A66011904C481C38406F10B936
:106B400011988000119004991598B1EBC00F04D9E9
:106B5000062E02DB01201B900FE011991598884248
:106B600002D201201C9008E001201D904FF0100976
:106B700003E001201D904FF010091F9880B93B4899
:106B80001C38B0F8580000284BDD38481C38B0F8E5
:106B90005800401E81B235481C38A0F8581040E01B
:106BA0001D98012813D131481C38B0F85800801CBA
:106BB00081B22E481C38A0F85810B0F858000428AC
:106BC0002FDD042129481C38A0F8581029E01C9812
:106BD00001281ED125481C38B0F85800002820DDB7
:106BE0004FF0100921481C38B0F8580001280ADD80
:106BF0001E481C38B0F85800401E81B21B481C3893
:106C0000A0F858100DE0002118481C38A0F85810C2
:106C100007E01B98012804D1002114481C38A0F873
:106C2000581012481C38406F88B9B9F1000F0ED0C7
:106C300001240AE04FF6FF710C4820F814100021DF
:106C4000143040F82410601C84B20A2CF2DB074890
:106C50001C38C0F87490B9F1100F02D1039880B2BB
:106C60002690269874E64FF0FF3071E63801002038
:106C7000905F01002DE9F04104460F46DDE906561C
:106C800044B14FF0640C07FB0CFCBCFBF4FC1FFA96
:106C90008CF101E042F20F71994201D310460FE0EE
:106CA000B14201D828460BE0A1EB060CA5EB020887
:106CB0000CFB08FCA3EB0608BCFBF8FCA5EB0C00E6
:106CC000BDE8F0812DE9FF4F8DB00F460546002647
:106CD00006E025280BD0DDE90F1290476D1C761CCD
:106CE00028780028F5D111B03046BDE8F08F002497
:106CF000A246A1460122EC4900E0044315F8013FF9
:106D0000203B02FA03F00842F7D128782A2810D055
:106D10006FF02F022878A0F13001092914D80AEB6E
:106D20008A0102EB410144F0020400EB010A6D1CF0
:106D3000F0E701CF5FEA000A03D544F40054CAF13A
:106D4000000A44F002046D1C28782E2817D115F88B
:106D5000010F44F004042A280ED06FF02F02287887
:106D6000A0F1300109290AD809EB890102EB4101A0
:106D700000EB01096D1CF2E757F8049B6D1C2878A5
:106D80006C280FD006DC4C2817D068280DD06A2854
:106D900014D104E0742810D07A280FD10DE044F407
:106DA00000140AE044F4801401E044F440146978CB
:106DB000814202D104F580146D1C6D1C2A786E2A64
:106DC0001FD00CDC632A31D004DC002A8BD0582A77
:106DD00011D1A3E0642A68D0692A0CD165E0732A36
:106DE0002ED004DC6F2A73D0702A04D19BE0752A60
:106DF0006FD0782A6ED01046DDE90F129047761CCE
:106E000050E1C4F30250022806D0032809D0042818
:106E100001CF09D0066045E101CFF117C0E900615B
:106E200040E101CF06803DE106703BE117F8040B1D
:106E30008DF8000000208DF80100EB46012003E0F2
:106E400057F804BB4FF0FF3061074FF0000102D448
:106E50000DE008F10101884649450FDA8045F8DB6D
:106E60001BF808100029F4D108E008F10101884658
:106E70008142FADB1BF808100029F6D1DDE90F2367
:106E8000AAEB08008146214600F036F9304400EBB9
:106E9000080604E0DDE90F121BF8010B9047B8F17A
:106EA0000108F7D221464846F7E00A21C4F302530D
:106EB0004FF0000B0891022B04D001CFC117032B18
:106EC00009D00AE0FF1D27F00707F7E8020108E0F4
:106ED00032E01FE020E000B2C117042B01D140B224
:106EE000C117031E71F1000307DA4FF0000CD0EB5D
:106EF0000C006CEB01012D2302E0230504D52B23AC
:106F00008DF82430012303E0E30701D02023F7E7C5
:106F1000984658E00A2110E010210EE010204FF0B2
:106F2000000B08900CE010214FF0000B44F004041B
:106F30004FF00809089103E008214FF0000B089179
:106F4000C4F30253022B04D001CF0021032B06D03F
:106F500006E0FF1D27F00707F7E8020103E080B213
:106F6000042B00D1C0B24FF0000823072BD5702AA4
:106F700007D0DDF820C08CF0100C5CEA0B0C05D0BB
:106F80000EE040238DF82430012308E050EA01038D
:106F900006D030238DF824308DF825200223984622
:106FA000DDF820C08CF0080C5CEA0B0C0BD150EA29
:106FB000010301D1630706D530238DF824304FF04B
:106FC0000108A9F10109582A04D038A20B9208AA95
:106FD0000A920BE03AA2F9E75B46089AFDF768FAD5
:106FE0000B9B9B5C0A9A521E0A92137050EA010294
:106FF000F2D10A98ADEB000000F1200B600702D53A
:1070000024F4803401E04FF00109D94502DDA9EBF9
:107010000B0000E0002000EB0B0141440890AAEBBC
:10702000010AE00306D4DDE90F232146504600F0B3
:1070300063F806444FF0000908E009A911F80900B7
:10704000DDE90F12904709F10109761CC145F4DB17
:10705000E0030CD5DDE90F232146504600F04CF843
:10706000064404E0DDE90F1230209047761C0899B1
:10707000481E08900029F5DC08E00A980A99007873
:10708000491C0A91DDE90F129047761CBBF1000103
:10709000ABF1010BF1DC21465046DDE90F2300F096
:1070A00019F806446D1C1BE6092801003031323303
:1070B0003435363738396162636465660000000034
:1070C000303132333435363738394142434445461E
:1070D000000000002DE9F041044600251E46174639
:1070E000880404D405E039462020B0476D1C641E96
:1070F000F9D52846BDE8F0812DE9F0410446002588
:107100001E469046C80301D5302700E0202788049A
:1071100004D505E041463846B0476D1C641EF9D5DC
:107120002846BDE8F0810A68531C0B601070704758
:1071300010B540F2026001F0F7FE4FF4C06001F0BC
:10714000F3FE0223032204210A4800F089FD0022F5
:107150000A21072001F000F80121002000F034FD91
:1071600001220021022000F025FA022000F07EFA20
:1071700010BD00000008014010B5044640F2036055
:1071800001F0D2FE40F2157001F0CEFEC0230322C2
:107190001C210B4800F064FD00220A49204600F043
:1071A000C9FD522300221146204600F09CFE2046D5
:1071B00000F067FE0121204600F0B0FD10BD000088
:1071C000000C0140801A060010B50446204602F06B
:1071D00019F802F0B5F810BD70B505460C46214609
:1071E000284600F0A1F908B900BFFEE704EB8400CF
:1071F000810005F10800405820F0010104EB8400F3
:10720000820005F10800815070BD70B505460C463E
:107210002146284600F088F908B900BFFEE704EBD4
:107220008400810005F10800405840F0010104EBA2
:107230008400820005F10800815070BD70B50546DC
:107240000C462146284600F06FF908B900BFFEE75A
:1072500004EB8400810005F10800405820F0200173
:1072600004EB8400820005F10800815070BD70B508
:1072700004460D462946204600F056F908B900BFDD
:10728000FEE705EB8500810004F10800405820F07E
:10729000010105EB8500820004F108008150002106
:1072A00005EB8500820004F10800815005EB8500A4
:1072B000820004F10C00815005EB8500820004F18E
:1072C0001000815005EB8500820004F1140081500C
:1072D0006068AA000F2191400843606070BD2DE9ED
:1072E000F04104460D4616462946204600F01CF99A
:1072F00008B900BFFEE705EB8500820004F110002D
:107300003168815005EB8500820004F11400B168FA
:107310008150308A81B205EB8500820004F10C00B7
:10732000815005EB8500810004F10800475827F4DF
:107330007C57F1687068084371690843074305EB9F
:107340008500810004F108004750307E01280ED1ED
:1073500005EB8500810004F10800405840F0400131
:1073600005EB8500820004F1080081500DE005EB7B
:107370008500810004F10800405820F0400105EB31
:107380008500820004F108008150707E01280ED132
:1073900005EB8500810004F10800405840F08001B1
:1073A00005EB8500820004F1080081500DE005EB3B
:1073B0008500810004F10800405820F0800105EBB1
:1073C0008500820004F108008150B07E70B905EBA1
:1073D0008500810004F10800405820F0100105EB01
:1073E0008500820004F1080081500DE005EB850066
:1073F000810004F10800405840F0100105EB8500C1
:10740000820004F108008150BDE8F08170B50446A7
:107410000D4616462946204600F086F808B900BFFA
:10742000FEE705EB8500810004F108004058304379
:1074300005EB85018A0004F10801885070BD10B584
:1074400043688C0002FA04F42343436010BD70B516
:10745000034600BF00BF022A04D0042A11D0082A24
:107460002DD11DE018688E0002FA06F600EA060526
:1074700001EB8100860003F10800805900F002044E
:107480001FE018688E0002FA06F600EA060501EB16
:107490008100860003F10800805900F0040410E028
:1074A00018688E0002FA06F600EA060501EB810074
:1074B000860003F10800805900F0080401E000BFD5
:1074C000FEE700BF15B10CB1012070BD0020FCE744
:1074D00070B506460C4615462146304600F024F8A5
:1074E00008B900BFFEE704EB8400810006F1140038
:1074F000455070BD70B505460C462146284600F043
:1075000013F808B900BFFEE704EB8400810005F121
:107510000800405820F4804104EB8400820005F10B
:107520000800815070BD000002460120034B9A42C2
:1075300002D1042900DD0020704700000004024051
:1075400008B900BFFEE7002101604160017681605B
:10755000C1604176016181764161704770B5064630
:107560000C46154621463046FFF7DEFF08B900BF3E
:10757000FEE7A9B204EB8400820006F10C00815002
:1075800070BD70B505460C4621462846FFF7CCFF76
:1075900008B900BFFEE704EB8400810005F10C0090
:1075A000405870BD10B50446204600F0B5FC00F010
:1075B00007FD10BD10B52C4B1B6883432A4C23607C
:1075C000231D1B688343241D2360231D1B688343E5
:1075D000241D2360231D1B688343241D236011B1D8
:1075E00001290ED105E0204B1B6803431E4C23608C
:1075F00008E01D4B1B1D1B6803431B4C241D23600F
:1076000000E000BF00BF22B1012A0FD0022A27D11B
:1076100019E0154B08331B680343134C08342360EF
:10762000231D1B688343241D23601AE00E4B08337F
:107630001B6883430C4C08342360231D1B680343E1
:10764000241D23600DE0084B08331B680343064CE0
:1076500008342360231D1B680343241D236000E0BE
:1076600000BF00BF10BD00000004014001490860D8
:10767000704700001404014001460748006800EA12
:10768000010205481438006800EA010312B10BB189
:10769000012070470020FCE71404014003480088E3
:1076A00002490988491C014A11807047F0010020F5
:1076B0000146086870472DE9F84F06460C46154606
:1076C0004FF0000AD146CB460020009000F0EEF9C2
:1076D00006F00109A6EB0906F70A03E0F80200F03C
:1076E0006FF97F1C7019B7EBD02FF7D9B9F1000FE4
:1076F0001CD02078000200903046009900F0EAF893
:10770000804640F2053000F0D5F84FF4417000F0AB
:10771000D1F840F2023000F0CDF8B8F1000F01D0FE
:10772000B2466FE0B61CA5EB0905641C002728E0F3
:1077300014F82710B800401C205C41EA0021B80072
:10774000801C205C41EA0041B800C01C205C41EA7A
:10775000006B5946304600F0CBF98046361D40F2AA
:10776000053000F0A7F84FF4417000F0A3F840F2A4
:10777000023000F09FF8B8F1000F01D0B24641E0AE
:107780007F1CB7EB950FD3D305F00300C0B305F012
:107790000300012804D0022806D0032816D10AE0ED
:1077A000681E14F800B014E0A81E215C681E205C5E
:1077B00041EA002B0DE0E81E215CA81E205C41EA96
:1077C0000021681E205C41EA004B02E04FF0000BF4
:1077D00000BF00BF5946304600F08AF9804640F2AB
:1077E000053000F067F84FF4417000F063F840F2A4
:1077F000023000F05FF8B8F1000F02D0B24601E0AD
:10780000FFE700BF00F0C6F85046BDE8F88F00B5AE
:107810000346012200BF00F00BF802465B1E012A5E
:1078200001D1002BF7D1012A00D10422104600BD5E
:1078300000200A49C96801F0010109B101200CE0EA
:107840000649C96801F0100109B1032005E00349A8
:10785000C96801F0040101B1022070470020024014
:1078600000B50346012200BF00F00CF802465B1E83
:10787000012A01D1002BF7D1012A00D104221046A0
:1078800000BD000000200A49C96C01F0010109B1E6
:1078900001200CE00649C96C01F0100109B1032078
:1078A00005E00349C96C01F0040101B102207047F1
:1078B00000200240064A02EB9011096800F01F0305
:1078C00001229A401143024B03EB90121160704762
:1078D0000020024070B504460D4600262A48008864
:1078E000B0F5007F35D92948844219D24FF4702071
:1078F000FFF78DFF0646002E43D12548006940F072
:1079000001002349086125804FF47020FFF77FFFB5
:1079100006461F48006920F001001D49086130E05B
:107920004FF47020FFF79CFF064656BB1848006DC9
:1079300040F001001649086525804FF47020FFF7DC
:107940008FFF06461248006D20F0010010490865BF
:1079500017E04FF47020FFF75AFF06468EB90C4827
:10796000006940F001000A49086125804FF4702049
:10797000FFF74DFF06460648006920F00100044964
:107980000861304670BD0000E0F7FF1FFFFF0708E9
:10799000002002400848006940F080000649086164
:1079A00006480088B0F5007F04D90846006D40F015
:1079B000800008657047000000200240E0F7FF1FCC
:1079C00030B5054636480088B0F5007F48D93548BF
:1079D00085421ED24FF47020FFF719FF0446002C99
:1079E0005BD13148006940F002002F490861084628
:1079F0004561006940F0400008614FF47020FFF7D6
:107A000006FF04462848006920F002002649086164
:107A100043E04FF47020FFF723FF0446002C3CD1D5
:107A20002148006D40F002001F4908650846456581
:107A3000C06900F0020008B1084645611A48006DAF
:107A400040F04000184908654FF47020FFF708FF28
:107A500004461548006D20F00200134908651CE03B
:107A60004FF47020FFF7D3FE0446B4B90E48006906
:107A700040F002000C49086108464561006940F089
:107A8000400008614FF47020FFF7C1FE044606482D
:107A9000006920F0020004490861204630BD000062
:107AA000E0F7FF1FFFFF0708002002400C480069B5
:107AB00000F0800020B10B48094948600A4848603E
:107AC0000A480088B0F5007F09D90548006D00F02C
:107AD000800020B103480249486403484864704765
:107AE0000020024023016745AB89EFCDE0F7FF1F7F
:107AF00070B504460D4600262A480088B0F5007F80
:107B000035D92948844219D24FF47020FFF77FFEFF
:107B10000646002E43D12548006940F00100234964
:107B2000086125604FF47020FFF771FE06461F487C
:107B3000006920F001001D49086130E04FF4702019
:107B4000FFF78EFE064656BB1848006D40F0010058
:107B50001649086525604FF47020FFF781FE064640
:107B60001248006D20F001001049086517E04FF43D
:107B70007020FFF74CFE06468EB90C48006940F0B5
:107B800001000A49086125604FF47020FFF73FFEAD
:107B900006460648006920F00100044908613046A5
:107BA00070BD0000E0F7FF1FFFFF07080020024044
:107BB00070B504460D46E1B202480068FCF775FF57
:107BC000002070BD0C00002010B500228B071C0F98
:107BD0000F2303FA04F204290EDA204B9B68934327
:107BE0001E4CA36023469B688C07240F00FA04F404
:107BF00023431A4CA3602FE008290EDA174BDB68E9
:107C00009343164CE3602346DB688C07240F00FA8D
:107C100004F42343114CE3601EE00C290EDA0F4BF1
:107C20001B6993430D4C236123461B698C07240F6A
:107C300000FA04F42343094C23610DE0074B5B6910
:107C40009343064C636123465B698C07240F00FA5B
:107C500004F42343014C636110BD000000000140A7
:107C6000F0B5044616460025002201F00F0501F08C
:107C7000100747B1042E05D145F00305E76B1F43FC
:107C8000E76300E0354300201EE0012787401F40E6
:107C9000C7B122684FEA800C0F2707FA0CF7BA43E6
:107CA000870005FA07F73A43282904D101278740BE
:107CB0001F40676105E0482903D1012787401F4025
:107CC00027612260471CB8B20828DED3082022E0D2
:107CD000012787401F40E7B16268A0F108074FEA1B
:107CE000870C0F2707FA0CF7BA43A0F10807BF006B
:107CF00005FA07F73A43282904D1012787401F4096
:107D0000676105E0482903D1012787401F402761AB
:107D10006260471CB8B21028DAD3F0BD012904D143
:107D2000026842F48062026003E0026822F480622A
:107D3000026070472DE9F05F04460E4692460EB988
:107D400000BFFEE7022001F043F807464648B7FBB4
:107D5000F0F8B8F13C0F01D34FF03C08D4F804B070
:107D60002BF07F0B4BEA080BC4F804B03F48864267
:107D70001ED83D48B7FBF0F000F10109B9F13C0F06
:107D800002D33C20206207E0B9F1020F02D80220A2
:107D9000206201E0C4F820907000B7FBF0F5042DDC
:107DA00000D20425E069C5F30B010843E06158E007
:107DB0002F4886422CD84FF4967008FB00F04FF401
:107DC0007A71B0FBF1F0401C2062BAF1000F08D1CB
:107DD00006EB4600B7FBF0F5E06920F48040E06177
:107DE00009E006EBC60000EB0610B7FBF0F5E06912
:107DF00040F48040E061C5F30B0008B945F001058F
:107E0000E06940F40040E061E0692843E06128E077
:107E1000C8EB0810C0004FF47A71B0FBF1F0401CC1
:107E20002062BAF1000F08D106EB4600B7FBF0F56F
:107E3000E06920F48040E06109E006EBC60000EB59
:107E40000610B7FBF0F5E06940F48040E061E069BE
:107E500040F40040E061E0692843E0610120C4F89B
:107E60009000BDE8F09F000040420F00A086010096
:107E7000801A060001460869C0B27047CAB20261A2
:107E80007047016841F001010160704710B540F290
:107E90000152914202D1426982690AE000EB9112DB
:107EA000126801F01F040123A3409A4300EB9113D1
:107EB0001A6010BD10B5024602EB9110006801F087
:107EC0001F040123A340184008B1012010BD002069
:107ED000FCE712F1020F02D121F0010101E041F0B3
:107EE00001010161704730B50C460021016821F0A5
:107EF000020121430160C3F3090342EA03058560DF
:107F000030BD016841F4807101607047016841F43F
:107F1000007101607047000010B5044640F2026035
:107F200001F002F84FF4C06000F0FEFF40F2117063
:107F300000F0FAFF0423032218211F48FFF790FEE8
:107F40000823032204211C48FFF78AFE1B4801F086
:107F5000AFF92146194801F00DF90021174801F049
:107F6000F0FA0021154801F0DCFA0021134801F075
:107F7000C8FA0021114801F086FA00210F4801F0EB
:107F80007AFA04210D4801F0C4FA08210B4801F0E7
:107F9000D0FA00220921262000F0DEF84FF44171CA
:107FA000064801F078FA40F20631044801F073FA0D
:107FB000024801F05BFA10BD000801400044004097
:107FC00000B587B04FF4A06000F0AEFF06213C483A
:107FD000FFF74DF96846FFF7B3FA01208DF81A0054
:107FE0000020029001208DF81900002003900490D9
:107FF0003448009000208DF8180001904FF4405054
:1080000005906A4606212E48FFF769F905212C489C
:10801000FFF72DF96846FFF793FA00208DF81A0054
:108020002948029001208DF81900002003904FF498
:10803000806004902348009000208DF81800039081
:108040004FF4405005906A4605211D48FFF747F957
:1080500005211B48FFF7F2F805211948FFF74AFAF6
:1080600006211748FFF7EAF806211548FFF742FAFC
:1080700040211448001F01F0E9F9002211461020A8
:1080800000F06AF8022205210D48FFF7BFF905212B
:108090000B48FFF7BAF880210A48001F01F0DEF90B
:1080A00000221146112000F057F802220621044850
:1080B000FFF7ACF906210248FFF78EF807B000BDC4
:1080C0000000024004440040303C00201CB562B671
:1080D0004FF4407000F0A2F803220021012001F0CB
:1080E000E7FD0F49086003220021012001F0E0FDB7
:1080F0000C49086003220021012001F0D9FD0A4942
:1081000008600A48012100236422CDE9001008A17B
:108110000A4802F029FA01F07BFC00BFFEE70000EC
:1081200000000020040000200800002018000020AB
:10813000496E69745461736B000000000D4C0008B7
:1081400000F01F0201219140024A431142F823101E
:108150007047000080E100E02DE9F04103460D4644
:10816000164600240027A0462A48006800F4E06074
:10817000B0F5E06F03D100BF4FF0040830E02548B0
:10818000006800F4E060B0F5C06F03D101274FF044
:10819000030825E01F48006800F4E060B0F5A06F18
:1081A00002D10227B8461BE01A48006800F4E060DC
:1081B000B0F5806F03D103274FF0010810E0154898
:1081C000006800F4E060B0F5407F03D104274FF071
:1081D000000805E04FF4A06000F020F80227B84640
:1081E000C7F1040005FA00F4C8F104010F20C840EB
:1081F0003040044324010848C45403F01F01012007
:1082000088405911890001F1E021C1F80001BDE861
:10821000F08100000CED00E000E400E002490143C1
:10822000024A1160704700000000FA050CED00E002
:1082300010B502480068FCF78FFC10BD0C00002050
:108240002DE9F04105460E461C4807681C480068A9
:10825000001D01F07EF950B91948006890F82C1003
:108260000120884017490968814316480160681C4D
:1082700038B936B112480168091D134801F0A7F951
:108280001AE07C190E4800684460BC4207D20C48D2
:108290000168091D0D48006801F07FF90CE00848ED
:1082A0000168091D0A48006801F077F9094800686B
:1082B000844201D207480460BDE8F08158000020E4
:1082C000440000205C000020900F00204C000020A3
:1082D000480000207400002010B5044601F084F925
:1082E00024480068401C234908602348006840B9BE
:1082F000214804600846006801280DD100F0E0F92B
:108300000AE01E48006838B91B480068C06AE16A84
:10831000884201D81848046019480068401C184970
:10832000086008460068206494F82C1001208840FA
:1083300014490968084313490860E16A01EB8101A7
:10834000114A02EB8100211D01F041F901F076F99B
:108350000A48006868B108480068C06AE16A884253
:1083600007D24FF0805009490860BFF34F8FBFF329
:108370006F8F10BD540000204400002060000020DA
:10838000700000205C000020A00E002004ED00E042
:1083900010B501F029F910480068D0B90F4801F074
:1083A000ECF80F4801F0E9F80C480E4908600C4859
:1083B0000D49086000220C210A2001F079FC0649D1
:1083C00008600846006820B108A10348006801F071
:1083D000F5F901F033F910BD8C000020A40F002046
:1083E000B80F00208400002088000020546D7251D6
:1083F0000000000010B516E001F0F6F80C48C06867
:10840000C468201D01F0A5F80A480068401E09490B
:10841000086009480068401E0749086001F00EF92D
:10842000204600F05FF8044800680028E4D110BD41
:108430007C0F0020540000205000002070B504463E
:108440000D46206C70B1216CE0680144E160D4E914
:108450000210884201D32168E1602846226CE1685D
:10846000FCF702F870BD2DE9F04104460F461546B1
:108470004FF00008A66B206C48B9206800282CD16A
:10848000A06802F05BF980460020A06025E07DB97D
:108490003946226C6068FBF7E7FF216C606808448E
:1084A0006060D4E90101884217D32068606014E05D
:1084B0003946226CE068FBF7D7FF216CE068411A6F
:1084C000E1602168E068884203D2216CA068411A0B
:1084D000E160022D01D106B1761E701CA0634046FA
:1084E000BDE8F08110B50446206B01F0C5F82046C8
:1084F00001F0C2F810BD01464A6A22B10A6B126847
:10850000C2F1080000E00020704700000146084A60
:10851000126812680AB9012200E000220A600A68A3
:1085200022B9034A1268D268106800E00020704740
:108530008400002030B54FF42053174800F00704A2
:108540002CB1C01D20F00700134C041B1B1B02465E
:10855000124C22600024114D6C60D018083820F0B5
:1085600007000F4C206000240D4D2D686C600C4DF1
:108570002D682C601146441A4C60094C24680C602C
:10858000084D4C682C60084D4C682C604FF000443E
:10859000064D2C6030BD0000CC0F0020980000205C
:1085A000A0000020A8000020A4000020B4000020AB
:1085B00000BFFFF71FFF064800680128F9D94FF0F8
:1085C000805004490860BFF34F8FBFF36F8FF0E70F
:1085D000A00E002004ED00E02DE9F04106460D4616
:1085E00017469846069C0DB9246000E02760E663B4
:1085F00025640121204601F0ADFB84F84C80BDE8E4
:10860000F0812DE9F05F82460E4690469B460A9F18
:108610000C9C4FEA8801A522206BFBF737FFA8F1DD
:108620000100216B01EB800929F0070909F007001F
:1086300008B9012000E0002050B900BF502080F3AD
:108640001188BFF34F8FBFF36F8F00BF00BFFEE7EE
:1086500086B1002507E0715D04F134004155705D7D
:1086600000B902E06D1C0A2DF5D300BF00213D20AA
:10867000015502E0002084F83400082F00D30727BA
:10868000E762A7640020E064201D00F083FF04F18E
:10869000180000F07FFF2461C7F10800A061646248
:1086A0000020206584F854005A465146484600F0A0
:1086B00079FB20600B9808B10B980460BDE8F09F2F
:1086C00010B5002407E004EB84010F4A02EB81009F
:1086D00000F053FF641C082CF5D30C4800F04DFF4C
:1086E0000B4800F04AFF0B4800F047FF0A4800F033
:1086F00044FF0A4800F041FF044809490860044863
:108700000849086010BD0000A00E0020400F0020A6
:10871000540F0020680F00207C0F0020900F0020D5
:10872000480000204C00002010B50146164800E02B
:10873000006803688B42FBD30246436813448B42B4
:1087400004D143684C682344436001460A464B68A1
:1087500013440468A34211D10C4C03682468A3425B
:1087600008D04B680468646823444B6003681B6846
:108770000B6005E0054B1B680B6001E003680B60B4
:10878000884200D0016010BD98000020A0000020A9
:108790002DE9F04104460D4616461F464FF00008ED
:1087A00065602461B5420CD8F01BA169884202D3F0
:1087B0004FF0010811E0211D0948006800F0EDFEAE
:1087C0000BE0BE4204D2BD4202D34FF0010804E0E8
:1087D000211D0448006800F0E0FE4046BDE8F0813D
:1087E000880000208400002070B5054600F0FCFEE3
:1087F000A86B08B9012400E0002400F01FFF204608
:1088000070BD70B5054600F0EFFEA86BE96B8842BD
:1088100001D1012400E0002400F010FF204670BDCB
:10882000F8B505460F461A480068C068C468201DA0
:1088300000F08FFE94F8280000F00400E8B1A06971
:1088400041192B463A462046FFF7A2FFD8B1002037
:1088500003462A4601460090204602F023F90646C8
:1088600056B900BF502080F31188BFF34F8FBFF37C
:108870006F8F00BF00BFFEE705E094F8280020F0EE
:10888000010084F828002046216A8847F8BD0000CE
:108890008400002070B586B08BE003980028FBDBD5
:1088A000059C606908B9012000E0002010B9201D76
:1088B00000F04FFE02A800F0DBF8054603980A28F6
:1088C00075D2DFE800F009050739416306083A422E
:1088D00000BF00BF00BF00BF94F8280040F00100B7
:1088E00084F828000498A269811803462A46204685
:1088F000FFF74EFFF8B12046216A884794F8280018
:1089000000F00400B8B1002000900498A16942185A
:1089100000231946204602F0C5F8064656B900BFA6
:10892000502080F31188BFF34F8FBFF36F8F00BFCC
:1089300000BFFEE700BF3BE000BF94F8280020F036
:10894000010084F8280033E000BF94F8280040F0CC
:10895000010084F828000498A061A06908B10120F2
:1089600000E0002050B900BF502080F31188BFF311
:108970004F8FBFF36F8F00BF00BFFEE7A0694119A3
:108980002B462A462046FFF703FF11E094F8280003
:1089900000F0020018B9204600F06EFE05E094F8E1
:1089A000280020F0010084F8280001E0FFE700BF64
:1089B00000BF002203A90448006801F0FDFB002865
:1089C0007FF46BAF06B070BD8C000020F8B5054693
:1089D0000C4601F06BF8684600F04AF8064600982D
:1089E00020BB44B9B54206D801F0AEFF3146284657
:1089F000FFF716FF1CE03CB10E480068006808B99C
:108A0000012000E000200446A91B22460A48006815
:108A100000F0EAFE01F098FF50B94FF0805007498E
:108A20000860BFF34F8FBFF36F8F01E001F08CFF41
:108A3000F8BD0000880000208C00002004ED00E05C
:108A400009480068006808B9012000E0002020B152
:108A50004FF0FF300549086005E003480068C06832
:108A60000068024908607047480000207400002038
:108A700070B5044601F0B8FD054607480068854218
:108A800004D200F00BF80120206001E000202060FB
:108A900001480560284670BD940000202DE9F84388
:108AA00034E025480068C068056823480068C0684D
:108AB000C468201D00F04DFD2046216A884794F8C7
:108AC000280000F0040008B3A0694619AE4207D997
:108AD00066602461211D1848006800F05EFD15E005
:108AE000002003462A4601460090204601F0DAFFA6
:108AF000074657B900BF502080F31188BFF34F8F4E
:108B0000BFF36F8F00BF00BFFEE700BF0A480068D9
:108B1000006808B9012000E000200028C1D0064804
:108B2000D0F8008005480068034908600348C0F891
:108B30000080BDE8F8830000840000208800002049
:108B40000E480068401C08B9012000E0002050B920
:108B500000BF502080F31188BFF34F8FBFF36F8F9A
:108B600000BF00BFFEE700BF502080F31188BFF3B5
:108B70004F8FBFF36F8F00BF00BFFEE7B80000202C
:108B800008B500BF6846FFF7C1FC044620460099BF
:108B9000FFF71CFFFFF77EFEF4E770B5044600F018
:108BA00023FD94F9455010E0606A08B9012000E007
:108BB000002038B904F1240001F07AFE18B100F069
:108BC00073FE00E003E0681E45B2002DECDC00BF40
:108BD000FF2084F8450000F031FD00F005FD94F918
:108BE000445010E0206908B9012000E0002048B995
:108BF00004F1100001F05CFE08B100F055FE681EA3
:108C000045B200E001E0002DECDC00BFFF2084F85D
:108C1000440000F013FD70BD2DE9F04104464FF013
:108C2000000800F043FF5148006808B9FFF782FCD4
:108C30004F480068204000287ED13CB304F1080072
:108C4000A04223D9083404F0070000B304F0070061
:108C5000C0F108002044A04216D904F00700C0F17A
:108C60000800044404F0070008B9012000E00020D7
:108C700068B900BF502080F31188BFF34F8FBFF356
:108C80006F8F00BF00BFFEE7002400E00024002C2F
:108C900054D038480068844250D8374E3046056872
:108CA00001E02E462D686868A04202D2286800289C
:108CB000F7D12E480068854240D0306800F108089E
:108CC000286830606868001B102819D92F1907F030
:108CD000070008B9012000E0002050B900BF502073
:108CE00080F31188BFF34F8FBFF36F8F00BF00BFBA
:108CF000FEE76868001B78606C603846FFF714FD7B
:108D00001C4968680968081A1A490860084600681A
:108D10001A490968884203D2164800681749086052
:108D2000134968680968084368600020286014488F
:108D30000068401C124900E000E0086001F004FEF9
:108D400008F0070008B9012000E0002050B900BF7A
:108D5000502080F31188BFF34F8FBFF36F8F00BF98
:108D600000BFFEE74046BDE8F0810000A000002003
:108D7000B4000020A400002098000020A8000020DB
:108D8000AC0000200648006830B10549096801F1CF
:108D90004C00C96C491C0160014800687047000024
:108DA00044000020001F4FF080730360001F21F07B
:108DB00001030360001F054B036014380260001FAD
:108DC0006FF002030360203870470000418B0008F9
:108DD0002DE9F04F8CB0074600200A904AA090E899
:108DE000004CC068CDE905BECDF810A007900FF289
:108DF0001C1ADAE9000ACDE9020A0FF2101ADAE9C0
:108E0000000ACDE9000A44484068C0F381000B9095
:108E10000B9820B1012804D002283FD103E03F4A3B
:108E20003EE03E4A3CE03C48406800F4803CBCF5F3
:108E3000803F12D13848C06A00F08048B8F1000F76
:108E400001D1364C00E0364C3348406800F400391C
:108E5000B9F5003F02D1334C00E0324C2E48406857
:108E6000C0F383412C48406800F0006008B141F035
:108E700010012948406800F0804008B141F020010D
:108E80000F2901D2891C06E00F2903D33E2901D8FE
:108E9000491C00E03F2104FB01F201E01F4A00BF32
:108EA00000BF1D484068C0F3031504A8465D22FAC0
:108EB00006F319484068C0F3022502A8465D23FA6C
:108EC00006F0099014484068C0F3C2251DF80560FB
:108ED00023FA06F0089037B1012F06D0022F06D0F2
:108EE000032F0AD106E00A9208E00A9306E00998E7
:108EF0000A9003E008980A9000E000BF00BF0A98BB
:108F00000CB0BDE8F08F0000000000000000000081
:108F100001020304060708090010024000127A004B
:108F2000006CDC0200093D00064A02EB9011096862
:108F300000F01F0301229A401143024B03EB9012F1
:108F40001160704700100240064A02EB9011096858
:108F500000F01F0301229A409143024B03EB901251
:108F60001160704700100240064A02EB9011096838
:108F700000F01F0301229A401143024B03EB9012B1
:108F80001160704700100240002000213F4A126823
:108F900042F480323D4B1A6000BF401C3B4A1268CD
:108FA00002F4003119B94FF6FF729042F5D1374AF9
:108FB000126802F400320AB900BFFEE7334AD269F0
:108FC00042F08052314BDA61314A126842F4404239
:108FD0002F4B1A602D4A52682C4B5A601A46526821
:108FE0005A601A46526842F480625A601A465268C1
:108FF00022F440325A601A46526842F440325A60B3
:109000001A465268234B1A40204B5A601A4652683F
:10901000214B1A431D4B5A601A46126842F0807267
:109020001A6000BF194A126802F00072002AF9D0D3
:10903000174A126842F48032154B1A6000BF144A76
:10904000526802F48032002AF9D0114A126842F4C0
:1090500000320F4B1A6000BF0D4A526802F4003212
:10906000002AF9D0094A526822F00302074B5A60DD
:109070001A46526842F002025A6000BF034A526820
:1090800002F00802002AF9D07047000000100240E8
:1090900000700040FFFFC3B70000340810B5FFF7B1
:1090A00073FF10BD70B504460D4603210B48FEF753
:1090B00093F8224603210948FEF70AFA2A460321BB
:1090C0000648FEF74BFA03210448FEF79EF84FF0DE
:1090D000FF310348006801F023F970BD0000024031
:1090E0000800002070B5054605211048FEF774F809
:1090F00005210E48FEF745FAC0F5806084B222468D
:109100000B492846FBF7A0F8094A05210748FEF756
:10911000DFF94FF4806205210448FEF71FFA0521AC
:109120000248FEF772F8204670BD000000000240C1
:10913000303C002070B504460D4606210B48FEF772
:109140004BF8224606210948FEF7C2F92A460621B5
:109150000648FEF703FA06210448FEF756F84FF0DA
:10916000FF310348006801F0DBF870BD00000240E9
:10917000040000202DE9F04704460D460027B846BC
:10918000B94600261D49601A8C421CD006DC1C48DA
:10919000204470B1B0F5806F1FD10FE0B0F5806F43
:1091A00016D0B0F56C4F18D10320FFF711FE07461B
:1091B00014E00220FFF70CFE07460FE00220FFF745
:1091C00007FE07460AE00220FFF702FE074605E019
:1091D0000220FFF7FDFD074600E000BF00BF07EBE0
:1091E0005500B0FBF5F64FF6F07006EA000806F001
:1091F0000F0948EA0900A060BDE8F087004C004074
:1092000000BCFFBF10B5044640F20260FFF78CFEC1
:109210004FF4C060FFF788FE40F20E60FFF784FE57
:109220004FF40073032218211F48FEF719FD4FF475
:109230008063032204211C48FEF712FD1B4800F046
:1092400037F821461948FFF795FF0021174800F02D
:1092500078F90021154800F064F90021134800F066
:1092600050F90021114800F00EF900210F4800F0DC
:1092700002F904210D4800F04CF908210B4800F0D8
:1092800058F900220A212520FEF766FF4FF44171AC
:10929000064800F000F940F20631044800F0FBF8FF
:1092A000024800F0E3F810BD00080140003801401A
:1092B00010B504462049601A8C4228D006DC1F48AD
:1092C000204490B1B0F5806F33D117E0B0F5806FD6
:1092D00026D0B0F56C4F2CD140F20E30FFF744FE93
:1092E00040F20E30FFF730FE24E040F21140FFF76D
:1092F0003BFE40F21140FFF727FE1BE040F2124018
:10930000FFF732FE40F21240FFF71EFE12E040F27D
:109310001340FFF729FE40F21340FFF715FE09E066
:1093200040F21440FFF720FE40F21440FFF70CFE1D
:1093300000E000BF00BF10BD004C004000BCFFBFFC
:1093400000B587B04FF4A060FFF7EEFD03213C4865
:10935000FDF78DFF6846FEF7F3F801208DF81A003F
:109360000020029001208DF8190000200390049045
:109370003448009000208DF8180001904FF44050C0
:1093800005906A4603212E48FDF7A9FF04212C48C9
:10939000FDF76DFF6846FEF7D3F800208DF81A0040
:1093A0002948029001208DF81900002003904FF405
:1093B000806004902348009000208DF818000390EE
:1093C0004FF4405005906A4604211D48FDF787FF81
:1093D00003211B48FDF732FF03211948FEF78AF8E5
:1093E00004211748FDF72AFF04211548FEF782F8EB
:1093F00040211448001F00F029F8002211460F20D8
:10940000FEF7AAFE022204210D48FDF7FFFF04210A
:109410000B48FDF7FAFE80210A48001F00F01EF8F5
:10942000002211460E20FEF797FE02220321044877
:10943000FDF7ECFF03210248FDF7CEFE07B000BDAB
:109440000000024004380140303800200A46002164
:10945000416921F040011143416170470A460021F2
:10946000416921F08001114341617047C16841F4B5
:109470000051C16070470A460021416921F4007122
:109480001143416170470A460021416921F480710E
:1094900011434161704710B500EB9112126801F061
:1094A0001F040123A3401A4300EB91131A6010BD5F
:1094B00010B500EB91521268C1F304440123A3409C
:1094C0009A4300EB91531A6010BD70B50246002319
:1094D0000024C1F38910105801F01F060125B54082
:1094E00000EA050302EB91500068C1F30446012530
:1094F000B54000EA050414B10BB1012070BD002095
:10950000FCE7C26822F4C062C260C2680A43C2605B
:1095100070470A460021C16821F004011143C1606F
:109520007047026922F44052026102690A430261F3
:1095300070470A460021C16821F008011143C1604B
:109540007047C26822F48052C260C2680A43C26097
:10955000704701460A69D1E901309860D1E90103F9
:1095600058605068884201D18868506000200861C6
:109570001068401E10601068704700F108014160DB
:109580004FF0FF31816000F10801C16001610021ED
:109590000160704700210161704710B502460B68F9
:1095A0005C1C0CB9106907E002F1080000E040689B
:1095B000446824689C42FAD944684C604C68A160B5
:1095C000886041600A611468641C146010BD4268C0
:1095D0004A6093688B609368596091600861036882
:1095E0005B1C03607047000000BF502080F31188AF
:1095F000BFF34F8FBFF36F8F00BF0E480068401C52
:109600000C49086008460068012812D10A48006821
:10961000C0B208B9012000E0002050B900BF5020BE
:1096200080F31188BFF34F8FBFF36F8F00BF00BF70
:10963000FEE77047B800002004ED00E00D48006828
:1096400050B900BF502080F31188BFF34F8FBFF394
:109650006F8F00BF00BFFEE706480068401E054947
:1096600008600846006820B9002080F3118800BF18
:1096700000BF7047B800002070B506463546002E82
:1096800044D0083D2C46224960680968084008B16A
:10969000012000E0002050B900BF502080F3118865
:1096A000BFF34F8FBFF36F8F00BF00BFFEE720688F
:1096B00008B9012000E0002050B900BF502080F31D
:1096C0001188BFF34F8FBFF36F8F00BF00BFFEE75E
:1096D0000F49606809680840C0B12068B0B90C49FA
:1096E000606809688843606000F0E0F909496068D3
:1096F00009680844074908602046FFF715F806483E
:109700000068401C0449086001F01EF970BD0000AB
:10971000B4000020A4000020B000002000204FF082
:10972000E02108618861064800684FF47A71B0FB57
:10973000F1F0401E4FF0E0214861072008617047BA
:109740004000002070B5FAF769FD0446102C16D3CE
:1097500004F1E02090F8F05315480078854201DBD1
:10976000012000E0002050B900BF502080F3118894
:10977000BFF34F8FBFF36F8F00BF00BFFEE70D48F1
:10978000006800F4E0600C490968884201D80120B3
:1097900000E0002050B900BF502080F31188BFF3D3
:1097A0004F8FBFF36F8F00BF00BFFEE770BD00009B
:1097B000BC0000200CED00E0C000002002460020AC
:1097C0000BE0084B53F8303033B9064B43F83010F8
:1097D00003EBC0035A6002E0401C0828F1D300BF2D
:1097E00070470000600E00202DE9F04105460E464E
:1097F00017462C46FFF7F8FE94F94400401C10B9B8
:10980000002084F8440094F94500401C10B9002061
:1098100084F84500FFF712FFA06B28B93A4631469D
:1098200004F1240000F062F82046FFF7B6F9BDE825
:10983000F081000070B504460025D4B112480068DC
:1098400008B9012000E0002050B900BF502080F38B
:109850001188BFF34F8FBFF36F8F00BF00BFFEE7CC
:1098600000F024F900212046FEF7EAFC01F06CF834
:1098700005463DB94FF0805004490860BFF34F8F53
:10988000BFF36F8F70BD00008000002004ED00E08A
:109890000349096801600349096841607047000095
:1098A0006C0000205800002001200149086070472A
:1098B0006800002070B504460D4654B900BF502022
:1098C00080F31188BFF34F8FBFF36F8F00BF00BFCE
:1098D000FEE70548016818312046FFF75EFE0121CA
:1098E0002846FEF7ADFC70BD4400002070B505466B
:1098F0000E46144655B900BF502080F31188BFF3BF
:109900004F8FBFF36F8F00BF00BFFEE706480168AF
:1099100018312846FFF75BFE0CB14FF0FF362146A9
:109920003046FEF78DFC70BD440000202DE9F04765
:1099300006460F4634464FF00109002E60D0E06C19
:1099400050B900BF502080F31188BFF34F8FBFF391
:109950006F8F00BF00BFFEE7A06CB84201D23D464A
:1099600000E0A56CE06AA8424AD0E06C012847D12B
:1099700024480068844201D0012000E0002050B952
:1099800000BF502080F31188BFF34F8FBFF36F8F5C
:1099900000BF00BFFEE7D4F82C80E562A06900F0AC
:1099A000004010B9C5F10800A06108EB8801164A13
:1099B00002EB81016069884201D1012000E00020B2
:1099C000F0B1201DFFF7C5FD40B994F82C1001201F
:1099D00088400E49096881430C48016094F82C10B6
:1099E0000120884009490968084308490860E16A7C
:1099F00001EB8101044A02EB8100211DFFF7E7FD25
:109A0000BDE8F08744000020A00E00205C0000208C
:109A10001CB51E4800210B468222CDE900101CA176
:109A20001D4800F0A1FD0446012C02D101F00EF802
:109A30000446012C15D100BF502080F31188BFF3DC
:109A40004F8FBFF36F8F00BF4FF0FF301349086097
:109A500001201349086000201249086000F074F8E2
:109A600010E0601C08B1012000E0002050B900BFE8
:109A7000502080F31188BFF34F8FBFF36F8F00BF6B
:109A800000BFFEE7084800681CBD00007800002009
:109A900049444C4500000000B185000874000020D6
:109AA00060000020580000207C0000200248006870
:109AB000401C014908607047800000201D48006874
:109AC00018B101201C49086032E000201A490860E2
:109AD0001A480068B0FA80F0C0F11F0101EB810064
